{
	"contracts/SaitaSwapPair.sol": {
		"SaitaSwapPair": {
			"abi": [
				{
					"inputs": [],
					"payable": false,
					"stateMutability": "nonpayable",
					"type": "constructor"
				},
				{
					"anonymous": false,
					"inputs": [
						{
							"indexed": true,
							"internalType": "address",
							"name": "owner",
							"type": "address"
						},
						{
							"indexed": true,
							"internalType": "address",
							"name": "spender",
							"type": "address"
						},
						{
							"indexed": false,
							"internalType": "uint256",
							"name": "value",
							"type": "uint256"
						}
					],
					"name": "Approval",
					"type": "event"
				},
				{
					"anonymous": false,
					"inputs": [
						{
							"indexed": true,
							"internalType": "address",
							"name": "sender",
							"type": "address"
						},
						{
							"indexed": false,
							"internalType": "uint256",
							"name": "amount0",
							"type": "uint256"
						},
						{
							"indexed": false,
							"internalType": "uint256",
							"name": "amount1",
							"type": "uint256"
						},
						{
							"indexed": true,
							"internalType": "address",
							"name": "to",
							"type": "address"
						}
					],
					"name": "Burn",
					"type": "event"
				},
				{
					"anonymous": false,
					"inputs": [
						{
							"indexed": true,
							"internalType": "address",
							"name": "sender",
							"type": "address"
						},
						{
							"indexed": false,
							"internalType": "uint256",
							"name": "amount0",
							"type": "uint256"
						},
						{
							"indexed": false,
							"internalType": "uint256",
							"name": "amount1",
							"type": "uint256"
						}
					],
					"name": "Mint",
					"type": "event"
				},
				{
					"anonymous": false,
					"inputs": [
						{
							"indexed": true,
							"internalType": "address",
							"name": "sender",
							"type": "address"
						},
						{
							"indexed": false,
							"internalType": "uint256",
							"name": "amount0In",
							"type": "uint256"
						},
						{
							"indexed": false,
							"internalType": "uint256",
							"name": "amount1In",
							"type": "uint256"
						},
						{
							"indexed": false,
							"internalType": "uint256",
							"name": "amount0Out",
							"type": "uint256"
						},
						{
							"indexed": false,
							"internalType": "uint256",
							"name": "amount1Out",
							"type": "uint256"
						},
						{
							"indexed": true,
							"internalType": "address",
							"name": "to",
							"type": "address"
						}
					],
					"name": "Swap",
					"type": "event"
				},
				{
					"anonymous": false,
					"inputs": [
						{
							"indexed": false,
							"internalType": "uint112",
							"name": "reserve0",
							"type": "uint112"
						},
						{
							"indexed": false,
							"internalType": "uint112",
							"name": "reserve1",
							"type": "uint112"
						}
					],
					"name": "Sync",
					"type": "event"
				},
				{
					"anonymous": false,
					"inputs": [
						{
							"indexed": true,
							"internalType": "address",
							"name": "from",
							"type": "address"
						},
						{
							"indexed": true,
							"internalType": "address",
							"name": "to",
							"type": "address"
						},
						{
							"indexed": false,
							"internalType": "uint256",
							"name": "value",
							"type": "uint256"
						}
					],
					"name": "Transfer",
					"type": "event"
				},
				{
					"constant": true,
					"inputs": [],
					"name": "DOMAIN_SEPARATOR",
					"outputs": [
						{
							"internalType": "bytes32",
							"name": "",
							"type": "bytes32"
						}
					],
					"payable": false,
					"stateMutability": "view",
					"type": "function"
				},
				{
					"constant": true,
					"inputs": [],
					"name": "MINIMUM_LIQUIDITY",
					"outputs": [
						{
							"internalType": "uint256",
							"name": "",
							"type": "uint256"
						}
					],
					"payable": false,
					"stateMutability": "view",
					"type": "function"
				},
				{
					"constant": true,
					"inputs": [],
					"name": "PERMIT_TYPEHASH",
					"outputs": [
						{
							"internalType": "bytes32",
							"name": "",
							"type": "bytes32"
						}
					],
					"payable": false,
					"stateMutability": "view",
					"type": "function"
				},
				{
					"constant": true,
					"inputs": [],
					"name": "SWAP_FEE_DENOMINATOR",
					"outputs": [
						{
							"internalType": "uint256",
							"name": "",
							"type": "uint256"
						}
					],
					"payable": false,
					"stateMutability": "view",
					"type": "function"
				},
				{
					"constant": true,
					"inputs": [],
					"name": "SWAP_FEE_NUMERATOR",
					"outputs": [
						{
							"internalType": "uint256",
							"name": "",
							"type": "uint256"
						}
					],
					"payable": false,
					"stateMutability": "view",
					"type": "function"
				},
				{
					"constant": true,
					"inputs": [
						{
							"internalType": "address",
							"name": "",
							"type": "address"
						},
						{
							"internalType": "address",
							"name": "",
							"type": "address"
						}
					],
					"name": "allowance",
					"outputs": [
						{
							"internalType": "uint256",
							"name": "",
							"type": "uint256"
						}
					],
					"payable": false,
					"stateMutability": "view",
					"type": "function"
				},
				{
					"constant": false,
					"inputs": [
						{
							"internalType": "address",
							"name": "spender",
							"type": "address"
						},
						{
							"internalType": "uint256",
							"name": "value",
							"type": "uint256"
						}
					],
					"name": "approve",
					"outputs": [
						{
							"internalType": "bool",
							"name": "",
							"type": "bool"
						}
					],
					"payable": false,
					"stateMutability": "nonpayable",
					"type": "function"
				},
				{
					"constant": true,
					"inputs": [
						{
							"internalType": "address",
							"name": "",
							"type": "address"
						}
					],
					"name": "balanceOf",
					"outputs": [
						{
							"internalType": "uint256",
							"name": "",
							"type": "uint256"
						}
					],
					"payable": false,
					"stateMutability": "view",
					"type": "function"
				},
				{
					"constant": false,
					"inputs": [
						{
							"internalType": "address",
							"name": "to",
							"type": "address"
						}
					],
					"name": "burn",
					"outputs": [
						{
							"internalType": "uint256",
							"name": "amount0",
							"type": "uint256"
						},
						{
							"internalType": "uint256",
							"name": "amount1",
							"type": "uint256"
						}
					],
					"payable": false,
					"stateMutability": "nonpayable",
					"type": "function"
				},
				{
					"constant": true,
					"inputs": [],
					"name": "decimals",
					"outputs": [
						{
							"internalType": "uint8",
							"name": "",
							"type": "uint8"
						}
					],
					"payable": false,
					"stateMutability": "view",
					"type": "function"
				},
				{
					"constant": true,
					"inputs": [],
					"name": "factory",
					"outputs": [
						{
							"internalType": "address",
							"name": "",
							"type": "address"
						}
					],
					"payable": false,
					"stateMutability": "view",
					"type": "function"
				},
				{
					"constant": true,
					"inputs": [],
					"name": "getReserves",
					"outputs": [
						{
							"internalType": "uint112",
							"name": "_reserve0",
							"type": "uint112"
						},
						{
							"internalType": "uint112",
							"name": "_reserve1",
							"type": "uint112"
						},
						{
							"internalType": "uint32",
							"name": "_blockTimestampLast",
							"type": "uint32"
						}
					],
					"payable": false,
					"stateMutability": "view",
					"type": "function"
				},
				{
					"constant": false,
					"inputs": [
						{
							"internalType": "address",
							"name": "_token0",
							"type": "address"
						},
						{
							"internalType": "address",
							"name": "_token1",
							"type": "address"
						}
					],
					"name": "initialize",
					"outputs": [],
					"payable": false,
					"stateMutability": "nonpayable",
					"type": "function"
				},
				{
					"constant": true,
					"inputs": [],
					"name": "kLast",
					"outputs": [
						{
							"internalType": "uint256",
							"name": "",
							"type": "uint256"
						}
					],
					"payable": false,
					"stateMutability": "view",
					"type": "function"
				},
				{
					"constant": false,
					"inputs": [
						{
							"internalType": "address",
							"name": "to",
							"type": "address"
						}
					],
					"name": "mint",
					"outputs": [
						{
							"internalType": "uint256",
							"name": "liquidity",
							"type": "uint256"
						}
					],
					"payable": false,
					"stateMutability": "nonpayable",
					"type": "function"
				},
				{
					"constant": true,
					"inputs": [],
					"name": "name",
					"outputs": [
						{
							"internalType": "string",
							"name": "",
							"type": "string"
						}
					],
					"payable": false,
					"stateMutability": "view",
					"type": "function"
				},
				{
					"constant": true,
					"inputs": [
						{
							"internalType": "address",
							"name": "",
							"type": "address"
						}
					],
					"name": "nonces",
					"outputs": [
						{
							"internalType": "uint256",
							"name": "",
							"type": "uint256"
						}
					],
					"payable": false,
					"stateMutability": "view",
					"type": "function"
				},
				{
					"constant": false,
					"inputs": [
						{
							"internalType": "address",
							"name": "owner",
							"type": "address"
						},
						{
							"internalType": "address",
							"name": "spender",
							"type": "address"
						},
						{
							"internalType": "uint256",
							"name": "value",
							"type": "uint256"
						},
						{
							"internalType": "uint256",
							"name": "deadline",
							"type": "uint256"
						},
						{
							"internalType": "uint8",
							"name": "v",
							"type": "uint8"
						},
						{
							"internalType": "bytes32",
							"name": "r",
							"type": "bytes32"
						},
						{
							"internalType": "bytes32",
							"name": "s",
							"type": "bytes32"
						}
					],
					"name": "permit",
					"outputs": [],
					"payable": false,
					"stateMutability": "nonpayable",
					"type": "function"
				},
				{
					"constant": true,
					"inputs": [],
					"name": "price0CumulativeLast",
					"outputs": [
						{
							"internalType": "uint256",
							"name": "",
							"type": "uint256"
						}
					],
					"payable": false,
					"stateMutability": "view",
					"type": "function"
				},
				{
					"constant": true,
					"inputs": [],
					"name": "price1CumulativeLast",
					"outputs": [
						{
							"internalType": "uint256",
							"name": "",
							"type": "uint256"
						}
					],
					"payable": false,
					"stateMutability": "view",
					"type": "function"
				},
				{
					"constant": false,
					"inputs": [
						{
							"internalType": "address",
							"name": "to",
							"type": "address"
						}
					],
					"name": "skim",
					"outputs": [],
					"payable": false,
					"stateMutability": "nonpayable",
					"type": "function"
				},
				{
					"constant": false,
					"inputs": [
						{
							"internalType": "uint256",
							"name": "amount0Out",
							"type": "uint256"
						},
						{
							"internalType": "uint256",
							"name": "amount1Out",
							"type": "uint256"
						},
						{
							"internalType": "address",
							"name": "to",
							"type": "address"
						},
						{
							"internalType": "bytes",
							"name": "data",
							"type": "bytes"
						}
					],
					"name": "swap",
					"outputs": [],
					"payable": false,
					"stateMutability": "nonpayable",
					"type": "function"
				},
				{
					"constant": true,
					"inputs": [],
					"name": "symbol",
					"outputs": [
						{
							"internalType": "string",
							"name": "",
							"type": "string"
						}
					],
					"payable": false,
					"stateMutability": "view",
					"type": "function"
				},
				{
					"constant": false,
					"inputs": [],
					"name": "sync",
					"outputs": [],
					"payable": false,
					"stateMutability": "nonpayable",
					"type": "function"
				},
				{
					"constant": true,
					"inputs": [],
					"name": "token0",
					"outputs": [
						{
							"internalType": "address",
							"name": "",
							"type": "address"
						}
					],
					"payable": false,
					"stateMutability": "view",
					"type": "function"
				},
				{
					"constant": true,
					"inputs": [],
					"name": "token1",
					"outputs": [
						{
							"internalType": "address",
							"name": "",
							"type": "address"
						}
					],
					"payable": false,
					"stateMutability": "view",
					"type": "function"
				},
				{
					"constant": true,
					"inputs": [],
					"name": "totalSupply",
					"outputs": [
						{
							"internalType": "uint256",
							"name": "",
							"type": "uint256"
						}
					],
					"payable": false,
					"stateMutability": "view",
					"type": "function"
				},
				{
					"constant": false,
					"inputs": [
						{
							"internalType": "address",
							"name": "to",
							"type": "address"
						},
						{
							"internalType": "uint256",
							"name": "value",
							"type": "uint256"
						}
					],
					"name": "transfer",
					"outputs": [
						{
							"internalType": "bool",
							"name": "",
							"type": "bool"
						}
					],
					"payable": false,
					"stateMutability": "nonpayable",
					"type": "function"
				},
				{
					"constant": false,
					"inputs": [
						{
							"internalType": "address",
							"name": "from",
							"type": "address"
						},
						{
							"internalType": "address",
							"name": "to",
							"type": "address"
						},
						{
							"internalType": "uint256",
							"name": "value",
							"type": "uint256"
						}
					],
					"name": "transferFrom",
					"outputs": [
						{
							"internalType": "bool",
							"name": "",
							"type": "bool"
						}
					],
					"payable": false,
					"stateMutability": "nonpayable",
					"type": "function"
				}
			],
			"devdoc": {
				"methods": {}
			},
			"evm": {
				"assembly": "    /* \"contracts/SaitaSwapPair.sol\":326:9978  contract SaitaSwapPair is ISaitaSwapPair, SaitaSwapERC20 {... */\n  mstore(0x40, 0x80)\n    /* \"contracts/SaitaSwapPair.sol\":718:719  2 */\n  0x02\n    /* \"contracts/SaitaSwapPair.sol\":687:719  uint public SWAP_FEE_NUMERATOR=2 */\n  0x08\n  sstore\n    /* \"contracts/SaitaSwapPair.sol\":758:762  1000 */\n  0x03e8\n    /* \"contracts/SaitaSwapPair.sol\":725:762  uint public SWAP_FEE_DENOMINATOR=1000 */\n  0x09\n  sstore\n    /* \"contracts/SaitaSwapPair.sol\":1265:1266  1 */\n  0x01\n    /* \"contracts/SaitaSwapPair.sol\":1241:1266  uint private unlocked = 1 */\n  0x0e\n  sstore\n    /* \"contracts/SaitaSwapPair.sol\":2321:2379  constructor() public {... */\n  callvalue\n    /* \"--CODEGEN--\":8:17   */\n  dup1\n    /* \"--CODEGEN--\":5:7   */\n  iszero\n  tag_1\n  jumpi\n    /* \"--CODEGEN--\":30:31   */\n  0x00\n    /* \"--CODEGEN--\":27:28   */\n  dup1\n    /* \"--CODEGEN--\":20:32   */\n  revert\n    /* \"--CODEGEN--\":5:7   */\ntag_1:\n  pop\n    /* \"contracts/SaitaSwapERC20.sol\":1607:1702  keccak256('EIP712Domain(string name,string version,uint256 chainId,address verifyingContract)') */\n  mload(0x40)\n    /* \"contracts/SaitaSwapERC20.sol\":1511:1518  chainid */\n  chainid\n  swap1\n    /* \"contracts/SaitaSwapERC20.sol\":1607:1702  keccak256('EIP712Domain(string name,string version,uint256 chainId,address verifyingContract)') */\n  dup1\n  0x52\n  data_8b73c3c69bb8fe3d512ecc4cf759cc79239f7b179b0ffacaa9a75d522b39400f\n  dup3\n  codecopy\n  0x40\n  dup1\n  mload\n  swap2\n  dup3\n  swap1\n  sub\n  0x52\n  add\n  dup3\n  keccak256\n    /* \"contracts/SaitaSwapERC20.sol\":1736:1740  name */\n  dup3\n  dup3\n  add\n  dup3\n  mstore\n  0x0d\n  dup4\n  mstore\n  shl(0x98, 0x536169746153776170204c5073)\n  0x20\n  swap4\n  dup5\n  add\n  mstore\n    /* \"contracts/SaitaSwapERC20.sol\":1770:1780  bytes('1') */\n  dup2\n  mload\n  dup1\n  dup4\n  add\n  dup4\n  mstore\n  0x01\n  dup2\n  mstore\n  shl(0xf8, 0x31)\n  swap1\n  dup5\n  add\n  mstore\n    /* \"contracts/SaitaSwapERC20.sol\":1579:1851  abi.encode(... */\n  dup2\n  mload\n  dup1\n  dup5\n  add\n  swap2\n  swap1\n  swap2\n  mstore\n    /* \"contracts/SaitaSwapERC20.sol\":1720:1742  keccak256(bytes(name)) */\n  0x1651e190aacb4c4c6e236d176db06acca329adaed8d7377e08d89572632a33ba\n    /* \"contracts/SaitaSwapERC20.sol\":1579:1851  abi.encode(... */\n  dup2\n  dup4\n  add\n  mstore\n    /* \"contracts/SaitaSwapERC20.sol\":1760:1781  keccak256(bytes('1')) */\n  0xc89efdaa54c0f20c7adf612882df0950f5a951637e0307cdcb4c672f298b8bc6\n    /* \"contracts/SaitaSwapERC20.sol\":1579:1851  abi.encode(... */\n  0x60\n  dup3\n  add\n  mstore\n  0x80\n  dup2\n  add\n  swap5\n  swap1\n  swap5\n  mstore\n    /* \"contracts/SaitaSwapERC20.sol\":1832:1836  this */\n  address\n    /* \"contracts/SaitaSwapERC20.sol\":1579:1851  abi.encode(... */\n  0xa0\n  dup1\n  dup7\n  add\n  swap2\n  swap1\n  swap2\n  mstore\n  dup2\n  mload\n    /* \"--CODEGEN--\":26:47   */\n  dup1\n  dup7\n  sub\n    /* \"--CODEGEN--\":22:54   */\n  swap1\n  swap2\n  add\n    /* \"--CODEGEN--\":6:55   */\n  dup2\n  mstore\n    /* \"contracts/SaitaSwapERC20.sol\":1579:1851  abi.encode(... */\n  0xc0\n  swap1\n  swap5\n  add\n  swap1\n  mstore\n    /* \"contracts/SaitaSwapERC20.sol\":1556:1861  keccak256(... */\n  dup3\n  mload\n  swap3\n  add\n  swap2\n  swap1\n  swap2\n  keccak256\n    /* \"contracts/SaitaSwapERC20.sol\":1537:1553  DOMAIN_SEPARATOR */\n  0x03\n    /* \"contracts/SaitaSwapERC20.sol\":1537:1861  DOMAIN_SEPARATOR = keccak256(... */\n  sstore\n  pop\n    /* \"contracts/SaitaSwapPair.sol\":2352:2359  factory */\n  0x05\n    /* \"contracts/SaitaSwapPair.sol\":2352:2372  factory = msg.sender */\n  dup1\n  sload\n  not(sub(shl(0xa0, 0x01), 0x01))\n  and\n    /* \"contracts/SaitaSwapPair.sol\":2362:2372  msg.sender */\n  caller\n    /* \"contracts/SaitaSwapPair.sol\":2352:2372  factory = msg.sender */\n  or\n  swap1\n  sstore\n  0x23d6\n  dup1\n    /* \"contracts/SaitaSwapPair.sol\":326:9978  contract SaitaSwapPair is ISaitaSwapPair, SaitaSwapERC20 {... */\n  dataOffset(sub_0)\n  0x00\n  codecopy\n  0x00\n  return\nstop\ndata_8b73c3c69bb8fe3d512ecc4cf759cc79239f7b179b0ffacaa9a75d522b39400f 454950373132446f6d61696e28737472696e67206e616d652c737472696e672076657273696f6e2c75696e7432353620636861696e49642c6164647265737320766572696679696e67436f6e747261637429\n\nsub_0: assembly {\n        /* \"contracts/SaitaSwapPair.sol\":326:9978  contract SaitaSwapPair is ISaitaSwapPair, SaitaSwapERC20 {... */\n      mstore(0x40, 0x80)\n      callvalue\n        /* \"--CODEGEN--\":8:17   */\n      dup1\n        /* \"--CODEGEN--\":5:7   */\n      iszero\n      tag_1\n      jumpi\n        /* \"--CODEGEN--\":30:31   */\n      0x00\n        /* \"--CODEGEN--\":27:28   */\n      dup1\n        /* \"--CODEGEN--\":20:32   */\n      revert\n        /* \"--CODEGEN--\":5:7   */\n    tag_1:\n        /* \"contracts/SaitaSwapPair.sol\":326:9978  contract SaitaSwapPair is ISaitaSwapPair, SaitaSwapERC20 {... */\n      pop\n      jumpi(tag_2, lt(calldatasize, 0x04))\n      shr(0xe0, calldataload(0x00))\n      dup1\n      0x70a08231\n      gt\n      tag_32\n      jumpi\n      dup1\n      0xba9a7a56\n      gt\n      tag_33\n      jumpi\n      dup1\n      0xd21220a7\n      gt\n      tag_34\n      jumpi\n      dup1\n      0xd21220a7\n      eq\n      tag_28\n      jumpi\n      dup1\n      0xd505accf\n      eq\n      tag_29\n      jumpi\n      dup1\n      0xdd62ed3e\n      eq\n      tag_30\n      jumpi\n      dup1\n      0xfff6cae9\n      eq\n      tag_31\n      jumpi\n      jump(tag_2)\n    tag_34:\n      dup1\n      0xba9a7a56\n      eq\n      tag_24\n      jumpi\n      dup1\n      0xbc25cf77\n      eq\n      tag_25\n      jumpi\n      dup1\n      0xbee62fc7\n      eq\n      tag_26\n      jumpi\n      dup1\n      0xc45a0155\n      eq\n      tag_27\n      jumpi\n      jump(tag_2)\n    tag_33:\n      dup1\n      0x7ecebe00\n      gt\n      tag_35\n      jumpi\n      dup1\n      0x7ecebe00\n      eq\n      tag_20\n      jumpi\n      dup1\n      0x89afcb44\n      eq\n      tag_21\n      jumpi\n      dup1\n      0x95d89b41\n      eq\n      tag_22\n      jumpi\n      dup1\n      0xa9059cbb\n      eq\n      tag_23\n      jumpi\n      jump(tag_2)\n    tag_35:\n      dup1\n      0x70a08231\n      eq\n      tag_17\n      jumpi\n      dup1\n      0x71ebeacc\n      eq\n      tag_18\n      jumpi\n      dup1\n      0x7464fc3d\n      eq\n      tag_19\n      jumpi\n      jump(tag_2)\n    tag_32:\n      dup1\n      0x30adf81f\n      gt\n      tag_36\n      jumpi\n      dup1\n      0x485cc955\n      gt\n      tag_37\n      jumpi\n      dup1\n      0x485cc955\n      eq\n      tag_13\n      jumpi\n      dup1\n      0x5909c0d5\n      eq\n      tag_14\n      jumpi\n      dup1\n      0x5a3d5493\n      eq\n      tag_15\n      jumpi\n      dup1\n      0x6a627842\n      eq\n      tag_16\n      jumpi\n      jump(tag_2)\n    tag_37:\n      dup1\n      0x30adf81f\n      eq\n      tag_10\n      jumpi\n      dup1\n      0x313ce567\n      eq\n      tag_11\n      jumpi\n      dup1\n      0x3644e515\n      eq\n      tag_12\n      jumpi\n      jump(tag_2)\n    tag_36:\n      dup1\n      0x095ea7b3\n      gt\n      tag_38\n      jumpi\n      dup1\n      0x095ea7b3\n      eq\n      tag_6\n      jumpi\n      dup1\n      0x0dfe1681\n      eq\n      tag_7\n      jumpi\n      dup1\n      0x18160ddd\n      eq\n      tag_8\n      jumpi\n      dup1\n      0x23b872dd\n      eq\n      tag_9\n      jumpi\n      jump(tag_2)\n    tag_38:\n      dup1\n      0x022c0d9f\n      eq\n      tag_3\n      jumpi\n      dup1\n      0x06fdde03\n      eq\n      tag_4\n      jumpi\n      dup1\n      0x0902f1ac\n      eq\n      tag_5\n      jumpi\n    tag_2:\n      0x00\n      dup1\n      revert\n        /* \"contracts/SaitaSwapPair.sol\":7439:9399  function swap(uint amount0Out, uint amount1Out, address to, bytes calldata data) external lock {... */\n    tag_3:\n      tag_39\n      0x04\n      dup1\n      calldatasize\n      sub\n        /* \"--CODEGEN--\":13:16   */\n      0x80\n        /* \"--CODEGEN--\":8:11   */\n      dup2\n        /* \"--CODEGEN--\":5:17   */\n      lt\n        /* \"--CODEGEN--\":2:4   */\n      iszero\n      tag_40\n      jumpi\n        /* \"--CODEGEN--\":30:31   */\n      0x00\n        /* \"--CODEGEN--\":27:28   */\n      dup1\n        /* \"--CODEGEN--\":20:32   */\n      revert\n        /* \"--CODEGEN--\":2:4   */\n    tag_40:\n        /* \"contracts/SaitaSwapPair.sol\":7439:9399  function swap(uint amount0Out, uint amount1Out, address to, bytes calldata data) external lock {... */\n      dup2\n      calldataload\n      swap2\n      0x20\n      dup2\n      add\n      calldataload\n      swap2\n      0x40\n      dup3\n      add\n      calldataload\n      sub(shl(0xa0, 0x01), 0x01)\n      and\n      swap2\n      swap1\n      dup2\n      add\n      swap1\n      0x80\n      dup2\n      add\n      0x60\n      dup3\n      add\n      calldataload\n        /* \"--CODEGEN--\":21:32   */\n      0x0100000000\n        /* \"--CODEGEN--\":5:33   */\n      dup2\n      gt\n        /* \"--CODEGEN--\":2:4   */\n      iszero\n      tag_41\n      jumpi\n        /* \"--CODEGEN--\":46:47   */\n      0x00\n        /* \"--CODEGEN--\":43:44   */\n      dup1\n        /* \"--CODEGEN--\":36:48   */\n      revert\n        /* \"--CODEGEN--\":2:4   */\n    tag_41:\n        /* \"contracts/SaitaSwapPair.sol\":7439:9399  function swap(uint amount0Out, uint amount1Out, address to, bytes calldata data) external lock {... */\n      dup3\n      add\n        /* \"--CODEGEN--\":35:44   */\n      dup4\n        /* \"--CODEGEN--\":28:32   */\n      0x20\n        /* \"--CODEGEN--\":12:26   */\n      dup3\n        /* \"--CODEGEN--\":8:33   */\n      add\n        /* \"--CODEGEN--\":5:45   */\n      gt\n        /* \"--CODEGEN--\":2:4   */\n      iszero\n      tag_42\n      jumpi\n        /* \"--CODEGEN--\":58:59   */\n      0x00\n        /* \"--CODEGEN--\":55:56   */\n      dup1\n        /* \"--CODEGEN--\":48:60   */\n      revert\n        /* \"--CODEGEN--\":2:4   */\n    tag_42:\n        /* \"contracts/SaitaSwapPair.sol\":7439:9399  function swap(uint amount0Out, uint amount1Out, address to, bytes calldata data) external lock {... */\n      dup1\n      calldataload\n      swap1\n      0x20\n      add\n      swap2\n        /* \"--CODEGEN--\":100:109   */\n      dup5\n        /* \"--CODEGEN--\":95:96   */\n      0x01\n        /* \"--CODEGEN--\":81:93   */\n      dup4\n        /* \"--CODEGEN--\":77:97   */\n      mul\n        /* \"--CODEGEN--\":67:75   */\n      dup5\n        /* \"--CODEGEN--\":63:98   */\n      add\n        /* \"--CODEGEN--\":60:110   */\n      gt\n        /* \"--CODEGEN--\":39:50   */\n      0x0100000000\n        /* \"--CODEGEN--\":25:37   */\n      dup4\n        /* \"--CODEGEN--\":22:51   */\n      gt\n        /* \"--CODEGEN--\":11:118   */\n      or\n        /* \"--CODEGEN--\":8:10   */\n      iszero\n      tag_43\n      jumpi\n        /* \"--CODEGEN--\":131:132   */\n      0x00\n        /* \"--CODEGEN--\":128:129   */\n      dup1\n        /* \"--CODEGEN--\":121:133   */\n      revert\n        /* \"--CODEGEN--\":8:10   */\n    tag_43:\n      pop\n        /* \"contracts/SaitaSwapPair.sol\":7439:9399  function swap(uint amount0Out, uint amount1Out, address to, bytes calldata data) external lock {... */\n      swap1\n      swap3\n      pop\n      swap1\n      pop\n      tag_44\n      jump\t// in\n    tag_39:\n      stop\n        /* \"contracts/SaitaSwapERC20.sol\":223:268  string public constant name = 'SaitaSwap LPs' */\n    tag_4:\n      tag_45\n      tag_46\n      jump\t// in\n    tag_45:\n      0x40\n      dup1\n      mload\n      0x20\n      dup1\n      dup3\n      mstore\n      dup4\n      mload\n      dup2\n      dup4\n      add\n      mstore\n      dup4\n      mload\n      swap2\n      swap3\n      dup4\n      swap3\n      swap1\n      dup4\n      add\n      swap2\n      dup6\n      add\n      swap1\n      dup1\n      dup4\n      dup4\n      0x00\n        /* \"--CODEGEN--\":8:108   */\n    tag_47:\n        /* \"--CODEGEN--\":33:36   */\n      dup4\n        /* \"--CODEGEN--\":30:31   */\n      dup2\n        /* \"--CODEGEN--\":27:37   */\n      lt\n        /* \"--CODEGEN--\":8:108   */\n      iszero\n      tag_49\n      jumpi\n        /* \"--CODEGEN--\":90:101   */\n      dup2\n      dup2\n      add\n        /* \"--CODEGEN--\":84:102   */\n      mload\n        /* \"--CODEGEN--\":71:82   */\n      dup4\n      dup3\n      add\n        /* \"--CODEGEN--\":64:103   */\n      mstore\n        /* \"--CODEGEN--\":52:54   */\n      0x20\n        /* \"--CODEGEN--\":45:55   */\n      add\n        /* \"--CODEGEN--\":8:108   */\n      jump(tag_47)\n    tag_49:\n        /* \"--CODEGEN--\":12:26   */\n      pop\n        /* \"contracts/SaitaSwapERC20.sol\":223:268  string public constant name = 'SaitaSwap LPs' */\n      pop\n      pop\n      pop\n      swap1\n      pop\n      swap1\n      dup2\n      add\n      swap1\n      0x1f\n      and\n      dup1\n      iszero\n      tag_50\n      jumpi\n      dup1\n      dup3\n      sub\n      dup1\n      mload\n      0x01\n      dup4\n      0x20\n      sub\n      0x0100\n      exp\n      sub\n      not\n      and\n      dup2\n      mstore\n      0x20\n      add\n      swap2\n      pop\n    tag_50:\n      pop\n      swap3\n      pop\n      pop\n      pop\n      mload(0x40)\n      dup1\n      swap2\n      sub\n      swap1\n      return\n        /* \"contracts/SaitaSwapPair.sol\":1409:1636  function getReserves() public view returns (uint112 _reserve0, uint112 _reserve1, uint32 _blockTimestampLast) {... */\n    tag_5:\n      tag_51\n      tag_52\n      jump\t// in\n    tag_51:\n      0x40\n      dup1\n      mload\n      sub(shl(0x70, 0x01), 0x01)\n      swap5\n      dup6\n      and\n      dup2\n      mstore\n      swap3\n      swap1\n      swap4\n      and\n      0x20\n      dup4\n      add\n      mstore\n      0xffffffff\n      and\n      dup2\n      dup4\n      add\n      mstore\n      swap1\n      mload\n      swap1\n      dup2\n      swap1\n      sub\n      0x60\n      add\n      swap1\n      return\n        /* \"contracts/SaitaSwapERC20.sol\":2682:2826  function approve(address spender, uint value) external returns (bool) {... */\n    tag_6:\n      tag_53\n      0x04\n      dup1\n      calldatasize\n      sub\n        /* \"--CODEGEN--\":13:15   */\n      0x40\n        /* \"--CODEGEN--\":8:11   */\n      dup2\n        /* \"--CODEGEN--\":5:16   */\n      lt\n        /* \"--CODEGEN--\":2:4   */\n      iszero\n      tag_54\n      jumpi\n        /* \"--CODEGEN--\":29:30   */\n      0x00\n        /* \"--CODEGEN--\":26:27   */\n      dup1\n        /* \"--CODEGEN--\":19:31   */\n      revert\n        /* \"--CODEGEN--\":2:4   */\n    tag_54:\n      pop\n        /* \"contracts/SaitaSwapERC20.sol\":2682:2826  function approve(address spender, uint value) external returns (bool) {... */\n      dup1\n      calldataload\n      sub(shl(0xa0, 0x01), 0x01)\n      and\n      swap1\n      0x20\n      add\n      calldataload\n      tag_55\n      jump\t// in\n    tag_53:\n      0x40\n      dup1\n      mload\n      swap2\n      iszero\n      iszero\n      dup3\n      mstore\n      mload\n      swap1\n      dup2\n      swap1\n      sub\n      0x20\n      add\n      swap1\n      return\n        /* \"contracts/SaitaSwapPair.sol\":628:649  address public token0 */\n    tag_7:\n      tag_56\n      tag_57\n      jump\t// in\n    tag_56:\n      0x40\n      dup1\n      mload\n      0x01\n      dup1\n      0xa0\n      shl\n      sub\n      swap1\n      swap3\n      and\n      dup3\n      mstore\n      mload\n      swap1\n      dup2\n      swap1\n      sub\n      0x20\n      add\n      swap1\n      return\n        /* \"contracts/SaitaSwapERC20.sol\":358:382  uint  public totalSupply */\n    tag_8:\n      tag_58\n      tag_59\n      jump\t// in\n    tag_58:\n      0x40\n      dup1\n      mload\n      swap2\n      dup3\n      mstore\n      mload\n      swap1\n      dup2\n      swap1\n      sub\n      0x20\n      add\n      swap1\n      return\n        /* \"contracts/SaitaSwapERC20.sol\":2974:3269  function transferFrom(address from, address to, uint value) external returns (bool) {... */\n    tag_9:\n      tag_53\n      0x04\n      dup1\n      calldatasize\n      sub\n        /* \"--CODEGEN--\":13:15   */\n      0x60\n        /* \"--CODEGEN--\":8:11   */\n      dup2\n        /* \"--CODEGEN--\":5:16   */\n      lt\n        /* \"--CODEGEN--\":2:4   */\n      iszero\n      tag_61\n      jumpi\n        /* \"--CODEGEN--\":29:30   */\n      0x00\n        /* \"--CODEGEN--\":26:27   */\n      dup1\n        /* \"--CODEGEN--\":19:31   */\n      revert\n        /* \"--CODEGEN--\":2:4   */\n    tag_61:\n      pop\n      sub(shl(0xa0, 0x01), 0x01)\n        /* \"contracts/SaitaSwapERC20.sol\":2974:3269  function transferFrom(address from, address to, uint value) external returns (bool) {... */\n      dup2\n      calldataload\n      dup2\n      and\n      swap2\n      0x20\n      dup2\n      add\n      calldataload\n      swap1\n      swap2\n      and\n      swap1\n      0x40\n      add\n      calldataload\n      tag_62\n      jump\t// in\n        /* \"contracts/SaitaSwapERC20.sol\":644:752  bytes32 public constant PERMIT_TYPEHASH = 0x6e71edae12b1b97f4d1f60370fef10105fa2faae0126114a169c64845d6126c9 */\n    tag_10:\n      tag_58\n      tag_64\n      jump\t// in\n        /* \"contracts/SaitaSwapERC20.sol\":317:352  uint8 public constant decimals = 18 */\n    tag_11:\n      tag_65\n      tag_66\n      jump\t// in\n    tag_65:\n      0x40\n      dup1\n      mload\n      0xff\n      swap1\n      swap3\n      and\n      dup3\n      mstore\n      mload\n      swap1\n      dup2\n      swap1\n      sub\n      0x20\n      add\n      swap1\n      return\n        /* \"contracts/SaitaSwapERC20.sol\":503:534  bytes32 public DOMAIN_SEPARATOR */\n    tag_12:\n      tag_58\n      tag_68\n      jump\t// in\n        /* \"contracts/SaitaSwapPair.sol\":2441:2647  function initialize(address _token0, address _token1) external {... */\n    tag_13:\n      tag_39\n      0x04\n      dup1\n      calldatasize\n      sub\n        /* \"--CODEGEN--\":13:15   */\n      0x40\n        /* \"--CODEGEN--\":8:11   */\n      dup2\n        /* \"--CODEGEN--\":5:16   */\n      lt\n        /* \"--CODEGEN--\":2:4   */\n      iszero\n      tag_70\n      jumpi\n        /* \"--CODEGEN--\":29:30   */\n      0x00\n        /* \"--CODEGEN--\":26:27   */\n      dup1\n        /* \"--CODEGEN--\":19:31   */\n      revert\n        /* \"--CODEGEN--\":2:4   */\n    tag_70:\n      pop\n      sub(shl(0xa0, 0x01), 0x01)\n        /* \"contracts/SaitaSwapPair.sol\":2441:2647  function initialize(address _token0, address _token1) external {... */\n      dup2\n      calldataload\n      dup2\n      and\n      swap2\n      0x20\n      add\n      calldataload\n      and\n      tag_71\n      jump\t// in\n        /* \"contracts/SaitaSwapPair.sol\":1061:1093  uint public price0CumulativeLast */\n    tag_14:\n      tag_58\n      tag_73\n      jump\t// in\n        /* \"contracts/SaitaSwapPair.sol\":1099:1131  uint public price1CumulativeLast */\n    tag_15:\n      tag_58\n      tag_75\n      jump\t// in\n        /* \"contracts/SaitaSwapPair.sol\":4558:5777  function mint(address to) external lock returns (uint liquidity) {... */\n    tag_16:\n      tag_58\n      0x04\n      dup1\n      calldatasize\n      sub\n        /* \"--CODEGEN--\":13:15   */\n      0x20\n        /* \"--CODEGEN--\":8:11   */\n      dup2\n        /* \"--CODEGEN--\":5:16   */\n      lt\n        /* \"--CODEGEN--\":2:4   */\n      iszero\n      tag_77\n      jumpi\n        /* \"--CODEGEN--\":29:30   */\n      0x00\n        /* \"--CODEGEN--\":26:27   */\n      dup1\n        /* \"--CODEGEN--\":19:31   */\n      revert\n        /* \"--CODEGEN--\":2:4   */\n    tag_77:\n      pop\n        /* \"contracts/SaitaSwapPair.sol\":4558:5777  function mint(address to) external lock returns (uint liquidity) {... */\n      calldataload\n      sub(shl(0xa0, 0x01), 0x01)\n      and\n      tag_78\n      jump\t// in\n        /* \"contracts/SaitaSwapERC20.sol\":388:429  mapping(address => uint) public balanceOf */\n    tag_17:\n      tag_58\n      0x04\n      dup1\n      calldatasize\n      sub\n        /* \"--CODEGEN--\":13:15   */\n      0x20\n        /* \"--CODEGEN--\":8:11   */\n      dup2\n        /* \"--CODEGEN--\":5:16   */\n      lt\n        /* \"--CODEGEN--\":2:4   */\n      iszero\n      tag_80\n      jumpi\n        /* \"--CODEGEN--\":29:30   */\n      0x00\n        /* \"--CODEGEN--\":26:27   */\n      dup1\n        /* \"--CODEGEN--\":19:31   */\n      revert\n        /* \"--CODEGEN--\":2:4   */\n    tag_80:\n      pop\n        /* \"contracts/SaitaSwapERC20.sol\":388:429  mapping(address => uint) public balanceOf */\n      calldataload\n      sub(shl(0xa0, 0x01), 0x01)\n      and\n      tag_81\n      jump\t// in\n        /* \"contracts/SaitaSwapPair.sol\":725:762  uint public SWAP_FEE_DENOMINATOR=1000 */\n    tag_18:\n      tag_58\n      tag_83\n      jump\t// in\n        /* \"contracts/SaitaSwapPair.sol\":1137:1154  uint public kLast */\n    tag_19:\n      tag_58\n      tag_85\n      jump\t// in\n        /* \"contracts/SaitaSwapERC20.sol\":758:796  mapping(address => uint) public nonces */\n    tag_20:\n      tag_58\n      0x04\n      dup1\n      calldatasize\n      sub\n        /* \"--CODEGEN--\":13:15   */\n      0x20\n        /* \"--CODEGEN--\":8:11   */\n      dup2\n        /* \"--CODEGEN--\":5:16   */\n      lt\n        /* \"--CODEGEN--\":2:4   */\n      iszero\n      tag_87\n      jumpi\n        /* \"--CODEGEN--\":29:30   */\n      0x00\n        /* \"--CODEGEN--\":26:27   */\n      dup1\n        /* \"--CODEGEN--\":19:31   */\n      revert\n        /* \"--CODEGEN--\":2:4   */\n    tag_87:\n      pop\n        /* \"contracts/SaitaSwapERC20.sol\":758:796  mapping(address => uint) public nonces */\n      calldataload\n      sub(shl(0xa0, 0x01), 0x01)\n      and\n      tag_88\n      jump\t// in\n        /* \"contracts/SaitaSwapPair.sol\":5886:7330  function burn(address to) external lock returns (uint amount0, uint amount1) {... */\n    tag_21:\n      tag_89\n      0x04\n      dup1\n      calldatasize\n      sub\n        /* \"--CODEGEN--\":13:15   */\n      0x20\n        /* \"--CODEGEN--\":8:11   */\n      dup2\n        /* \"--CODEGEN--\":5:16   */\n      lt\n        /* \"--CODEGEN--\":2:4   */\n      iszero\n      tag_90\n      jumpi\n        /* \"--CODEGEN--\":29:30   */\n      0x00\n        /* \"--CODEGEN--\":26:27   */\n      dup1\n        /* \"--CODEGEN--\":19:31   */\n      revert\n        /* \"--CODEGEN--\":2:4   */\n    tag_90:\n      pop\n        /* \"contracts/SaitaSwapPair.sol\":5886:7330  function burn(address to) external lock returns (uint amount0, uint amount1) {... */\n      calldataload\n      sub(shl(0xa0, 0x01), 0x01)\n      and\n      tag_91\n      jump\t// in\n    tag_89:\n      0x40\n      dup1\n      mload\n      swap3\n      dup4\n      mstore\n      0x20\n      dup4\n      add\n      swap2\n      swap1\n      swap2\n      mstore\n      dup1\n      mload\n      swap2\n      dup3\n      swap1\n      sub\n      add\n      swap1\n      return\n        /* \"contracts/SaitaSwapERC20.sol\":274:311  string public constant symbol = 'slp' */\n    tag_22:\n      tag_45\n      tag_93\n      jump\t// in\n        /* \"contracts/SaitaSwapERC20.sol\":2832:2968  function transfer(address to, uint value) external returns (bool) {... */\n    tag_23:\n      tag_53\n      0x04\n      dup1\n      calldatasize\n      sub\n        /* \"--CODEGEN--\":13:15   */\n      0x40\n        /* \"--CODEGEN--\":8:11   */\n      dup2\n        /* \"--CODEGEN--\":5:16   */\n      lt\n        /* \"--CODEGEN--\":2:4   */\n      iszero\n      tag_99\n      jumpi\n        /* \"--CODEGEN--\":29:30   */\n      0x00\n        /* \"--CODEGEN--\":26:27   */\n      dup1\n        /* \"--CODEGEN--\":19:31   */\n      revert\n        /* \"--CODEGEN--\":2:4   */\n    tag_99:\n      pop\n        /* \"contracts/SaitaSwapERC20.sol\":2832:2968  function transfer(address to, uint value) external returns (bool) {... */\n      dup1\n      calldataload\n      sub(shl(0xa0, 0x01), 0x01)\n      and\n      swap1\n      0x20\n      add\n      calldataload\n      tag_100\n      jump\t// in\n        /* \"contracts/SaitaSwapPair.sol\":453:499  uint public constant MINIMUM_LIQUIDITY = 10**3 */\n    tag_24:\n      tag_58\n      tag_102\n      jump\t// in\n        /* \"contracts/SaitaSwapPair.sol\":9445:9774  function skim(address to) external lock {... */\n    tag_25:\n      tag_39\n      0x04\n      dup1\n      calldatasize\n      sub\n        /* \"--CODEGEN--\":13:15   */\n      0x20\n        /* \"--CODEGEN--\":8:11   */\n      dup2\n        /* \"--CODEGEN--\":5:16   */\n      lt\n        /* \"--CODEGEN--\":2:4   */\n      iszero\n      tag_104\n      jumpi\n        /* \"--CODEGEN--\":29:30   */\n      0x00\n        /* \"--CODEGEN--\":26:27   */\n      dup1\n        /* \"--CODEGEN--\":19:31   */\n      revert\n        /* \"--CODEGEN--\":2:4   */\n    tag_104:\n      pop\n        /* \"contracts/SaitaSwapPair.sol\":9445:9774  function skim(address to) external lock {... */\n      calldataload\n      sub(shl(0xa0, 0x01), 0x01)\n      and\n      tag_105\n      jump\t// in\n        /* \"contracts/SaitaSwapPair.sol\":687:719  uint public SWAP_FEE_NUMERATOR=2 */\n    tag_26:\n      tag_58\n      tag_107\n      jump\t// in\n        /* \"contracts/SaitaSwapPair.sol\":600:622  address public factory */\n    tag_27:\n      tag_56\n      tag_109\n      jump\t// in\n        /* \"contracts/SaitaSwapPair.sol\":655:676  address public token1 */\n    tag_28:\n      tag_56\n      tag_111\n      jump\t// in\n        /* \"contracts/SaitaSwapERC20.sol\":3275:3945  function permit(address owner, address spender, uint value, uint deadline, uint8 v, bytes32 r, bytes32 s) external ReChain {... */\n    tag_29:\n      tag_39\n      0x04\n      dup1\n      calldatasize\n      sub\n        /* \"--CODEGEN--\":13:16   */\n      0xe0\n        /* \"--CODEGEN--\":8:11   */\n      dup2\n        /* \"--CODEGEN--\":5:17   */\n      lt\n        /* \"--CODEGEN--\":2:4   */\n      iszero\n      tag_113\n      jumpi\n        /* \"--CODEGEN--\":30:31   */\n      0x00\n        /* \"--CODEGEN--\":27:28   */\n      dup1\n        /* \"--CODEGEN--\":20:32   */\n      revert\n        /* \"--CODEGEN--\":2:4   */\n    tag_113:\n      pop\n      sub(shl(0xa0, 0x01), 0x01)\n        /* \"contracts/SaitaSwapERC20.sol\":3275:3945  function permit(address owner, address spender, uint value, uint deadline, uint8 v, bytes32 r, bytes32 s) external ReChain {... */\n      dup2\n      calldataload\n      dup2\n      and\n      swap2\n      0x20\n      dup2\n      add\n      calldataload\n      swap1\n      swap2\n      and\n      swap1\n      0x40\n      dup2\n      add\n      calldataload\n      swap1\n      0x60\n      dup2\n      add\n      calldataload\n      swap1\n      0xff\n      0x80\n      dup3\n      add\n      calldataload\n      and\n      swap1\n      0xa0\n      dup2\n      add\n      calldataload\n      swap1\n      0xc0\n      add\n      calldataload\n      tag_114\n      jump\t// in\n        /* \"contracts/SaitaSwapERC20.sol\":435:496  mapping(address => mapping(address => uint)) public allowance */\n    tag_30:\n      tag_58\n      0x04\n      dup1\n      calldatasize\n      sub\n        /* \"--CODEGEN--\":13:15   */\n      0x40\n        /* \"--CODEGEN--\":8:11   */\n      dup2\n        /* \"--CODEGEN--\":5:16   */\n      lt\n        /* \"--CODEGEN--\":2:4   */\n      iszero\n      tag_116\n      jumpi\n        /* \"--CODEGEN--\":29:30   */\n      0x00\n        /* \"--CODEGEN--\":26:27   */\n      dup1\n        /* \"--CODEGEN--\":19:31   */\n      revert\n        /* \"--CODEGEN--\":2:4   */\n    tag_116:\n      pop\n      sub(shl(0xa0, 0x01), 0x01)\n        /* \"contracts/SaitaSwapERC20.sol\":435:496  mapping(address => mapping(address => uint)) public allowance */\n      dup2\n      calldataload\n      dup2\n      and\n      swap2\n      0x20\n      add\n      calldataload\n      and\n      tag_117\n      jump\t// in\n        /* \"contracts/SaitaSwapPair.sol\":9820:9976  function sync() external lock {... */\n    tag_31:\n      tag_39\n      tag_119\n      jump\t// in\n        /* \"contracts/SaitaSwapPair.sol\":7439:9399  function swap(uint amount0Out, uint amount1Out, address to, bytes calldata data) external lock {... */\n    tag_44:\n        /* \"contracts/SaitaSwapPair.sol\":1306:1314  unlocked */\n      sload(0x0e)\n        /* \"contracts/SaitaSwapPair.sol\":1318:1319  1 */\n      0x01\n        /* \"contracts/SaitaSwapPair.sol\":1306:1319  unlocked == 1 */\n      eq\n        /* \"contracts/SaitaSwapPair.sol\":1298:1341  require(unlocked == 1, 'SaitaSwap: LOCKED') */\n      tag_121\n      jumpi\n      0x40\n      dup1\n      mload\n      shl(0xe5, 0x461bcd)\n      dup2\n      mstore\n      0x20\n      0x04\n      dup3\n      add\n      mstore\n      0x11\n      0x24\n      dup3\n      add\n      mstore\n      shl(0x7a, 0x14d85a5d1854ddd85c0e881313d0d2d151)\n      0x44\n      dup3\n      add\n      mstore\n      swap1\n      mload\n      swap1\n      dup2\n      swap1\n      sub\n      0x64\n      add\n      swap1\n      revert\n    tag_121:\n        /* \"contracts/SaitaSwapPair.sol\":1362:1363  0 */\n      0x00\n        /* \"contracts/SaitaSwapPair.sol\":1351:1359  unlocked */\n      0x0e\n        /* \"contracts/SaitaSwapPair.sol\":1351:1363  unlocked = 0 */\n      sstore\n        /* \"contracts/SaitaSwapPair.sol\":7552:7566  amount0Out > 0 */\n      dup5\n      iszero\n      iszero\n      dup1\n        /* \"contracts/SaitaSwapPair.sol\":7552:7584  amount0Out > 0 || amount1Out > 0 */\n      tag_123\n      jumpi\n      pop\n        /* \"contracts/SaitaSwapPair.sol\":7583:7584  0 */\n      0x00\n        /* \"contracts/SaitaSwapPair.sol\":7570:7580  amount1Out */\n      dup5\n        /* \"contracts/SaitaSwapPair.sol\":7570:7584  amount1Out > 0 */\n      gt\n        /* \"contracts/SaitaSwapPair.sol\":7552:7584  amount0Out > 0 || amount1Out > 0 */\n    tag_123:\n        /* \"contracts/SaitaSwapPair.sol\":7544:7626  require(amount0Out > 0 || amount1Out > 0, 'SaitaSwap: INSUFFICIENT_OUTPUT_AMOUNT') */\n      tag_124\n      jumpi\n      mload(0x40)\n      shl(0xe5, 0x461bcd)\n      dup2\n      mstore\n      0x04\n      add\n      dup1\n      dup1\n      0x20\n      add\n      dup3\n      dup2\n      sub\n      dup3\n      mstore\n      0x25\n      dup2\n      mstore\n      0x20\n      add\n      dup1\n      data_8fc7f9c8d80b681ea54bd06a118a94fe4d1bef35d2499ddb0eb71b6a664bd6ba\n      0x25\n      swap2\n      codecopy\n      0x40\n      add\n      swap2\n      pop\n      pop\n      mload(0x40)\n      dup1\n      swap2\n      sub\n      swap1\n      revert\n    tag_124:\n        /* \"contracts/SaitaSwapPair.sol\":7637:7654  uint112 _reserve0 */\n      0x00\n        /* \"contracts/SaitaSwapPair.sol\":7656:7673  uint112 _reserve1 */\n      dup1\n        /* \"contracts/SaitaSwapPair.sol\":7678:7691  getReserves() */\n      tag_125\n        /* \"contracts/SaitaSwapPair.sol\":7678:7689  getReserves */\n      tag_52\n        /* \"contracts/SaitaSwapPair.sol\":7678:7691  getReserves() */\n      jump\t// in\n    tag_125:\n      pop\n        /* \"contracts/SaitaSwapPair.sol\":7636:7691  (uint112 _reserve0, uint112 _reserve1,) = getReserves() */\n      swap1\n      swap3\n      pop\n      swap1\n      pop\n      sub(shl(0x70, 0x01), 0x01)\n        /* \"contracts/SaitaSwapPair.sol\":7724:7746  amount0Out < _reserve0 */\n      dup3\n      and\n      dup8\n      lt\n        /* \"contracts/SaitaSwapPair.sol\":7724:7772  amount0Out < _reserve0 && amount1Out < _reserve1 */\n      dup1\n      iszero\n      tag_126\n      jumpi\n      pop\n      sub(shl(0x70, 0x01), 0x01)\n        /* \"contracts/SaitaSwapPair.sol\":7750:7772  amount1Out < _reserve1 */\n      dup2\n      and\n      dup7\n      lt\n        /* \"contracts/SaitaSwapPair.sol\":7724:7772  amount0Out < _reserve0 && amount1Out < _reserve1 */\n    tag_126:\n        /* \"contracts/SaitaSwapPair.sol\":7716:7810  require(amount0Out < _reserve0 && amount1Out < _reserve1, 'SaitaSwap: INSUFFICIENT_LIQUIDITY') */\n      tag_127\n      jumpi\n      mload(0x40)\n      shl(0xe5, 0x461bcd)\n      dup2\n      mstore\n      0x04\n      add\n      dup1\n      dup1\n      0x20\n      add\n      dup3\n      dup2\n      sub\n      dup3\n      mstore\n      0x21\n      dup2\n      mstore\n      0x20\n      add\n      dup1\n      data_5017166a195bb30912ef8c95a2dee0e03788aa587911ab5bc5bbf5cd0090e903\n      0x21\n      swap2\n      codecopy\n      0x40\n      add\n      swap2\n      pop\n      pop\n      mload(0x40)\n      dup1\n      swap2\n      sub\n      swap1\n      revert\n    tag_127:\n        /* \"contracts/SaitaSwapPair.sol\":7950:7956  token0 */\n      sload(0x06)\n        /* \"contracts/SaitaSwapPair.sol\":7984:7990  token1 */\n      sload(0x07)\n        /* \"contracts/SaitaSwapPair.sol\":7821:7834  uint balance0 */\n      0x00\n      swap2\n      dup3\n      swap2\n      sub(shl(0xa0, 0x01), 0x01)\n        /* \"contracts/SaitaSwapPair.sol\":7950:7956  token0 */\n      swap2\n      dup3\n      and\n      swap2\n        /* \"contracts/SaitaSwapPair.sol\":7984:7990  token1 */\n      swap1\n      dup2\n      and\n      swap1\n        /* \"contracts/SaitaSwapPair.sol\":8008:8021  to != _token0 */\n      dup10\n      and\n      dup3\n      eq\n      dup1\n      iszero\n      swap1\n        /* \"contracts/SaitaSwapPair.sol\":8008:8038  to != _token0 && to != _token1 */\n      tag_128\n      jumpi\n      pop\n      sub(shl(0xa0, 0x01), 0x01)\n        /* \"contracts/SaitaSwapPair.sol\":8025:8038  to != _token1 */\n      dup10\n      dup2\n      and\n      swap1\n      dup3\n      and\n      eq\n      iszero\n        /* \"contracts/SaitaSwapPair.sol\":8008:8038  to != _token0 && to != _token1 */\n    tag_128:\n        /* \"contracts/SaitaSwapPair.sol\":8000:8064  require(to != _token0 && to != _token1, 'SaitaSwap: INVALID_TO') */\n      tag_129\n      jumpi\n      0x40\n      dup1\n      mload\n      shl(0xe5, 0x461bcd)\n      dup2\n      mstore\n      0x20\n      0x04\n      dup3\n      add\n      mstore\n      0x15\n      0x24\n      dup3\n      add\n      mstore\n      shl(0x58, 0x5361697461537761703a20494e56414c49445f544f)\n      0x44\n      dup3\n      add\n      mstore\n      swap1\n      mload\n      swap1\n      dup2\n      swap1\n      sub\n      0x64\n      add\n      swap1\n      revert\n    tag_129:\n        /* \"contracts/SaitaSwapPair.sol\":8078:8092  amount0Out > 0 */\n      dup11\n      iszero\n        /* \"contracts/SaitaSwapPair.sol\":8074:8132  if (amount0Out > 0) _safeTransfer(_token0, to, amount0Out) */\n      tag_131\n      jumpi\n        /* \"contracts/SaitaSwapPair.sol\":8094:8132  _safeTransfer(_token0, to, amount0Out) */\n      tag_131\n        /* \"contracts/SaitaSwapPair.sol\":8108:8115  _token0 */\n      dup3\n        /* \"contracts/SaitaSwapPair.sol\":8117:8119  to */\n      dup11\n        /* \"contracts/SaitaSwapPair.sol\":8121:8131  amount0Out */\n      dup14\n        /* \"contracts/SaitaSwapPair.sol\":8094:8107  _safeTransfer */\n      tag_132\n        /* \"contracts/SaitaSwapPair.sol\":8094:8132  _safeTransfer(_token0, to, amount0Out) */\n      jump\t// in\n    tag_131:\n        /* \"contracts/SaitaSwapPair.sol\":8180:8194  amount1Out > 0 */\n      dup10\n      iszero\n        /* \"contracts/SaitaSwapPair.sol\":8176:8234  if (amount1Out > 0) _safeTransfer(_token1, to, amount1Out) */\n      tag_134\n      jumpi\n        /* \"contracts/SaitaSwapPair.sol\":8196:8234  _safeTransfer(_token1, to, amount1Out) */\n      tag_134\n        /* \"contracts/SaitaSwapPair.sol\":8210:8217  _token1 */\n      dup2\n        /* \"contracts/SaitaSwapPair.sol\":8219:8221  to */\n      dup11\n        /* \"contracts/SaitaSwapPair.sol\":8223:8233  amount1Out */\n      dup13\n        /* \"contracts/SaitaSwapPair.sol\":8196:8209  _safeTransfer */\n      tag_132\n        /* \"contracts/SaitaSwapPair.sol\":8196:8234  _safeTransfer(_token1, to, amount1Out) */\n      jump\t// in\n    tag_134:\n        /* \"contracts/SaitaSwapPair.sol\":8282:8297  data.length > 0 */\n      dup7\n      iszero\n        /* \"contracts/SaitaSwapPair.sol\":8278:8375  if (data.length > 0) ISaitaSwapCallee(to).SaitaSwapCall(msg.sender, amount0Out, amount1Out, data) */\n      tag_135\n      jumpi\n        /* \"contracts/SaitaSwapPair.sol\":8316:8318  to */\n      dup9\n      0x01\n      dup1\n      0xa0\n      shl\n      sub\n        /* \"contracts/SaitaSwapPair.sol\":8299:8333  ISaitaSwapCallee(to).SaitaSwapCall */\n      and\n      0xfe1b3a66\n        /* \"contracts/SaitaSwapPair.sol\":8334:8344  msg.sender */\n      caller\n        /* \"contracts/SaitaSwapPair.sol\":8346:8356  amount0Out */\n      dup14\n        /* \"contracts/SaitaSwapPair.sol\":8358:8368  amount1Out */\n      dup14\n        /* \"contracts/SaitaSwapPair.sol\":8370:8374  data */\n      dup13\n      dup13\n        /* \"contracts/SaitaSwapPair.sol\":8299:8375  ISaitaSwapCallee(to).SaitaSwapCall(msg.sender, amount0Out, amount1Out, data) */\n      mload(0x40)\n      dup7\n      0xffffffff\n      and\n      0xe0\n      shl\n      dup2\n      mstore\n      0x04\n      add\n      dup1\n      dup7\n      0x01\n      dup1\n      0xa0\n      shl\n      sub\n      and\n      0x01\n      dup1\n      0xa0\n      shl\n      sub\n      and\n      dup2\n      mstore\n      0x20\n      add\n      dup6\n      dup2\n      mstore\n      0x20\n      add\n      dup5\n      dup2\n      mstore\n      0x20\n      add\n      dup1\n      0x20\n      add\n      dup3\n      dup2\n      sub\n      dup3\n      mstore\n      dup5\n      dup5\n      dup3\n      dup2\n      dup2\n      mstore\n      0x20\n      add\n      swap3\n      pop\n        /* \"--CODEGEN--\":30:33   */\n      dup1\n        /* \"--CODEGEN--\":22:28   */\n      dup3\n        /* \"--CODEGEN--\":14:20   */\n      dup5\n        /* \"--CODEGEN--\":1:34   */\n      calldatacopy\n        /* \"--CODEGEN--\":99:100   */\n      0x00\n        /* \"--CODEGEN--\":93:96   */\n      dup2\n        /* \"--CODEGEN--\":85:91   */\n      dup5\n        /* \"--CODEGEN--\":81:97   */\n      add\n        /* \"--CODEGEN--\":74:101   */\n      mstore\n        /* \"--CODEGEN--\":137:141   */\n      0x1f\n        /* \"--CODEGEN--\":133:142   */\n      not\n        /* \"--CODEGEN--\":126:130   */\n      0x1f\n        /* \"--CODEGEN--\":121:124   */\n      dup3\n        /* \"--CODEGEN--\":117:131   */\n      add\n        /* \"--CODEGEN--\":113:143   */\n      and\n        /* \"--CODEGEN--\":106:143   */\n      swap1\n      pop\n        /* \"--CODEGEN--\":169:172   */\n      dup1\n        /* \"--CODEGEN--\":161:167   */\n      dup4\n        /* \"--CODEGEN--\":157:173   */\n      add\n        /* \"--CODEGEN--\":147:173   */\n      swap3\n      pop\n        /* \"contracts/SaitaSwapPair.sol\":8299:8375  ISaitaSwapCallee(to).SaitaSwapCall(msg.sender, amount0Out, amount1Out, data) */\n      pop\n      pop\n      swap7\n      pop\n      pop\n      pop\n      pop\n      pop\n      pop\n      pop\n      0x00\n      mload(0x40)\n      dup1\n      dup4\n      sub\n      dup2\n      0x00\n      dup8\n      dup1\n      extcodesize\n      iszero\n        /* \"--CODEGEN--\":8:17   */\n      dup1\n        /* \"--CODEGEN--\":5:7   */\n      iszero\n      tag_136\n      jumpi\n        /* \"--CODEGEN--\":30:31   */\n      0x00\n        /* \"--CODEGEN--\":27:28   */\n      dup1\n        /* \"--CODEGEN--\":20:32   */\n      revert\n        /* \"--CODEGEN--\":5:7   */\n    tag_136:\n        /* \"contracts/SaitaSwapPair.sol\":8299:8375  ISaitaSwapCallee(to).SaitaSwapCall(msg.sender, amount0Out, amount1Out, data) */\n      pop\n      gas\n      call\n      iszero\n        /* \"--CODEGEN--\":8:17   */\n      dup1\n        /* \"--CODEGEN--\":5:7   */\n      iszero\n      tag_137\n      jumpi\n        /* \"--CODEGEN--\":45:61   */\n      returndatasize\n        /* \"--CODEGEN--\":42:43   */\n      0x00\n        /* \"--CODEGEN--\":39:40   */\n      dup1\n        /* \"--CODEGEN--\":24:62   */\n      returndatacopy\n        /* \"--CODEGEN--\":77:93   */\n      returndatasize\n        /* \"--CODEGEN--\":74:75   */\n      0x00\n        /* \"--CODEGEN--\":67:94   */\n      revert\n        /* \"--CODEGEN--\":5:7   */\n    tag_137:\n        /* \"contracts/SaitaSwapPair.sol\":8299:8375  ISaitaSwapCallee(to).SaitaSwapCall(msg.sender, amount0Out, amount1Out, data) */\n      pop\n      pop\n      pop\n      pop\n        /* \"contracts/SaitaSwapPair.sol\":8278:8375  if (data.length > 0) ISaitaSwapCallee(to).SaitaSwapCall(msg.sender, amount0Out, amount1Out, data) */\n    tag_135:\n        /* \"contracts/SaitaSwapPair.sol\":8396:8436  IERC20(_token0).balanceOf(address(this)) */\n      0x40\n      dup1\n      mload\n      shl(0xe0, 0x70a08231)\n      dup2\n      mstore\n        /* \"contracts/SaitaSwapPair.sol\":8430:8434  this */\n      address\n        /* \"contracts/SaitaSwapPair.sol\":8396:8436  IERC20(_token0).balanceOf(address(this)) */\n      0x04\n      dup3\n      add\n      mstore\n      swap1\n      mload\n      sub(shl(0xa0, 0x01), 0x01)\n        /* \"contracts/SaitaSwapPair.sol\":8396:8421  IERC20(_token0).balanceOf */\n      dup5\n      and\n      swap2\n      0x70a08231\n      swap2\n        /* \"contracts/SaitaSwapPair.sol\":8396:8436  IERC20(_token0).balanceOf(address(this)) */\n      0x24\n      dup1\n      dup4\n      add\n      swap3\n      0x20\n      swap3\n      swap2\n      swap1\n      dup3\n      swap1\n      sub\n      add\n      dup2\n        /* \"contracts/SaitaSwapPair.sol\":8396:8421  IERC20(_token0).balanceOf */\n      dup7\n        /* \"contracts/SaitaSwapPair.sol\":8396:8436  IERC20(_token0).balanceOf(address(this)) */\n      dup1\n      extcodesize\n      iszero\n        /* \"--CODEGEN--\":5:7   */\n      dup1\n      iszero\n      tag_138\n      jumpi\n        /* \"--CODEGEN--\":30:31   */\n      0x00\n        /* \"--CODEGEN--\":27:28   */\n      dup1\n        /* \"--CODEGEN--\":20:32   */\n      revert\n        /* \"--CODEGEN--\":5:7   */\n    tag_138:\n        /* \"contracts/SaitaSwapPair.sol\":8396:8436  IERC20(_token0).balanceOf(address(this)) */\n      pop\n      gas\n      staticcall\n      iszero\n        /* \"--CODEGEN--\":8:17   */\n      dup1\n        /* \"--CODEGEN--\":5:7   */\n      iszero\n      tag_139\n      jumpi\n        /* \"--CODEGEN--\":45:61   */\n      returndatasize\n        /* \"--CODEGEN--\":42:43   */\n      0x00\n        /* \"--CODEGEN--\":39:40   */\n      dup1\n        /* \"--CODEGEN--\":24:62   */\n      returndatacopy\n        /* \"--CODEGEN--\":77:93   */\n      returndatasize\n        /* \"--CODEGEN--\":74:75   */\n      0x00\n        /* \"--CODEGEN--\":67:94   */\n      revert\n        /* \"--CODEGEN--\":5:7   */\n    tag_139:\n        /* \"contracts/SaitaSwapPair.sol\":8396:8436  IERC20(_token0).balanceOf(address(this)) */\n      pop\n      pop\n      pop\n      pop\n      mload(0x40)\n      returndatasize\n        /* \"--CODEGEN--\":13:15   */\n      0x20\n        /* \"--CODEGEN--\":8:11   */\n      dup2\n        /* \"--CODEGEN--\":5:16   */\n      lt\n        /* \"--CODEGEN--\":2:4   */\n      iszero\n      tag_140\n      jumpi\n        /* \"--CODEGEN--\":29:30   */\n      0x00\n        /* \"--CODEGEN--\":26:27   */\n      dup1\n        /* \"--CODEGEN--\":19:31   */\n      revert\n        /* \"--CODEGEN--\":2:4   */\n    tag_140:\n      pop\n        /* \"contracts/SaitaSwapPair.sol\":8396:8436  IERC20(_token0).balanceOf(address(this)) */\n      mload\n        /* \"contracts/SaitaSwapPair.sol\":8457:8497  IERC20(_token1).balanceOf(address(this)) */\n      0x40\n      dup1\n      mload\n      shl(0xe0, 0x70a08231)\n      dup2\n      mstore\n        /* \"contracts/SaitaSwapPair.sol\":8491:8495  this */\n      address\n        /* \"contracts/SaitaSwapPair.sol\":8457:8497  IERC20(_token1).balanceOf(address(this)) */\n      0x04\n      dup3\n      add\n      mstore\n      swap1\n      mload\n        /* \"contracts/SaitaSwapPair.sol\":8396:8436  IERC20(_token0).balanceOf(address(this)) */\n      swap2\n      swap6\n      pop\n      sub(shl(0xa0, 0x01), 0x01)\n        /* \"contracts/SaitaSwapPair.sol\":8457:8482  IERC20(_token1).balanceOf */\n      dup4\n      and\n      swap2\n      0x70a08231\n      swap2\n        /* \"contracts/SaitaSwapPair.sol\":8457:8497  IERC20(_token1).balanceOf(address(this)) */\n      0x24\n      dup1\n      dup3\n      add\n      swap3\n        /* \"contracts/SaitaSwapPair.sol\":8396:8436  IERC20(_token0).balanceOf(address(this)) */\n      0x20\n      swap3\n        /* \"contracts/SaitaSwapPair.sol\":8457:8497  IERC20(_token1).balanceOf(address(this)) */\n      swap1\n      swap2\n      swap1\n      dup3\n      swap1\n      sub\n      add\n      dup2\n        /* \"contracts/SaitaSwapPair.sol\":8457:8482  IERC20(_token1).balanceOf */\n      dup7\n        /* \"contracts/SaitaSwapPair.sol\":8457:8497  IERC20(_token1).balanceOf(address(this)) */\n      dup1\n      extcodesize\n      iszero\n        /* \"--CODEGEN--\":5:7   */\n      dup1\n      iszero\n      tag_141\n      jumpi\n        /* \"--CODEGEN--\":30:31   */\n      0x00\n        /* \"--CODEGEN--\":27:28   */\n      dup1\n        /* \"--CODEGEN--\":20:32   */\n      revert\n        /* \"--CODEGEN--\":5:7   */\n    tag_141:\n        /* \"contracts/SaitaSwapPair.sol\":8457:8497  IERC20(_token1).balanceOf(address(this)) */\n      pop\n      gas\n      staticcall\n      iszero\n        /* \"--CODEGEN--\":8:17   */\n      dup1\n        /* \"--CODEGEN--\":5:7   */\n      iszero\n      tag_142\n      jumpi\n        /* \"--CODEGEN--\":45:61   */\n      returndatasize\n        /* \"--CODEGEN--\":42:43   */\n      0x00\n        /* \"--CODEGEN--\":39:40   */\n      dup1\n        /* \"--CODEGEN--\":24:62   */\n      returndatacopy\n        /* \"--CODEGEN--\":77:93   */\n      returndatasize\n        /* \"--CODEGEN--\":74:75   */\n      0x00\n        /* \"--CODEGEN--\":67:94   */\n      revert\n        /* \"--CODEGEN--\":5:7   */\n    tag_142:\n        /* \"contracts/SaitaSwapPair.sol\":8457:8497  IERC20(_token1).balanceOf(address(this)) */\n      pop\n      pop\n      pop\n      pop\n      mload(0x40)\n      returndatasize\n        /* \"--CODEGEN--\":13:15   */\n      0x20\n        /* \"--CODEGEN--\":8:11   */\n      dup2\n        /* \"--CODEGEN--\":5:16   */\n      lt\n        /* \"--CODEGEN--\":2:4   */\n      iszero\n      tag_143\n      jumpi\n        /* \"--CODEGEN--\":29:30   */\n      0x00\n        /* \"--CODEGEN--\":26:27   */\n      dup1\n        /* \"--CODEGEN--\":19:31   */\n      revert\n        /* \"--CODEGEN--\":2:4   */\n    tag_143:\n      pop\n        /* \"contracts/SaitaSwapPair.sol\":8457:8497  IERC20(_token1).balanceOf(address(this)) */\n      mload\n      swap3\n      pop\n        /* \"contracts/SaitaSwapPair.sol\":8517:8531  uint amount0In */\n      0x00\n      swap2\n      pop\n      pop\n      sub(shl(0x70, 0x01), 0x01)\n        /* \"contracts/SaitaSwapPair.sol\":8545:8567  _reserve0 - amount0Out */\n      dup6\n      and\n      dup11\n      swap1\n      sub\n        /* \"contracts/SaitaSwapPair.sol\":8534:8567  balance0 > _reserve0 - amount0Out */\n      dup4\n      gt\n        /* \"contracts/SaitaSwapPair.sol\":8534:8609  balance0 > _reserve0 - amount0Out ? balance0 - (_reserve0 - amount0Out) : 0 */\n      tag_144\n      jumpi\n        /* \"contracts/SaitaSwapPair.sol\":8608:8609  0 */\n      0x00\n        /* \"contracts/SaitaSwapPair.sol\":8534:8609  balance0 > _reserve0 - amount0Out ? balance0 - (_reserve0 - amount0Out) : 0 */\n      jump(tag_145)\n    tag_144:\n      sub(shl(0x70, 0x01), 0x01)\n        /* \"contracts/SaitaSwapPair.sol\":8582:8604  _reserve0 - amount0Out */\n      dup6\n      and\n      dup11\n      swap1\n      sub\n        /* \"contracts/SaitaSwapPair.sol\":8570:8605  balance0 - (_reserve0 - amount0Out) */\n      dup4\n      sub\n        /* \"contracts/SaitaSwapPair.sol\":8534:8609  balance0 > _reserve0 - amount0Out ? balance0 - (_reserve0 - amount0Out) : 0 */\n    tag_145:\n        /* \"contracts/SaitaSwapPair.sol\":8517:8609  uint amount0In = balance0 > _reserve0 - amount0Out ? balance0 - (_reserve0 - amount0Out) : 0 */\n      swap1\n      pop\n        /* \"contracts/SaitaSwapPair.sol\":8619:8633  uint amount1In */\n      0x00\n      sub(shl(0x70, 0x01), 0x01)\n        /* \"contracts/SaitaSwapPair.sol\":8647:8669  _reserve1 - amount1Out */\n      dup6\n      and\n      dup11\n      swap1\n      sub\n        /* \"contracts/SaitaSwapPair.sol\":8636:8669  balance1 > _reserve1 - amount1Out */\n      dup4\n      gt\n        /* \"contracts/SaitaSwapPair.sol\":8636:8711  balance1 > _reserve1 - amount1Out ? balance1 - (_reserve1 - amount1Out) : 0 */\n      tag_146\n      jumpi\n        /* \"contracts/SaitaSwapPair.sol\":8710:8711  0 */\n      0x00\n        /* \"contracts/SaitaSwapPair.sol\":8636:8711  balance1 > _reserve1 - amount1Out ? balance1 - (_reserve1 - amount1Out) : 0 */\n      jump(tag_147)\n    tag_146:\n      sub(shl(0x70, 0x01), 0x01)\n        /* \"contracts/SaitaSwapPair.sol\":8684:8706  _reserve1 - amount1Out */\n      dup6\n      and\n      dup11\n      swap1\n      sub\n        /* \"contracts/SaitaSwapPair.sol\":8672:8707  balance1 - (_reserve1 - amount1Out) */\n      dup4\n      sub\n        /* \"contracts/SaitaSwapPair.sol\":8636:8711  balance1 > _reserve1 - amount1Out ? balance1 - (_reserve1 - amount1Out) : 0 */\n    tag_147:\n        /* \"contracts/SaitaSwapPair.sol\":8619:8711  uint amount1In = balance1 > _reserve1 - amount1Out ? balance1 - (_reserve1 - amount1Out) : 0 */\n      swap1\n      pop\n        /* \"contracts/SaitaSwapPair.sol\":8741:8742  0 */\n      0x00\n        /* \"contracts/SaitaSwapPair.sol\":8729:8738  amount0In */\n      dup3\n        /* \"contracts/SaitaSwapPair.sol\":8729:8742  amount0In > 0 */\n      gt\n        /* \"contracts/SaitaSwapPair.sol\":8729:8759  amount0In > 0 || amount1In > 0 */\n      dup1\n      tag_148\n      jumpi\n      pop\n        /* \"contracts/SaitaSwapPair.sol\":8758:8759  0 */\n      0x00\n        /* \"contracts/SaitaSwapPair.sol\":8746:8755  amount1In */\n      dup2\n        /* \"contracts/SaitaSwapPair.sol\":8746:8759  amount1In > 0 */\n      gt\n        /* \"contracts/SaitaSwapPair.sol\":8729:8759  amount0In > 0 || amount1In > 0 */\n    tag_148:\n        /* \"contracts/SaitaSwapPair.sol\":8721:8800  require(amount0In > 0 || amount1In > 0, 'SaitaSwap: INSUFFICIENT_INPUT_AMOUNT') */\n      tag_149\n      jumpi\n      mload(0x40)\n      shl(0xe5, 0x461bcd)\n      dup2\n      mstore\n      0x04\n      add\n      dup1\n      dup1\n      0x20\n      add\n      dup3\n      dup2\n      sub\n      dup3\n      mstore\n      0x24\n      dup2\n      mstore\n      0x20\n      add\n      dup1\n      data_552b3fcd35fb870a20ea0632e5730c886a6bfa687fc63a2ee7517b413814fddf\n      0x24\n      swap2\n      codecopy\n      0x40\n      add\n      swap2\n      pop\n      pop\n      mload(0x40)\n      dup1\n      swap2\n      sub\n      swap1\n      revert\n    tag_149:\n        /* \"contracts/SaitaSwapPair.sol\":8884:8905  uint balance0Adjusted */\n      0x00\n        /* \"contracts/SaitaSwapPair.sol\":8908:8981  balance0.mul(SWAP_FEE_DENOMINATOR).sub(amount0In.mul(SWAP_FEE_NUMERATOR)) */\n      tag_150\n        /* \"contracts/SaitaSwapPair.sol\":8947:8980  amount0In.mul(SWAP_FEE_NUMERATOR) */\n      tag_151\n        /* \"contracts/SaitaSwapPair.sol\":8961:8979  SWAP_FEE_NUMERATOR */\n      sload(0x08)\n        /* \"contracts/SaitaSwapPair.sol\":8947:8956  amount0In */\n      dup6\n        /* \"contracts/SaitaSwapPair.sol\":8947:8960  amount0In.mul */\n      tag_152\n      swap1\n        /* \"contracts/SaitaSwapPair.sol\":8947:8980  amount0In.mul(SWAP_FEE_NUMERATOR) */\n      swap2\n      swap1\n      0xffffffff\n      and\n      jump\t// in\n    tag_151:\n        /* \"contracts/SaitaSwapPair.sol\":8921:8941  SWAP_FEE_DENOMINATOR */\n      sload(0x09)\n        /* \"contracts/SaitaSwapPair.sol\":8908:8942  balance0.mul(SWAP_FEE_DENOMINATOR) */\n      tag_153\n      swap1\n        /* \"contracts/SaitaSwapPair.sol\":8908:8916  balance0 */\n      dup9\n      swap1\n        /* \"contracts/SaitaSwapPair.sol\":8908:8942  balance0.mul(SWAP_FEE_DENOMINATOR) */\n      0xffffffff\n        /* \"contracts/SaitaSwapPair.sol\":8908:8920  balance0.mul */\n      tag_152\n        /* \"contracts/SaitaSwapPair.sol\":8908:8942  balance0.mul(SWAP_FEE_DENOMINATOR) */\n      and\n      jump\t// in\n    tag_153:\n        /* \"contracts/SaitaSwapPair.sol\":8908:8946  balance0.mul(SWAP_FEE_DENOMINATOR).sub */\n      swap1\n        /* \"contracts/SaitaSwapPair.sol\":8908:8981  balance0.mul(SWAP_FEE_DENOMINATOR).sub(amount0In.mul(SWAP_FEE_NUMERATOR)) */\n      0xffffffff\n        /* \"contracts/SaitaSwapPair.sol\":8908:8946  balance0.mul(SWAP_FEE_DENOMINATOR).sub */\n      tag_154\n        /* \"contracts/SaitaSwapPair.sol\":8908:8981  balance0.mul(SWAP_FEE_DENOMINATOR).sub(amount0In.mul(SWAP_FEE_NUMERATOR)) */\n      and\n      jump\t// in\n    tag_150:\n        /* \"contracts/SaitaSwapPair.sol\":8884:8981  uint balance0Adjusted = balance0.mul(SWAP_FEE_DENOMINATOR).sub(amount0In.mul(SWAP_FEE_NUMERATOR)) */\n      swap1\n      pop\n        /* \"contracts/SaitaSwapPair.sol\":8991:9012  uint balance1Adjusted */\n      0x00\n        /* \"contracts/SaitaSwapPair.sol\":9015:9088  balance1.mul(SWAP_FEE_DENOMINATOR).sub(amount1In.mul(SWAP_FEE_NUMERATOR)) */\n      tag_155\n        /* \"contracts/SaitaSwapPair.sol\":9054:9087  amount1In.mul(SWAP_FEE_NUMERATOR) */\n      tag_151\n        /* \"contracts/SaitaSwapPair.sol\":9068:9086  SWAP_FEE_NUMERATOR */\n      sload(0x08)\n        /* \"contracts/SaitaSwapPair.sol\":9054:9063  amount1In */\n      dup6\n        /* \"contracts/SaitaSwapPair.sol\":9054:9067  amount1In.mul */\n      tag_152\n      swap1\n        /* \"contracts/SaitaSwapPair.sol\":9054:9087  amount1In.mul(SWAP_FEE_NUMERATOR) */\n      swap2\n      swap1\n      0xffffffff\n      and\n      jump\t// in\n        /* \"contracts/SaitaSwapPair.sol\":9015:9088  balance1.mul(SWAP_FEE_DENOMINATOR).sub(amount1In.mul(SWAP_FEE_NUMERATOR)) */\n    tag_155:\n        /* \"contracts/SaitaSwapPair.sol\":9205:9223  SWAP_FEE_NUMERATOR */\n      sload(0x08)\n        /* \"contracts/SaitaSwapPair.sol\":9183:9203  SWAP_FEE_DENOMINATOR */\n      sload(0x09)\n        /* \"contracts/SaitaSwapPair.sol\":8991:9088  uint balance1Adjusted = balance1.mul(SWAP_FEE_DENOMINATOR).sub(amount1In.mul(SWAP_FEE_NUMERATOR)) */\n      swap2\n      swap3\n      pop\n        /* \"contracts/SaitaSwapPair.sol\":9148:9224  uint(_reserve0).mul(_reserve1).mul(SWAP_FEE_DENOMINATOR**SWAP_FEE_NUMERATOR) */\n      tag_158\n      swap2\n        /* \"contracts/SaitaSwapPair.sol\":9183:9223  SWAP_FEE_DENOMINATOR**SWAP_FEE_NUMERATOR */\n      exp\n        /* \"contracts/SaitaSwapPair.sol\":9148:9178  uint(_reserve0).mul(_reserve1) */\n      tag_159\n      sub(shl(0x70, 0x01), 0x01)\n        /* \"contracts/SaitaSwapPair.sol\":9148:9163  uint(_reserve0) */\n      dup12\n      dup2\n      and\n      swap1\n        /* \"contracts/SaitaSwapPair.sol\":9148:9178  uint(_reserve0).mul(_reserve1) */\n      dup12\n      and\n      0xffffffff\n        /* \"contracts/SaitaSwapPair.sol\":9148:9167  uint(_reserve0).mul */\n      tag_152\n        /* \"contracts/SaitaSwapPair.sol\":9148:9178  uint(_reserve0).mul(_reserve1) */\n      and\n      jump\t// in\n    tag_159:\n        /* \"contracts/SaitaSwapPair.sol\":9148:9182  uint(_reserve0).mul(_reserve1).mul */\n      swap1\n        /* \"contracts/SaitaSwapPair.sol\":9148:9224  uint(_reserve0).mul(_reserve1).mul(SWAP_FEE_DENOMINATOR**SWAP_FEE_NUMERATOR) */\n      0xffffffff\n        /* \"contracts/SaitaSwapPair.sol\":9148:9182  uint(_reserve0).mul(_reserve1).mul */\n      tag_152\n        /* \"contracts/SaitaSwapPair.sol\":9148:9224  uint(_reserve0).mul(_reserve1).mul(SWAP_FEE_DENOMINATOR**SWAP_FEE_NUMERATOR) */\n      and\n      jump\t// in\n    tag_158:\n        /* \"contracts/SaitaSwapPair.sol\":9106:9144  balance0Adjusted.mul(balance1Adjusted) */\n      tag_160\n        /* \"contracts/SaitaSwapPair.sol\":9106:9122  balance0Adjusted */\n      dup4\n        /* \"contracts/SaitaSwapPair.sol\":9127:9143  balance1Adjusted */\n      dup4\n        /* \"contracts/SaitaSwapPair.sol\":9106:9144  balance0Adjusted.mul(balance1Adjusted) */\n      0xffffffff\n        /* \"contracts/SaitaSwapPair.sol\":9106:9126  balance0Adjusted.mul */\n      tag_152\n        /* \"contracts/SaitaSwapPair.sol\":9106:9144  balance0Adjusted.mul(balance1Adjusted) */\n      and\n      jump\t// in\n    tag_160:\n        /* \"contracts/SaitaSwapPair.sol\":9106:9224  balance0Adjusted.mul(balance1Adjusted) >= uint(_reserve0).mul(_reserve1).mul(SWAP_FEE_DENOMINATOR**SWAP_FEE_NUMERATOR) */\n      lt\n      iszero\n        /* \"contracts/SaitaSwapPair.sol\":9098:9241  require(balance0Adjusted.mul(balance1Adjusted) >= uint(_reserve0).mul(_reserve1).mul(SWAP_FEE_DENOMINATOR**SWAP_FEE_NUMERATOR), 'SaitaSwap: K') */\n      tag_161\n      jumpi\n      0x40\n      dup1\n      mload\n      shl(0xe5, 0x461bcd)\n      dup2\n      mstore\n      0x20\n      0x04\n      dup3\n      add\n      mstore\n      0x0c\n      0x24\n      dup3\n      add\n      mstore\n      shl(0xa0, 0x5361697461537761703a204b)\n      0x44\n      dup3\n      add\n      mstore\n      swap1\n      mload\n      swap1\n      dup2\n      swap1\n      sub\n      0x64\n      add\n      swap1\n      revert\n    tag_161:\n        /* \"contracts/SaitaSwapPair.sol\":1373:1374  _ */\n      pop\n      pop\n        /* \"contracts/SaitaSwapPair.sol\":9262:9311  _update(balance0, balance1, _reserve0, _reserve1) */\n      tag_162\n        /* \"contracts/SaitaSwapPair.sol\":9270:9278  balance0 */\n      dup5\n        /* \"contracts/SaitaSwapPair.sol\":9280:9288  balance1 */\n      dup5\n        /* \"contracts/SaitaSwapPair.sol\":9290:9299  _reserve0 */\n      dup9\n        /* \"contracts/SaitaSwapPair.sol\":9301:9310  _reserve1 */\n      dup9\n        /* \"contracts/SaitaSwapPair.sol\":9262:9269  _update */\n      tag_163\n        /* \"contracts/SaitaSwapPair.sol\":9262:9311  _update(balance0, balance1, _reserve0, _reserve1) */\n      jump\t// in\n    tag_162:\n        /* \"contracts/SaitaSwapPair.sol\":9326:9392  Swap(msg.sender, amount0In, amount1In, amount0Out, amount1Out, to) */\n      0x40\n      dup1\n      mload\n      dup4\n      dup2\n      mstore\n      0x20\n      dup2\n      add\n      dup4\n      swap1\n      mstore\n      dup1\n      dup3\n      add\n      dup14\n      swap1\n      mstore\n      0x60\n      dup2\n      add\n      dup13\n      swap1\n      mstore\n      swap1\n      mload\n      sub(shl(0xa0, 0x01), 0x01)\n      dup12\n      and\n      swap2\n        /* \"contracts/SaitaSwapPair.sol\":9331:9341  msg.sender */\n      caller\n      swap2\n        /* \"contracts/SaitaSwapPair.sol\":9326:9392  Swap(msg.sender, amount0In, amount1In, amount0Out, amount1Out, to) */\n      0xd78ad95fa46c994b6551d0da85fc275fe613ce37657fb8d5e3d130840159d822\n      swap2\n      dup2\n      swap1\n      sub\n      0x80\n      add\n      swap1\n      log3\n      pop\n      pop\n        /* \"contracts/SaitaSwapPair.sol\":1395:1396  1 */\n      0x01\n        /* \"contracts/SaitaSwapPair.sol\":1384:1392  unlocked */\n      0x0e\n        /* \"contracts/SaitaSwapPair.sol\":1384:1396  unlocked = 1 */\n      sstore\n      pop\n      pop\n      pop\n      pop\n      pop\n      pop\n      pop\n      pop\n      pop\n        /* \"contracts/SaitaSwapPair.sol\":7439:9399  function swap(uint amount0Out, uint amount1Out, address to, bytes calldata data) external lock {... */\n      jump\t// out\n        /* \"contracts/SaitaSwapERC20.sol\":223:268  string public constant name = 'SaitaSwap LPs' */\n    tag_46:\n      0x40\n      dup1\n      mload\n      dup1\n      dup3\n      add\n      swap1\n      swap2\n      mstore\n      0x0d\n      dup2\n      mstore\n      shl(0x98, 0x536169746153776170204c5073)\n      0x20\n      dup3\n      add\n      mstore\n      dup2\n      jump\t// out\n        /* \"contracts/SaitaSwapPair.sol\":1409:1636  function getReserves() public view returns (uint112 _reserve0, uint112 _reserve1, uint32 _blockTimestampLast) {... */\n    tag_52:\n        /* \"contracts/SaitaSwapPair.sol\":1541:1549  reserve0 */\n      sload(0x0a)\n      sub(shl(0x70, 0x01), 0x01)\n      dup1\n      dup3\n      and\n      swap3\n      shl(0x70, 0x01)\n        /* \"contracts/SaitaSwapPair.sol\":1571:1579  reserve1 */\n      dup4\n      div\n      swap1\n      swap2\n      and\n      swap2\n      shl(0xe0, 0x01)\n        /* \"contracts/SaitaSwapPair.sol\":1611:1629  blockTimestampLast */\n      swap1\n      div\n      0xffffffff\n      and\n      swap1\n        /* \"contracts/SaitaSwapPair.sol\":1409:1636  function getReserves() public view returns (uint112 _reserve0, uint112 _reserve1, uint32 _blockTimestampLast) {... */\n      jump\t// out\n        /* \"contracts/SaitaSwapERC20.sol\":2682:2826  function approve(address spender, uint value) external returns (bool) {... */\n    tag_55:\n        /* \"contracts/SaitaSwapERC20.sol\":2746:2750  bool */\n      0x00\n        /* \"contracts/SaitaSwapERC20.sol\":2762:2798  _approve(msg.sender, spender, value) */\n      tag_166\n        /* \"contracts/SaitaSwapERC20.sol\":2771:2781  msg.sender */\n      caller\n        /* \"contracts/SaitaSwapERC20.sol\":2783:2790  spender */\n      dup5\n        /* \"contracts/SaitaSwapERC20.sol\":2792:2797  value */\n      dup5\n        /* \"contracts/SaitaSwapERC20.sol\":2762:2770  _approve */\n      tag_167\n        /* \"contracts/SaitaSwapERC20.sol\":2762:2798  _approve(msg.sender, spender, value) */\n      jump\t// in\n    tag_166:\n      pop\n        /* \"contracts/SaitaSwapERC20.sol\":2815:2819  true */\n      0x01\n        /* \"contracts/SaitaSwapERC20.sol\":2682:2826  function approve(address spender, uint value) external returns (bool) {... */\n    tag_165:\n      swap3\n      swap2\n      pop\n      pop\n      jump\t// out\n        /* \"contracts/SaitaSwapPair.sol\":628:649  address public token0 */\n    tag_57:\n      and(sub(shl(0xa0, 0x01), 0x01), sload(0x06))\n      dup2\n      jump\t// out\n        /* \"contracts/SaitaSwapERC20.sol\":358:382  uint  public totalSupply */\n    tag_59:\n      sload(0x00)\n      dup2\n      jump\t// out\n        /* \"contracts/SaitaSwapERC20.sol\":2974:3269  function transferFrom(address from, address to, uint value) external returns (bool) {... */\n    tag_62:\n      sub(shl(0xa0, 0x01), 0x01)\n        /* \"contracts/SaitaSwapERC20.sol\":3072:3087  allowance[from] */\n      dup4\n      and\n        /* \"contracts/SaitaSwapERC20.sol\":3052:3056  bool */\n      0x00\n        /* \"contracts/SaitaSwapERC20.sol\":3072:3087  allowance[from] */\n      swap1\n      dup2\n      mstore\n        /* \"contracts/SaitaSwapERC20.sol\":3072:3081  allowance */\n      0x02\n        /* \"contracts/SaitaSwapERC20.sol\":3072:3087  allowance[from] */\n      0x20\n      swap1\n      dup2\n      mstore\n      0x40\n      dup1\n      dup4\n      keccak256\n        /* \"contracts/SaitaSwapERC20.sol\":3088:3098  msg.sender */\n      caller\n        /* \"contracts/SaitaSwapERC20.sol\":3072:3099  allowance[from][msg.sender] */\n      dup5\n      mstore\n      swap1\n      swap2\n      mstore\n      dup2\n      keccak256\n      sload\n      not(0x00)\n        /* \"contracts/SaitaSwapERC20.sol\":3072:3111  allowance[from][msg.sender] != uint(-1) */\n      eq\n        /* \"contracts/SaitaSwapERC20.sol\":3068:3206  if (allowance[from][msg.sender] != uint(-1)) {... */\n      tag_169\n      jumpi\n      sub(shl(0xa0, 0x01), 0x01)\n        /* \"contracts/SaitaSwapERC20.sol\":3157:3172  allowance[from] */\n      dup5\n      and\n      0x00\n      swap1\n      dup2\n      mstore\n        /* \"contracts/SaitaSwapERC20.sol\":3157:3166  allowance */\n      0x02\n        /* \"contracts/SaitaSwapERC20.sol\":3157:3172  allowance[from] */\n      0x20\n      swap1\n      dup2\n      mstore\n      0x40\n      dup1\n      dup4\n      keccak256\n        /* \"contracts/SaitaSwapERC20.sol\":3173:3183  msg.sender */\n      caller\n        /* \"contracts/SaitaSwapERC20.sol\":3157:3184  allowance[from][msg.sender] */\n      dup5\n      mstore\n      swap1\n      swap2\n      mstore\n      swap1\n      keccak256\n      sload\n        /* \"contracts/SaitaSwapERC20.sol\":3157:3195  allowance[from][msg.sender].sub(value) */\n      tag_170\n      swap1\n        /* \"contracts/SaitaSwapERC20.sol\":3189:3194  value */\n      dup4\n        /* \"contracts/SaitaSwapERC20.sol\":3157:3188  allowance[from][msg.sender].sub */\n      tag_154\n        /* \"contracts/SaitaSwapERC20.sol\":3157:3195  allowance[from][msg.sender].sub(value) */\n      jump\t// in\n    tag_170:\n      sub(shl(0xa0, 0x01), 0x01)\n        /* \"contracts/SaitaSwapERC20.sol\":3127:3142  allowance[from] */\n      dup6\n      and\n      0x00\n      swap1\n      dup2\n      mstore\n        /* \"contracts/SaitaSwapERC20.sol\":3127:3136  allowance */\n      0x02\n        /* \"contracts/SaitaSwapERC20.sol\":3127:3142  allowance[from] */\n      0x20\n      swap1\n      dup2\n      mstore\n      0x40\n      dup1\n      dup4\n      keccak256\n        /* \"contracts/SaitaSwapERC20.sol\":3143:3153  msg.sender */\n      caller\n        /* \"contracts/SaitaSwapERC20.sol\":3127:3154  allowance[from][msg.sender] */\n      dup5\n      mstore\n      swap1\n      swap2\n      mstore\n      swap1\n      keccak256\n        /* \"contracts/SaitaSwapERC20.sol\":3127:3195  allowance[from][msg.sender] = allowance[from][msg.sender].sub(value) */\n      sstore\n        /* \"contracts/SaitaSwapERC20.sol\":3068:3206  if (allowance[from][msg.sender] != uint(-1)) {... */\n    tag_169:\n        /* \"contracts/SaitaSwapERC20.sol\":3215:3241  _transfer(from, to, value) */\n      tag_171\n        /* \"contracts/SaitaSwapERC20.sol\":3225:3229  from */\n      dup5\n        /* \"contracts/SaitaSwapERC20.sol\":3231:3233  to */\n      dup5\n        /* \"contracts/SaitaSwapERC20.sol\":3235:3240  value */\n      dup5\n        /* \"contracts/SaitaSwapERC20.sol\":3215:3224  _transfer */\n      tag_172\n        /* \"contracts/SaitaSwapERC20.sol\":3215:3241  _transfer(from, to, value) */\n      jump\t// in\n    tag_171:\n      pop\n        /* \"contracts/SaitaSwapERC20.sol\":3258:3262  true */\n      0x01\n        /* \"contracts/SaitaSwapERC20.sol\":2974:3269  function transferFrom(address from, address to, uint value) external returns (bool) {... */\n      swap4\n      swap3\n      pop\n      pop\n      pop\n      jump\t// out\n        /* \"contracts/SaitaSwapERC20.sol\":644:752  bytes32 public constant PERMIT_TYPEHASH = 0x6e71edae12b1b97f4d1f60370fef10105fa2faae0126114a169c64845d6126c9 */\n    tag_64:\n        /* \"contracts/SaitaSwapERC20.sol\":686:752  0x6e71edae12b1b97f4d1f60370fef10105fa2faae0126114a169c64845d6126c9 */\n      0x6e71edae12b1b97f4d1f60370fef10105fa2faae0126114a169c64845d6126c9\n        /* \"contracts/SaitaSwapERC20.sol\":644:752  bytes32 public constant PERMIT_TYPEHASH = 0x6e71edae12b1b97f4d1f60370fef10105fa2faae0126114a169c64845d6126c9 */\n      dup2\n      jump\t// out\n        /* \"contracts/SaitaSwapERC20.sol\":317:352  uint8 public constant decimals = 18 */\n    tag_66:\n        /* \"contracts/SaitaSwapERC20.sol\":350:352  18 */\n      0x12\n        /* \"contracts/SaitaSwapERC20.sol\":317:352  uint8 public constant decimals = 18 */\n      dup2\n      jump\t// out\n        /* \"contracts/SaitaSwapERC20.sol\":503:534  bytes32 public DOMAIN_SEPARATOR */\n    tag_68:\n      sload(0x03)\n      dup2\n      jump\t// out\n        /* \"contracts/SaitaSwapPair.sol\":2441:2647  function initialize(address _token0, address _token1) external {... */\n    tag_71:\n        /* \"contracts/SaitaSwapPair.sol\":2536:2543  factory */\n      and(sub(shl(0xa0, 0x01), 0x01), sload(0x05))\n        /* \"contracts/SaitaSwapPair.sol\":2522:2532  msg.sender */\n      caller\n        /* \"contracts/SaitaSwapPair.sol\":2522:2543  msg.sender == factory */\n      eq\n        /* \"contracts/SaitaSwapPair.sol\":2514:2568  require(msg.sender == factory, 'SaitaSwap: FORBIDDEN') */\n      tag_174\n      jumpi\n      0x40\n      dup1\n      mload\n      shl(0xe5, 0x461bcd)\n      dup2\n      mstore\n      0x20\n      0x04\n      dup3\n      add\n      mstore\n      0x14\n      0x24\n      dup3\n      add\n      mstore\n      shl(0x61, 0x29b0b4ba30a9bbb0b81d102327a92124a22222a7)\n      0x44\n      dup3\n      add\n      mstore\n      swap1\n      mload\n      swap1\n      dup2\n      swap1\n      sub\n      0x64\n      add\n      swap1\n      revert\n    tag_174:\n        /* \"contracts/SaitaSwapPair.sol\":2598:2604  token0 */\n      0x06\n        /* \"contracts/SaitaSwapPair.sol\":2598:2614  token0 = _token0 */\n      dup1\n      sload\n      sub(shl(0xa0, 0x01), 0x01)\n      swap4\n      dup5\n      and\n      not(sub(shl(0xa0, 0x01), 0x01))\n      swap2\n      dup3\n      and\n      or\n      swap1\n      swap2\n      sstore\n        /* \"contracts/SaitaSwapPair.sol\":2624:2630  token1 */\n      0x07\n        /* \"contracts/SaitaSwapPair.sol\":2624:2640  token1 = _token1 */\n      dup1\n      sload\n      swap3\n      swap1\n      swap4\n      and\n      swap2\n      and\n      or\n      swap1\n      sstore\n        /* \"contracts/SaitaSwapPair.sol\":2441:2647  function initialize(address _token0, address _token1) external {... */\n      jump\t// out\n        /* \"contracts/SaitaSwapPair.sol\":1061:1093  uint public price0CumulativeLast */\n    tag_73:\n      sload(0x0b)\n      dup2\n      jump\t// out\n        /* \"contracts/SaitaSwapPair.sol\":1099:1131  uint public price1CumulativeLast */\n    tag_75:\n      sload(0x0c)\n      dup2\n      jump\t// out\n        /* \"contracts/SaitaSwapPair.sol\":4558:5777  function mint(address to) external lock returns (uint liquidity) {... */\n    tag_78:\n        /* \"contracts/SaitaSwapPair.sol\":4607:4621  uint liquidity */\n      0x00\n        /* \"contracts/SaitaSwapPair.sol\":1306:1314  unlocked */\n      sload(0x0e)\n        /* \"contracts/SaitaSwapPair.sol\":1318:1319  1 */\n      0x01\n        /* \"contracts/SaitaSwapPair.sol\":1306:1319  unlocked == 1 */\n      eq\n        /* \"contracts/SaitaSwapPair.sol\":1298:1341  require(unlocked == 1, 'SaitaSwap: LOCKED') */\n      tag_176\n      jumpi\n      0x40\n      dup1\n      mload\n      shl(0xe5, 0x461bcd)\n      dup2\n      mstore\n      0x20\n      0x04\n      dup3\n      add\n      mstore\n      0x11\n      0x24\n      dup3\n      add\n      mstore\n      shl(0x7a, 0x14d85a5d1854ddd85c0e881313d0d2d151)\n      0x44\n      dup3\n      add\n      mstore\n      swap1\n      mload\n      swap1\n      dup2\n      swap1\n      sub\n      0x64\n      add\n      swap1\n      revert\n    tag_176:\n        /* \"contracts/SaitaSwapPair.sol\":1362:1363  0 */\n      0x00\n        /* \"contracts/SaitaSwapPair.sol\":1351:1359  unlocked */\n      0x0e\n        /* \"contracts/SaitaSwapPair.sol\":1351:1363  unlocked = 0 */\n      dup2\n      swap1\n      sstore\n        /* \"contracts/SaitaSwapPair.sol\":1362:1363  0 */\n      dup1\n        /* \"contracts/SaitaSwapPair.sol\":4675:4688  getReserves() */\n      tag_178\n        /* \"contracts/SaitaSwapPair.sol\":4675:4686  getReserves */\n      tag_52\n        /* \"contracts/SaitaSwapPair.sol\":4675:4688  getReserves() */\n      jump\t// in\n    tag_178:\n      pop\n        /* \"contracts/SaitaSwapPair.sol\":4736:4742  token0 */\n      sload(0x06)\n        /* \"contracts/SaitaSwapPair.sol\":4729:4768  IERC20(token0).balanceOf(address(this)) */\n      0x40\n      dup1\n      mload\n      shl(0xe0, 0x70a08231)\n      dup2\n      mstore\n        /* \"contracts/SaitaSwapPair.sol\":4762:4766  this */\n      address\n        /* \"contracts/SaitaSwapPair.sol\":4729:4768  IERC20(token0).balanceOf(address(this)) */\n      0x04\n      dup3\n      add\n      mstore\n      swap1\n      mload\n        /* \"contracts/SaitaSwapPair.sol\":4633:4688  (uint112 _reserve0, uint112 _reserve1,) = getReserves() */\n      swap4\n      swap6\n      pop\n      swap2\n      swap4\n      pop\n      0x00\n      swap3\n      sub(shl(0xa0, 0x01), 0x01)\n        /* \"contracts/SaitaSwapPair.sol\":4736:4742  token0 */\n      swap1\n      swap2\n      and\n      swap2\n      0x70a08231\n      swap2\n        /* \"contracts/SaitaSwapPair.sol\":4729:4768  IERC20(token0).balanceOf(address(this)) */\n      0x24\n      dup1\n      dup4\n      add\n      swap3\n      0x20\n      swap3\n      swap2\n      swap1\n      dup3\n      swap1\n      sub\n      add\n      dup2\n        /* \"contracts/SaitaSwapPair.sol\":4736:4742  token0 */\n      dup7\n        /* \"contracts/SaitaSwapPair.sol\":4729:4768  IERC20(token0).balanceOf(address(this)) */\n      dup1\n      extcodesize\n      iszero\n        /* \"--CODEGEN--\":5:7   */\n      dup1\n      iszero\n      tag_179\n      jumpi\n        /* \"--CODEGEN--\":30:31   */\n      0x00\n        /* \"--CODEGEN--\":27:28   */\n      dup1\n        /* \"--CODEGEN--\":20:32   */\n      revert\n        /* \"--CODEGEN--\":5:7   */\n    tag_179:\n        /* \"contracts/SaitaSwapPair.sol\":4729:4768  IERC20(token0).balanceOf(address(this)) */\n      pop\n      gas\n      staticcall\n      iszero\n        /* \"--CODEGEN--\":8:17   */\n      dup1\n        /* \"--CODEGEN--\":5:7   */\n      iszero\n      tag_180\n      jumpi\n        /* \"--CODEGEN--\":45:61   */\n      returndatasize\n        /* \"--CODEGEN--\":42:43   */\n      0x00\n        /* \"--CODEGEN--\":39:40   */\n      dup1\n        /* \"--CODEGEN--\":24:62   */\n      returndatacopy\n        /* \"--CODEGEN--\":77:93   */\n      returndatasize\n        /* \"--CODEGEN--\":74:75   */\n      0x00\n        /* \"--CODEGEN--\":67:94   */\n      revert\n        /* \"--CODEGEN--\":5:7   */\n    tag_180:\n        /* \"contracts/SaitaSwapPair.sol\":4729:4768  IERC20(token0).balanceOf(address(this)) */\n      pop\n      pop\n      pop\n      pop\n      mload(0x40)\n      returndatasize\n        /* \"--CODEGEN--\":13:15   */\n      0x20\n        /* \"--CODEGEN--\":8:11   */\n      dup2\n        /* \"--CODEGEN--\":5:16   */\n      lt\n        /* \"--CODEGEN--\":2:4   */\n      iszero\n      tag_181\n      jumpi\n        /* \"--CODEGEN--\":29:30   */\n      0x00\n        /* \"--CODEGEN--\":26:27   */\n      dup1\n        /* \"--CODEGEN--\":19:31   */\n      revert\n        /* \"--CODEGEN--\":2:4   */\n    tag_181:\n      pop\n        /* \"contracts/SaitaSwapPair.sol\":4729:4768  IERC20(token0).balanceOf(address(this)) */\n      mload\n        /* \"contracts/SaitaSwapPair.sol\":4801:4807  token1 */\n      sload(0x07)\n        /* \"contracts/SaitaSwapPair.sol\":4794:4833  IERC20(token1).balanceOf(address(this)) */\n      0x40\n      dup1\n      mload\n      shl(0xe0, 0x70a08231)\n      dup2\n      mstore\n        /* \"contracts/SaitaSwapPair.sol\":4827:4831  this */\n      address\n        /* \"contracts/SaitaSwapPair.sol\":4794:4833  IERC20(token1).balanceOf(address(this)) */\n      0x04\n      dup3\n      add\n      mstore\n      swap1\n      mload\n        /* \"contracts/SaitaSwapPair.sol\":4729:4768  IERC20(token0).balanceOf(address(this)) */\n      swap3\n      swap4\n      pop\n      0x00\n      swap3\n      sub(shl(0xa0, 0x01), 0x01)\n        /* \"contracts/SaitaSwapPair.sol\":4801:4807  token1 */\n      swap1\n      swap3\n      and\n      swap2\n      0x70a08231\n      swap2\n        /* \"contracts/SaitaSwapPair.sol\":4794:4833  IERC20(token1).balanceOf(address(this)) */\n      0x24\n      dup1\n      dup3\n      add\n      swap3\n        /* \"contracts/SaitaSwapPair.sol\":4729:4768  IERC20(token0).balanceOf(address(this)) */\n      0x20\n      swap3\n        /* \"contracts/SaitaSwapPair.sol\":4794:4833  IERC20(token1).balanceOf(address(this)) */\n      swap1\n      swap2\n      swap1\n      dup3\n      swap1\n      sub\n      add\n      dup2\n        /* \"contracts/SaitaSwapPair.sol\":4801:4807  token1 */\n      dup7\n        /* \"contracts/SaitaSwapPair.sol\":4794:4833  IERC20(token1).balanceOf(address(this)) */\n      dup1\n      extcodesize\n      iszero\n        /* \"--CODEGEN--\":5:7   */\n      dup1\n      iszero\n      tag_182\n      jumpi\n        /* \"--CODEGEN--\":30:31   */\n      0x00\n        /* \"--CODEGEN--\":27:28   */\n      dup1\n        /* \"--CODEGEN--\":20:32   */\n      revert\n        /* \"--CODEGEN--\":5:7   */\n    tag_182:\n        /* \"contracts/SaitaSwapPair.sol\":4794:4833  IERC20(token1).balanceOf(address(this)) */\n      pop\n      gas\n      staticcall\n      iszero\n        /* \"--CODEGEN--\":8:17   */\n      dup1\n        /* \"--CODEGEN--\":5:7   */\n      iszero\n      tag_183\n      jumpi\n        /* \"--CODEGEN--\":45:61   */\n      returndatasize\n        /* \"--CODEGEN--\":42:43   */\n      0x00\n        /* \"--CODEGEN--\":39:40   */\n      dup1\n        /* \"--CODEGEN--\":24:62   */\n      returndatacopy\n        /* \"--CODEGEN--\":77:93   */\n      returndatasize\n        /* \"--CODEGEN--\":74:75   */\n      0x00\n        /* \"--CODEGEN--\":67:94   */\n      revert\n        /* \"--CODEGEN--\":5:7   */\n    tag_183:\n        /* \"contracts/SaitaSwapPair.sol\":4794:4833  IERC20(token1).balanceOf(address(this)) */\n      pop\n      pop\n      pop\n      pop\n      mload(0x40)\n      returndatasize\n        /* \"--CODEGEN--\":13:15   */\n      0x20\n        /* \"--CODEGEN--\":8:11   */\n      dup2\n        /* \"--CODEGEN--\":5:16   */\n      lt\n        /* \"--CODEGEN--\":2:4   */\n      iszero\n      tag_184\n      jumpi\n        /* \"--CODEGEN--\":29:30   */\n      0x00\n        /* \"--CODEGEN--\":26:27   */\n      dup1\n        /* \"--CODEGEN--\":19:31   */\n      revert\n        /* \"--CODEGEN--\":2:4   */\n    tag_184:\n      pop\n        /* \"contracts/SaitaSwapPair.sol\":4794:4833  IERC20(token1).balanceOf(address(this)) */\n      mload\n      swap1\n      pop\n        /* \"contracts/SaitaSwapPair.sol\":4843:4855  uint amount0 */\n      0x00\n        /* \"contracts/SaitaSwapPair.sol\":4858:4881  balance0.sub(_reserve0) */\n      tag_185\n        /* \"contracts/SaitaSwapPair.sol\":4858:4866  balance0 */\n      dup4\n      sub(shl(0x70, 0x01), 0x01)\n        /* \"contracts/SaitaSwapPair.sol\":4858:4881  balance0.sub(_reserve0) */\n      dup8\n      and\n        /* \"contracts/SaitaSwapPair.sol\":4858:4870  balance0.sub */\n      tag_154\n        /* \"contracts/SaitaSwapPair.sol\":4858:4881  balance0.sub(_reserve0) */\n      jump\t// in\n    tag_185:\n        /* \"contracts/SaitaSwapPair.sol\":4843:4881  uint amount0 = balance0.sub(_reserve0) */\n      swap1\n      pop\n        /* \"contracts/SaitaSwapPair.sol\":4891:4903  uint amount1 */\n      0x00\n        /* \"contracts/SaitaSwapPair.sol\":4906:4929  balance1.sub(_reserve1) */\n      tag_186\n        /* \"contracts/SaitaSwapPair.sol\":4906:4914  balance1 */\n      dup4\n      sub(shl(0x70, 0x01), 0x01)\n        /* \"contracts/SaitaSwapPair.sol\":4906:4929  balance1.sub(_reserve1) */\n      dup8\n      and\n        /* \"contracts/SaitaSwapPair.sol\":4906:4918  balance1.sub */\n      tag_154\n        /* \"contracts/SaitaSwapPair.sol\":4906:4929  balance1.sub(_reserve1) */\n      jump\t// in\n    tag_186:\n        /* \"contracts/SaitaSwapPair.sol\":4891:4929  uint amount1 = balance1.sub(_reserve1) */\n      swap1\n      pop\n        /* \"contracts/SaitaSwapPair.sol\":4940:4950  bool feeOn */\n      0x00\n        /* \"contracts/SaitaSwapPair.sol\":4953:4983  _mintFee(_reserve0, _reserve1) */\n      tag_187\n        /* \"contracts/SaitaSwapPair.sol\":4962:4971  _reserve0 */\n      dup8\n        /* \"contracts/SaitaSwapPair.sol\":4973:4982  _reserve1 */\n      dup8\n        /* \"contracts/SaitaSwapPair.sol\":4953:4961  _mintFee */\n      tag_188\n        /* \"contracts/SaitaSwapPair.sol\":4953:4983  _mintFee(_reserve0, _reserve1) */\n      jump\t// in\n    tag_187:\n        /* \"contracts/SaitaSwapPair.sol\":4993:5010  uint _totalSupply */\n      0x00\n        /* \"contracts/SaitaSwapPair.sol\":5013:5024  totalSupply */\n      sload\n        /* \"contracts/SaitaSwapPair.sol\":4940:4983  bool feeOn = _mintFee(_reserve0, _reserve1) */\n      swap1\n      swap2\n      pop\n        /* \"contracts/SaitaSwapPair.sol\":5116:5133  _totalSupply == 0 */\n      dup1\n        /* \"contracts/SaitaSwapPair.sol\":5112:5459  if (_totalSupply == 0) {... */\n      tag_189\n      jumpi\n        /* \"contracts/SaitaSwapPair.sol\":5161:5215  Math.sqrt(amount0.mul(amount1)).sub(MINIMUM_LIQUIDITY) */\n      tag_190\n        /* \"contracts/SaitaSwapPair.sol\":494:499  10**3 */\n      0x03e8\n        /* \"contracts/SaitaSwapPair.sol\":5161:5192  Math.sqrt(amount0.mul(amount1)) */\n      tag_153\n        /* \"contracts/SaitaSwapPair.sol\":5171:5191  amount0.mul(amount1) */\n      tag_192\n        /* \"contracts/SaitaSwapPair.sol\":5171:5178  amount0 */\n      dup8\n        /* \"contracts/SaitaSwapPair.sol\":5183:5190  amount1 */\n      dup8\n        /* \"contracts/SaitaSwapPair.sol\":5171:5191  amount0.mul(amount1) */\n      0xffffffff\n        /* \"contracts/SaitaSwapPair.sol\":5171:5182  amount0.mul */\n      tag_152\n        /* \"contracts/SaitaSwapPair.sol\":5171:5191  amount0.mul(amount1) */\n      and\n      jump\t// in\n    tag_192:\n        /* \"contracts/SaitaSwapPair.sol\":5161:5170  Math.sqrt */\n      tag_193\n        /* \"contracts/SaitaSwapPair.sol\":5161:5192  Math.sqrt(amount0.mul(amount1)) */\n      jump\t// in\n        /* \"contracts/SaitaSwapPair.sol\":5161:5215  Math.sqrt(amount0.mul(amount1)).sub(MINIMUM_LIQUIDITY) */\n    tag_190:\n        /* \"contracts/SaitaSwapPair.sol\":5149:5215  liquidity = Math.sqrt(amount0.mul(amount1)).sub(MINIMUM_LIQUIDITY) */\n      swap9\n      pop\n        /* \"contracts/SaitaSwapPair.sol\":5228:5264  _mint(address(0), MINIMUM_LIQUIDITY) */\n      tag_194\n        /* \"contracts/SaitaSwapPair.sol\":5242:5243  0 */\n      0x00\n        /* \"contracts/SaitaSwapPair.sol\":494:499  10**3 */\n      0x03e8\n        /* \"contracts/SaitaSwapPair.sol\":5228:5233  _mint */\n      tag_195\n        /* \"contracts/SaitaSwapPair.sol\":5228:5264  _mint(address(0), MINIMUM_LIQUIDITY) */\n      jump\t// in\n    tag_194:\n        /* \"contracts/SaitaSwapPair.sol\":5112:5459  if (_totalSupply == 0) {... */\n      jump(tag_196)\n    tag_189:\n        /* \"contracts/SaitaSwapPair.sol\":5362:5448  Math.min(amount0.mul(_totalSupply) / _reserve0, amount1.mul(_totalSupply) / _reserve1) */\n      tag_197\n      sub(shl(0x70, 0x01), 0x01)\n        /* \"contracts/SaitaSwapPair.sol\":5371:5408  amount0.mul(_totalSupply) / _reserve0 */\n      dup10\n      and\n        /* \"contracts/SaitaSwapPair.sol\":5371:5396  amount0.mul(_totalSupply) */\n      tag_198\n        /* \"contracts/SaitaSwapPair.sol\":5371:5378  amount0 */\n      dup7\n        /* \"contracts/SaitaSwapPair.sol\":5383:5395  _totalSupply */\n      dup5\n        /* \"contracts/SaitaSwapPair.sol\":5371:5382  amount0.mul */\n      tag_152\n        /* \"contracts/SaitaSwapPair.sol\":5371:5396  amount0.mul(_totalSupply) */\n      jump\t// in\n    tag_198:\n        /* \"contracts/SaitaSwapPair.sol\":5371:5408  amount0.mul(_totalSupply) / _reserve0 */\n      dup2\n      tag_199\n      jumpi\n      invalid\n    tag_199:\n      div\n      sub(shl(0x70, 0x01), 0x01)\n        /* \"contracts/SaitaSwapPair.sol\":5410:5447  amount1.mul(_totalSupply) / _reserve1 */\n      dup10\n      and\n        /* \"contracts/SaitaSwapPair.sol\":5410:5435  amount1.mul(_totalSupply) */\n      tag_200\n        /* \"contracts/SaitaSwapPair.sol\":5410:5417  amount1 */\n      dup7\n        /* \"contracts/SaitaSwapPair.sol\":5422:5434  _totalSupply */\n      dup6\n        /* \"contracts/SaitaSwapPair.sol\":5410:5421  amount1.mul */\n      tag_152\n        /* \"contracts/SaitaSwapPair.sol\":5410:5435  amount1.mul(_totalSupply) */\n      jump\t// in\n    tag_200:\n        /* \"contracts/SaitaSwapPair.sol\":5410:5447  amount1.mul(_totalSupply) / _reserve1 */\n      dup2\n      tag_201\n      jumpi\n      invalid\n    tag_201:\n      div\n        /* \"contracts/SaitaSwapPair.sol\":5362:5370  Math.min */\n      tag_202\n        /* \"contracts/SaitaSwapPair.sol\":5362:5448  Math.min(amount0.mul(_totalSupply) / _reserve0, amount1.mul(_totalSupply) / _reserve1) */\n      jump\t// in\n    tag_197:\n        /* \"contracts/SaitaSwapPair.sol\":5350:5448  liquidity = Math.min(amount0.mul(_totalSupply) / _reserve0, amount1.mul(_totalSupply) / _reserve1) */\n      swap9\n      pop\n        /* \"contracts/SaitaSwapPair.sol\":5112:5459  if (_totalSupply == 0) {... */\n    tag_196:\n        /* \"contracts/SaitaSwapPair.sol\":5488:5489  0 */\n      0x00\n        /* \"contracts/SaitaSwapPair.sol\":5476:5485  liquidity */\n      dup10\n        /* \"contracts/SaitaSwapPair.sol\":5476:5489  liquidity > 0 */\n      gt\n        /* \"contracts/SaitaSwapPair.sol\":5468:5534  require(liquidity > 0, 'SaitaSwap: INSUFFICIENT_LIQUIDITY_MINTED') */\n      tag_203\n      jumpi\n      mload(0x40)\n      shl(0xe5, 0x461bcd)\n      dup2\n      mstore\n      0x04\n      add\n      dup1\n      dup1\n      0x20\n      add\n      dup3\n      dup2\n      sub\n      dup3\n      mstore\n      0x28\n      dup2\n      mstore\n      0x20\n      add\n      dup1\n      data_0a51e7944d2122a77fd4e73c44622c7641a6ffe5c17d5a532aabed4e2ee72ec2\n      0x28\n      swap2\n      codecopy\n      0x40\n      add\n      swap2\n      pop\n      pop\n      mload(0x40)\n      dup1\n      swap2\n      sub\n      swap1\n      revert\n    tag_203:\n        /* \"contracts/SaitaSwapPair.sol\":5544:5564  _mint(to, liquidity) */\n      tag_204\n        /* \"contracts/SaitaSwapPair.sol\":5550:5552  to */\n      dup11\n        /* \"contracts/SaitaSwapPair.sol\":5554:5563  liquidity */\n      dup11\n        /* \"contracts/SaitaSwapPair.sol\":5544:5549  _mint */\n      tag_195\n        /* \"contracts/SaitaSwapPair.sol\":5544:5564  _mint(to, liquidity) */\n      jump\t// in\n    tag_204:\n        /* \"contracts/SaitaSwapPair.sol\":5575:5624  _update(balance0, balance1, _reserve0, _reserve1) */\n      tag_205\n        /* \"contracts/SaitaSwapPair.sol\":5583:5591  balance0 */\n      dup7\n        /* \"contracts/SaitaSwapPair.sol\":5593:5601  balance1 */\n      dup7\n        /* \"contracts/SaitaSwapPair.sol\":5603:5612  _reserve0 */\n      dup11\n        /* \"contracts/SaitaSwapPair.sol\":5614:5623  _reserve1 */\n      dup11\n        /* \"contracts/SaitaSwapPair.sol\":5575:5582  _update */\n      tag_163\n        /* \"contracts/SaitaSwapPair.sol\":5575:5624  _update(balance0, balance1, _reserve0, _reserve1) */\n      jump\t// in\n    tag_205:\n        /* \"contracts/SaitaSwapPair.sol\":5638:5643  feeOn */\n      dup2\n        /* \"contracts/SaitaSwapPair.sol\":5634:5681  if (feeOn) kLast = uint(reserve0).mul(reserve1) */\n      iszero\n      tag_206\n      jumpi\n        /* \"contracts/SaitaSwapPair.sol\":5672:5680  reserve1 */\n      sload(0x0a)\n        /* \"contracts/SaitaSwapPair.sol\":5653:5681  uint(reserve0).mul(reserve1) */\n      tag_207\n      swap1\n      sub(shl(0x70, 0x01), 0x01)\n        /* \"contracts/SaitaSwapPair.sol\":5658:5666  reserve0 */\n      dup1\n      dup3\n      and\n      swap2\n      shl(0x70, 0x01)\n        /* \"contracts/SaitaSwapPair.sol\":5672:5680  reserve1 */\n      swap1\n      div\n      and\n        /* \"contracts/SaitaSwapPair.sol\":5653:5671  uint(reserve0).mul */\n      tag_152\n        /* \"contracts/SaitaSwapPair.sol\":5653:5681  uint(reserve0).mul(reserve1) */\n      jump\t// in\n    tag_207:\n        /* \"contracts/SaitaSwapPair.sol\":5645:5650  kLast */\n      0x0d\n        /* \"contracts/SaitaSwapPair.sol\":5645:5681  kLast = uint(reserve0).mul(reserve1) */\n      sstore\n        /* \"contracts/SaitaSwapPair.sol\":5634:5681  if (feeOn) kLast = uint(reserve0).mul(reserve1) */\n    tag_206:\n        /* \"contracts/SaitaSwapPair.sol\":5736:5770  Mint(msg.sender, amount0, amount1) */\n      0x40\n      dup1\n      mload\n      dup6\n      dup2\n      mstore\n      0x20\n      dup2\n      add\n      dup6\n      swap1\n      mstore\n      dup2\n      mload\n        /* \"contracts/SaitaSwapPair.sol\":5741:5751  msg.sender */\n      caller\n      swap3\n        /* \"contracts/SaitaSwapPair.sol\":5736:5770  Mint(msg.sender, amount0, amount1) */\n      0x4c209b5fc8ad50758f13e2e1088ba56a560dff690a1c6fef26394f4c03821c4f\n      swap3\n      dup3\n      swap1\n      sub\n      add\n      swap1\n      log2\n      pop\n      pop\n        /* \"contracts/SaitaSwapPair.sol\":1395:1396  1 */\n      0x01\n        /* \"contracts/SaitaSwapPair.sol\":1384:1392  unlocked */\n      0x0e\n        /* \"contracts/SaitaSwapPair.sol\":1384:1396  unlocked = 1 */\n      sstore\n      pop\n        /* \"contracts/SaitaSwapPair.sol\":4558:5777  function mint(address to) external lock returns (uint liquidity) {... */\n      swap5\n      swap7\n      swap6\n      pop\n      pop\n      pop\n      pop\n      pop\n      pop\n      jump\t// out\n        /* \"contracts/SaitaSwapERC20.sol\":388:429  mapping(address => uint) public balanceOf */\n    tag_81:\n      mstore(0x20, 0x01)\n      0x00\n      swap1\n      dup2\n      mstore\n      0x40\n      swap1\n      keccak256\n      sload\n      dup2\n      jump\t// out\n        /* \"contracts/SaitaSwapPair.sol\":725:762  uint public SWAP_FEE_DENOMINATOR=1000 */\n    tag_83:\n      sload(0x09)\n      dup2\n      jump\t// out\n        /* \"contracts/SaitaSwapPair.sol\":1137:1154  uint public kLast */\n    tag_85:\n      sload(0x0d)\n      dup2\n      jump\t// out\n        /* \"contracts/SaitaSwapERC20.sol\":758:796  mapping(address => uint) public nonces */\n    tag_88:\n      mstore(0x20, 0x04)\n      0x00\n      swap1\n      dup2\n      mstore\n      0x40\n      swap1\n      keccak256\n      sload\n      dup2\n      jump\t// out\n        /* \"contracts/SaitaSwapPair.sol\":5886:7330  function burn(address to) external lock returns (uint amount0, uint amount1) {... */\n    tag_91:\n        /* \"contracts/SaitaSwapPair.sol\":5935:5947  uint amount0 */\n      0x00\n        /* \"contracts/SaitaSwapPair.sol\":5949:5961  uint amount1 */\n      dup1\n        /* \"contracts/SaitaSwapPair.sol\":1306:1314  unlocked */\n      sload(0x0e)\n        /* \"contracts/SaitaSwapPair.sol\":1318:1319  1 */\n      0x01\n        /* \"contracts/SaitaSwapPair.sol\":1306:1319  unlocked == 1 */\n      eq\n        /* \"contracts/SaitaSwapPair.sol\":1298:1341  require(unlocked == 1, 'SaitaSwap: LOCKED') */\n      tag_209\n      jumpi\n      0x40\n      dup1\n      mload\n      shl(0xe5, 0x461bcd)\n      dup2\n      mstore\n      0x20\n      0x04\n      dup3\n      add\n      mstore\n      0x11\n      0x24\n      dup3\n      add\n      mstore\n      shl(0x7a, 0x14d85a5d1854ddd85c0e881313d0d2d151)\n      0x44\n      dup3\n      add\n      mstore\n      swap1\n      mload\n      swap1\n      dup2\n      swap1\n      sub\n      0x64\n      add\n      swap1\n      revert\n    tag_209:\n        /* \"contracts/SaitaSwapPair.sol\":1362:1363  0 */\n      0x00\n        /* \"contracts/SaitaSwapPair.sol\":1351:1359  unlocked */\n      0x0e\n        /* \"contracts/SaitaSwapPair.sol\":1351:1363  unlocked = 0 */\n      dup2\n      swap1\n      sstore\n        /* \"contracts/SaitaSwapPair.sol\":1362:1363  0 */\n      dup1\n        /* \"contracts/SaitaSwapPair.sol\":6015:6028  getReserves() */\n      tag_211\n        /* \"contracts/SaitaSwapPair.sol\":6015:6026  getReserves */\n      tag_52\n        /* \"contracts/SaitaSwapPair.sol\":6015:6028  getReserves() */\n      jump\t// in\n    tag_211:\n      pop\n        /* \"contracts/SaitaSwapPair.sol\":6071:6077  token0 */\n      sload(0x06)\n        /* \"contracts/SaitaSwapPair.sol\":6151:6157  token1 */\n      sload(0x07)\n        /* \"contracts/SaitaSwapPair.sol\":6229:6269  IERC20(_token0).balanceOf(address(this)) */\n      0x40\n      dup1\n      mload\n      shl(0xe0, 0x70a08231)\n      dup2\n      mstore\n        /* \"contracts/SaitaSwapPair.sol\":6263:6267  this */\n      address\n        /* \"contracts/SaitaSwapPair.sol\":6229:6269  IERC20(_token0).balanceOf(address(this)) */\n      0x04\n      dup3\n      add\n      mstore\n      swap1\n      mload\n        /* \"contracts/SaitaSwapPair.sol\":5973:6028  (uint112 _reserve0, uint112 _reserve1,) = getReserves() */\n      swap5\n      swap7\n      pop\n      swap3\n      swap5\n      pop\n      sub(shl(0xa0, 0x01), 0x01)\n        /* \"contracts/SaitaSwapPair.sol\":6071:6077  token0 */\n      swap2\n      dup3\n      and\n      swap4\n        /* \"contracts/SaitaSwapPair.sol\":6151:6157  token1 */\n      swap2\n      and\n      swap2\n      0x00\n      swap2\n        /* \"contracts/SaitaSwapPair.sol\":6071:6077  token0 */\n      dup5\n      swap2\n      0x70a08231\n      swap2\n        /* \"contracts/SaitaSwapPair.sol\":6229:6269  IERC20(_token0).balanceOf(address(this)) */\n      0x24\n      dup1\n      dup4\n      add\n      swap3\n      0x20\n      swap3\n      swap2\n      swap1\n      dup3\n      swap1\n      sub\n      add\n      dup2\n        /* \"contracts/SaitaSwapPair.sol\":6071:6077  token0 */\n      dup7\n        /* \"contracts/SaitaSwapPair.sol\":6229:6269  IERC20(_token0).balanceOf(address(this)) */\n      dup1\n      extcodesize\n      iszero\n        /* \"--CODEGEN--\":5:7   */\n      dup1\n      iszero\n      tag_212\n      jumpi\n        /* \"--CODEGEN--\":30:31   */\n      0x00\n        /* \"--CODEGEN--\":27:28   */\n      dup1\n        /* \"--CODEGEN--\":20:32   */\n      revert\n        /* \"--CODEGEN--\":5:7   */\n    tag_212:\n        /* \"contracts/SaitaSwapPair.sol\":6229:6269  IERC20(_token0).balanceOf(address(this)) */\n      pop\n      gas\n      staticcall\n      iszero\n        /* \"--CODEGEN--\":8:17   */\n      dup1\n        /* \"--CODEGEN--\":5:7   */\n      iszero\n      tag_213\n      jumpi\n        /* \"--CODEGEN--\":45:61   */\n      returndatasize\n        /* \"--CODEGEN--\":42:43   */\n      0x00\n        /* \"--CODEGEN--\":39:40   */\n      dup1\n        /* \"--CODEGEN--\":24:62   */\n      returndatacopy\n        /* \"--CODEGEN--\":77:93   */\n      returndatasize\n        /* \"--CODEGEN--\":74:75   */\n      0x00\n        /* \"--CODEGEN--\":67:94   */\n      revert\n        /* \"--CODEGEN--\":5:7   */\n    tag_213:\n        /* \"contracts/SaitaSwapPair.sol\":6229:6269  IERC20(_token0).balanceOf(address(this)) */\n      pop\n      pop\n      pop\n      pop\n      mload(0x40)\n      returndatasize\n        /* \"--CODEGEN--\":13:15   */\n      0x20\n        /* \"--CODEGEN--\":8:11   */\n      dup2\n        /* \"--CODEGEN--\":5:16   */\n      lt\n        /* \"--CODEGEN--\":2:4   */\n      iszero\n      tag_214\n      jumpi\n        /* \"--CODEGEN--\":29:30   */\n      0x00\n        /* \"--CODEGEN--\":26:27   */\n      dup1\n        /* \"--CODEGEN--\":19:31   */\n      revert\n        /* \"--CODEGEN--\":2:4   */\n    tag_214:\n      pop\n        /* \"contracts/SaitaSwapPair.sol\":6229:6269  IERC20(_token0).balanceOf(address(this)) */\n      mload\n        /* \"contracts/SaitaSwapPair.sol\":6295:6335  IERC20(_token1).balanceOf(address(this)) */\n      0x40\n      dup1\n      mload\n      shl(0xe0, 0x70a08231)\n      dup2\n      mstore\n        /* \"contracts/SaitaSwapPair.sol\":6329:6333  this */\n      address\n        /* \"contracts/SaitaSwapPair.sol\":6295:6335  IERC20(_token1).balanceOf(address(this)) */\n      0x04\n      dup3\n      add\n      mstore\n      swap1\n      mload\n        /* \"contracts/SaitaSwapPair.sol\":6229:6269  IERC20(_token0).balanceOf(address(this)) */\n      swap2\n      swap3\n      pop\n      0x00\n      swap2\n      sub(shl(0xa0, 0x01), 0x01)\n        /* \"contracts/SaitaSwapPair.sol\":6295:6320  IERC20(_token1).balanceOf */\n      dup6\n      and\n      swap2\n      0x70a08231\n      swap2\n        /* \"contracts/SaitaSwapPair.sol\":6295:6335  IERC20(_token1).balanceOf(address(this)) */\n      0x24\n      dup1\n      dup4\n      add\n      swap3\n        /* \"contracts/SaitaSwapPair.sol\":6229:6269  IERC20(_token0).balanceOf(address(this)) */\n      0x20\n      swap3\n        /* \"contracts/SaitaSwapPair.sol\":6295:6335  IERC20(_token1).balanceOf(address(this)) */\n      swap2\n      swap1\n      dup3\n      swap1\n      sub\n      add\n      dup2\n        /* \"contracts/SaitaSwapPair.sol\":6295:6320  IERC20(_token1).balanceOf */\n      dup7\n        /* \"contracts/SaitaSwapPair.sol\":6295:6335  IERC20(_token1).balanceOf(address(this)) */\n      dup1\n      extcodesize\n      iszero\n        /* \"--CODEGEN--\":5:7   */\n      dup1\n      iszero\n      tag_215\n      jumpi\n        /* \"--CODEGEN--\":30:31   */\n      0x00\n        /* \"--CODEGEN--\":27:28   */\n      dup1\n        /* \"--CODEGEN--\":20:32   */\n      revert\n        /* \"--CODEGEN--\":5:7   */\n    tag_215:\n        /* \"contracts/SaitaSwapPair.sol\":6295:6335  IERC20(_token1).balanceOf(address(this)) */\n      pop\n      gas\n      staticcall\n      iszero\n        /* \"--CODEGEN--\":8:17   */\n      dup1\n        /* \"--CODEGEN--\":5:7   */\n      iszero\n      tag_216\n      jumpi\n        /* \"--CODEGEN--\":45:61   */\n      returndatasize\n        /* \"--CODEGEN--\":42:43   */\n      0x00\n        /* \"--CODEGEN--\":39:40   */\n      dup1\n        /* \"--CODEGEN--\":24:62   */\n      returndatacopy\n        /* \"--CODEGEN--\":77:93   */\n      returndatasize\n        /* \"--CODEGEN--\":74:75   */\n      0x00\n        /* \"--CODEGEN--\":67:94   */\n      revert\n        /* \"--CODEGEN--\":5:7   */\n    tag_216:\n        /* \"contracts/SaitaSwapPair.sol\":6295:6335  IERC20(_token1).balanceOf(address(this)) */\n      pop\n      pop\n      pop\n      pop\n      mload(0x40)\n      returndatasize\n        /* \"--CODEGEN--\":13:15   */\n      0x20\n        /* \"--CODEGEN--\":8:11   */\n      dup2\n        /* \"--CODEGEN--\":5:16   */\n      lt\n        /* \"--CODEGEN--\":2:4   */\n      iszero\n      tag_217\n      jumpi\n        /* \"--CODEGEN--\":29:30   */\n      0x00\n        /* \"--CODEGEN--\":26:27   */\n      dup1\n        /* \"--CODEGEN--\":19:31   */\n      revert\n        /* \"--CODEGEN--\":2:4   */\n    tag_217:\n      pop\n        /* \"contracts/SaitaSwapPair.sol\":6295:6335  IERC20(_token1).balanceOf(address(this)) */\n      mload\n        /* \"contracts/SaitaSwapPair.sol\":6380:6384  this */\n      address\n        /* \"contracts/SaitaSwapPair.sol\":6345:6359  uint liquidity */\n      0x00\n        /* \"contracts/SaitaSwapPair.sol\":6362:6386  balanceOf[address(this)] */\n      swap1\n      dup2\n      mstore\n        /* \"contracts/SaitaSwapPair.sol\":6362:6371  balanceOf */\n      0x01\n        /* \"contracts/SaitaSwapPair.sol\":6295:6335  IERC20(_token1).balanceOf(address(this)) */\n      0x20\n        /* \"contracts/SaitaSwapPair.sol\":6362:6386  balanceOf[address(this)] */\n      mstore\n      0x40\n      dup2\n      keccak256\n      sload\n        /* \"contracts/SaitaSwapPair.sol\":6295:6335  IERC20(_token1).balanceOf(address(this)) */\n      swap2\n      swap3\n      pop\n        /* \"contracts/SaitaSwapPair.sol\":6410:6440  _mintFee(_reserve0, _reserve1) */\n      tag_218\n        /* \"contracts/SaitaSwapPair.sol\":6419:6428  _reserve0 */\n      dup9\n        /* \"contracts/SaitaSwapPair.sol\":6430:6439  _reserve1 */\n      dup9\n        /* \"contracts/SaitaSwapPair.sol\":6410:6418  _mintFee */\n      tag_188\n        /* \"contracts/SaitaSwapPair.sol\":6410:6440  _mintFee(_reserve0, _reserve1) */\n      jump\t// in\n    tag_218:\n        /* \"contracts/SaitaSwapPair.sol\":6450:6467  uint _totalSupply */\n      0x00\n        /* \"contracts/SaitaSwapPair.sol\":6470:6481  totalSupply */\n      sload\n        /* \"contracts/SaitaSwapPair.sol\":6397:6440  bool feeOn = _mintFee(_reserve0, _reserve1) */\n      swap1\n      swap2\n      pop\n        /* \"contracts/SaitaSwapPair.sol\":6470:6481  totalSupply */\n      dup1\n        /* \"contracts/SaitaSwapPair.sol\":6579:6602  liquidity.mul(balance0) */\n      tag_219\n        /* \"contracts/SaitaSwapPair.sol\":6579:6588  liquidity */\n      dup5\n        /* \"contracts/SaitaSwapPair.sol\":6593:6601  balance0 */\n      dup8\n        /* \"contracts/SaitaSwapPair.sol\":6579:6602  liquidity.mul(balance0) */\n      0xffffffff\n        /* \"contracts/SaitaSwapPair.sol\":6579:6592  liquidity.mul */\n      tag_152\n        /* \"contracts/SaitaSwapPair.sol\":6579:6602  liquidity.mul(balance0) */\n      and\n      jump\t// in\n    tag_219:\n        /* \"contracts/SaitaSwapPair.sol\":6579:6617  liquidity.mul(balance0) / _totalSupply */\n      dup2\n      tag_220\n      jumpi\n      invalid\n    tag_220:\n      div\n      swap11\n      pop\n        /* \"contracts/SaitaSwapPair.sol\":6711:6723  _totalSupply */\n      dup1\n        /* \"contracts/SaitaSwapPair.sol\":6685:6708  liquidity.mul(balance1) */\n      tag_221\n        /* \"contracts/SaitaSwapPair.sol\":6685:6694  liquidity */\n      dup5\n        /* \"contracts/SaitaSwapPair.sol\":6699:6707  balance1 */\n      dup7\n        /* \"contracts/SaitaSwapPair.sol\":6685:6708  liquidity.mul(balance1) */\n      0xffffffff\n        /* \"contracts/SaitaSwapPair.sol\":6685:6698  liquidity.mul */\n      tag_152\n        /* \"contracts/SaitaSwapPair.sol\":6685:6708  liquidity.mul(balance1) */\n      and\n      jump\t// in\n    tag_221:\n        /* \"contracts/SaitaSwapPair.sol\":6685:6723  liquidity.mul(balance1) / _totalSupply */\n      dup2\n      tag_222\n      jumpi\n      invalid\n    tag_222:\n      div\n        /* \"contracts/SaitaSwapPair.sol\":6675:6723  amount1 = liquidity.mul(balance1) / _totalSupply */\n      swap10\n      pop\n        /* \"contracts/SaitaSwapPair.sol\":6799:6800  0 */\n      0x00\n        /* \"contracts/SaitaSwapPair.sol\":6789:6796  amount0 */\n      dup12\n        /* \"contracts/SaitaSwapPair.sol\":6789:6800  amount0 > 0 */\n      gt\n        /* \"contracts/SaitaSwapPair.sol\":6789:6815  amount0 > 0 && amount1 > 0 */\n      dup1\n      iszero\n      tag_223\n      jumpi\n      pop\n        /* \"contracts/SaitaSwapPair.sol\":6814:6815  0 */\n      0x00\n        /* \"contracts/SaitaSwapPair.sol\":6804:6811  amount1 */\n      dup11\n        /* \"contracts/SaitaSwapPair.sol\":6804:6815  amount1 > 0 */\n      gt\n        /* \"contracts/SaitaSwapPair.sol\":6789:6815  amount0 > 0 && amount1 > 0 */\n    tag_223:\n        /* \"contracts/SaitaSwapPair.sol\":6781:6860  require(amount0 > 0 && amount1 > 0, 'SaitaSwap: INSUFFICIENT_LIQUIDITY_BURNED') */\n      tag_224\n      jumpi\n      mload(0x40)\n      shl(0xe5, 0x461bcd)\n      dup2\n      mstore\n      0x04\n      add\n      dup1\n      dup1\n      0x20\n      add\n      dup3\n      dup2\n      sub\n      dup3\n      mstore\n      0x28\n      dup2\n      mstore\n      0x20\n      add\n      dup1\n      data_5e82f3f52455bf4ac5f469da7ca9ef9ebf1a038e167ba303f62198c7bdd5951c\n      0x28\n      swap2\n      codecopy\n      0x40\n      add\n      swap2\n      pop\n      pop\n      mload(0x40)\n      dup1\n      swap2\n      sub\n      swap1\n      revert\n    tag_224:\n        /* \"contracts/SaitaSwapPair.sol\":6870:6901  _burn(address(this), liquidity) */\n      tag_225\n        /* \"contracts/SaitaSwapPair.sol\":6884:6888  this */\n      address\n        /* \"contracts/SaitaSwapPair.sol\":6891:6900  liquidity */\n      dup5\n        /* \"contracts/SaitaSwapPair.sol\":6870:6875  _burn */\n      tag_226\n        /* \"contracts/SaitaSwapPair.sol\":6870:6901  _burn(address(this), liquidity) */\n      jump\t// in\n    tag_225:\n        /* \"contracts/SaitaSwapPair.sol\":6911:6946  _safeTransfer(_token0, to, amount0) */\n      tag_227\n        /* \"contracts/SaitaSwapPair.sol\":6925:6932  _token0 */\n      dup8\n        /* \"contracts/SaitaSwapPair.sol\":6934:6936  to */\n      dup14\n        /* \"contracts/SaitaSwapPair.sol\":6938:6945  amount0 */\n      dup14\n        /* \"contracts/SaitaSwapPair.sol\":6911:6924  _safeTransfer */\n      tag_132\n        /* \"contracts/SaitaSwapPair.sol\":6911:6946  _safeTransfer(_token0, to, amount0) */\n      jump\t// in\n    tag_227:\n        /* \"contracts/SaitaSwapPair.sol\":6956:6991  _safeTransfer(_token1, to, amount1) */\n      tag_228\n        /* \"contracts/SaitaSwapPair.sol\":6970:6977  _token1 */\n      dup7\n        /* \"contracts/SaitaSwapPair.sol\":6979:6981  to */\n      dup14\n        /* \"contracts/SaitaSwapPair.sol\":6983:6990  amount1 */\n      dup13\n        /* \"contracts/SaitaSwapPair.sol\":6956:6969  _safeTransfer */\n      tag_132\n        /* \"contracts/SaitaSwapPair.sol\":6956:6991  _safeTransfer(_token1, to, amount1) */\n      jump\t// in\n    tag_228:\n        /* \"contracts/SaitaSwapPair.sol\":7012:7052  IERC20(_token0).balanceOf(address(this)) */\n      0x40\n      dup1\n      mload\n      shl(0xe0, 0x70a08231)\n      dup2\n      mstore\n        /* \"contracts/SaitaSwapPair.sol\":7046:7050  this */\n      address\n        /* \"contracts/SaitaSwapPair.sol\":7012:7052  IERC20(_token0).balanceOf(address(this)) */\n      0x04\n      dup3\n      add\n      mstore\n      swap1\n      mload\n      sub(shl(0xa0, 0x01), 0x01)\n        /* \"contracts/SaitaSwapPair.sol\":7012:7037  IERC20(_token0).balanceOf */\n      dup10\n      and\n      swap2\n      0x70a08231\n      swap2\n        /* \"contracts/SaitaSwapPair.sol\":7012:7052  IERC20(_token0).balanceOf(address(this)) */\n      0x24\n      dup1\n      dup4\n      add\n      swap3\n      0x20\n      swap3\n      swap2\n      swap1\n      dup3\n      swap1\n      sub\n      add\n      dup2\n        /* \"contracts/SaitaSwapPair.sol\":7012:7037  IERC20(_token0).balanceOf */\n      dup7\n        /* \"contracts/SaitaSwapPair.sol\":7012:7052  IERC20(_token0).balanceOf(address(this)) */\n      dup1\n      extcodesize\n      iszero\n        /* \"--CODEGEN--\":5:7   */\n      dup1\n      iszero\n      tag_229\n      jumpi\n        /* \"--CODEGEN--\":30:31   */\n      0x00\n        /* \"--CODEGEN--\":27:28   */\n      dup1\n        /* \"--CODEGEN--\":20:32   */\n      revert\n        /* \"--CODEGEN--\":5:7   */\n    tag_229:\n        /* \"contracts/SaitaSwapPair.sol\":7012:7052  IERC20(_token0).balanceOf(address(this)) */\n      pop\n      gas\n      staticcall\n      iszero\n        /* \"--CODEGEN--\":8:17   */\n      dup1\n        /* \"--CODEGEN--\":5:7   */\n      iszero\n      tag_230\n      jumpi\n        /* \"--CODEGEN--\":45:61   */\n      returndatasize\n        /* \"--CODEGEN--\":42:43   */\n      0x00\n        /* \"--CODEGEN--\":39:40   */\n      dup1\n        /* \"--CODEGEN--\":24:62   */\n      returndatacopy\n        /* \"--CODEGEN--\":77:93   */\n      returndatasize\n        /* \"--CODEGEN--\":74:75   */\n      0x00\n        /* \"--CODEGEN--\":67:94   */\n      revert\n        /* \"--CODEGEN--\":5:7   */\n    tag_230:\n        /* \"contracts/SaitaSwapPair.sol\":7012:7052  IERC20(_token0).balanceOf(address(this)) */\n      pop\n      pop\n      pop\n      pop\n      mload(0x40)\n      returndatasize\n        /* \"--CODEGEN--\":13:15   */\n      0x20\n        /* \"--CODEGEN--\":8:11   */\n      dup2\n        /* \"--CODEGEN--\":5:16   */\n      lt\n        /* \"--CODEGEN--\":2:4   */\n      iszero\n      tag_231\n      jumpi\n        /* \"--CODEGEN--\":29:30   */\n      0x00\n        /* \"--CODEGEN--\":26:27   */\n      dup1\n        /* \"--CODEGEN--\":19:31   */\n      revert\n        /* \"--CODEGEN--\":2:4   */\n    tag_231:\n      pop\n        /* \"contracts/SaitaSwapPair.sol\":7012:7052  IERC20(_token0).balanceOf(address(this)) */\n      mload\n        /* \"contracts/SaitaSwapPair.sol\":7073:7113  IERC20(_token1).balanceOf(address(this)) */\n      0x40\n      dup1\n      mload\n      shl(0xe0, 0x70a08231)\n      dup2\n      mstore\n        /* \"contracts/SaitaSwapPair.sol\":7107:7111  this */\n      address\n        /* \"contracts/SaitaSwapPair.sol\":7073:7113  IERC20(_token1).balanceOf(address(this)) */\n      0x04\n      dup3\n      add\n      mstore\n      swap1\n      mload\n        /* \"contracts/SaitaSwapPair.sol\":7012:7052  IERC20(_token0).balanceOf(address(this)) */\n      swap2\n      swap7\n      pop\n      sub(shl(0xa0, 0x01), 0x01)\n        /* \"contracts/SaitaSwapPair.sol\":7073:7098  IERC20(_token1).balanceOf */\n      dup9\n      and\n      swap2\n      0x70a08231\n      swap2\n        /* \"contracts/SaitaSwapPair.sol\":7073:7113  IERC20(_token1).balanceOf(address(this)) */\n      0x24\n      dup1\n      dup3\n      add\n      swap3\n        /* \"contracts/SaitaSwapPair.sol\":7012:7052  IERC20(_token0).balanceOf(address(this)) */\n      0x20\n      swap3\n        /* \"contracts/SaitaSwapPair.sol\":7073:7113  IERC20(_token1).balanceOf(address(this)) */\n      swap1\n      swap2\n      swap1\n      dup3\n      swap1\n      sub\n      add\n      dup2\n        /* \"contracts/SaitaSwapPair.sol\":7073:7098  IERC20(_token1).balanceOf */\n      dup7\n        /* \"contracts/SaitaSwapPair.sol\":7073:7113  IERC20(_token1).balanceOf(address(this)) */\n      dup1\n      extcodesize\n      iszero\n        /* \"--CODEGEN--\":5:7   */\n      dup1\n      iszero\n      tag_232\n      jumpi\n        /* \"--CODEGEN--\":30:31   */\n      0x00\n        /* \"--CODEGEN--\":27:28   */\n      dup1\n        /* \"--CODEGEN--\":20:32   */\n      revert\n        /* \"--CODEGEN--\":5:7   */\n    tag_232:\n        /* \"contracts/SaitaSwapPair.sol\":7073:7113  IERC20(_token1).balanceOf(address(this)) */\n      pop\n      gas\n      staticcall\n      iszero\n        /* \"--CODEGEN--\":8:17   */\n      dup1\n        /* \"--CODEGEN--\":5:7   */\n      iszero\n      tag_233\n      jumpi\n        /* \"--CODEGEN--\":45:61   */\n      returndatasize\n        /* \"--CODEGEN--\":42:43   */\n      0x00\n        /* \"--CODEGEN--\":39:40   */\n      dup1\n        /* \"--CODEGEN--\":24:62   */\n      returndatacopy\n        /* \"--CODEGEN--\":77:93   */\n      returndatasize\n        /* \"--CODEGEN--\":74:75   */\n      0x00\n        /* \"--CODEGEN--\":67:94   */\n      revert\n        /* \"--CODEGEN--\":5:7   */\n    tag_233:\n        /* \"contracts/SaitaSwapPair.sol\":7073:7113  IERC20(_token1).balanceOf(address(this)) */\n      pop\n      pop\n      pop\n      pop\n      mload(0x40)\n      returndatasize\n        /* \"--CODEGEN--\":13:15   */\n      0x20\n        /* \"--CODEGEN--\":8:11   */\n      dup2\n        /* \"--CODEGEN--\":5:16   */\n      lt\n        /* \"--CODEGEN--\":2:4   */\n      iszero\n      tag_234\n      jumpi\n        /* \"--CODEGEN--\":29:30   */\n      0x00\n        /* \"--CODEGEN--\":26:27   */\n      dup1\n        /* \"--CODEGEN--\":19:31   */\n      revert\n        /* \"--CODEGEN--\":2:4   */\n    tag_234:\n      pop\n        /* \"contracts/SaitaSwapPair.sol\":7073:7113  IERC20(_token1).balanceOf(address(this)) */\n      mload\n      swap4\n      pop\n        /* \"contracts/SaitaSwapPair.sol\":7124:7173  _update(balance0, balance1, _reserve0, _reserve1) */\n      tag_235\n        /* \"contracts/SaitaSwapPair.sol\":7132:7140  balance0 */\n      dup6\n        /* \"contracts/SaitaSwapPair.sol\":7073:7113  IERC20(_token1).balanceOf(address(this)) */\n      dup6\n        /* \"contracts/SaitaSwapPair.sol\":7152:7161  _reserve0 */\n      dup12\n        /* \"contracts/SaitaSwapPair.sol\":7163:7172  _reserve1 */\n      dup12\n        /* \"contracts/SaitaSwapPair.sol\":7124:7131  _update */\n      tag_163\n        /* \"contracts/SaitaSwapPair.sol\":7124:7173  _update(balance0, balance1, _reserve0, _reserve1) */\n      jump\t// in\n    tag_235:\n        /* \"contracts/SaitaSwapPair.sol\":7187:7192  feeOn */\n      dup2\n        /* \"contracts/SaitaSwapPair.sol\":7183:7230  if (feeOn) kLast = uint(reserve0).mul(reserve1) */\n      iszero\n      tag_236\n      jumpi\n        /* \"contracts/SaitaSwapPair.sol\":7221:7229  reserve1 */\n      sload(0x0a)\n        /* \"contracts/SaitaSwapPair.sol\":7202:7230  uint(reserve0).mul(reserve1) */\n      tag_237\n      swap1\n      sub(shl(0x70, 0x01), 0x01)\n        /* \"contracts/SaitaSwapPair.sol\":7207:7215  reserve0 */\n      dup1\n      dup3\n      and\n      swap2\n      shl(0x70, 0x01)\n        /* \"contracts/SaitaSwapPair.sol\":7221:7229  reserve1 */\n      swap1\n      div\n      and\n        /* \"contracts/SaitaSwapPair.sol\":7202:7220  uint(reserve0).mul */\n      tag_152\n        /* \"contracts/SaitaSwapPair.sol\":7202:7230  uint(reserve0).mul(reserve1) */\n      jump\t// in\n    tag_237:\n        /* \"contracts/SaitaSwapPair.sol\":7194:7199  kLast */\n      0x0d\n        /* \"contracts/SaitaSwapPair.sol\":7194:7230  kLast = uint(reserve0).mul(reserve1) */\n      sstore\n        /* \"contracts/SaitaSwapPair.sol\":7183:7230  if (feeOn) kLast = uint(reserve0).mul(reserve1) */\n    tag_236:\n        /* \"contracts/SaitaSwapPair.sol\":7285:7323  Burn(msg.sender, amount0, amount1, to) */\n      0x40\n      dup1\n      mload\n      dup13\n      dup2\n      mstore\n      0x20\n      dup2\n      add\n      dup13\n      swap1\n      mstore\n      dup2\n      mload\n      sub(shl(0xa0, 0x01), 0x01)\n      dup16\n      and\n      swap3\n        /* \"contracts/SaitaSwapPair.sol\":7290:7300  msg.sender */\n      caller\n      swap3\n        /* \"contracts/SaitaSwapPair.sol\":7285:7323  Burn(msg.sender, amount0, amount1, to) */\n      0xdccd412f0b1252819cb1fd330b93224ca42612892bb3f4f789976e6d81936496\n      swap3\n      swap1\n      dup2\n      swap1\n      sub\n      swap1\n      swap2\n      add\n      swap1\n      log3\n        /* \"contracts/SaitaSwapPair.sol\":1373:1374  _ */\n      pop\n      pop\n      pop\n      pop\n      pop\n      pop\n      pop\n      pop\n      pop\n        /* \"contracts/SaitaSwapPair.sol\":1395:1396  1 */\n      0x01\n        /* \"contracts/SaitaSwapPair.sol\":1384:1392  unlocked */\n      0x0e\n        /* \"contracts/SaitaSwapPair.sol\":1384:1396  unlocked = 1 */\n      dup2\n      swap1\n      sstore\n      pop\n        /* \"contracts/SaitaSwapPair.sol\":5886:7330  function burn(address to) external lock returns (uint amount0, uint amount1) {... */\n      swap2\n      pop\n      swap2\n      jump\t// out\n        /* \"contracts/SaitaSwapERC20.sol\":274:311  string public constant symbol = 'slp' */\n    tag_93:\n      0x40\n      dup1\n      mload\n      dup1\n      dup3\n      add\n      swap1\n      swap2\n      mstore\n      0x03\n      dup2\n      mstore\n      shl(0xec, 0x0736c7)\n      0x20\n      dup3\n      add\n      mstore\n      dup2\n      jump\t// out\n        /* \"contracts/SaitaSwapERC20.sol\":2832:2968  function transfer(address to, uint value) external returns (bool) {... */\n    tag_100:\n        /* \"contracts/SaitaSwapERC20.sol\":2892:2896  bool */\n      0x00\n        /* \"contracts/SaitaSwapERC20.sol\":2908:2940  _transfer(msg.sender, to, value) */\n      tag_166\n        /* \"contracts/SaitaSwapERC20.sol\":2918:2928  msg.sender */\n      caller\n        /* \"contracts/SaitaSwapERC20.sol\":2930:2932  to */\n      dup5\n        /* \"contracts/SaitaSwapERC20.sol\":2934:2939  value */\n      dup5\n        /* \"contracts/SaitaSwapERC20.sol\":2908:2917  _transfer */\n      tag_172\n        /* \"contracts/SaitaSwapERC20.sol\":2908:2940  _transfer(msg.sender, to, value) */\n      jump\t// in\n        /* \"contracts/SaitaSwapPair.sol\":453:499  uint public constant MINIMUM_LIQUIDITY = 10**3 */\n    tag_102:\n        /* \"contracts/SaitaSwapPair.sol\":494:499  10**3 */\n      0x03e8\n        /* \"contracts/SaitaSwapPair.sol\":453:499  uint public constant MINIMUM_LIQUIDITY = 10**3 */\n      dup2\n      jump\t// out\n        /* \"contracts/SaitaSwapPair.sol\":9445:9774  function skim(address to) external lock {... */\n    tag_105:\n        /* \"contracts/SaitaSwapPair.sol\":1306:1314  unlocked */\n      sload(0x0e)\n        /* \"contracts/SaitaSwapPair.sol\":1318:1319  1 */\n      0x01\n        /* \"contracts/SaitaSwapPair.sol\":1306:1319  unlocked == 1 */\n      eq\n        /* \"contracts/SaitaSwapPair.sol\":1298:1341  require(unlocked == 1, 'SaitaSwap: LOCKED') */\n      tag_241\n      jumpi\n      0x40\n      dup1\n      mload\n      shl(0xe5, 0x461bcd)\n      dup2\n      mstore\n      0x20\n      0x04\n      dup3\n      add\n      mstore\n      0x11\n      0x24\n      dup3\n      add\n      mstore\n      shl(0x7a, 0x14d85a5d1854ddd85c0e881313d0d2d151)\n      0x44\n      dup3\n      add\n      mstore\n      swap1\n      mload\n      swap1\n      dup2\n      swap1\n      sub\n      0x64\n      add\n      swap1\n      revert\n    tag_241:\n        /* \"contracts/SaitaSwapPair.sol\":1362:1363  0 */\n      0x00\n        /* \"contracts/SaitaSwapPair.sol\":1351:1359  unlocked */\n      0x0e\n        /* \"contracts/SaitaSwapPair.sol\":1351:1363  unlocked = 0 */\n      sstore\n        /* \"contracts/SaitaSwapPair.sol\":9513:9519  token0 */\n      sload(0x06)\n        /* \"contracts/SaitaSwapPair.sol\":9562:9568  token1 */\n      sload(0x07)\n        /* \"contracts/SaitaSwapPair.sol\":9665:9673  reserve0 */\n      sload(0x0a)\n        /* \"contracts/SaitaSwapPair.sol\":9620:9660  IERC20(_token0).balanceOf(address(this)) */\n      0x40\n      dup1\n      mload\n      shl(0xe0, 0x70a08231)\n      dup2\n      mstore\n        /* \"contracts/SaitaSwapPair.sol\":9654:9658  this */\n      address\n        /* \"contracts/SaitaSwapPair.sol\":9620:9660  IERC20(_token0).balanceOf(address(this)) */\n      0x04\n      dup3\n      add\n      mstore\n      swap1\n      mload\n      sub(shl(0xa0, 0x01), 0x01)\n        /* \"contracts/SaitaSwapPair.sol\":9513:9519  token0 */\n      swap5\n      dup6\n      and\n      swap5\n        /* \"contracts/SaitaSwapPair.sol\":9562:9568  token1 */\n      swap1\n      swap4\n      and\n      swap3\n        /* \"contracts/SaitaSwapPair.sol\":9593:9675  _safeTransfer(_token0, to, IERC20(_token0).balanceOf(address(this)).sub(reserve0)) */\n      tag_243\n      swap3\n        /* \"contracts/SaitaSwapPair.sol\":9513:9519  token0 */\n      dup6\n      swap3\n        /* \"contracts/SaitaSwapPair.sol\":9616:9618  to */\n      dup8\n      swap3\n        /* \"contracts/SaitaSwapPair.sol\":9620:9674  IERC20(_token0).balanceOf(address(this)).sub(reserve0) */\n      tag_244\n      swap3\n      sub(shl(0x70, 0x01), 0x01)\n        /* \"contracts/SaitaSwapPair.sol\":9665:9673  reserve0 */\n      and\n      swap2\n        /* \"contracts/SaitaSwapPair.sol\":9513:9519  token0 */\n      dup6\n      swap2\n      0x70a08231\n      swap2\n        /* \"contracts/SaitaSwapPair.sol\":9620:9660  IERC20(_token0).balanceOf(address(this)) */\n      0x24\n      dup1\n      dup3\n      add\n      swap3\n      0x20\n      swap3\n      swap1\n      swap2\n      swap1\n      dup3\n      swap1\n      sub\n      add\n      dup2\n        /* \"contracts/SaitaSwapPair.sol\":9513:9519  token0 */\n      dup7\n        /* \"contracts/SaitaSwapPair.sol\":9620:9660  IERC20(_token0).balanceOf(address(this)) */\n      dup1\n      extcodesize\n      iszero\n        /* \"--CODEGEN--\":5:7   */\n      dup1\n      iszero\n      tag_245\n      jumpi\n        /* \"--CODEGEN--\":30:31   */\n      0x00\n        /* \"--CODEGEN--\":27:28   */\n      dup1\n        /* \"--CODEGEN--\":20:32   */\n      revert\n        /* \"--CODEGEN--\":5:7   */\n    tag_245:\n        /* \"contracts/SaitaSwapPair.sol\":9620:9660  IERC20(_token0).balanceOf(address(this)) */\n      pop\n      gas\n      staticcall\n      iszero\n        /* \"--CODEGEN--\":8:17   */\n      dup1\n        /* \"--CODEGEN--\":5:7   */\n      iszero\n      tag_246\n      jumpi\n        /* \"--CODEGEN--\":45:61   */\n      returndatasize\n        /* \"--CODEGEN--\":42:43   */\n      0x00\n        /* \"--CODEGEN--\":39:40   */\n      dup1\n        /* \"--CODEGEN--\":24:62   */\n      returndatacopy\n        /* \"--CODEGEN--\":77:93   */\n      returndatasize\n        /* \"--CODEGEN--\":74:75   */\n      0x00\n        /* \"--CODEGEN--\":67:94   */\n      revert\n        /* \"--CODEGEN--\":5:7   */\n    tag_246:\n        /* \"contracts/SaitaSwapPair.sol\":9620:9660  IERC20(_token0).balanceOf(address(this)) */\n      pop\n      pop\n      pop\n      pop\n      mload(0x40)\n      returndatasize\n        /* \"--CODEGEN--\":13:15   */\n      0x20\n        /* \"--CODEGEN--\":8:11   */\n      dup2\n        /* \"--CODEGEN--\":5:16   */\n      lt\n        /* \"--CODEGEN--\":2:4   */\n      iszero\n      tag_247\n      jumpi\n        /* \"--CODEGEN--\":29:30   */\n      0x00\n        /* \"--CODEGEN--\":26:27   */\n      dup1\n        /* \"--CODEGEN--\":19:31   */\n      revert\n        /* \"--CODEGEN--\":2:4   */\n    tag_247:\n      pop\n        /* \"contracts/SaitaSwapPair.sol\":9620:9660  IERC20(_token0).balanceOf(address(this)) */\n      mload\n      swap1\n        /* \"contracts/SaitaSwapPair.sol\":9620:9674  IERC20(_token0).balanceOf(address(this)).sub(reserve0) */\n      0xffffffff\n        /* \"contracts/SaitaSwapPair.sol\":9620:9664  IERC20(_token0).balanceOf(address(this)).sub */\n      tag_154\n        /* \"contracts/SaitaSwapPair.sol\":9620:9674  IERC20(_token0).balanceOf(address(this)).sub(reserve0) */\n      and\n      jump\t// in\n    tag_244:\n        /* \"contracts/SaitaSwapPair.sol\":9593:9606  _safeTransfer */\n      tag_132\n        /* \"contracts/SaitaSwapPair.sol\":9593:9675  _safeTransfer(_token0, to, IERC20(_token0).balanceOf(address(this)).sub(reserve0)) */\n      jump\t// in\n    tag_243:\n        /* \"contracts/SaitaSwapPair.sol\":9757:9765  reserve1 */\n      sload(0x0a)\n        /* \"contracts/SaitaSwapPair.sol\":9712:9752  IERC20(_token1).balanceOf(address(this)) */\n      0x40\n      dup1\n      mload\n      shl(0xe0, 0x70a08231)\n      dup2\n      mstore\n        /* \"contracts/SaitaSwapPair.sol\":9746:9750  this */\n      address\n        /* \"contracts/SaitaSwapPair.sol\":9712:9752  IERC20(_token1).balanceOf(address(this)) */\n      0x04\n      dup3\n      add\n      mstore\n      swap1\n      mload\n        /* \"contracts/SaitaSwapPair.sol\":9685:9767  _safeTransfer(_token1, to, IERC20(_token1).balanceOf(address(this)).sub(reserve1)) */\n      tag_248\n      swap3\n        /* \"contracts/SaitaSwapPair.sol\":9699:9706  _token1 */\n      dup5\n      swap3\n        /* \"contracts/SaitaSwapPair.sol\":9708:9710  to */\n      dup8\n      swap3\n        /* \"contracts/SaitaSwapPair.sol\":9712:9766  IERC20(_token1).balanceOf(address(this)).sub(reserve1) */\n      tag_244\n      swap3\n      shl(0x70, 0x01)\n        /* \"contracts/SaitaSwapPair.sol\":9757:9765  reserve1 */\n      swap1\n      div\n      sub(shl(0x70, 0x01), 0x01)\n      and\n      swap2\n      sub(shl(0xa0, 0x01), 0x01)\n        /* \"contracts/SaitaSwapPair.sol\":9712:9737  IERC20(_token1).balanceOf */\n      dup7\n      and\n      swap2\n      0x70a08231\n      swap2\n        /* \"contracts/SaitaSwapPair.sol\":9712:9752  IERC20(_token1).balanceOf(address(this)) */\n      0x24\n      dup1\n      dup3\n      add\n      swap3\n      0x20\n      swap3\n      swap1\n      swap2\n      swap1\n      dup3\n      swap1\n      sub\n      add\n      dup2\n        /* \"contracts/SaitaSwapPair.sol\":9712:9737  IERC20(_token1).balanceOf */\n      dup7\n        /* \"contracts/SaitaSwapPair.sol\":9712:9752  IERC20(_token1).balanceOf(address(this)) */\n      dup1\n      extcodesize\n      iszero\n        /* \"--CODEGEN--\":5:7   */\n      dup1\n      iszero\n      tag_245\n      jumpi\n        /* \"--CODEGEN--\":30:31   */\n      0x00\n        /* \"--CODEGEN--\":27:28   */\n      dup1\n        /* \"--CODEGEN--\":20:32   */\n      revert\n        /* \"contracts/SaitaSwapPair.sol\":9685:9767  _safeTransfer(_token1, to, IERC20(_token1).balanceOf(address(this)).sub(reserve1)) */\n    tag_248:\n      pop\n      pop\n        /* \"contracts/SaitaSwapPair.sol\":1395:1396  1 */\n      0x01\n        /* \"contracts/SaitaSwapPair.sol\":1384:1392  unlocked */\n      0x0e\n        /* \"contracts/SaitaSwapPair.sol\":1384:1396  unlocked = 1 */\n      sstore\n      pop\n        /* \"contracts/SaitaSwapPair.sol\":9445:9774  function skim(address to) external lock {... */\n      jump\t// out\n        /* \"contracts/SaitaSwapPair.sol\":687:719  uint public SWAP_FEE_NUMERATOR=2 */\n    tag_107:\n      sload(0x08)\n      dup2\n      jump\t// out\n        /* \"contracts/SaitaSwapPair.sol\":600:622  address public factory */\n    tag_109:\n      and(sub(shl(0xa0, 0x01), 0x01), sload(0x05))\n      dup2\n      jump\t// out\n        /* \"contracts/SaitaSwapPair.sol\":655:676  address public token1 */\n    tag_111:\n      and(sub(shl(0xa0, 0x01), 0x01), sload(0x07))\n      dup2\n      jump\t// out\n        /* \"contracts/SaitaSwapERC20.sol\":3275:3945  function permit(address owner, address spender, uint value, uint deadline, uint8 v, bytes32 r, bytes32 s) external ReChain {... */\n    tag_114:\n        /* \"contracts/SaitaSwapERC20.sol\":1140:1235  keccak256('EIP712Domain(string name,string version,uint256 chainId,address verifyingContract)') */\n      mload(0x40)\n        /* \"contracts/SaitaSwapERC20.sol\":1044:1051  chainid */\n      chainid\n      swap1\n        /* \"contracts/SaitaSwapERC20.sol\":1140:1235  keccak256('EIP712Domain(string name,string version,uint256 chainId,address verifyingContract)') */\n      dup1\n      0x52\n      data_8b73c3c69bb8fe3d512ecc4cf759cc79239f7b179b0ffacaa9a75d522b39400f\n      dup3\n      codecopy\n      0x40\n      dup1\n      mload\n      swap2\n      dup3\n      swap1\n      sub\n      0x52\n      add\n      dup3\n      keccak256\n        /* \"contracts/SaitaSwapERC20.sol\":1269:1273  name */\n      dup3\n      dup3\n      add\n      dup3\n      mstore\n      0x0d\n      dup4\n      mstore\n      shl(0x98, 0x536169746153776170204c5073)\n      0x20\n      swap4\n      dup5\n      add\n      mstore\n        /* \"contracts/SaitaSwapERC20.sol\":1303:1313  bytes('1') */\n      dup2\n      mload\n      dup1\n      dup4\n      add\n      dup4\n      mstore\n      0x01\n      dup2\n      mstore\n      shl(0xf8, 0x31)\n      swap1\n      dup5\n      add\n      mstore\n        /* \"contracts/SaitaSwapERC20.sol\":1112:1384  abi.encode(... */\n      dup2\n      mload\n      dup1\n      dup5\n      add\n      swap2\n      swap1\n      swap2\n      mstore\n        /* \"contracts/SaitaSwapERC20.sol\":1253:1275  keccak256(bytes(name)) */\n      0x1651e190aacb4c4c6e236d176db06acca329adaed8d7377e08d89572632a33ba\n        /* \"contracts/SaitaSwapERC20.sol\":1112:1384  abi.encode(... */\n      dup2\n      dup4\n      add\n      mstore\n        /* \"contracts/SaitaSwapERC20.sol\":1293:1314  keccak256(bytes('1')) */\n      0xc89efdaa54c0f20c7adf612882df0950f5a951637e0307cdcb4c672f298b8bc6\n        /* \"contracts/SaitaSwapERC20.sol\":1112:1384  abi.encode(... */\n      0x60\n      dup3\n      add\n      mstore\n      0x80\n      dup2\n      add\n      dup6\n      swap1\n      mstore\n        /* \"contracts/SaitaSwapERC20.sol\":1365:1369  this */\n      address\n        /* \"contracts/SaitaSwapERC20.sol\":1112:1384  abi.encode(... */\n      0xa0\n      dup1\n      dup4\n      add\n      swap2\n      swap1\n      swap2\n      mstore\n      dup3\n      mload\n        /* \"--CODEGEN--\":26:47   */\n      dup1\n      dup4\n      sub\n        /* \"--CODEGEN--\":22:54   */\n      swap1\n      swap2\n      add\n        /* \"--CODEGEN--\":6:55   */\n      dup2\n      mstore\n        /* \"contracts/SaitaSwapERC20.sol\":1112:1384  abi.encode(... */\n      0xc0\n      swap1\n      swap2\n      add\n      swap1\n      swap2\n      mstore\n        /* \"contracts/SaitaSwapERC20.sol\":1089:1394  keccak256(... */\n      dup1\n      mload\n      swap2\n      add\n      keccak256\n        /* \"contracts/SaitaSwapERC20.sol\":1070:1086  DOMAIN_SEPARATOR */\n      0x03\n        /* \"contracts/SaitaSwapERC20.sol\":1070:1394  DOMAIN_SEPARATOR = keccak256(... */\n      sstore\n      pop\n        /* \"contracts/SaitaSwapERC20.sol\":3428:3443  block.timestamp */\n      timestamp\n        /* \"contracts/SaitaSwapERC20.sol\":3416:3443  deadline >= block.timestamp */\n      dup6\n      lt\n      iszero\n        /* \"contracts/SaitaSwapERC20.sol\":3408:3466  require(deadline >= block.timestamp, 'SaitaSwap: EXPIRED') */\n      tag_255\n      jumpi\n      0x40\n      dup1\n      mload\n      shl(0xe5, 0x461bcd)\n      dup2\n      mstore\n      0x20\n      0x04\n      dup3\n      add\n      mstore\n      0x12\n      0x24\n      dup3\n      add\n      mstore\n      shl(0x72, 0x14d85a5d1854ddd85c0e8811561412549151)\n      0x44\n      dup3\n      add\n      mstore\n      swap1\n      mload\n      swap1\n      dup2\n      swap1\n      sub\n      0x64\n      add\n      swap1\n      revert\n    tag_255:\n        /* \"contracts/SaitaSwapERC20.sol\":3578:3594  DOMAIN_SEPARATOR */\n      sload(0x03)\n      sub(shl(0xa0, 0x01), 0x01)\n        /* \"contracts/SaitaSwapERC20.sol\":3673:3686  nonces[owner] */\n      dup10\n      dup2\n      and\n        /* \"contracts/SaitaSwapERC20.sol\":3476:3490  bytes32 digest */\n      0x00\n        /* \"contracts/SaitaSwapERC20.sol\":3673:3686  nonces[owner] */\n      dup2\n      dup2\n      mstore\n        /* \"contracts/SaitaSwapERC20.sol\":3673:3679  nonces */\n      0x04\n        /* \"contracts/SaitaSwapERC20.sol\":3673:3686  nonces[owner] */\n      0x20\n      swap1\n      dup2\n      mstore\n      0x40\n      dup1\n      dup4\n      keccak256\n        /* \"contracts/SaitaSwapERC20.sol\":3673:3688  nonces[owner]++ */\n      dup1\n      sload\n      0x01\n      dup2\n      dup2\n      add\n      swap1\n      swap3\n      sstore\n        /* \"contracts/SaitaSwapERC20.sol\":3622:3699  abi.encode(PERMIT_TYPEHASH, owner, spender, value, nonces[owner]++, deadline) */\n      dup3\n      mload\n        /* \"contracts/SaitaSwapERC20.sol\":686:752  0x6e71edae12b1b97f4d1f60370fef10105fa2faae0126114a169c64845d6126c9 */\n      0x6e71edae12b1b97f4d1f60370fef10105fa2faae0126114a169c64845d6126c9\n        /* \"contracts/SaitaSwapERC20.sol\":3622:3699  abi.encode(PERMIT_TYPEHASH, owner, spender, value, nonces[owner]++, deadline) */\n      dup2\n      dup7\n      add\n      mstore\n      dup1\n      dup5\n      add\n      swap7\n      swap1\n      swap7\n      mstore\n      swap6\n      dup15\n      and\n      0x60\n      dup7\n      add\n      mstore\n      0x80\n      dup6\n      add\n      dup14\n      swap1\n      mstore\n      0xa0\n      dup6\n      add\n      swap6\n      swap1\n      swap6\n      mstore\n      0xc0\n      dup1\n      dup6\n      add\n      dup13\n      swap1\n      mstore\n      dup2\n      mload\n        /* \"--CODEGEN--\":26:47   */\n      dup1\n      dup7\n      sub\n        /* \"--CODEGEN--\":22:54   */\n      swap1\n      swap2\n      add\n        /* \"--CODEGEN--\":6:55   */\n      dup2\n      mstore\n        /* \"contracts/SaitaSwapERC20.sol\":3622:3699  abi.encode(PERMIT_TYPEHASH, owner, spender, value, nonces[owner]++, deadline) */\n      0xe0\n      dup6\n      add\n      dup3\n      mstore\n        /* \"contracts/SaitaSwapERC20.sol\":3612:3700  keccak256(abi.encode(PERMIT_TYPEHASH, owner, spender, value, nonces[owner]++, deadline)) */\n      dup1\n      mload\n      swap1\n      dup4\n      add\n      keccak256\n      shl(0xf0, 0x1901)\n        /* \"contracts/SaitaSwapERC20.sol\":3516:3714  abi.encodePacked(... */\n      0x0100\n      dup7\n      add\n      mstore\n      0x0102\n      dup6\n      add\n      swap7\n      swap1\n      swap7\n      mstore\n      0x0122\n      dup1\n      dup6\n      add\n      swap7\n      swap1\n      swap7\n      mstore\n      dup1\n      mload\n        /* \"--CODEGEN--\":26:47   */\n      dup1\n      dup6\n      sub\n        /* \"--CODEGEN--\":22:54   */\n      swap1\n      swap7\n      add\n        /* \"--CODEGEN--\":6:55   */\n      dup7\n      mstore\n        /* \"contracts/SaitaSwapERC20.sol\":3516:3714  abi.encodePacked(... */\n      0x0142\n      dup5\n      add\n      dup1\n      dup3\n      mstore\n        /* \"contracts/SaitaSwapERC20.sol\":3493:3724  keccak256(... */\n      dup7\n      mload\n      swap7\n      dup4\n      add\n      swap7\n      swap1\n      swap7\n      keccak256\n        /* \"contracts/SaitaSwapERC20.sol\":3761:3787  ecrecover(digest, v, r, s) */\n      swap6\n      dup4\n      swap1\n      mstore\n      0x0162\n      dup5\n      add\n      dup1\n      dup3\n      mstore\n      dup7\n      swap1\n      mstore\n      0xff\n      dup11\n      and\n      0x0182\n      dup6\n      add\n      mstore\n      0x01a2\n      dup5\n      add\n      dup10\n      swap1\n      mstore\n      0x01c2\n      dup5\n      add\n      dup9\n      swap1\n      mstore\n      mload\n        /* \"contracts/SaitaSwapERC20.sol\":3476:3490  bytes32 digest */\n      swap2\n      swap4\n      swap3\n        /* \"contracts/SaitaSwapERC20.sol\":3761:3787  ecrecover(digest, v, r, s) */\n      0x01e2\n      dup1\n      dup3\n      add\n      swap4\n      not(0x1f)\n      dup2\n      add\n      swap3\n      dup2\n      swap1\n      sub\n      swap1\n      swap2\n      add\n      swap1\n      dup6\n      gas\n      staticcall\n      iszero\n        /* \"--CODEGEN--\":8:17   */\n      dup1\n        /* \"--CODEGEN--\":5:7   */\n      iszero\n      tag_256\n      jumpi\n        /* \"--CODEGEN--\":45:61   */\n      returndatasize\n        /* \"--CODEGEN--\":42:43   */\n      0x00\n        /* \"--CODEGEN--\":39:40   */\n      dup1\n        /* \"--CODEGEN--\":24:62   */\n      returndatacopy\n        /* \"--CODEGEN--\":77:93   */\n      returndatasize\n        /* \"--CODEGEN--\":74:75   */\n      0x00\n        /* \"--CODEGEN--\":67:94   */\n      revert\n        /* \"--CODEGEN--\":5:7   */\n    tag_256:\n      pop\n      pop\n        /* \"contracts/SaitaSwapERC20.sol\":3761:3787  ecrecover(digest, v, r, s) */\n      mload(add(not(0x1f), mload(0x40)))\n      swap2\n      pop\n      pop\n      sub(shl(0xa0, 0x01), 0x01)\n        /* \"contracts/SaitaSwapERC20.sol\":3805:3835  recoveredAddress != address(0) */\n      dup2\n      and\n      iszero\n      dup1\n      iszero\n      swap1\n        /* \"contracts/SaitaSwapERC20.sol\":3805:3864  recoveredAddress != address(0) && recoveredAddress == owner */\n      tag_257\n      jumpi\n      pop\n      sub(shl(0xa0, 0x01), 0x01)\n        /* \"contracts/SaitaSwapERC20.sol\":3839:3864  recoveredAddress == owner */\n      dup2\n      dup2\n      and\n      swap1\n      dup12\n      and\n      eq\n        /* \"contracts/SaitaSwapERC20.sol\":3805:3864  recoveredAddress != address(0) && recoveredAddress == owner */\n    tag_257:\n        /* \"contracts/SaitaSwapERC20.sol\":3797:3897  require(recoveredAddress != address(0) && recoveredAddress == owner, 'SaitaSwap: INVALID_SIGNATURE') */\n      tag_258\n      jumpi\n      0x40\n      dup1\n      mload\n      shl(0xe5, 0x461bcd)\n      dup2\n      mstore\n      0x20\n      0x04\n      dup3\n      add\n      mstore\n      0x1c\n      0x24\n      dup3\n      add\n      mstore\n      0x5361697461537761703a20494e56414c49445f5349474e415455524500000000\n      0x44\n      dup3\n      add\n      mstore\n      swap1\n      mload\n      swap1\n      dup2\n      swap1\n      sub\n      0x64\n      add\n      swap1\n      revert\n    tag_258:\n        /* \"contracts/SaitaSwapERC20.sol\":3907:3938  _approve(owner, spender, value) */\n      tag_259\n        /* \"contracts/SaitaSwapERC20.sol\":3916:3921  owner */\n      dup11\n        /* \"contracts/SaitaSwapERC20.sol\":3923:3930  spender */\n      dup11\n        /* \"contracts/SaitaSwapERC20.sol\":3932:3937  value */\n      dup11\n        /* \"contracts/SaitaSwapERC20.sol\":3907:3915  _approve */\n      tag_167\n        /* \"contracts/SaitaSwapERC20.sol\":3907:3938  _approve(owner, spender, value) */\n      jump\t// in\n    tag_259:\n        /* \"contracts/SaitaSwapERC20.sol\":1404:1405  _ */\n      pop\n      pop\n        /* \"contracts/SaitaSwapERC20.sol\":3275:3945  function permit(address owner, address spender, uint value, uint deadline, uint8 v, bytes32 r, bytes32 s) external ReChain {... */\n      pop\n      pop\n      pop\n      pop\n      pop\n      pop\n      pop\n      pop\n      jump\t// out\n        /* \"contracts/SaitaSwapERC20.sol\":435:496  mapping(address => mapping(address => uint)) public allowance */\n    tag_117:\n      0x02\n      0x20\n      swap1\n      dup2\n      mstore\n      0x00\n      swap3\n      dup4\n      mstore\n      0x40\n      dup1\n      dup5\n      keccak256\n      swap1\n      swap2\n      mstore\n      swap1\n      dup3\n      mstore\n      swap1\n      keccak256\n      sload\n      dup2\n      jump\t// out\n        /* \"contracts/SaitaSwapPair.sol\":9820:9976  function sync() external lock {... */\n    tag_119:\n        /* \"contracts/SaitaSwapPair.sol\":1306:1314  unlocked */\n      sload(0x0e)\n        /* \"contracts/SaitaSwapPair.sol\":1318:1319  1 */\n      0x01\n        /* \"contracts/SaitaSwapPair.sol\":1306:1319  unlocked == 1 */\n      eq\n        /* \"contracts/SaitaSwapPair.sol\":1298:1341  require(unlocked == 1, 'SaitaSwap: LOCKED') */\n      tag_261\n      jumpi\n      0x40\n      dup1\n      mload\n      shl(0xe5, 0x461bcd)\n      dup2\n      mstore\n      0x20\n      0x04\n      dup3\n      add\n      mstore\n      0x11\n      0x24\n      dup3\n      add\n      mstore\n      shl(0x7a, 0x14d85a5d1854ddd85c0e881313d0d2d151)\n      0x44\n      dup3\n      add\n      mstore\n      swap1\n      mload\n      swap1\n      dup2\n      swap1\n      sub\n      0x64\n      add\n      swap1\n      revert\n    tag_261:\n        /* \"contracts/SaitaSwapPair.sol\":1362:1363  0 */\n      0x00\n        /* \"contracts/SaitaSwapPair.sol\":1351:1359  unlocked */\n      0x0e\n        /* \"contracts/SaitaSwapPair.sol\":1351:1363  unlocked = 0 */\n      sstore\n        /* \"contracts/SaitaSwapPair.sol\":9875:9881  token0 */\n      sload(0x06)\n        /* \"contracts/SaitaSwapPair.sol\":9868:9907  IERC20(token0).balanceOf(address(this)) */\n      0x40\n      dup1\n      mload\n      shl(0xe0, 0x70a08231)\n      dup2\n      mstore\n        /* \"contracts/SaitaSwapPair.sol\":9901:9905  this */\n      address\n        /* \"contracts/SaitaSwapPair.sol\":9868:9907  IERC20(token0).balanceOf(address(this)) */\n      0x04\n      dup3\n      add\n      mstore\n      swap1\n      mload\n        /* \"contracts/SaitaSwapPair.sol\":9860:9969  _update(IERC20(token0).balanceOf(address(this)), IERC20(token1).balanceOf(address(this)), reserve0, reserve1) */\n      tag_263\n      swap3\n      sub(shl(0xa0, 0x01), 0x01)\n        /* \"contracts/SaitaSwapPair.sol\":9875:9881  token0 */\n      and\n      swap2\n      0x70a08231\n      swap2\n        /* \"contracts/SaitaSwapPair.sol\":9868:9907  IERC20(token0).balanceOf(address(this)) */\n      0x24\n      dup1\n      dup4\n      add\n      swap3\n      0x20\n      swap3\n      swap2\n      swap1\n      dup3\n      swap1\n      sub\n      add\n      dup2\n        /* \"contracts/SaitaSwapPair.sol\":9875:9881  token0 */\n      dup7\n        /* \"contracts/SaitaSwapPair.sol\":9868:9907  IERC20(token0).balanceOf(address(this)) */\n      dup1\n      extcodesize\n      iszero\n        /* \"--CODEGEN--\":5:7   */\n      dup1\n      iszero\n      tag_264\n      jumpi\n        /* \"--CODEGEN--\":30:31   */\n      0x00\n        /* \"--CODEGEN--\":27:28   */\n      dup1\n        /* \"--CODEGEN--\":20:32   */\n      revert\n        /* \"--CODEGEN--\":5:7   */\n    tag_264:\n        /* \"contracts/SaitaSwapPair.sol\":9868:9907  IERC20(token0).balanceOf(address(this)) */\n      pop\n      gas\n      staticcall\n      iszero\n        /* \"--CODEGEN--\":8:17   */\n      dup1\n        /* \"--CODEGEN--\":5:7   */\n      iszero\n      tag_265\n      jumpi\n        /* \"--CODEGEN--\":45:61   */\n      returndatasize\n        /* \"--CODEGEN--\":42:43   */\n      0x00\n        /* \"--CODEGEN--\":39:40   */\n      dup1\n        /* \"--CODEGEN--\":24:62   */\n      returndatacopy\n        /* \"--CODEGEN--\":77:93   */\n      returndatasize\n        /* \"--CODEGEN--\":74:75   */\n      0x00\n        /* \"--CODEGEN--\":67:94   */\n      revert\n        /* \"--CODEGEN--\":5:7   */\n    tag_265:\n        /* \"contracts/SaitaSwapPair.sol\":9868:9907  IERC20(token0).balanceOf(address(this)) */\n      pop\n      pop\n      pop\n      pop\n      mload(0x40)\n      returndatasize\n        /* \"--CODEGEN--\":13:15   */\n      0x20\n        /* \"--CODEGEN--\":8:11   */\n      dup2\n        /* \"--CODEGEN--\":5:16   */\n      lt\n        /* \"--CODEGEN--\":2:4   */\n      iszero\n      tag_266\n      jumpi\n        /* \"--CODEGEN--\":29:30   */\n      0x00\n        /* \"--CODEGEN--\":26:27   */\n      dup1\n        /* \"--CODEGEN--\":19:31   */\n      revert\n        /* \"--CODEGEN--\":2:4   */\n    tag_266:\n      pop\n        /* \"contracts/SaitaSwapPair.sol\":9868:9907  IERC20(token0).balanceOf(address(this)) */\n      mload\n        /* \"contracts/SaitaSwapPair.sol\":9916:9922  token1 */\n      sload(0x07)\n        /* \"contracts/SaitaSwapPair.sol\":9909:9948  IERC20(token1).balanceOf(address(this)) */\n      0x40\n      dup1\n      mload\n      shl(0xe0, 0x70a08231)\n      dup2\n      mstore\n        /* \"contracts/SaitaSwapPair.sol\":9942:9946  this */\n      address\n        /* \"contracts/SaitaSwapPair.sol\":9909:9948  IERC20(token1).balanceOf(address(this)) */\n      0x04\n      dup3\n      add\n      mstore\n      swap1\n      mload\n      sub(shl(0xa0, 0x01), 0x01)\n        /* \"contracts/SaitaSwapPair.sol\":9916:9922  token1 */\n      swap1\n      swap3\n      and\n      swap2\n      0x70a08231\n      swap2\n        /* \"contracts/SaitaSwapPair.sol\":9909:9948  IERC20(token1).balanceOf(address(this)) */\n      0x24\n      dup1\n      dup3\n      add\n      swap3\n        /* \"contracts/SaitaSwapPair.sol\":9868:9907  IERC20(token0).balanceOf(address(this)) */\n      0x20\n      swap3\n        /* \"contracts/SaitaSwapPair.sol\":9909:9948  IERC20(token1).balanceOf(address(this)) */\n      swap1\n      swap2\n      swap1\n      dup3\n      swap1\n      sub\n      add\n      dup2\n        /* \"contracts/SaitaSwapPair.sol\":9916:9922  token1 */\n      dup7\n        /* \"contracts/SaitaSwapPair.sol\":9909:9948  IERC20(token1).balanceOf(address(this)) */\n      dup1\n      extcodesize\n      iszero\n        /* \"--CODEGEN--\":5:7   */\n      dup1\n      iszero\n      tag_267\n      jumpi\n        /* \"--CODEGEN--\":30:31   */\n      0x00\n        /* \"--CODEGEN--\":27:28   */\n      dup1\n        /* \"--CODEGEN--\":20:32   */\n      revert\n        /* \"--CODEGEN--\":5:7   */\n    tag_267:\n        /* \"contracts/SaitaSwapPair.sol\":9909:9948  IERC20(token1).balanceOf(address(this)) */\n      pop\n      gas\n      staticcall\n      iszero\n        /* \"--CODEGEN--\":8:17   */\n      dup1\n        /* \"--CODEGEN--\":5:7   */\n      iszero\n      tag_268\n      jumpi\n        /* \"--CODEGEN--\":45:61   */\n      returndatasize\n        /* \"--CODEGEN--\":42:43   */\n      0x00\n        /* \"--CODEGEN--\":39:40   */\n      dup1\n        /* \"--CODEGEN--\":24:62   */\n      returndatacopy\n        /* \"--CODEGEN--\":77:93   */\n      returndatasize\n        /* \"--CODEGEN--\":74:75   */\n      0x00\n        /* \"--CODEGEN--\":67:94   */\n      revert\n        /* \"--CODEGEN--\":5:7   */\n    tag_268:\n        /* \"contracts/SaitaSwapPair.sol\":9909:9948  IERC20(token1).balanceOf(address(this)) */\n      pop\n      pop\n      pop\n      pop\n      mload(0x40)\n      returndatasize\n        /* \"--CODEGEN--\":13:15   */\n      0x20\n        /* \"--CODEGEN--\":8:11   */\n      dup2\n        /* \"--CODEGEN--\":5:16   */\n      lt\n        /* \"--CODEGEN--\":2:4   */\n      iszero\n      tag_269\n      jumpi\n        /* \"--CODEGEN--\":29:30   */\n      0x00\n        /* \"--CODEGEN--\":26:27   */\n      dup1\n        /* \"--CODEGEN--\":19:31   */\n      revert\n        /* \"--CODEGEN--\":2:4   */\n    tag_269:\n      pop\n        /* \"contracts/SaitaSwapPair.sol\":9909:9948  IERC20(token1).balanceOf(address(this)) */\n      mload\n        /* \"contracts/SaitaSwapPair.sol\":9950:9958  reserve0 */\n      sload(0x0a)\n      sub(shl(0x70, 0x01), 0x01)\n      dup1\n      dup3\n      and\n      swap2\n      shl(0x70, 0x01)\n        /* \"contracts/SaitaSwapPair.sol\":9960:9968  reserve1 */\n      swap1\n      div\n      and\n        /* \"contracts/SaitaSwapPair.sol\":9860:9867  _update */\n      tag_163\n        /* \"contracts/SaitaSwapPair.sol\":9860:9969  _update(IERC20(token0).balanceOf(address(this)), IERC20(token1).balanceOf(address(this)), reserve0, reserve1) */\n      jump\t// in\n    tag_263:\n        /* \"contracts/SaitaSwapPair.sol\":1395:1396  1 */\n      0x01\n        /* \"contracts/SaitaSwapPair.sol\":1384:1392  unlocked */\n      0x0e\n        /* \"contracts/SaitaSwapPair.sol\":1384:1396  unlocked = 1 */\n      sstore\n        /* \"contracts/SaitaSwapPair.sol\":9820:9976  function sync() external lock {... */\n      jump\t// out\n        /* \"contracts/SaitaSwapPair.sol\":1642:1926  function _safeTransfer(address token, address to, uint value) private {... */\n    tag_132:\n        /* \"contracts/SaitaSwapPair.sol\":557:591  bytes('transfer(address,uint256)') */\n      0x40\n      dup1\n      mload\n      dup1\n      dup3\n      add\n      dup3\n      mstore\n      0x19\n      dup2\n      mstore\n      0x7472616e7366657228616464726573732c75696e743235362900000000000000\n      0x20\n      swap2\n      dup3\n      add\n      mstore\n        /* \"contracts/SaitaSwapPair.sol\":1769:1812  abi.encodeWithSelector(SELECTOR, to, value) */\n      dup2\n      mload\n      sub(shl(0xa0, 0x01), 0x01)\n      dup6\n      dup2\n      and\n      0x24\n      dup4\n      add\n      mstore\n      0x44\n      dup1\n      dup4\n      add\n      dup7\n      swap1\n      mstore\n      dup5\n      mload\n        /* \"--CODEGEN--\":26:47   */\n      dup1\n      dup5\n      sub\n        /* \"--CODEGEN--\":22:54   */\n      swap1\n      swap2\n      add\n        /* \"--CODEGEN--\":6:55   */\n      dup2\n      mstore\n        /* \"contracts/SaitaSwapPair.sol\":1769:1812  abi.encodeWithSelector(SELECTOR, to, value) */\n      0x64\n      swap1\n      swap3\n      add\n      dup5\n      mstore\n        /* \"--CODEGEN--\":25:43   */\n      swap2\n      dup2\n      add\n        /* \"--CODEGEN--\":61:78   */\n      dup1\n      mload\n      sub(shl(0xe0, 0x01), 0x01)\n        /* \"--CODEGEN--\":182:197   */\n      and\n      shl(0xe0, 0xa9059cbb)\n        /* \"--CODEGEN--\":179:208   */\n      or\n        /* \"--CODEGEN--\":160:209   */\n      dup2\n      mstore\n        /* \"contracts/SaitaSwapPair.sol\":1758:1813  token.call(abi.encodeWithSelector(SELECTOR, to, value)) */\n      swap3\n      mload\n      dup2\n      mload\n      0x00\n      swap5\n        /* \"contracts/SaitaSwapPair.sol\":1737:1754  bytes memory data */\n      0x60\n      swap5\n        /* \"contracts/SaitaSwapPair.sol\":1758:1768  token.call */\n      dup10\n      and\n      swap4\n        /* \"contracts/SaitaSwapPair.sol\":1769:1812  abi.encodeWithSelector(SELECTOR, to, value) */\n      swap3\n        /* \"contracts/SaitaSwapPair.sol\":1758:1813  token.call(abi.encodeWithSelector(SELECTOR, to, value)) */\n      swap2\n      dup3\n      swap2\n        /* \"--CODEGEN--\":25:43   */\n      swap1\n        /* \"contracts/SaitaSwapPair.sol\":1758:1813  token.call(abi.encodeWithSelector(SELECTOR, to, value)) */\n      dup1\n      dup4\n        /* \"--CODEGEN--\":25:43   */\n      dup4\n        /* \"--CODEGEN--\":36:189   */\n    tag_271:\n        /* \"--CODEGEN--\":66:68   */\n      0x20\n        /* \"--CODEGEN--\":61:64   */\n      dup4\n        /* \"--CODEGEN--\":58:69   */\n      lt\n        /* \"--CODEGEN--\":36:189   */\n      tag_273\n      jumpi\n        /* \"--CODEGEN--\":176:186   */\n      dup1\n      mload\n        /* \"--CODEGEN--\":164:187   */\n      dup3\n      mstore\n      not(0x1f)\n        /* \"--CODEGEN--\":139:151   */\n      swap1\n      swap3\n      add\n      swap2\n        /* \"--CODEGEN--\":98:100   */\n      0x20\n        /* \"--CODEGEN--\":89:101   */\n      swap2\n      dup3\n      add\n      swap2\n        /* \"--CODEGEN--\":114:126   */\n      add\n        /* \"--CODEGEN--\":36:189   */\n      jump(tag_271)\n    tag_273:\n        /* \"--CODEGEN--\":274:275   */\n      0x01\n        /* \"--CODEGEN--\":267:270   */\n      dup4\n        /* \"--CODEGEN--\":263:265   */\n      0x20\n        /* \"--CODEGEN--\":259:271   */\n      sub\n        /* \"--CODEGEN--\":254:257   */\n      0x0100\n        /* \"--CODEGEN--\":250:272   */\n      exp\n        /* \"--CODEGEN--\":246:276   */\n      sub\n        /* \"--CODEGEN--\":315:319   */\n      dup1\n        /* \"--CODEGEN--\":311:320   */\n      not\n        /* \"--CODEGEN--\":305:308   */\n      dup3\n        /* \"--CODEGEN--\":299:309   */\n      mload\n        /* \"--CODEGEN--\":295:321   */\n      and\n        /* \"--CODEGEN--\":356:360   */\n      dup2\n        /* \"--CODEGEN--\":350:353   */\n      dup5\n        /* \"--CODEGEN--\":344:354   */\n      mload\n        /* \"--CODEGEN--\":340:361   */\n      and\n        /* \"--CODEGEN--\":389:396   */\n      dup1\n        /* \"--CODEGEN--\":380:387   */\n      dup3\n        /* \"--CODEGEN--\":377:397   */\n      or\n        /* \"--CODEGEN--\":372:375   */\n      dup6\n        /* \"--CODEGEN--\":365:398   */\n      mstore\n        /* \"--CODEGEN--\":3:402   */\n      pop\n      pop\n      pop\n        /* \"contracts/SaitaSwapPair.sol\":1758:1813  token.call(abi.encodeWithSelector(SELECTOR, to, value)) */\n      pop\n      pop\n      pop\n      swap1\n      pop\n      add\n      swap2\n      pop\n      pop\n      0x00\n      mload(0x40)\n      dup1\n      dup4\n      sub\n      dup2\n      0x00\n      dup7\n      gas\n      call\n      swap2\n      pop\n      pop\n      returndatasize\n        /* \"--CODEGEN--\":14:15   */\n      dup1\n        /* \"--CODEGEN--\":21:22   */\n      0x00\n        /* \"--CODEGEN--\":16:47   */\n      dup2\n      eq\n      tag_275\n      jumpi\n        /* \"--CODEGEN--\":75:79   */\n      0x40\n        /* \"--CODEGEN--\":69:80   */\n      mload\n        /* \"--CODEGEN--\":64:80   */\n      swap2\n      pop\n        /* \"--CODEGEN--\":144:148   */\n      0x1f\n        /* \"--CODEGEN--\":140:149   */\n      not\n        /* \"--CODEGEN--\":133:137   */\n      0x3f\n        /* \"--CODEGEN--\":115:131   */\n      returndatasize\n        /* \"--CODEGEN--\":111:138   */\n      add\n        /* \"--CODEGEN--\":107:150   */\n      and\n        /* \"--CODEGEN--\":104:105   */\n      dup3\n        /* \"--CODEGEN--\":100:151   */\n      add\n        /* \"--CODEGEN--\":94:98   */\n      0x40\n        /* \"--CODEGEN--\":87:152   */\n      mstore\n        /* \"--CODEGEN--\":169:185   */\n      returndatasize\n        /* \"--CODEGEN--\":166:167   */\n      dup3\n        /* \"--CODEGEN--\":159:186   */\n      mstore\n        /* \"--CODEGEN--\":225:241   */\n      returndatasize\n        /* \"--CODEGEN--\":222:223   */\n      0x00\n        /* \"--CODEGEN--\":215:219   */\n      0x20\n        /* \"--CODEGEN--\":212:213   */\n      dup5\n        /* \"--CODEGEN--\":208:220   */\n      add\n        /* \"--CODEGEN--\":193:242   */\n      returndatacopy\n        /* \"--CODEGEN--\":7:249   */\n      jump(tag_274)\n        /* \"--CODEGEN--\":16:47   */\n    tag_275:\n        /* \"--CODEGEN--\":36:40   */\n      0x60\n        /* \"--CODEGEN--\":31:40   */\n      swap2\n      pop\n        /* \"--CODEGEN--\":7:249   */\n    tag_274:\n      pop\n        /* \"contracts/SaitaSwapPair.sol\":1722:1813  (bool success, bytes memory data) = token.call(abi.encodeWithSelector(SELECTOR, to, value)) */\n      swap2\n      pop\n      swap2\n      pop\n        /* \"contracts/SaitaSwapPair.sol\":1831:1838  success */\n      dup2\n        /* \"contracts/SaitaSwapPair.sol\":1831:1888  success && (data.length == 0 || abi.decode(data, (bool))) */\n      dup1\n      iszero\n      tag_277\n      jumpi\n      pop\n        /* \"contracts/SaitaSwapPair.sol\":1843:1854  data.length */\n      dup1\n      mload\n        /* \"contracts/SaitaSwapPair.sol\":1843:1859  data.length == 0 */\n      iszero\n      dup1\n        /* \"contracts/SaitaSwapPair.sol\":1843:1887  data.length == 0 || abi.decode(data, (bool)) */\n      tag_277\n      jumpi\n      pop\n        /* \"contracts/SaitaSwapPair.sol\":1874:1878  data */\n      dup1\n        /* \"contracts/SaitaSwapPair.sol\":1863:1887  abi.decode(data, (bool)) */\n      dup1\n      0x20\n      add\n      swap1\n      mload\n        /* \"--CODEGEN--\":13:15   */\n      0x20\n        /* \"--CODEGEN--\":8:11   */\n      dup2\n        /* \"--CODEGEN--\":5:16   */\n      lt\n        /* \"--CODEGEN--\":2:4   */\n      iszero\n      tag_278\n      jumpi\n        /* \"--CODEGEN--\":29:30   */\n      0x00\n        /* \"--CODEGEN--\":26:27   */\n      dup1\n        /* \"--CODEGEN--\":19:31   */\n      revert\n        /* \"--CODEGEN--\":2:4   */\n    tag_278:\n      pop\n        /* \"contracts/SaitaSwapPair.sol\":1863:1887  abi.decode(data, (bool)) */\n      mload\n        /* \"contracts/SaitaSwapPair.sol\":1843:1887  data.length == 0 || abi.decode(data, (bool)) */\n    tag_277:\n        /* \"contracts/SaitaSwapPair.sol\":1823:1919  require(success && (data.length == 0 || abi.decode(data, (bool))), 'SaitaSwap: TRANSFER_FAILED') */\n      tag_279\n      jumpi\n      0x40\n      dup1\n      mload\n      shl(0xe5, 0x461bcd)\n      dup2\n      mstore\n      0x20\n      0x04\n      dup3\n      add\n      mstore\n      0x1a\n      0x24\n      dup3\n      add\n      mstore\n      0x5361697461537761703a205452414e534645525f4641494c4544000000000000\n      0x44\n      dup3\n      add\n      mstore\n      swap1\n      mload\n      swap1\n      dup2\n      swap1\n      sub\n      0x64\n      add\n      swap1\n      revert\n    tag_279:\n        /* \"contracts/SaitaSwapPair.sol\":1642:1926  function _safeTransfer(address token, address to, uint value) private {... */\n      pop\n      pop\n      pop\n      pop\n      pop\n      jump\t// out\n        /* \"contracts/libraries/SafeMath.sol\":421:561  function mul(uint x, uint y) internal pure returns (uint z) {... */\n    tag_152:\n        /* \"contracts/libraries/SafeMath.sol\":473:479  uint z */\n      0x00\n        /* \"contracts/libraries/SafeMath.sol\":499:505  y == 0 */\n      dup2\n      iszero\n      dup1\n        /* \"contracts/libraries/SafeMath.sol\":499:529  y == 0 || (z = x * y) / y == x */\n      tag_281\n      jumpi\n      pop\n      pop\n        /* \"contracts/libraries/SafeMath.sol\":514:519  x * y */\n      dup1\n      dup3\n      mul\n        /* \"contracts/libraries/SafeMath.sol\":528:529  x */\n      dup3\n        /* \"contracts/libraries/SafeMath.sol\":523:524  y */\n      dup3\n        /* \"contracts/libraries/SafeMath.sol\":514:519  x * y */\n      dup3\n        /* \"contracts/libraries/SafeMath.sol\":523:524  y */\n      dup2\n        /* \"contracts/libraries/SafeMath.sol\":509:524  (z = x * y) / y */\n      tag_282\n      jumpi\n      invalid\n    tag_282:\n      div\n        /* \"contracts/libraries/SafeMath.sol\":509:529  (z = x * y) / y == x */\n      eq\n        /* \"contracts/libraries/SafeMath.sol\":499:529  y == 0 || (z = x * y) / y == x */\n    tag_281:\n        /* \"contracts/libraries/SafeMath.sol\":491:554  require(y == 0 || (z = x * y) / y == x, 'ds-math-mul-overflow') */\n      tag_165\n      jumpi\n      0x40\n      dup1\n      mload\n      shl(0xe5, 0x461bcd)\n      dup2\n      mstore\n      0x20\n      0x04\n      dup3\n      add\n      mstore\n      0x14\n      0x24\n      dup3\n      add\n      mstore\n      shl(0x60, 0x64732d6d6174682d6d756c2d6f766572666c6f77)\n      0x44\n      dup3\n      add\n      mstore\n      swap1\n      mload\n      swap1\n      dup2\n      swap1\n      sub\n      0x64\n      add\n      swap1\n      revert\n        /* \"contracts/libraries/SafeMath.sol\":288:415  function sub(uint x, uint y) internal pure returns (uint z) {... */\n    tag_154:\n        /* \"contracts/libraries/SafeMath.sol\":371:376  x - y */\n      dup1\n      dup3\n      sub\n        /* \"contracts/libraries/SafeMath.sol\":366:382  (z = x - y) <= x */\n      dup3\n      dup2\n      gt\n      iszero\n        /* \"contracts/libraries/SafeMath.sol\":358:408  require((z = x - y) <= x, 'ds-math-sub-underflow') */\n      tag_165\n      jumpi\n      0x40\n      dup1\n      mload\n      shl(0xe5, 0x461bcd)\n      dup2\n      mstore\n      0x20\n      0x04\n      dup3\n      add\n      mstore\n      0x15\n      0x24\n      dup3\n      add\n      mstore\n      shl(0x58, 0x64732d6d6174682d7375622d756e646572666c6f77)\n      0x44\n      dup3\n      add\n      mstore\n      swap1\n      mload\n      swap1\n      dup2\n      swap1\n      sub\n      0x64\n      add\n      swap1\n      revert\n        /* \"contracts/SaitaSwapPair.sol\":2729:3576  function _update(uint balance0, uint balance1, uint112 _reserve0, uint112 _reserve1) private {... */\n    tag_163:\n      sub(shl(0x70, 0x01), 0x01)\n        /* \"contracts/SaitaSwapPair.sol\":2840:2863  balance0 <= uint112(-1) */\n      dup5\n      gt\n      dup1\n      iszero\n      swap1\n        /* \"contracts/SaitaSwapPair.sol\":2840:2890  balance0 <= uint112(-1) && balance1 <= uint112(-1) */\n      tag_287\n      jumpi\n      pop\n      sub(shl(0x70, 0x01), 0x01)\n        /* \"contracts/SaitaSwapPair.sol\":2867:2890  balance1 <= uint112(-1) */\n      dup4\n      gt\n      iszero\n        /* \"contracts/SaitaSwapPair.sol\":2840:2890  balance0 <= uint112(-1) && balance1 <= uint112(-1) */\n    tag_287:\n        /* \"contracts/SaitaSwapPair.sol\":2832:2914  require(balance0 <= uint112(-1) && balance1 <= uint112(-1), 'SaitaSwap: OVERFLOW') */\n      tag_288\n      jumpi\n      0x40\n      dup1\n      mload\n      shl(0xe5, 0x461bcd)\n      dup2\n      mstore\n      0x20\n      0x04\n      dup3\n      add\n      mstore\n      0x13\n      0x24\n      dup3\n      add\n      mstore\n      shl(0x68, 0x5361697461537761703a204f564552464c4f57)\n      0x44\n      dup3\n      add\n      mstore\n      swap1\n      mload\n      swap1\n      dup2\n      swap1\n      sub\n      0x64\n      add\n      swap1\n      revert\n    tag_288:\n        /* \"contracts/SaitaSwapPair.sol\":3027:3045  blockTimestampLast */\n      sload(0x0a)\n        /* \"contracts/SaitaSwapPair.sol\":2955:2978  block.timestamp % 2**32 */\n      0xffffffff\n        /* \"contracts/SaitaSwapPair.sol\":2955:2970  block.timestamp */\n      timestamp\n        /* \"contracts/SaitaSwapPair.sol\":2955:2978  block.timestamp % 2**32 */\n      dup2\n      and\n      swap2\n      shl(0xe0, 0x01)\n        /* \"contracts/SaitaSwapPair.sol\":3027:3045  blockTimestampLast */\n      swap1\n      div\n      dup2\n      and\n        /* \"contracts/SaitaSwapPair.sol\":3010:3045  blockTimestamp - blockTimestampLast */\n      dup3\n      sub\n      swap1\n        /* \"contracts/SaitaSwapPair.sol\":3082:3097  timeElapsed > 0 */\n      dup2\n      and\n      iszero\n      dup1\n      iszero\n      swap1\n        /* \"contracts/SaitaSwapPair.sol\":3082:3115  timeElapsed > 0 && _reserve0 != 0 */\n      tag_290\n      jumpi\n      pop\n      sub(shl(0x70, 0x01), 0x01)\n        /* \"contracts/SaitaSwapPair.sol\":3101:3115  _reserve0 != 0 */\n      dup5\n      and\n      iszero\n      iszero\n        /* \"contracts/SaitaSwapPair.sol\":3082:3115  timeElapsed > 0 && _reserve0 != 0 */\n    tag_290:\n        /* \"contracts/SaitaSwapPair.sol\":3082:3133  timeElapsed > 0 && _reserve0 != 0 && _reserve1 != 0 */\n      dup1\n      iszero\n      tag_291\n      jumpi\n      pop\n      sub(shl(0x70, 0x01), 0x01)\n        /* \"contracts/SaitaSwapPair.sol\":3119:3133  _reserve1 != 0 */\n      dup4\n      and\n      iszero\n      iszero\n        /* \"contracts/SaitaSwapPair.sol\":3082:3133  timeElapsed > 0 && _reserve0 != 0 && _reserve1 != 0 */\n    tag_291:\n        /* \"contracts/SaitaSwapPair.sol\":3078:3410  if (timeElapsed > 0 && _reserve0 != 0 && _reserve1 != 0) {... */\n      iszero\n      tag_292\n      jumpi\n        /* \"contracts/SaitaSwapPair.sol\":3286:3297  timeElapsed */\n      dup1\n        /* \"contracts/SaitaSwapPair.sol\":3233:3297  uint(UQ112x112.encode(_reserve1).uqdiv(_reserve0)) * timeElapsed */\n      0xffffffff\n      and\n        /* \"contracts/SaitaSwapPair.sol\":3238:3282  UQ112x112.encode(_reserve1).uqdiv(_reserve0) */\n      tag_293\n        /* \"contracts/SaitaSwapPair.sol\":3272:3281  _reserve0 */\n      dup6\n        /* \"contracts/SaitaSwapPair.sol\":3238:3265  UQ112x112.encode(_reserve1) */\n      tag_294\n        /* \"contracts/SaitaSwapPair.sol\":3255:3264  _reserve1 */\n      dup7\n        /* \"contracts/SaitaSwapPair.sol\":3238:3254  UQ112x112.encode */\n      tag_295\n        /* \"contracts/SaitaSwapPair.sol\":3238:3265  UQ112x112.encode(_reserve1) */\n      jump\t// in\n    tag_294:\n      sub(shl(0xe0, 0x01), 0x01)\n        /* \"contracts/SaitaSwapPair.sol\":3238:3271  UQ112x112.encode(_reserve1).uqdiv */\n      and\n      swap1\n      tag_296\n        /* \"contracts/SaitaSwapPair.sol\":3238:3282  UQ112x112.encode(_reserve1).uqdiv(_reserve0) */\n      jump\t// in\n    tag_293:\n        /* \"contracts/SaitaSwapPair.sol\":3209:3229  price0CumulativeLast */\n      0x0b\n        /* \"contracts/SaitaSwapPair.sol\":3209:3297  price0CumulativeLast += uint(UQ112x112.encode(_reserve1).uqdiv(_reserve0)) * timeElapsed */\n      dup1\n      sload\n      sub(shl(0xe0, 0x01), 0x01)\n        /* \"contracts/SaitaSwapPair.sol\":3233:3283  uint(UQ112x112.encode(_reserve1).uqdiv(_reserve0)) */\n      swap3\n      swap1\n      swap3\n      and\n        /* \"contracts/SaitaSwapPair.sol\":3233:3297  uint(UQ112x112.encode(_reserve1).uqdiv(_reserve0)) * timeElapsed */\n      swap3\n      swap1\n      swap3\n      mul\n        /* \"contracts/SaitaSwapPair.sol\":3209:3297  price0CumulativeLast += uint(UQ112x112.encode(_reserve1).uqdiv(_reserve0)) * timeElapsed */\n      add\n      swap1\n      sstore\n        /* \"contracts/SaitaSwapPair.sol\":3335:3399  uint(UQ112x112.encode(_reserve0).uqdiv(_reserve1)) * timeElapsed */\n      0xffffffff\n      dup2\n      and\n        /* \"contracts/SaitaSwapPair.sol\":3340:3384  UQ112x112.encode(_reserve0).uqdiv(_reserve1) */\n      tag_297\n        /* \"contracts/SaitaSwapPair.sol\":3374:3383  _reserve1 */\n      dup5\n        /* \"contracts/SaitaSwapPair.sol\":3340:3367  UQ112x112.encode(_reserve0) */\n      tag_294\n        /* \"contracts/SaitaSwapPair.sol\":3357:3366  _reserve0 */\n      dup8\n        /* \"contracts/SaitaSwapPair.sol\":3340:3356  UQ112x112.encode */\n      tag_295\n        /* \"contracts/SaitaSwapPair.sol\":3340:3367  UQ112x112.encode(_reserve0) */\n      jump\t// in\n        /* \"contracts/SaitaSwapPair.sol\":3340:3384  UQ112x112.encode(_reserve0).uqdiv(_reserve1) */\n    tag_297:\n        /* \"contracts/SaitaSwapPair.sol\":3311:3331  price1CumulativeLast */\n      0x0c\n        /* \"contracts/SaitaSwapPair.sol\":3311:3399  price1CumulativeLast += uint(UQ112x112.encode(_reserve0).uqdiv(_reserve1)) * timeElapsed */\n      dup1\n      sload\n      sub(shl(0xe0, 0x01), 0x01)\n        /* \"contracts/SaitaSwapPair.sol\":3335:3385  uint(UQ112x112.encode(_reserve0).uqdiv(_reserve1)) */\n      swap3\n      swap1\n      swap3\n      and\n        /* \"contracts/SaitaSwapPair.sol\":3335:3399  uint(UQ112x112.encode(_reserve0).uqdiv(_reserve1)) * timeElapsed */\n      swap3\n      swap1\n      swap3\n      mul\n        /* \"contracts/SaitaSwapPair.sol\":3311:3399  price1CumulativeLast += uint(UQ112x112.encode(_reserve0).uqdiv(_reserve1)) * timeElapsed */\n      add\n      swap1\n      sstore\n        /* \"contracts/SaitaSwapPair.sol\":3078:3410  if (timeElapsed > 0 && _reserve0 != 0 && _reserve1 != 0) {... */\n    tag_292:\n        /* \"contracts/SaitaSwapPair.sol\":3419:3427  reserve0 */\n      0x0a\n        /* \"contracts/SaitaSwapPair.sol\":3419:3447  reserve0 = uint112(balance0) */\n      dup1\n      sload\n      not(0xffffffffffffffffffffffffffff)\n      and\n      sub(shl(0x70, 0x01), 0x01)\n      dup9\n      dup2\n      and\n      swap2\n      swap1\n      swap2\n      or\n      not(shl(0x70, 0xffffffffffffffffffffffffffff))\n        /* \"contracts/SaitaSwapPair.sol\":3457:3485  reserve1 = uint112(balance1) */\n      and\n      shl(0x70, 0x01)\n      dup9\n      dup4\n      and\n      dup2\n      mul\n      swap2\n      swap1\n      swap2\n      or\n      sub(shl(0xe0, 0x01), 0x01)\n        /* \"contracts/SaitaSwapPair.sol\":3495:3530  blockTimestampLast = blockTimestamp */\n      and\n      shl(0xe0, 0x01)\n      0xffffffff\n      dup8\n      and\n      mul\n      or\n      swap3\n      dup4\n      swap1\n      sstore\n        /* \"contracts/SaitaSwapPair.sol\":3545:3569  Sync(reserve0, reserve1) */\n      0x40\n      dup1\n      mload\n        /* \"contracts/SaitaSwapPair.sol\":3550:3558  reserve0 */\n      dup5\n      dup5\n      and\n        /* \"contracts/SaitaSwapPair.sol\":3545:3569  Sync(reserve0, reserve1) */\n      dup2\n      mstore\n        /* \"contracts/SaitaSwapPair.sol\":3560:3568  reserve1 */\n      swap2\n      swap1\n      swap4\n      div\n      swap1\n      swap2\n      and\n        /* \"contracts/SaitaSwapPair.sol\":3545:3569  Sync(reserve0, reserve1) */\n      0x20\n      dup3\n      add\n      mstore\n      dup2\n      mload\n      0x1c411e9a96e071241c2f21f7726b17ae89e3cab4c78be50e062b03a9fffbbad1\n      swap3\n      swap2\n      dup2\n      swap1\n      sub\n      swap1\n      swap2\n      add\n      swap1\n      log1\n        /* \"contracts/SaitaSwapPair.sol\":2729:3576  function _update(uint balance0, uint balance1, uint112 _reserve0, uint112 _reserve1) private {... */\n      pop\n      pop\n      pop\n      pop\n      pop\n      pop\n      jump\t// out\n        /* \"contracts/SaitaSwapERC20.sol\":2288:2454  function _approve(address owner, address spender, uint value) private {... */\n    tag_167:\n      sub(shl(0xa0, 0x01), 0x01)\n        /* \"contracts/SaitaSwapERC20.sol\":2368:2384  allowance[owner] */\n      dup4\n      dup2\n      and\n      0x00\n      dup2\n      dup2\n      mstore\n        /* \"contracts/SaitaSwapERC20.sol\":2368:2377  allowance */\n      0x02\n        /* \"contracts/SaitaSwapERC20.sol\":2368:2384  allowance[owner] */\n      0x20\n      swap1\n      dup2\n      mstore\n      0x40\n      dup1\n      dup4\n      keccak256\n        /* \"contracts/SaitaSwapERC20.sol\":2368:2393  allowance[owner][spender] */\n      swap5\n      dup8\n      and\n      dup1\n      dup5\n      mstore\n      swap5\n      dup3\n      mstore\n      swap2\n      dup3\n      swap1\n      keccak256\n        /* \"contracts/SaitaSwapERC20.sol\":2368:2401  allowance[owner][spender] = value */\n      dup6\n      swap1\n      sstore\n        /* \"contracts/SaitaSwapERC20.sol\":2416:2447  Approval(owner, spender, value) */\n      dup2\n      mload\n      dup6\n      dup2\n      mstore\n      swap2\n      mload\n      0x8c5be1e5ebec7d5bd14f71427d1e84f3dd0314c0f7b2291e5b200ac8c7c3b925\n      swap3\n      dup2\n      swap1\n      sub\n      swap1\n      swap2\n      add\n      swap1\n      log3\n        /* \"contracts/SaitaSwapERC20.sol\":2288:2454  function _approve(address owner, address spender, uint value) private {... */\n      pop\n      pop\n      pop\n      jump\t// out\n        /* \"contracts/SaitaSwapERC20.sol\":2460:2676  function _transfer(address from, address to, uint value) private {... */\n    tag_172:\n      sub(shl(0xa0, 0x01), 0x01)\n        /* \"contracts/SaitaSwapERC20.sol\":2553:2568  balanceOf[from] */\n      dup4\n      and\n      0x00\n      swap1\n      dup2\n      mstore\n      mstore(0x20, 0x01)\n      0x40\n      swap1\n      keccak256\n      sload\n        /* \"contracts/SaitaSwapERC20.sol\":2553:2579  balanceOf[from].sub(value) */\n      tag_301\n      swap1\n        /* \"contracts/SaitaSwapERC20.sol\":2573:2578  value */\n      dup3\n        /* \"contracts/SaitaSwapERC20.sol\":2553:2572  balanceOf[from].sub */\n      tag_154\n        /* \"contracts/SaitaSwapERC20.sol\":2553:2579  balanceOf[from].sub(value) */\n      jump\t// in\n    tag_301:\n      sub(shl(0xa0, 0x01), 0x01)\n        /* \"contracts/SaitaSwapERC20.sol\":2535:2550  balanceOf[from] */\n      dup5\n      dup2\n      and\n      0x00\n      swap1\n      dup2\n      mstore\n      mstore(0x20, 0x01)\n      0x40\n      dup1\n      dup3\n      keccak256\n        /* \"contracts/SaitaSwapERC20.sol\":2535:2579  balanceOf[from] = balanceOf[from].sub(value) */\n      swap4\n      swap1\n      swap4\n      sstore\n        /* \"contracts/SaitaSwapERC20.sol\":2605:2618  balanceOf[to] */\n      swap1\n      dup5\n      and\n      dup2\n      mstore\n      keccak256\n      sload\n        /* \"contracts/SaitaSwapERC20.sol\":2605:2629  balanceOf[to].add(value) */\n      tag_302\n      swap1\n        /* \"contracts/SaitaSwapERC20.sol\":2623:2628  value */\n      dup3\n        /* \"contracts/SaitaSwapERC20.sol\":2605:2622  balanceOf[to].add */\n      tag_303\n        /* \"contracts/SaitaSwapERC20.sol\":2605:2629  balanceOf[to].add(value) */\n      jump\t// in\n    tag_302:\n      sub(shl(0xa0, 0x01), 0x01)\n        /* \"contracts/SaitaSwapERC20.sol\":2589:2602  balanceOf[to] */\n      dup4\n      dup2\n      and\n      0x00\n      dup2\n      dup2\n      mstore\n      0x01\n      0x20\n      swap1\n      dup2\n      mstore\n      0x40\n      swap2\n      dup3\n      swap1\n      keccak256\n        /* \"contracts/SaitaSwapERC20.sol\":2589:2629  balanceOf[to] = balanceOf[to].add(value) */\n      swap5\n      swap1\n      swap5\n      sstore\n        /* \"contracts/SaitaSwapERC20.sol\":2644:2669  Transfer(from, to, value) */\n      dup1\n      mload\n      dup6\n      dup2\n      mstore\n      swap1\n      mload\n        /* \"contracts/SaitaSwapERC20.sol\":2589:2602  balanceOf[to] */\n      swap2\n      swap4\n        /* \"contracts/SaitaSwapERC20.sol\":2644:2669  Transfer(from, to, value) */\n      swap3\n      dup8\n      and\n      swap3\n      0xddf252ad1be2c89b69c2b068fc378daa952ba7f163c4a11628f55a4df523b3ef\n      swap3\n      swap2\n      dup3\n      swap1\n      sub\n      add\n      swap1\n      log3\n        /* \"contracts/SaitaSwapERC20.sol\":2460:2676  function _transfer(address from, address to, uint value) private {... */\n      pop\n      pop\n      pop\n      jump\t// out\n        /* \"contracts/SaitaSwapPair.sol\":3648:4449  function _mintFee(uint112 _reserve0, uint112 _reserve1) private returns (bool feeOn) {... */\n    tag_188:\n        /* \"contracts/SaitaSwapPair.sol\":3777:3784  factory */\n      sload(0x05)\n        /* \"contracts/SaitaSwapPair.sol\":3759:3793  ISaitaSwapFactory(factory).feeTo() */\n      0x40\n      dup1\n      mload\n      shl(0xe3, 0x2fcfcb)\n      dup2\n      mstore\n      swap1\n      mload\n        /* \"contracts/SaitaSwapPair.sol\":3721:3731  bool feeOn */\n      0x00\n      swap3\n      dup4\n      swap3\n      sub(shl(0xa0, 0x01), 0x01)\n        /* \"contracts/SaitaSwapPair.sol\":3777:3784  factory */\n      swap1\n      swap2\n      and\n      swap2\n        /* \"contracts/SaitaSwapPair.sol\":3759:3791  ISaitaSwapFactory(factory).feeTo */\n      0x017e7e58\n      swap2\n        /* \"contracts/SaitaSwapPair.sol\":3759:3793  ISaitaSwapFactory(factory).feeTo() */\n      0x04\n      dup1\n      dup3\n      add\n      swap3\n      0x20\n      swap3\n      swap1\n      swap2\n      swap1\n      dup3\n      swap1\n      sub\n      add\n      dup2\n        /* \"contracts/SaitaSwapPair.sol\":3777:3784  factory */\n      dup7\n        /* \"contracts/SaitaSwapPair.sol\":3759:3793  ISaitaSwapFactory(factory).feeTo() */\n      dup1\n      extcodesize\n      iszero\n        /* \"--CODEGEN--\":5:7   */\n      dup1\n      iszero\n      tag_305\n      jumpi\n        /* \"--CODEGEN--\":30:31   */\n      0x00\n        /* \"--CODEGEN--\":27:28   */\n      dup1\n        /* \"--CODEGEN--\":20:32   */\n      revert\n        /* \"--CODEGEN--\":5:7   */\n    tag_305:\n        /* \"contracts/SaitaSwapPair.sol\":3759:3793  ISaitaSwapFactory(factory).feeTo() */\n      pop\n      gas\n      staticcall\n      iszero\n        /* \"--CODEGEN--\":8:17   */\n      dup1\n        /* \"--CODEGEN--\":5:7   */\n      iszero\n      tag_306\n      jumpi\n        /* \"--CODEGEN--\":45:61   */\n      returndatasize\n        /* \"--CODEGEN--\":42:43   */\n      0x00\n        /* \"--CODEGEN--\":39:40   */\n      dup1\n        /* \"--CODEGEN--\":24:62   */\n      returndatacopy\n        /* \"--CODEGEN--\":77:93   */\n      returndatasize\n        /* \"--CODEGEN--\":74:75   */\n      0x00\n        /* \"--CODEGEN--\":67:94   */\n      revert\n        /* \"--CODEGEN--\":5:7   */\n    tag_306:\n        /* \"contracts/SaitaSwapPair.sol\":3759:3793  ISaitaSwapFactory(factory).feeTo() */\n      pop\n      pop\n      pop\n      pop\n      mload(0x40)\n      returndatasize\n        /* \"--CODEGEN--\":13:15   */\n      0x20\n        /* \"--CODEGEN--\":8:11   */\n      dup2\n        /* \"--CODEGEN--\":5:16   */\n      lt\n        /* \"--CODEGEN--\":2:4   */\n      iszero\n      tag_307\n      jumpi\n        /* \"--CODEGEN--\":29:30   */\n      0x00\n        /* \"--CODEGEN--\":26:27   */\n      dup1\n        /* \"--CODEGEN--\":19:31   */\n      revert\n        /* \"--CODEGEN--\":2:4   */\n    tag_307:\n      pop\n        /* \"contracts/SaitaSwapPair.sol\":3759:3793  ISaitaSwapFactory(factory).feeTo() */\n      mload\n        /* \"contracts/SaitaSwapPair.sol\":3854:3859  kLast */\n      sload(0x0d)\n      sub(shl(0xa0, 0x01), 0x01)\n        /* \"contracts/SaitaSwapPair.sol\":3811:3830  feeTo != address(0) */\n      dup3\n      and\n      iszero\n      dup1\n      iszero\n      swap5\n      pop\n        /* \"contracts/SaitaSwapPair.sol\":3759:3793  ISaitaSwapFactory(factory).feeTo() */\n      swap2\n      swap3\n      pop\n        /* \"contracts/SaitaSwapPair.sol\":3854:3859  kLast */\n      swap1\n        /* \"contracts/SaitaSwapPair.sol\":3884:4443  if (feeOn) {... */\n      tag_308\n      jumpi\n        /* \"contracts/SaitaSwapPair.sol\":3913:3924  _kLast != 0 */\n      dup1\n      iszero\n        /* \"contracts/SaitaSwapPair.sol\":3909:4376  if (_kLast != 0) {... */\n      tag_309\n      jumpi\n        /* \"contracts/SaitaSwapPair.sol\":3944:3954  uint rootK */\n      0x00\n        /* \"contracts/SaitaSwapPair.sol\":3957:3998  Math.sqrt(uint(_reserve0).mul(_reserve1)) */\n      tag_310\n        /* \"contracts/SaitaSwapPair.sol\":3967:3997  uint(_reserve0).mul(_reserve1) */\n      tag_192\n      sub(shl(0x70, 0x01), 0x01)\n        /* \"contracts/SaitaSwapPair.sol\":3967:3982  uint(_reserve0) */\n      dup9\n      dup2\n      and\n      swap1\n        /* \"contracts/SaitaSwapPair.sol\":3967:3997  uint(_reserve0).mul(_reserve1) */\n      dup9\n      and\n        /* \"contracts/SaitaSwapPair.sol\":3967:3986  uint(_reserve0).mul */\n      tag_152\n        /* \"contracts/SaitaSwapPair.sol\":3967:3997  uint(_reserve0).mul(_reserve1) */\n      jump\t// in\n        /* \"contracts/SaitaSwapPair.sol\":3957:3998  Math.sqrt(uint(_reserve0).mul(_reserve1)) */\n    tag_310:\n        /* \"contracts/SaitaSwapPair.sol\":3944:3998  uint rootK = Math.sqrt(uint(_reserve0).mul(_reserve1)) */\n      swap1\n      pop\n        /* \"contracts/SaitaSwapPair.sol\":4016:4030  uint rootKLast */\n      0x00\n        /* \"contracts/SaitaSwapPair.sol\":4033:4050  Math.sqrt(_kLast) */\n      tag_312\n        /* \"contracts/SaitaSwapPair.sol\":4043:4049  _kLast */\n      dup4\n        /* \"contracts/SaitaSwapPair.sol\":4033:4042  Math.sqrt */\n      tag_193\n        /* \"contracts/SaitaSwapPair.sol\":4033:4050  Math.sqrt(_kLast) */\n      jump\t// in\n    tag_312:\n        /* \"contracts/SaitaSwapPair.sol\":4016:4050  uint rootKLast = Math.sqrt(_kLast) */\n      swap1\n      pop\n        /* \"contracts/SaitaSwapPair.sol\":4080:4089  rootKLast */\n      dup1\n        /* \"contracts/SaitaSwapPair.sol\":4072:4077  rootK */\n      dup3\n        /* \"contracts/SaitaSwapPair.sol\":4072:4089  rootK > rootKLast */\n      gt\n        /* \"contracts/SaitaSwapPair.sol\":4068:4362  if (rootK > rootKLast) {... */\n      iszero\n      tag_313\n      jumpi\n        /* \"contracts/SaitaSwapPair.sol\":4113:4127  uint numerator */\n      0x00\n        /* \"contracts/SaitaSwapPair.sol\":4130:4167  totalSupply.mul(rootK.sub(rootKLast)) */\n      tag_314\n        /* \"contracts/SaitaSwapPair.sol\":4146:4166  rootK.sub(rootKLast) */\n      tag_315\n        /* \"contracts/SaitaSwapPair.sol\":4146:4151  rootK */\n      dup5\n        /* \"contracts/SaitaSwapPair.sol\":4156:4165  rootKLast */\n      dup5\n        /* \"contracts/SaitaSwapPair.sol\":4146:4166  rootK.sub(rootKLast) */\n      0xffffffff\n        /* \"contracts/SaitaSwapPair.sol\":4146:4155  rootK.sub */\n      tag_154\n        /* \"contracts/SaitaSwapPair.sol\":4146:4166  rootK.sub(rootKLast) */\n      and\n      jump\t// in\n    tag_315:\n        /* \"contracts/SaitaSwapPair.sol\":4130:4141  totalSupply */\n      sload(0x00)\n      swap1\n        /* \"contracts/SaitaSwapPair.sol\":4130:4167  totalSupply.mul(rootK.sub(rootKLast)) */\n      0xffffffff\n        /* \"contracts/SaitaSwapPair.sol\":4130:4145  totalSupply.mul */\n      tag_152\n        /* \"contracts/SaitaSwapPair.sol\":4130:4167  totalSupply.mul(rootK.sub(rootKLast)) */\n      and\n      jump\t// in\n    tag_314:\n        /* \"contracts/SaitaSwapPair.sol\":4113:4167  uint numerator = totalSupply.mul(rootK.sub(rootKLast)) */\n      swap1\n      pop\n        /* \"contracts/SaitaSwapPair.sol\":4208:4217  rootKLast */\n      dup2\n        /* \"contracts/SaitaSwapPair.sol\":4189:4205  uint denominator */\n      0x00\n        /* \"contracts/SaitaSwapPair.sol\":4208:4217  rootKLast */\n      dup2\n        /* \"contracts/SaitaSwapPair.sol\":4113:4167  uint numerator = totalSupply.mul(rootK.sub(rootKLast)) */\n      dup4\n        /* \"contracts/SaitaSwapPair.sol\":4208:4217  rootKLast */\n      dup2\n        /* \"contracts/SaitaSwapPair.sol\":4256:4279  numerator / denominator */\n      tag_316\n      jumpi\n      invalid\n    tag_316:\n      div\n      swap1\n      pop\n        /* \"contracts/SaitaSwapPair.sol\":4305:4318  liquidity > 0 */\n      dup1\n      iszero\n        /* \"contracts/SaitaSwapPair.sol\":4301:4343  if (liquidity > 0) _mint(feeTo, liquidity) */\n      tag_318\n      jumpi\n        /* \"contracts/SaitaSwapPair.sol\":4320:4343  _mint(feeTo, liquidity) */\n      tag_318\n        /* \"contracts/SaitaSwapPair.sol\":4326:4331  feeTo */\n      dup8\n        /* \"contracts/SaitaSwapPair.sol\":4333:4342  liquidity */\n      dup3\n        /* \"contracts/SaitaSwapPair.sol\":4320:4325  _mint */\n      tag_195\n        /* \"contracts/SaitaSwapPair.sol\":4320:4343  _mint(feeTo, liquidity) */\n      jump\t// in\n    tag_318:\n        /* \"contracts/SaitaSwapPair.sol\":4068:4362  if (rootK > rootKLast) {... */\n      pop\n      pop\n      pop\n    tag_313:\n        /* \"contracts/SaitaSwapPair.sol\":3909:4376  if (_kLast != 0) {... */\n      pop\n      pop\n    tag_309:\n        /* \"contracts/SaitaSwapPair.sol\":3884:4443  if (feeOn) {... */\n      jump(tag_320)\n    tag_308:\n        /* \"contracts/SaitaSwapPair.sol\":4396:4407  _kLast != 0 */\n      dup1\n      iszero\n        /* \"contracts/SaitaSwapPair.sol\":4392:4443  if (_kLast != 0) {... */\n      tag_320\n      jumpi\n        /* \"contracts/SaitaSwapPair.sol\":4431:4432  0 */\n      0x00\n        /* \"contracts/SaitaSwapPair.sol\":4423:4428  kLast */\n      0x0d\n        /* \"contracts/SaitaSwapPair.sol\":4423:4432  kLast = 0 */\n      sstore\n        /* \"contracts/SaitaSwapPair.sol\":4392:4443  if (_kLast != 0) {... */\n    tag_320:\n        /* \"contracts/SaitaSwapPair.sol\":3648:4449  function _mintFee(uint112 _reserve0, uint112 _reserve1) private returns (bool feeOn) {... */\n      pop\n      pop\n      swap3\n      swap2\n      pop\n      pop\n      jump\t// out\n        /* \"contracts/libraries/Math.sol\":307:599  function sqrt(uint y) internal pure returns (uint z) {... */\n    tag_193:\n        /* \"contracts/libraries/Math.sol\":352:358  uint z */\n      0x00\n        /* \"contracts/libraries/Math.sol\":378:379  3 */\n      0x03\n        /* \"contracts/libraries/Math.sol\":374:375  y */\n      dup3\n        /* \"contracts/libraries/Math.sol\":374:379  y > 3 */\n      gt\n        /* \"contracts/libraries/Math.sol\":370:593  if (y > 3) {... */\n      iszero\n      tag_322\n      jumpi\n      pop\n        /* \"contracts/libraries/Math.sol\":399:400  y */\n      dup1\n        /* \"contracts/libraries/Math.sol\":431:432  1 */\n      0x01\n        /* \"contracts/libraries/Math.sol\":427:428  2 */\n      0x02\n        /* \"contracts/libraries/Math.sol\":423:428  y / 2 */\n      dup3\n      div\n        /* \"contracts/libraries/Math.sol\":423:432  y / 2 + 1 */\n      add\n        /* \"contracts/libraries/Math.sol\":446:535  while (x < z) {... */\n    tag_324:\n        /* \"contracts/libraries/Math.sol\":457:458  z */\n      dup2\n        /* \"contracts/libraries/Math.sol\":453:454  x */\n      dup2\n        /* \"contracts/libraries/Math.sol\":453:458  x < z */\n      lt\n        /* \"contracts/libraries/Math.sol\":446:535  while (x < z) {... */\n      iszero\n      tag_325\n      jumpi\n        /* \"contracts/libraries/Math.sol\":482:483  x */\n      dup1\n        /* \"contracts/libraries/Math.sol\":478:483  z = x */\n      swap2\n      pop\n        /* \"contracts/libraries/Math.sol\":519:520  2 */\n      0x02\n        /* \"contracts/libraries/Math.sol\":514:515  x */\n      dup2\n        /* \"contracts/libraries/Math.sol\":510:511  x */\n      dup3\n        /* \"contracts/libraries/Math.sol\":506:507  y */\n      dup6\n        /* \"contracts/libraries/Math.sol\":506:511  y / x */\n      dup2\n      tag_326\n      jumpi\n      invalid\n    tag_326:\n      div\n        /* \"contracts/libraries/Math.sol\":506:515  y / x + x */\n      add\n        /* \"contracts/libraries/Math.sol\":505:520  (y / x + x) / 2 */\n      dup2\n      tag_327\n      jumpi\n      invalid\n    tag_327:\n      div\n        /* \"contracts/libraries/Math.sol\":501:520  x = (y / x + x) / 2 */\n      swap1\n      pop\n        /* \"contracts/libraries/Math.sol\":446:535  while (x < z) {... */\n      jump(tag_324)\n    tag_325:\n        /* \"contracts/libraries/Math.sol\":370:593  if (y > 3) {... */\n      pop\n      jump(tag_329)\n    tag_322:\n        /* \"contracts/libraries/Math.sol\":555:561  y != 0 */\n      dup2\n      iszero\n        /* \"contracts/libraries/Math.sol\":551:593  if (y != 0) {... */\n      tag_329\n      jumpi\n      pop\n        /* \"contracts/libraries/Math.sol\":581:582  1 */\n      0x01\n        /* \"contracts/libraries/Math.sol\":551:593  if (y != 0) {... */\n    tag_329:\n        /* \"contracts/libraries/Math.sol\":307:599  function sqrt(uint y) internal pure returns (uint z) {... */\n      swap2\n      swap1\n      pop\n      jump\t// out\n        /* \"contracts/SaitaSwapERC20.sol\":1874:2071  function _mint(address to, uint value) internal {... */\n    tag_195:\n        /* \"contracts/SaitaSwapERC20.sol\":1946:1957  totalSupply */\n      sload(0x00)\n        /* \"contracts/SaitaSwapERC20.sol\":1946:1968  totalSupply.add(value) */\n      tag_331\n      swap1\n        /* \"contracts/SaitaSwapERC20.sol\":1962:1967  value */\n      dup3\n        /* \"contracts/SaitaSwapERC20.sol\":1946:1968  totalSupply.add(value) */\n      0xffffffff\n        /* \"contracts/SaitaSwapERC20.sol\":1946:1961  totalSupply.add */\n      tag_303\n        /* \"contracts/SaitaSwapERC20.sol\":1946:1968  totalSupply.add(value) */\n      and\n      jump\t// in\n    tag_331:\n        /* \"contracts/SaitaSwapERC20.sol\":1932:1943  totalSupply */\n      0x00\n        /* \"contracts/SaitaSwapERC20.sol\":1932:1968  totalSupply = totalSupply.add(value) */\n      swap1\n      dup2\n      sstore\n      sub(shl(0xa0, 0x01), 0x01)\n        /* \"contracts/SaitaSwapERC20.sol\":1994:2007  balanceOf[to] */\n      dup4\n      and\n      dup2\n      mstore\n      mstore(0x20, 0x01)\n      0x40\n      swap1\n      keccak256\n      sload\n        /* \"contracts/SaitaSwapERC20.sol\":1994:2018  balanceOf[to].add(value) */\n      tag_332\n      swap1\n        /* \"contracts/SaitaSwapERC20.sol\":2012:2017  value */\n      dup3\n        /* \"contracts/SaitaSwapERC20.sol\":1994:2011  balanceOf[to].add */\n      tag_303\n        /* \"contracts/SaitaSwapERC20.sol\":1994:2018  balanceOf[to].add(value) */\n      jump\t// in\n    tag_332:\n      sub(shl(0xa0, 0x01), 0x01)\n        /* \"contracts/SaitaSwapERC20.sol\":1978:1991  balanceOf[to] */\n      dup4\n      and\n      0x00\n      dup2\n      dup2\n      mstore\n      0x01\n      0x20\n      swap1\n      dup2\n      mstore\n      0x40\n      dup1\n      dup4\n      keccak256\n        /* \"contracts/SaitaSwapERC20.sol\":1978:2018  balanceOf[to] = balanceOf[to].add(value) */\n      swap5\n      swap1\n      swap5\n      sstore\n        /* \"contracts/SaitaSwapERC20.sol\":2033:2064  Transfer(address(0), to, value) */\n      dup4\n      mload\n      dup6\n      dup2\n      mstore\n      swap4\n      mload\n        /* \"contracts/SaitaSwapERC20.sol\":1978:1991  balanceOf[to] */\n      swap3\n      swap4\n      swap2\n      swap3\n        /* \"contracts/SaitaSwapERC20.sol\":2033:2064  Transfer(address(0), to, value) */\n      0xddf252ad1be2c89b69c2b068fc378daa952ba7f163c4a11628f55a4df523b3ef\n      swap3\n      dup2\n      swap1\n      sub\n      swap1\n      swap2\n      add\n      swap1\n      log3\n        /* \"contracts/SaitaSwapERC20.sol\":1874:2071  function _mint(address to, uint value) internal {... */\n      pop\n      pop\n      jump\t// out\n        /* \"contracts/libraries/Math.sol\":98:192  function min(uint x, uint y) internal pure returns (uint z) {... */\n    tag_202:\n        /* \"contracts/libraries/Math.sol\":150:156  uint z */\n      0x00\n        /* \"contracts/libraries/Math.sol\":176:177  y */\n      dup2\n        /* \"contracts/libraries/Math.sol\":172:173  x */\n      dup4\n        /* \"contracts/libraries/Math.sol\":172:177  x < y */\n      lt\n        /* \"contracts/libraries/Math.sol\":172:185  x < y ? x : y */\n      tag_334\n      jumpi\n        /* \"contracts/libraries/Math.sol\":184:185  y */\n      dup2\n        /* \"contracts/libraries/Math.sol\":172:185  x < y ? x : y */\n      jump(tag_335)\n    tag_334:\n        /* \"contracts/libraries/Math.sol\":180:181  x */\n      dup3\n        /* \"contracts/libraries/Math.sol\":172:185  x < y ? x : y */\n    tag_335:\n        /* \"contracts/libraries/Math.sol\":168:185  z = x < y ? x : y */\n      swap4\n        /* \"contracts/libraries/Math.sol\":98:192  function min(uint x, uint y) internal pure returns (uint z) {... */\n      swap3\n      pop\n      pop\n      pop\n      jump\t// out\n        /* \"contracts/SaitaSwapERC20.sol\":2077:2282  function _burn(address from, uint value) internal {... */\n    tag_226:\n      sub(shl(0xa0, 0x01), 0x01)\n        /* \"contracts/SaitaSwapERC20.sol\":2155:2170  balanceOf[from] */\n      dup3\n      and\n      0x00\n      swap1\n      dup2\n      mstore\n      mstore(0x20, 0x01)\n      0x40\n      swap1\n      keccak256\n      sload\n        /* \"contracts/SaitaSwapERC20.sol\":2155:2181  balanceOf[from].sub(value) */\n      tag_337\n      swap1\n        /* \"contracts/SaitaSwapERC20.sol\":2175:2180  value */\n      dup3\n        /* \"contracts/SaitaSwapERC20.sol\":2155:2174  balanceOf[from].sub */\n      tag_154\n        /* \"contracts/SaitaSwapERC20.sol\":2155:2181  balanceOf[from].sub(value) */\n      jump\t// in\n    tag_337:\n      sub(shl(0xa0, 0x01), 0x01)\n        /* \"contracts/SaitaSwapERC20.sol\":2137:2152  balanceOf[from] */\n      dup4\n      and\n      0x00\n      swap1\n      dup2\n      mstore\n      mstore(0x20, 0x01)\n      0x40\n      dup2\n      keccak256\n        /* \"contracts/SaitaSwapERC20.sol\":2137:2181  balanceOf[from] = balanceOf[from].sub(value) */\n      swap2\n      swap1\n      swap2\n      sstore\n        /* \"contracts/SaitaSwapERC20.sol\":2205:2216  totalSupply */\n      sload\n        /* \"contracts/SaitaSwapERC20.sol\":2205:2227  totalSupply.sub(value) */\n      tag_338\n      swap1\n        /* \"contracts/SaitaSwapERC20.sol\":2221:2226  value */\n      dup3\n        /* \"contracts/SaitaSwapERC20.sol\":2205:2220  totalSupply.sub */\n      tag_154\n        /* \"contracts/SaitaSwapERC20.sol\":2205:2227  totalSupply.sub(value) */\n      jump\t// in\n    tag_338:\n        /* \"contracts/SaitaSwapERC20.sol\":2191:2202  totalSupply */\n      0x00\n        /* \"contracts/SaitaSwapERC20.sol\":2191:2227  totalSupply = totalSupply.sub(value) */\n      swap1\n      dup2\n      sstore\n        /* \"contracts/SaitaSwapERC20.sol\":2242:2275  Transfer(from, address(0), value) */\n      0x40\n      dup1\n      mload\n      dup4\n      dup2\n      mstore\n      swap1\n      mload\n      sub(shl(0xa0, 0x01), 0x01)\n      dup6\n      and\n      swap2\n      0xddf252ad1be2c89b69c2b068fc378daa952ba7f163c4a11628f55a4df523b3ef\n      swap2\n      swap1\n      dup2\n      swap1\n      sub\n      0x20\n      add\n      swap1\n      log3\n        /* \"contracts/SaitaSwapERC20.sol\":2077:2282  function _burn(address from, uint value) internal {... */\n      pop\n      pop\n      jump\t// out\n        /* \"contracts/libraries/UQ112x112.sol\":283:401  function encode(uint112 y) internal pure returns (uint224 z) {... */\n    tag_295:\n      sub(shl(0x70, 0x01), 0x01)\n        /* \"contracts/libraries/UQ112x112.sol\":358:368  uint224(y) */\n      and\n      shl(0x70, 0x01)\n        /* \"contracts/libraries/UQ112x112.sol\":358:375  uint224(y) * Q112 */\n      mul\n      swap1\n        /* \"contracts/libraries/UQ112x112.sol\":283:401  function encode(uint112 y) internal pure returns (uint224 z) {... */\n      jump\t// out\n        /* \"contracts/libraries/UQ112x112.sol\":469:575  function uqdiv(uint224 x, uint112 y) internal pure returns (uint224 z) {... */\n    tag_296:\n        /* \"contracts/libraries/UQ112x112.sol\":529:538  uint224 z */\n      0x00\n      sub(shl(0x70, 0x01), 0x01)\n        /* \"contracts/libraries/UQ112x112.sol\":558:568  uint224(y) */\n      dup3\n      and\n      sub(shl(0xe0, 0x01), 0x01)\n        /* \"contracts/libraries/UQ112x112.sol\":554:568  x / uint224(y) */\n      dup5\n      and\n        /* \"contracts/libraries/UQ112x112.sol\":558:568  uint224(y) */\n      dup2\n        /* \"contracts/libraries/UQ112x112.sol\":554:568  x / uint224(y) */\n      tag_341\n      jumpi\n      invalid\n    tag_341:\n      div\n      swap4\n        /* \"contracts/libraries/UQ112x112.sol\":469:575  function uqdiv(uint224 x, uint112 y) internal pure returns (uint224 z) {... */\n      swap3\n      pop\n      pop\n      pop\n      jump\t// out\n        /* \"contracts/libraries/SafeMath.sol\":156:282  function add(uint x, uint y) internal pure returns (uint z) {... */\n    tag_303:\n        /* \"contracts/libraries/SafeMath.sol\":239:244  x + y */\n      dup1\n      dup3\n      add\n        /* \"contracts/libraries/SafeMath.sol\":234:250  (z = x + y) >= x */\n      dup3\n      dup2\n      lt\n      iszero\n        /* \"contracts/libraries/SafeMath.sol\":226:275  require((z = x + y) >= x, 'ds-math-add-overflow') */\n      tag_165\n      jumpi\n      0x40\n      dup1\n      mload\n      shl(0xe5, 0x461bcd)\n      dup2\n      mstore\n      0x20\n      0x04\n      dup3\n      add\n      mstore\n      0x14\n      0x24\n      dup3\n      add\n      mstore\n      shl(0x60, 0x64732d6d6174682d6164642d6f766572666c6f77)\n      0x44\n      dup3\n      add\n      mstore\n      swap1\n      mload\n      swap1\n      dup2\n      swap1\n      sub\n      0x64\n      add\n      swap1\n      revert\n    stop\n    data_0a51e7944d2122a77fd4e73c44622c7641a6ffe5c17d5a532aabed4e2ee72ec2 5361697461537761703a20494e53554646494349454e545f4c49515549444954595f4d494e544544\n    data_5017166a195bb30912ef8c95a2dee0e03788aa587911ab5bc5bbf5cd0090e903 5361697461537761703a20494e53554646494349454e545f4c4951554944495459\n    data_552b3fcd35fb870a20ea0632e5730c886a6bfa687fc63a2ee7517b413814fddf 5361697461537761703a20494e53554646494349454e545f494e5055545f414d4f554e54\n    data_5e82f3f52455bf4ac5f469da7ca9ef9ebf1a038e167ba303f62198c7bdd5951c 5361697461537761703a20494e53554646494349454e545f4c49515549444954595f4255524e4544\n    data_8b73c3c69bb8fe3d512ecc4cf759cc79239f7b179b0ffacaa9a75d522b39400f 454950373132446f6d61696e28737472696e67206e616d652c737472696e672076657273696f6e2c75696e7432353620636861696e49642c6164647265737320766572696679696e67436f6e747261637429\n    data_8fc7f9c8d80b681ea54bd06a118a94fe4d1bef35d2499ddb0eb71b6a664bd6ba 5361697461537761703a20494e53554646494349454e545f4f55545055545f414d4f554e54\n\n    auxdata: 0xa265627a7a723158200a5b36aae719391660472a69c3d78fb7f4407e5b69f286f0588e0394ccbf409564736f6c63430005100032\n}\n",
				"bytecode": {
					"linkReferences": {},
					"object": "608060405260026008556103e86009556001600e5534801561002057600080fd5b5060405146908060526124e98239604080519182900360520182208282018252600d83526c536169746153776170204c507360981b6020938401528151808301835260018152603160f81b908401528151808401919091527f1651e190aacb4c4c6e236d176db06acca329adaed8d7377e08d89572632a33ba818301527fc89efdaa54c0f20c7adf612882df0950f5a951637e0307cdcb4c672f298b8bc6606082015260808101949094523060a0808601919091528151808603909101815260c09094019052825192019190912060035550600580546001600160a01b031916331790556123d6806101136000396000f3fe608060405234801561001057600080fd5b50600436106101cf5760003560e01c806370a0823111610104578063ba9a7a56116100a2578063d21220a711610071578063d21220a71461056a578063d505accf14610572578063dd62ed3e146105c3578063fff6cae9146105f1576101cf565b8063ba9a7a561461052c578063bc25cf7714610534578063bee62fc71461055a578063c45a015514610562576101cf565b80637ecebe00116100de5780637ecebe001461049357806389afcb44146104b957806395d89b41146104f8578063a9059cbb14610500576101cf565b806370a082311461045d57806371ebeacc146104835780637464fc3d1461048b576101cf565b806330adf81f11610171578063485cc9551161014b578063485cc955146103f95780635909c0d5146104275780635a3d54931461042f5780636a62784214610437576101cf565b806330adf81f146103cb578063313ce567146103d35780633644e515146103f1576101cf565b8063095ea7b3116101ad578063095ea7b3146103175780630dfe16811461035757806318160ddd1461037b57806323b872dd14610395576101cf565b8063022c0d9f146101d457806306fdde03146102625780630902f1ac146102df575b600080fd5b610260600480360360808110156101ea57600080fd5b8135916020810135916001600160a01b03604083013516919081019060808101606082013564010000000081111561022157600080fd5b82018360208201111561023357600080fd5b8035906020019184600183028401116401000000008311171561025557600080fd5b5090925090506105f9565b005b61026a610b4a565b6040805160208082528351818301528351919283929083019185019080838360005b838110156102a457818101518382015260200161028c565b50505050905090810190601f1680156102d15780820380516001836020036101000a031916815260200191505b509250505060405180910390f35b6102e7610b73565b604080516001600160701b03948516815292909316602083015263ffffffff168183015290519081900360600190f35b6103436004803603604081101561032d57600080fd5b506001600160a01b038135169060200135610b9d565b604080519115158252519081900360200190f35b61035f610bb4565b604080516001600160a01b039092168252519081900360200190f35b610383610bc3565b60408051918252519081900360200190f35b610343600480360360608110156103ab57600080fd5b506001600160a01b03813581169160208101359091169060400135610bc9565b610383610c63565b6103db610c87565b6040805160ff9092168252519081900360200190f35b610383610c8c565b6102606004803603604081101561040f57600080fd5b506001600160a01b0381358116916020013516610c92565b610383610d16565b610383610d1c565b6103836004803603602081101561044d57600080fd5b50356001600160a01b0316610d22565b6103836004803603602081101561047357600080fd5b50356001600160a01b0316611022565b610383611034565b61038361103a565b610383600480360360208110156104a957600080fd5b50356001600160a01b0316611040565b6104df600480360360208110156104cf57600080fd5b50356001600160a01b0316611052565b6040805192835260208301919091528051918290030190f35b61026a6113f8565b6103436004803603604081101561051657600080fd5b506001600160a01b038135169060200135611417565b610383611424565b6102606004803603602081101561054a57600080fd5b50356001600160a01b031661142a565b610383611595565b61035f61159b565b61035f6115aa565b610260600480360360e081101561058857600080fd5b506001600160a01b03813581169160208101359091169060408101359060608101359060ff6080820135169060a08101359060c001356115b9565b610383600480360360408110156105d957600080fd5b506001600160a01b038135811691602001351661188a565b6102606118a7565b600e54600114610644576040805162461bcd60e51b815260206004820152601160248201527014d85a5d1854ddd85c0e881313d0d2d151607a1b604482015290519081900360640190fd5b6000600e55841515806106575750600084115b6106925760405162461bcd60e51b815260040180806020018281038252602581526020018061237d6025913960400191505060405180910390fd5b60008061069d610b73565b5091509150816001600160701b0316871080156106c25750806001600160701b031686105b6106fd5760405162461bcd60e51b81526004018080602001828103825260218152602001806122be6021913960400191505060405180910390fd5b60065460075460009182916001600160a01b0391821691908116908916821480159061073b5750806001600160a01b0316896001600160a01b031614155b610784576040805162461bcd60e51b81526020600482015260156024820152745361697461537761703a20494e56414c49445f544f60581b604482015290519081900360640190fd5b8a1561079557610795828a8d611a09565b89156107a6576107a6818a8c611a09565b861561086157886001600160a01b031663fe1b3a66338d8d8c8c6040518663ffffffff1660e01b815260040180866001600160a01b03166001600160a01b03168152602001858152602001848152602001806020018281038252848482818152602001925080828437600081840152601f19601f8201169050808301925050509650505050505050600060405180830381600087803b15801561084857600080fd5b505af115801561085c573d6000803e3d6000fd5b505050505b604080516370a0823160e01b815230600482015290516001600160a01b038416916370a08231916024808301926020929190829003018186803b1580156108a757600080fd5b505afa1580156108bb573d6000803e3d6000fd5b505050506040513d60208110156108d157600080fd5b5051604080516370a0823160e01b815230600482015290519195506001600160a01b038316916370a0823191602480820192602092909190829003018186803b15801561091d57600080fd5b505afa158015610931573d6000803e3d6000fd5b505050506040513d602081101561094757600080fd5b5051925060009150506001600160701b0385168a9003831161096a576000610979565b89856001600160701b03160383035b9050600089856001600160701b03160383116109965760006109a5565b89856001600160701b03160383035b905060008211806109b65750600081115b6109f15760405162461bcd60e51b81526004018080602001828103825260248152602001806122df6024913960400191505060405180910390fd5b6000610a2b610a0b60085485611ba390919063ffffffff16565b600954610a1f90889063ffffffff611ba316565b9063ffffffff611c0616565b90506000610a47610a0b60085485611ba390919063ffffffff16565b9050610a846008546009540a610a78896001600160701b03168b6001600160701b0316611ba390919063ffffffff16565b9063ffffffff611ba316565b610a94838363ffffffff611ba316565b1015610ad6576040805162461bcd60e51b815260206004820152600c60248201526b5361697461537761703a204b60a01b604482015290519081900360640190fd5b5050610ae484848888611c56565b60408051838152602081018390528082018d9052606081018c905290516001600160a01b038b169133917fd78ad95fa46c994b6551d0da85fc275fe613ce37657fb8d5e3d130840159d8229181900360800190a350506001600e55505050505050505050565b6040518060400160405280600d81526020016c536169746153776170204c507360981b81525081565b600a546001600160701b0380821692600160701b830490911691600160e01b900463ffffffff1690565b6000610baa338484611e1b565b5060015b92915050565b6006546001600160a01b031681565b60005481565b6001600160a01b038316600090815260026020908152604080832033845290915281205460001914610c4e576001600160a01b0384166000908152600260209081526040808320338452909152902054610c29908363ffffffff611c0616565b6001600160a01b03851660009081526002602090815260408083203384529091529020555b610c59848484611e7d565b5060019392505050565b7f6e71edae12b1b97f4d1f60370fef10105fa2faae0126114a169c64845d6126c981565b601281565b60035481565b6005546001600160a01b03163314610ce8576040805162461bcd60e51b815260206004820152601460248201527329b0b4ba30a9bbb0b81d102327a92124a22222a760611b604482015290519081900360640190fd5b600680546001600160a01b039384166001600160a01b03199182161790915560078054929093169116179055565b600b5481565b600c5481565b6000600e54600114610d6f576040805162461bcd60e51b815260206004820152601160248201527014d85a5d1854ddd85c0e881313d0d2d151607a1b604482015290519081900360640190fd5b6000600e81905580610d7f610b73565b50600654604080516370a0823160e01b815230600482015290519395509193506000926001600160a01b03909116916370a08231916024808301926020929190829003018186803b158015610dd357600080fd5b505afa158015610de7573d6000803e3d6000fd5b505050506040513d6020811015610dfd57600080fd5b5051600754604080516370a0823160e01b815230600482015290519293506000926001600160a01b03909216916370a0823191602480820192602092909190829003018186803b158015610e5057600080fd5b505afa158015610e64573d6000803e3d6000fd5b505050506040513d6020811015610e7a57600080fd5b505190506000610e99836001600160701b03871663ffffffff611c0616565b90506000610eb6836001600160701b03871663ffffffff611c0616565b90506000610ec48787611f37565b60005490915080610f0157610eed6103e8610a1f610ee8878763ffffffff611ba316565b612071565b9850610efc60006103e86120c3565b610f50565b610f4d6001600160701b038916610f1e868463ffffffff611ba316565b81610f2557fe5b046001600160701b038916610f40868563ffffffff611ba316565b81610f4757fe5b04612159565b98505b60008911610f8f5760405162461bcd60e51b81526004018080602001828103825260288152602001806122966028913960400191505060405180910390fd5b610f998a8a6120c3565b610fa586868a8a611c56565b8115610fd557600a54610fd1906001600160701b0380821691600160701b90041663ffffffff611ba316565b600d555b6040805185815260208101859052815133927f4c209b5fc8ad50758f13e2e1088ba56a560dff690a1c6fef26394f4c03821c4f928290030190a250506001600e5550949695505050505050565b60016020526000908152604090205481565b60095481565b600d5481565b60046020526000908152604090205481565b600080600e546001146110a0576040805162461bcd60e51b815260206004820152601160248201527014d85a5d1854ddd85c0e881313d0d2d151607a1b604482015290519081900360640190fd5b6000600e819055806110b0610b73565b50600654600754604080516370a0823160e01b815230600482015290519496509294506001600160a01b039182169391169160009184916370a08231916024808301926020929190829003018186803b15801561110c57600080fd5b505afa158015611120573d6000803e3d6000fd5b505050506040513d602081101561113657600080fd5b5051604080516370a0823160e01b815230600482015290519192506000916001600160a01b038516916370a08231916024808301926020929190829003018186803b15801561118457600080fd5b505afa158015611198573d6000803e3d6000fd5b505050506040513d60208110156111ae57600080fd5b5051306000908152600160205260408120549192506111cd8888611f37565b600054909150806111e4848763ffffffff611ba316565b816111eb57fe5b049a50806111ff848663ffffffff611ba316565b8161120657fe5b04995060008b118015611219575060008a115b6112545760405162461bcd60e51b81526004018080602001828103825260288152602001806123036028913960400191505060405180910390fd5b61125e3084612171565b611269878d8d611a09565b611274868d8c611a09565b604080516370a0823160e01b815230600482015290516001600160a01b038916916370a08231916024808301926020929190829003018186803b1580156112ba57600080fd5b505afa1580156112ce573d6000803e3d6000fd5b505050506040513d60208110156112e457600080fd5b5051604080516370a0823160e01b815230600482015290519196506001600160a01b038816916370a0823191602480820192602092909190829003018186803b15801561133057600080fd5b505afa158015611344573d6000803e3d6000fd5b505050506040513d602081101561135a57600080fd5b5051935061136a85858b8b611c56565b811561139a57600a54611396906001600160701b0380821691600160701b90041663ffffffff611ba316565b600d555b604080518c8152602081018c905281516001600160a01b038f169233927fdccd412f0b1252819cb1fd330b93224ca42612892bb3f4f789976e6d81936496929081900390910190a35050505050505050506001600e81905550915091565b604051806040016040528060038152602001620736c760ec1b81525081565b6000610baa338484611e7d565b6103e881565b600e54600114611475576040805162461bcd60e51b815260206004820152601160248201527014d85a5d1854ddd85c0e881313d0d2d151607a1b604482015290519081900360640190fd5b6000600e55600654600754600a54604080516370a0823160e01b815230600482015290516001600160a01b039485169490931692611524928592879261151f926001600160701b03169185916370a0823191602480820192602092909190829003018186803b1580156114e757600080fd5b505afa1580156114fb573d6000803e3d6000fd5b505050506040513d602081101561151157600080fd5b50519063ffffffff611c0616565b611a09565b600a54604080516370a0823160e01b8152306004820152905161158b928492879261151f92600160701b90046001600160701b0316916001600160a01b038616916370a0823191602480820192602092909190829003018186803b1580156114e757600080fd5b50506001600e5550565b60085481565b6005546001600160a01b031681565b6007546001600160a01b031681565b604051469080605261232b8239604080519182900360520182208282018252600d83526c536169746153776170204c507360981b6020938401528151808301835260018152603160f81b908401528151808401919091527f1651e190aacb4c4c6e236d176db06acca329adaed8d7377e08d89572632a33ba818301527fc89efdaa54c0f20c7adf612882df0950f5a951637e0307cdcb4c672f298b8bc66060820152608081018590523060a0808301919091528251808303909101815260c0909101909152805191012060035550428510156116d1576040805162461bcd60e51b815260206004820152601260248201527114d85a5d1854ddd85c0e881156141254915160721b604482015290519081900360640190fd5b6003546001600160a01b03808a1660008181526004602090815260408083208054600180820190925582517f6e71edae12b1b97f4d1f60370fef10105fa2faae0126114a169c64845d6126c98186015280840196909652958e166060860152608085018d905260a085019590955260c08085018c90528151808603909101815260e08501825280519083012061190160f01b6101008601526101028501969096526101228085019690965280518085039096018652610142840180825286519683019690962095839052610162840180825286905260ff8a166101828501526101a284018990526101c28401889052519193926101e280820193601f1981019281900390910190855afa1580156117ec573d6000803e3d6000fd5b5050604051601f1901519150506001600160a01b038116158015906118225750896001600160a01b0316816001600160a01b0316145b611873576040805162461bcd60e51b815260206004820152601c60248201527f5361697461537761703a20494e56414c49445f5349474e415455524500000000604482015290519081900360640190fd5b61187e8a8a8a611e1b565b50505050505050505050565b600260209081526000928352604080842090915290825290205481565b600e546001146118f2576040805162461bcd60e51b815260206004820152601160248201527014d85a5d1854ddd85c0e881313d0d2d151607a1b604482015290519081900360640190fd5b6000600e55600654604080516370a0823160e01b81523060048201529051611a02926001600160a01b0316916370a08231916024808301926020929190829003018186803b15801561194357600080fd5b505afa158015611957573d6000803e3d6000fd5b505050506040513d602081101561196d57600080fd5b5051600754604080516370a0823160e01b815230600482015290516001600160a01b03909216916370a0823191602480820192602092909190829003018186803b1580156119ba57600080fd5b505afa1580156119ce573d6000803e3d6000fd5b505050506040513d60208110156119e457600080fd5b5051600a546001600160701b0380821691600160701b900416611c56565b6001600e55565b604080518082018252601981527f7472616e7366657228616464726573732c75696e74323536290000000000000060209182015281516001600160a01b0385811660248301526044808301869052845180840390910181526064909201845291810180516001600160e01b031663a9059cbb60e01b1781529251815160009460609489169392918291908083835b60208310611ab65780518252601f199092019160209182019101611a97565b6001836020036101000a0380198251168184511680821785525050505050509050019150506000604051808303816000865af19150503d8060008114611b18576040519150601f19603f3d011682016040523d82523d6000602084013e611b1d565b606091505b5091509150818015611b4b575080511580611b4b5750808060200190516020811015611b4857600080fd5b50515b611b9c576040805162461bcd60e51b815260206004820152601a60248201527f5361697461537761703a205452414e534645525f4641494c4544000000000000604482015290519081900360640190fd5b5050505050565b6000811580611bbe57505080820282828281611bbb57fe5b04145b610bae576040805162461bcd60e51b815260206004820152601460248201527364732d6d6174682d6d756c2d6f766572666c6f7760601b604482015290519081900360640190fd5b80820382811115610bae576040805162461bcd60e51b815260206004820152601560248201527464732d6d6174682d7375622d756e646572666c6f7760581b604482015290519081900360640190fd5b6001600160701b038411801590611c7457506001600160701b038311155b611cbb576040805162461bcd60e51b81526020600482015260136024820152725361697461537761703a204f564552464c4f5760681b604482015290519081900360640190fd5b600a5463ffffffff42811691600160e01b90048116820390811615801590611ceb57506001600160701b03841615155b8015611cff57506001600160701b03831615155b15611d70578063ffffffff16611d2d85611d188661220f565b6001600160e01b03169063ffffffff61222116565b600b80546001600160e01b03929092169290920201905563ffffffff8116611d5884611d188761220f565b600c80546001600160e01b0392909216929092020190555b600a80546dffffffffffffffffffffffffffff19166001600160701b03888116919091176dffffffffffffffffffffffffffff60701b1916600160701b8883168102919091176001600160e01b0316600160e01b63ffffffff871602179283905560408051848416815291909304909116602082015281517f1c411e9a96e071241c2f21f7726b17ae89e3cab4c78be50e062b03a9fffbbad1929181900390910190a1505050505050565b6001600160a01b03808416600081815260026020908152604080832094871680845294825291829020859055815185815291517f8c5be1e5ebec7d5bd14f71427d1e84f3dd0314c0f7b2291e5b200ac8c7c3b9259281900390910190a3505050565b6001600160a01b038316600090815260016020526040902054611ea6908263ffffffff611c0616565b6001600160a01b038085166000908152600160205260408082209390935590841681522054611edb908263ffffffff61224616565b6001600160a01b0380841660008181526001602090815260409182902094909455805185815290519193928716927fddf252ad1be2c89b69c2b068fc378daa952ba7f163c4a11628f55a4df523b3ef92918290030190a3505050565b600080600560009054906101000a90046001600160a01b03166001600160a01b031663017e7e586040518163ffffffff1660e01b815260040160206040518083038186803b158015611f8857600080fd5b505afa158015611f9c573d6000803e3d6000fd5b505050506040513d6020811015611fb257600080fd5b5051600d546001600160a01b03821615801594509192509061205d578015612058576000611ff5610ee86001600160701b0388811690881663ffffffff611ba316565b9050600061200283612071565b905080821115612055576000612030612021848463ffffffff611c0616565b6000549063ffffffff611ba316565b905081600081838161203e57fe5b04905080156120515761205187826120c3565b5050505b50505b612069565b8015612069576000600d555b505092915050565b600060038211156120b4575080600160028204015b818110156120ae5780915060028182858161209d57fe5b0401816120a657fe5b049050612086565b506120be565b81156120be575060015b919050565b6000546120d6908263ffffffff61224616565b60009081556001600160a01b038316815260016020526040902054612101908263ffffffff61224616565b6001600160a01b03831660008181526001602090815260408083209490945583518581529351929391927fddf252ad1be2c89b69c2b068fc378daa952ba7f163c4a11628f55a4df523b3ef9281900390910190a35050565b6000818310612168578161216a565b825b9392505050565b6001600160a01b03821660009081526001602052604090205461219a908263ffffffff611c0616565b6001600160a01b038316600090815260016020526040812091909155546121c7908263ffffffff611c0616565b60009081556040805183815290516001600160a01b038516917fddf252ad1be2c89b69c2b068fc378daa952ba7f163c4a11628f55a4df523b3ef919081900360200190a35050565b6001600160701b0316600160701b0290565b60006001600160701b0382166001600160e01b0384168161223e57fe5b049392505050565b80820182811015610bae576040805162461bcd60e51b815260206004820152601460248201527364732d6d6174682d6164642d6f766572666c6f7760601b604482015290519081900360640190fdfe5361697461537761703a20494e53554646494349454e545f4c49515549444954595f4d494e5445445361697461537761703a20494e53554646494349454e545f4c49515549444954595361697461537761703a20494e53554646494349454e545f494e5055545f414d4f554e545361697461537761703a20494e53554646494349454e545f4c49515549444954595f4255524e4544454950373132446f6d61696e28737472696e67206e616d652c737472696e672076657273696f6e2c75696e7432353620636861696e49642c6164647265737320766572696679696e67436f6e7472616374295361697461537761703a20494e53554646494349454e545f4f55545055545f414d4f554e54a265627a7a723158200a5b36aae719391660472a69c3d78fb7f4407e5b69f286f0588e0394ccbf409564736f6c63430005100032454950373132446f6d61696e28737472696e67206e616d652c737472696e672076657273696f6e2c75696e7432353620636861696e49642c6164647265737320766572696679696e67436f6e747261637429",
					"opcodes": "PUSH1 0x80 PUSH1 0x40 MSTORE PUSH1 0x2 PUSH1 0x8 SSTORE PUSH2 0x3E8 PUSH1 0x9 SSTORE PUSH1 0x1 PUSH1 0xE SSTORE CALLVALUE DUP1 ISZERO PUSH2 0x20 JUMPI PUSH1 0x0 DUP1 REVERT JUMPDEST POP PUSH1 0x40 MLOAD CHAINID SWAP1 DUP1 PUSH1 0x52 PUSH2 0x24E9 DUP3 CODECOPY PUSH1 0x40 DUP1 MLOAD SWAP2 DUP3 SWAP1 SUB PUSH1 0x52 ADD DUP3 KECCAK256 DUP3 DUP3 ADD DUP3 MSTORE PUSH1 0xD DUP4 MSTORE PUSH13 0x536169746153776170204C5073 PUSH1 0x98 SHL PUSH1 0x20 SWAP4 DUP5 ADD MSTORE DUP2 MLOAD DUP1 DUP4 ADD DUP4 MSTORE PUSH1 0x1 DUP2 MSTORE PUSH1 0x31 PUSH1 0xF8 SHL SWAP1 DUP5 ADD MSTORE DUP2 MLOAD DUP1 DUP5 ADD SWAP2 SWAP1 SWAP2 MSTORE PUSH32 0x1651E190AACB4C4C6E236D176DB06ACCA329ADAED8D7377E08D89572632A33BA DUP2 DUP4 ADD MSTORE PUSH32 0xC89EFDAA54C0F20C7ADF612882DF0950F5A951637E0307CDCB4C672F298B8BC6 PUSH1 0x60 DUP3 ADD MSTORE PUSH1 0x80 DUP2 ADD SWAP5 SWAP1 SWAP5 MSTORE ADDRESS PUSH1 0xA0 DUP1 DUP7 ADD SWAP2 SWAP1 SWAP2 MSTORE DUP2 MLOAD DUP1 DUP7 SUB SWAP1 SWAP2 ADD DUP2 MSTORE PUSH1 0xC0 SWAP1 SWAP5 ADD SWAP1 MSTORE DUP3 MLOAD SWAP3 ADD SWAP2 SWAP1 SWAP2 KECCAK256 PUSH1 0x3 SSTORE POP PUSH1 0x5 DUP1 SLOAD PUSH1 0x1 PUSH1 0x1 PUSH1 0xA0 SHL SUB NOT AND CALLER OR SWAP1 SSTORE PUSH2 0x23D6 DUP1 PUSH2 0x113 PUSH1 0x0 CODECOPY PUSH1 0x0 RETURN INVALID PUSH1 0x80 PUSH1 0x40 MSTORE CALLVALUE DUP1 ISZERO PUSH2 0x10 JUMPI PUSH1 0x0 DUP1 REVERT JUMPDEST POP PUSH1 0x4 CALLDATASIZE LT PUSH2 0x1CF JUMPI PUSH1 0x0 CALLDATALOAD PUSH1 0xE0 SHR DUP1 PUSH4 0x70A08231 GT PUSH2 0x104 JUMPI DUP1 PUSH4 0xBA9A7A56 GT PUSH2 0xA2 JUMPI DUP1 PUSH4 0xD21220A7 GT PUSH2 0x71 JUMPI DUP1 PUSH4 0xD21220A7 EQ PUSH2 0x56A JUMPI DUP1 PUSH4 0xD505ACCF EQ PUSH2 0x572 JUMPI DUP1 PUSH4 0xDD62ED3E EQ PUSH2 0x5C3 JUMPI DUP1 PUSH4 0xFFF6CAE9 EQ PUSH2 0x5F1 JUMPI PUSH2 0x1CF JUMP JUMPDEST DUP1 PUSH4 0xBA9A7A56 EQ PUSH2 0x52C JUMPI DUP1 PUSH4 0xBC25CF77 EQ PUSH2 0x534 JUMPI DUP1 PUSH4 0xBEE62FC7 EQ PUSH2 0x55A JUMPI DUP1 PUSH4 0xC45A0155 EQ PUSH2 0x562 JUMPI PUSH2 0x1CF JUMP JUMPDEST DUP1 PUSH4 0x7ECEBE00 GT PUSH2 0xDE JUMPI DUP1 PUSH4 0x7ECEBE00 EQ PUSH2 0x493 JUMPI DUP1 PUSH4 0x89AFCB44 EQ PUSH2 0x4B9 JUMPI DUP1 PUSH4 0x95D89B41 EQ PUSH2 0x4F8 JUMPI DUP1 PUSH4 0xA9059CBB EQ PUSH2 0x500 JUMPI PUSH2 0x1CF JUMP JUMPDEST DUP1 PUSH4 0x70A08231 EQ PUSH2 0x45D JUMPI DUP1 PUSH4 0x71EBEACC EQ PUSH2 0x483 JUMPI DUP1 PUSH4 0x7464FC3D EQ PUSH2 0x48B JUMPI PUSH2 0x1CF JUMP JUMPDEST DUP1 PUSH4 0x30ADF81F GT PUSH2 0x171 JUMPI DUP1 PUSH4 0x485CC955 GT PUSH2 0x14B JUMPI DUP1 PUSH4 0x485CC955 EQ PUSH2 0x3F9 JUMPI DUP1 PUSH4 0x5909C0D5 EQ PUSH2 0x427 JUMPI DUP1 PUSH4 0x5A3D5493 EQ PUSH2 0x42F JUMPI DUP1 PUSH4 0x6A627842 EQ PUSH2 0x437 JUMPI PUSH2 0x1CF JUMP JUMPDEST DUP1 PUSH4 0x30ADF81F EQ PUSH2 0x3CB JUMPI DUP1 PUSH4 0x313CE567 EQ PUSH2 0x3D3 JUMPI DUP1 PUSH4 0x3644E515 EQ PUSH2 0x3F1 JUMPI PUSH2 0x1CF JUMP JUMPDEST DUP1 PUSH4 0x95EA7B3 GT PUSH2 0x1AD JUMPI DUP1 PUSH4 0x95EA7B3 EQ PUSH2 0x317 JUMPI DUP1 PUSH4 0xDFE1681 EQ PUSH2 0x357 JUMPI DUP1 PUSH4 0x18160DDD EQ PUSH2 0x37B JUMPI DUP1 PUSH4 0x23B872DD EQ PUSH2 0x395 JUMPI PUSH2 0x1CF JUMP JUMPDEST DUP1 PUSH4 0x22C0D9F EQ PUSH2 0x1D4 JUMPI DUP1 PUSH4 0x6FDDE03 EQ PUSH2 0x262 JUMPI DUP1 PUSH4 0x902F1AC EQ PUSH2 0x2DF JUMPI JUMPDEST PUSH1 0x0 DUP1 REVERT JUMPDEST PUSH2 0x260 PUSH1 0x4 DUP1 CALLDATASIZE SUB PUSH1 0x80 DUP2 LT ISZERO PUSH2 0x1EA JUMPI PUSH1 0x0 DUP1 REVERT JUMPDEST DUP2 CALLDATALOAD SWAP2 PUSH1 0x20 DUP2 ADD CALLDATALOAD SWAP2 PUSH1 0x1 PUSH1 0x1 PUSH1 0xA0 SHL SUB PUSH1 0x40 DUP4 ADD CALLDATALOAD AND SWAP2 SWAP1 DUP2 ADD SWAP1 PUSH1 0x80 DUP2 ADD PUSH1 0x60 DUP3 ADD CALLDATALOAD PUSH5 0x100000000 DUP2 GT ISZERO PUSH2 0x221 JUMPI PUSH1 0x0 DUP1 REVERT JUMPDEST DUP3 ADD DUP4 PUSH1 0x20 DUP3 ADD GT ISZERO PUSH2 0x233 JUMPI PUSH1 0x0 DUP1 REVERT JUMPDEST DUP1 CALLDATALOAD SWAP1 PUSH1 0x20 ADD SWAP2 DUP5 PUSH1 0x1 DUP4 MUL DUP5 ADD GT PUSH5 0x100000000 DUP4 GT OR ISZERO PUSH2 0x255 JUMPI PUSH1 0x0 DUP1 REVERT JUMPDEST POP SWAP1 SWAP3 POP SWAP1 POP PUSH2 0x5F9 JUMP JUMPDEST STOP JUMPDEST PUSH2 0x26A PUSH2 0xB4A JUMP JUMPDEST PUSH1 0x40 DUP1 MLOAD PUSH1 0x20 DUP1 DUP3 MSTORE DUP4 MLOAD DUP2 DUP4 ADD MSTORE DUP4 MLOAD SWAP2 SWAP3 DUP4 SWAP3 SWAP1 DUP4 ADD SWAP2 DUP6 ADD SWAP1 DUP1 DUP4 DUP4 PUSH1 0x0 JUMPDEST DUP4 DUP2 LT ISZERO PUSH2 0x2A4 JUMPI DUP2 DUP2 ADD MLOAD DUP4 DUP3 ADD MSTORE PUSH1 0x20 ADD PUSH2 0x28C JUMP JUMPDEST POP POP POP POP SWAP1 POP SWAP1 DUP2 ADD SWAP1 PUSH1 0x1F AND DUP1 ISZERO PUSH2 0x2D1 JUMPI DUP1 DUP3 SUB DUP1 MLOAD PUSH1 0x1 DUP4 PUSH1 0x20 SUB PUSH2 0x100 EXP SUB NOT AND DUP2 MSTORE PUSH1 0x20 ADD SWAP2 POP JUMPDEST POP SWAP3 POP POP POP PUSH1 0x40 MLOAD DUP1 SWAP2 SUB SWAP1 RETURN JUMPDEST PUSH2 0x2E7 PUSH2 0xB73 JUMP JUMPDEST PUSH1 0x40 DUP1 MLOAD PUSH1 0x1 PUSH1 0x1 PUSH1 0x70 SHL SUB SWAP5 DUP6 AND DUP2 MSTORE SWAP3 SWAP1 SWAP4 AND PUSH1 0x20 DUP4 ADD MSTORE PUSH4 0xFFFFFFFF AND DUP2 DUP4 ADD MSTORE SWAP1 MLOAD SWAP1 DUP2 SWAP1 SUB PUSH1 0x60 ADD SWAP1 RETURN JUMPDEST PUSH2 0x343 PUSH1 0x4 DUP1 CALLDATASIZE SUB PUSH1 0x40 DUP2 LT ISZERO PUSH2 0x32D JUMPI PUSH1 0x0 DUP1 REVERT JUMPDEST POP PUSH1 0x1 PUSH1 0x1 PUSH1 0xA0 SHL SUB DUP2 CALLDATALOAD AND SWAP1 PUSH1 0x20 ADD CALLDATALOAD PUSH2 0xB9D JUMP JUMPDEST PUSH1 0x40 DUP1 MLOAD SWAP2 ISZERO ISZERO DUP3 MSTORE MLOAD SWAP1 DUP2 SWAP1 SUB PUSH1 0x20 ADD SWAP1 RETURN JUMPDEST PUSH2 0x35F PUSH2 0xBB4 JUMP JUMPDEST PUSH1 0x40 DUP1 MLOAD PUSH1 0x1 PUSH1 0x1 PUSH1 0xA0 SHL SUB SWAP1 SWAP3 AND DUP3 MSTORE MLOAD SWAP1 DUP2 SWAP1 SUB PUSH1 0x20 ADD SWAP1 RETURN JUMPDEST PUSH2 0x383 PUSH2 0xBC3 JUMP JUMPDEST PUSH1 0x40 DUP1 MLOAD SWAP2 DUP3 MSTORE MLOAD SWAP1 DUP2 SWAP1 SUB PUSH1 0x20 ADD SWAP1 RETURN JUMPDEST PUSH2 0x343 PUSH1 0x4 DUP1 CALLDATASIZE SUB PUSH1 0x60 DUP2 LT ISZERO PUSH2 0x3AB JUMPI PUSH1 0x0 DUP1 REVERT JUMPDEST POP PUSH1 0x1 PUSH1 0x1 PUSH1 0xA0 SHL SUB DUP2 CALLDATALOAD DUP2 AND SWAP2 PUSH1 0x20 DUP2 ADD CALLDATALOAD SWAP1 SWAP2 AND SWAP1 PUSH1 0x40 ADD CALLDATALOAD PUSH2 0xBC9 JUMP JUMPDEST PUSH2 0x383 PUSH2 0xC63 JUMP JUMPDEST PUSH2 0x3DB PUSH2 0xC87 JUMP JUMPDEST PUSH1 0x40 DUP1 MLOAD PUSH1 0xFF SWAP1 SWAP3 AND DUP3 MSTORE MLOAD SWAP1 DUP2 SWAP1 SUB PUSH1 0x20 ADD SWAP1 RETURN JUMPDEST PUSH2 0x383 PUSH2 0xC8C JUMP JUMPDEST PUSH2 0x260 PUSH1 0x4 DUP1 CALLDATASIZE SUB PUSH1 0x40 DUP2 LT ISZERO PUSH2 0x40F JUMPI PUSH1 0x0 DUP1 REVERT JUMPDEST POP PUSH1 0x1 PUSH1 0x1 PUSH1 0xA0 SHL SUB DUP2 CALLDATALOAD DUP2 AND SWAP2 PUSH1 0x20 ADD CALLDATALOAD AND PUSH2 0xC92 JUMP JUMPDEST PUSH2 0x383 PUSH2 0xD16 JUMP JUMPDEST PUSH2 0x383 PUSH2 0xD1C JUMP JUMPDEST PUSH2 0x383 PUSH1 0x4 DUP1 CALLDATASIZE SUB PUSH1 0x20 DUP2 LT ISZERO PUSH2 0x44D JUMPI PUSH1 0x0 DUP1 REVERT JUMPDEST POP CALLDATALOAD PUSH1 0x1 PUSH1 0x1 PUSH1 0xA0 SHL SUB AND PUSH2 0xD22 JUMP JUMPDEST PUSH2 0x383 PUSH1 0x4 DUP1 CALLDATASIZE SUB PUSH1 0x20 DUP2 LT ISZERO PUSH2 0x473 JUMPI PUSH1 0x0 DUP1 REVERT JUMPDEST POP CALLDATALOAD PUSH1 0x1 PUSH1 0x1 PUSH1 0xA0 SHL SUB AND PUSH2 0x1022 JUMP JUMPDEST PUSH2 0x383 PUSH2 0x1034 JUMP JUMPDEST PUSH2 0x383 PUSH2 0x103A JUMP JUMPDEST PUSH2 0x383 PUSH1 0x4 DUP1 CALLDATASIZE SUB PUSH1 0x20 DUP2 LT ISZERO PUSH2 0x4A9 JUMPI PUSH1 0x0 DUP1 REVERT JUMPDEST POP CALLDATALOAD PUSH1 0x1 PUSH1 0x1 PUSH1 0xA0 SHL SUB AND PUSH2 0x1040 JUMP JUMPDEST PUSH2 0x4DF PUSH1 0x4 DUP1 CALLDATASIZE SUB PUSH1 0x20 DUP2 LT ISZERO PUSH2 0x4CF JUMPI PUSH1 0x0 DUP1 REVERT JUMPDEST POP CALLDATALOAD PUSH1 0x1 PUSH1 0x1 PUSH1 0xA0 SHL SUB AND PUSH2 0x1052 JUMP JUMPDEST PUSH1 0x40 DUP1 MLOAD SWAP3 DUP4 MSTORE PUSH1 0x20 DUP4 ADD SWAP2 SWAP1 SWAP2 MSTORE DUP1 MLOAD SWAP2 DUP3 SWAP1 SUB ADD SWAP1 RETURN JUMPDEST PUSH2 0x26A PUSH2 0x13F8 JUMP JUMPDEST PUSH2 0x343 PUSH1 0x4 DUP1 CALLDATASIZE SUB PUSH1 0x40 DUP2 LT ISZERO PUSH2 0x516 JUMPI PUSH1 0x0 DUP1 REVERT JUMPDEST POP PUSH1 0x1 PUSH1 0x1 PUSH1 0xA0 SHL SUB DUP2 CALLDATALOAD AND SWAP1 PUSH1 0x20 ADD CALLDATALOAD PUSH2 0x1417 JUMP JUMPDEST PUSH2 0x383 PUSH2 0x1424 JUMP JUMPDEST PUSH2 0x260 PUSH1 0x4 DUP1 CALLDATASIZE SUB PUSH1 0x20 DUP2 LT ISZERO PUSH2 0x54A JUMPI PUSH1 0x0 DUP1 REVERT JUMPDEST POP CALLDATALOAD PUSH1 0x1 PUSH1 0x1 PUSH1 0xA0 SHL SUB AND PUSH2 0x142A JUMP JUMPDEST PUSH2 0x383 PUSH2 0x1595 JUMP JUMPDEST PUSH2 0x35F PUSH2 0x159B JUMP JUMPDEST PUSH2 0x35F PUSH2 0x15AA JUMP JUMPDEST PUSH2 0x260 PUSH1 0x4 DUP1 CALLDATASIZE SUB PUSH1 0xE0 DUP2 LT ISZERO PUSH2 0x588 JUMPI PUSH1 0x0 DUP1 REVERT JUMPDEST POP PUSH1 0x1 PUSH1 0x1 PUSH1 0xA0 SHL SUB DUP2 CALLDATALOAD DUP2 AND SWAP2 PUSH1 0x20 DUP2 ADD CALLDATALOAD SWAP1 SWAP2 AND SWAP1 PUSH1 0x40 DUP2 ADD CALLDATALOAD SWAP1 PUSH1 0x60 DUP2 ADD CALLDATALOAD SWAP1 PUSH1 0xFF PUSH1 0x80 DUP3 ADD CALLDATALOAD AND SWAP1 PUSH1 0xA0 DUP2 ADD CALLDATALOAD SWAP1 PUSH1 0xC0 ADD CALLDATALOAD PUSH2 0x15B9 JUMP JUMPDEST PUSH2 0x383 PUSH1 0x4 DUP1 CALLDATASIZE SUB PUSH1 0x40 DUP2 LT ISZERO PUSH2 0x5D9 JUMPI PUSH1 0x0 DUP1 REVERT JUMPDEST POP PUSH1 0x1 PUSH1 0x1 PUSH1 0xA0 SHL SUB DUP2 CALLDATALOAD DUP2 AND SWAP2 PUSH1 0x20 ADD CALLDATALOAD AND PUSH2 0x188A JUMP JUMPDEST PUSH2 0x260 PUSH2 0x18A7 JUMP JUMPDEST PUSH1 0xE SLOAD PUSH1 0x1 EQ PUSH2 0x644 JUMPI PUSH1 0x40 DUP1 MLOAD PUSH3 0x461BCD PUSH1 0xE5 SHL DUP2 MSTORE PUSH1 0x20 PUSH1 0x4 DUP3 ADD MSTORE PUSH1 0x11 PUSH1 0x24 DUP3 ADD MSTORE PUSH17 0x14D85A5D1854DDD85C0E881313D0D2D151 PUSH1 0x7A SHL PUSH1 0x44 DUP3 ADD MSTORE SWAP1 MLOAD SWAP1 DUP2 SWAP1 SUB PUSH1 0x64 ADD SWAP1 REVERT JUMPDEST PUSH1 0x0 PUSH1 0xE SSTORE DUP5 ISZERO ISZERO DUP1 PUSH2 0x657 JUMPI POP PUSH1 0x0 DUP5 GT JUMPDEST PUSH2 0x692 JUMPI PUSH1 0x40 MLOAD PUSH3 0x461BCD PUSH1 0xE5 SHL DUP2 MSTORE PUSH1 0x4 ADD DUP1 DUP1 PUSH1 0x20 ADD DUP3 DUP2 SUB DUP3 MSTORE PUSH1 0x25 DUP2 MSTORE PUSH1 0x20 ADD DUP1 PUSH2 0x237D PUSH1 0x25 SWAP2 CODECOPY PUSH1 0x40 ADD SWAP2 POP POP PUSH1 0x40 MLOAD DUP1 SWAP2 SUB SWAP1 REVERT JUMPDEST PUSH1 0x0 DUP1 PUSH2 0x69D PUSH2 0xB73 JUMP JUMPDEST POP SWAP2 POP SWAP2 POP DUP2 PUSH1 0x1 PUSH1 0x1 PUSH1 0x70 SHL SUB AND DUP8 LT DUP1 ISZERO PUSH2 0x6C2 JUMPI POP DUP1 PUSH1 0x1 PUSH1 0x1 PUSH1 0x70 SHL SUB AND DUP7 LT JUMPDEST PUSH2 0x6FD JUMPI PUSH1 0x40 MLOAD PUSH3 0x461BCD PUSH1 0xE5 SHL DUP2 MSTORE PUSH1 0x4 ADD DUP1 DUP1 PUSH1 0x20 ADD DUP3 DUP2 SUB DUP3 MSTORE PUSH1 0x21 DUP2 MSTORE PUSH1 0x20 ADD DUP1 PUSH2 0x22BE PUSH1 0x21 SWAP2 CODECOPY PUSH1 0x40 ADD SWAP2 POP POP PUSH1 0x40 MLOAD DUP1 SWAP2 SUB SWAP1 REVERT JUMPDEST PUSH1 0x6 SLOAD PUSH1 0x7 SLOAD PUSH1 0x0 SWAP2 DUP3 SWAP2 PUSH1 0x1 PUSH1 0x1 PUSH1 0xA0 SHL SUB SWAP2 DUP3 AND SWAP2 SWAP1 DUP2 AND SWAP1 DUP10 AND DUP3 EQ DUP1 ISZERO SWAP1 PUSH2 0x73B JUMPI POP DUP1 PUSH1 0x1 PUSH1 0x1 PUSH1 0xA0 SHL SUB AND DUP10 PUSH1 0x1 PUSH1 0x1 PUSH1 0xA0 SHL SUB AND EQ ISZERO JUMPDEST PUSH2 0x784 JUMPI PUSH1 0x40 DUP1 MLOAD PUSH3 0x461BCD PUSH1 0xE5 SHL DUP2 MSTORE PUSH1 0x20 PUSH1 0x4 DUP3 ADD MSTORE PUSH1 0x15 PUSH1 0x24 DUP3 ADD MSTORE PUSH21 0x5361697461537761703A20494E56414C49445F544F PUSH1 0x58 SHL PUSH1 0x44 DUP3 ADD MSTORE SWAP1 MLOAD SWAP1 DUP2 SWAP1 SUB PUSH1 0x64 ADD SWAP1 REVERT JUMPDEST DUP11 ISZERO PUSH2 0x795 JUMPI PUSH2 0x795 DUP3 DUP11 DUP14 PUSH2 0x1A09 JUMP JUMPDEST DUP10 ISZERO PUSH2 0x7A6 JUMPI PUSH2 0x7A6 DUP2 DUP11 DUP13 PUSH2 0x1A09 JUMP JUMPDEST DUP7 ISZERO PUSH2 0x861 JUMPI DUP9 PUSH1 0x1 PUSH1 0x1 PUSH1 0xA0 SHL SUB AND PUSH4 0xFE1B3A66 CALLER DUP14 DUP14 DUP13 DUP13 PUSH1 0x40 MLOAD DUP7 PUSH4 0xFFFFFFFF AND PUSH1 0xE0 SHL DUP2 MSTORE PUSH1 0x4 ADD DUP1 DUP7 PUSH1 0x1 PUSH1 0x1 PUSH1 0xA0 SHL SUB AND PUSH1 0x1 PUSH1 0x1 PUSH1 0xA0 SHL SUB AND DUP2 MSTORE PUSH1 0x20 ADD DUP6 DUP2 MSTORE PUSH1 0x20 ADD DUP5 DUP2 MSTORE PUSH1 0x20 ADD DUP1 PUSH1 0x20 ADD DUP3 DUP2 SUB DUP3 MSTORE DUP5 DUP5 DUP3 DUP2 DUP2 MSTORE PUSH1 0x20 ADD SWAP3 POP DUP1 DUP3 DUP5 CALLDATACOPY PUSH1 0x0 DUP2 DUP5 ADD MSTORE PUSH1 0x1F NOT PUSH1 0x1F DUP3 ADD AND SWAP1 POP DUP1 DUP4 ADD SWAP3 POP POP POP SWAP7 POP POP POP POP POP POP POP PUSH1 0x0 PUSH1 0x40 MLOAD DUP1 DUP4 SUB DUP2 PUSH1 0x0 DUP8 DUP1 EXTCODESIZE ISZERO DUP1 ISZERO PUSH2 0x848 JUMPI PUSH1 0x0 DUP1 REVERT JUMPDEST POP GAS CALL ISZERO DUP1 ISZERO PUSH2 0x85C JUMPI RETURNDATASIZE PUSH1 0x0 DUP1 RETURNDATACOPY RETURNDATASIZE PUSH1 0x0 REVERT JUMPDEST POP POP POP POP JUMPDEST PUSH1 0x40 DUP1 MLOAD PUSH4 0x70A08231 PUSH1 0xE0 SHL DUP2 MSTORE ADDRESS PUSH1 0x4 DUP3 ADD MSTORE SWAP1 MLOAD PUSH1 0x1 PUSH1 0x1 PUSH1 0xA0 SHL SUB DUP5 AND SWAP2 PUSH4 0x70A08231 SWAP2 PUSH1 0x24 DUP1 DUP4 ADD SWAP3 PUSH1 0x20 SWAP3 SWAP2 SWAP1 DUP3 SWAP1 SUB ADD DUP2 DUP7 DUP1 EXTCODESIZE ISZERO DUP1 ISZERO PUSH2 0x8A7 JUMPI PUSH1 0x0 DUP1 REVERT JUMPDEST POP GAS STATICCALL ISZERO DUP1 ISZERO PUSH2 0x8BB JUMPI RETURNDATASIZE PUSH1 0x0 DUP1 RETURNDATACOPY RETURNDATASIZE PUSH1 0x0 REVERT JUMPDEST POP POP POP POP PUSH1 0x40 MLOAD RETURNDATASIZE PUSH1 0x20 DUP2 LT ISZERO PUSH2 0x8D1 JUMPI PUSH1 0x0 DUP1 REVERT JUMPDEST POP MLOAD PUSH1 0x40 DUP1 MLOAD PUSH4 0x70A08231 PUSH1 0xE0 SHL DUP2 MSTORE ADDRESS PUSH1 0x4 DUP3 ADD MSTORE SWAP1 MLOAD SWAP2 SWAP6 POP PUSH1 0x1 PUSH1 0x1 PUSH1 0xA0 SHL SUB DUP4 AND SWAP2 PUSH4 0x70A08231 SWAP2 PUSH1 0x24 DUP1 DUP3 ADD SWAP3 PUSH1 0x20 SWAP3 SWAP1 SWAP2 SWAP1 DUP3 SWAP1 SUB ADD DUP2 DUP7 DUP1 EXTCODESIZE ISZERO DUP1 ISZERO PUSH2 0x91D JUMPI PUSH1 0x0 DUP1 REVERT JUMPDEST POP GAS STATICCALL ISZERO DUP1 ISZERO PUSH2 0x931 JUMPI RETURNDATASIZE PUSH1 0x0 DUP1 RETURNDATACOPY RETURNDATASIZE PUSH1 0x0 REVERT JUMPDEST POP POP POP POP PUSH1 0x40 MLOAD RETURNDATASIZE PUSH1 0x20 DUP2 LT ISZERO PUSH2 0x947 JUMPI PUSH1 0x0 DUP1 REVERT JUMPDEST POP MLOAD SWAP3 POP PUSH1 0x0 SWAP2 POP POP PUSH1 0x1 PUSH1 0x1 PUSH1 0x70 SHL SUB DUP6 AND DUP11 SWAP1 SUB DUP4 GT PUSH2 0x96A JUMPI PUSH1 0x0 PUSH2 0x979 JUMP JUMPDEST DUP10 DUP6 PUSH1 0x1 PUSH1 0x1 PUSH1 0x70 SHL SUB AND SUB DUP4 SUB JUMPDEST SWAP1 POP PUSH1 0x0 DUP10 DUP6 PUSH1 0x1 PUSH1 0x1 PUSH1 0x70 SHL SUB AND SUB DUP4 GT PUSH2 0x996 JUMPI PUSH1 0x0 PUSH2 0x9A5 JUMP JUMPDEST DUP10 DUP6 PUSH1 0x1 PUSH1 0x1 PUSH1 0x70 SHL SUB AND SUB DUP4 SUB JUMPDEST SWAP1 POP PUSH1 0x0 DUP3 GT DUP1 PUSH2 0x9B6 JUMPI POP PUSH1 0x0 DUP2 GT JUMPDEST PUSH2 0x9F1 JUMPI PUSH1 0x40 MLOAD PUSH3 0x461BCD PUSH1 0xE5 SHL DUP2 MSTORE PUSH1 0x4 ADD DUP1 DUP1 PUSH1 0x20 ADD DUP3 DUP2 SUB DUP3 MSTORE PUSH1 0x24 DUP2 MSTORE PUSH1 0x20 ADD DUP1 PUSH2 0x22DF PUSH1 0x24 SWAP2 CODECOPY PUSH1 0x40 ADD SWAP2 POP POP PUSH1 0x40 MLOAD DUP1 SWAP2 SUB SWAP1 REVERT JUMPDEST PUSH1 0x0 PUSH2 0xA2B PUSH2 0xA0B PUSH1 0x8 SLOAD DUP6 PUSH2 0x1BA3 SWAP1 SWAP2 SWAP1 PUSH4 0xFFFFFFFF AND JUMP JUMPDEST PUSH1 0x9 SLOAD PUSH2 0xA1F SWAP1 DUP9 SWAP1 PUSH4 0xFFFFFFFF PUSH2 0x1BA3 AND JUMP JUMPDEST SWAP1 PUSH4 0xFFFFFFFF PUSH2 0x1C06 AND JUMP JUMPDEST SWAP1 POP PUSH1 0x0 PUSH2 0xA47 PUSH2 0xA0B PUSH1 0x8 SLOAD DUP6 PUSH2 0x1BA3 SWAP1 SWAP2 SWAP1 PUSH4 0xFFFFFFFF AND JUMP JUMPDEST SWAP1 POP PUSH2 0xA84 PUSH1 0x8 SLOAD PUSH1 0x9 SLOAD EXP PUSH2 0xA78 DUP10 PUSH1 0x1 PUSH1 0x1 PUSH1 0x70 SHL SUB AND DUP12 PUSH1 0x1 PUSH1 0x1 PUSH1 0x70 SHL SUB AND PUSH2 0x1BA3 SWAP1 SWAP2 SWAP1 PUSH4 0xFFFFFFFF AND JUMP JUMPDEST SWAP1 PUSH4 0xFFFFFFFF PUSH2 0x1BA3 AND JUMP JUMPDEST PUSH2 0xA94 DUP4 DUP4 PUSH4 0xFFFFFFFF PUSH2 0x1BA3 AND JUMP JUMPDEST LT ISZERO PUSH2 0xAD6 JUMPI PUSH1 0x40 DUP1 MLOAD PUSH3 0x461BCD PUSH1 0xE5 SHL DUP2 MSTORE PUSH1 0x20 PUSH1 0x4 DUP3 ADD MSTORE PUSH1 0xC PUSH1 0x24 DUP3 ADD MSTORE PUSH12 0x5361697461537761703A204B PUSH1 0xA0 SHL PUSH1 0x44 DUP3 ADD MSTORE SWAP1 MLOAD SWAP1 DUP2 SWAP1 SUB PUSH1 0x64 ADD SWAP1 REVERT JUMPDEST POP POP PUSH2 0xAE4 DUP5 DUP5 DUP9 DUP9 PUSH2 0x1C56 JUMP JUMPDEST PUSH1 0x40 DUP1 MLOAD DUP4 DUP2 MSTORE PUSH1 0x20 DUP2 ADD DUP4 SWAP1 MSTORE DUP1 DUP3 ADD DUP14 SWAP1 MSTORE PUSH1 0x60 DUP2 ADD DUP13 SWAP1 MSTORE SWAP1 MLOAD PUSH1 0x1 PUSH1 0x1 PUSH1 0xA0 SHL SUB DUP12 AND SWAP2 CALLER SWAP2 PUSH32 0xD78AD95FA46C994B6551D0DA85FC275FE613CE37657FB8D5E3D130840159D822 SWAP2 DUP2 SWAP1 SUB PUSH1 0x80 ADD SWAP1 LOG3 POP POP PUSH1 0x1 PUSH1 0xE SSTORE POP POP POP POP POP POP POP POP POP JUMP JUMPDEST PUSH1 0x40 MLOAD DUP1 PUSH1 0x40 ADD PUSH1 0x40 MSTORE DUP1 PUSH1 0xD DUP2 MSTORE PUSH1 0x20 ADD PUSH13 0x536169746153776170204C5073 PUSH1 0x98 SHL DUP2 MSTORE POP DUP2 JUMP JUMPDEST PUSH1 0xA SLOAD PUSH1 0x1 PUSH1 0x1 PUSH1 0x70 SHL SUB DUP1 DUP3 AND SWAP3 PUSH1 0x1 PUSH1 0x70 SHL DUP4 DIV SWAP1 SWAP2 AND SWAP2 PUSH1 0x1 PUSH1 0xE0 SHL SWAP1 DIV PUSH4 0xFFFFFFFF AND SWAP1 JUMP JUMPDEST PUSH1 0x0 PUSH2 0xBAA CALLER DUP5 DUP5 PUSH2 0x1E1B JUMP JUMPDEST POP PUSH1 0x1 JUMPDEST SWAP3 SWAP2 POP POP JUMP JUMPDEST PUSH1 0x6 SLOAD PUSH1 0x1 PUSH1 0x1 PUSH1 0xA0 SHL SUB AND DUP2 JUMP JUMPDEST PUSH1 0x0 SLOAD DUP2 JUMP JUMPDEST PUSH1 0x1 PUSH1 0x1 PUSH1 0xA0 SHL SUB DUP4 AND PUSH1 0x0 SWAP1 DUP2 MSTORE PUSH1 0x2 PUSH1 0x20 SWAP1 DUP2 MSTORE PUSH1 0x40 DUP1 DUP4 KECCAK256 CALLER DUP5 MSTORE SWAP1 SWAP2 MSTORE DUP2 KECCAK256 SLOAD PUSH1 0x0 NOT EQ PUSH2 0xC4E JUMPI PUSH1 0x1 PUSH1 0x1 PUSH1 0xA0 SHL SUB DUP5 AND PUSH1 0x0 SWAP1 DUP2 MSTORE PUSH1 0x2 PUSH1 0x20 SWAP1 DUP2 MSTORE PUSH1 0x40 DUP1 DUP4 KECCAK256 CALLER DUP5 MSTORE SWAP1 SWAP2 MSTORE SWAP1 KECCAK256 SLOAD PUSH2 0xC29 SWAP1 DUP4 PUSH4 0xFFFFFFFF PUSH2 0x1C06 AND JUMP JUMPDEST PUSH1 0x1 PUSH1 0x1 PUSH1 0xA0 SHL SUB DUP6 AND PUSH1 0x0 SWAP1 DUP2 MSTORE PUSH1 0x2 PUSH1 0x20 SWAP1 DUP2 MSTORE PUSH1 0x40 DUP1 DUP4 KECCAK256 CALLER DUP5 MSTORE SWAP1 SWAP2 MSTORE SWAP1 KECCAK256 SSTORE JUMPDEST PUSH2 0xC59 DUP5 DUP5 DUP5 PUSH2 0x1E7D JUMP JUMPDEST POP PUSH1 0x1 SWAP4 SWAP3 POP POP POP JUMP JUMPDEST PUSH32 0x6E71EDAE12B1B97F4D1F60370FEF10105FA2FAAE0126114A169C64845D6126C9 DUP2 JUMP JUMPDEST PUSH1 0x12 DUP2 JUMP JUMPDEST PUSH1 0x3 SLOAD DUP2 JUMP JUMPDEST PUSH1 0x5 SLOAD PUSH1 0x1 PUSH1 0x1 PUSH1 0xA0 SHL SUB AND CALLER EQ PUSH2 0xCE8 JUMPI PUSH1 0x40 DUP1 MLOAD PUSH3 0x461BCD PUSH1 0xE5 SHL DUP2 MSTORE PUSH1 0x20 PUSH1 0x4 DUP3 ADD MSTORE PUSH1 0x14 PUSH1 0x24 DUP3 ADD MSTORE PUSH20 0x29B0B4BA30A9BBB0B81D102327A92124A22222A7 PUSH1 0x61 SHL PUSH1 0x44 DUP3 ADD MSTORE SWAP1 MLOAD SWAP1 DUP2 SWAP1 SUB PUSH1 0x64 ADD SWAP1 REVERT JUMPDEST PUSH1 0x6 DUP1 SLOAD PUSH1 0x1 PUSH1 0x1 PUSH1 0xA0 SHL SUB SWAP4 DUP5 AND PUSH1 0x1 PUSH1 0x1 PUSH1 0xA0 SHL SUB NOT SWAP2 DUP3 AND OR SWAP1 SWAP2 SSTORE PUSH1 0x7 DUP1 SLOAD SWAP3 SWAP1 SWAP4 AND SWAP2 AND OR SWAP1 SSTORE JUMP JUMPDEST PUSH1 0xB SLOAD DUP2 JUMP JUMPDEST PUSH1 0xC SLOAD DUP2 JUMP JUMPDEST PUSH1 0x0 PUSH1 0xE SLOAD PUSH1 0x1 EQ PUSH2 0xD6F JUMPI PUSH1 0x40 DUP1 MLOAD PUSH3 0x461BCD PUSH1 0xE5 SHL DUP2 MSTORE PUSH1 0x20 PUSH1 0x4 DUP3 ADD MSTORE PUSH1 0x11 PUSH1 0x24 DUP3 ADD MSTORE PUSH17 0x14D85A5D1854DDD85C0E881313D0D2D151 PUSH1 0x7A SHL PUSH1 0x44 DUP3 ADD MSTORE SWAP1 MLOAD SWAP1 DUP2 SWAP1 SUB PUSH1 0x64 ADD SWAP1 REVERT JUMPDEST PUSH1 0x0 PUSH1 0xE DUP2 SWAP1 SSTORE DUP1 PUSH2 0xD7F PUSH2 0xB73 JUMP JUMPDEST POP PUSH1 0x6 SLOAD PUSH1 0x40 DUP1 MLOAD PUSH4 0x70A08231 PUSH1 0xE0 SHL DUP2 MSTORE ADDRESS PUSH1 0x4 DUP3 ADD MSTORE SWAP1 MLOAD SWAP4 SWAP6 POP SWAP2 SWAP4 POP PUSH1 0x0 SWAP3 PUSH1 0x1 PUSH1 0x1 PUSH1 0xA0 SHL SUB SWAP1 SWAP2 AND SWAP2 PUSH4 0x70A08231 SWAP2 PUSH1 0x24 DUP1 DUP4 ADD SWAP3 PUSH1 0x20 SWAP3 SWAP2 SWAP1 DUP3 SWAP1 SUB ADD DUP2 DUP7 DUP1 EXTCODESIZE ISZERO DUP1 ISZERO PUSH2 0xDD3 JUMPI PUSH1 0x0 DUP1 REVERT JUMPDEST POP GAS STATICCALL ISZERO DUP1 ISZERO PUSH2 0xDE7 JUMPI RETURNDATASIZE PUSH1 0x0 DUP1 RETURNDATACOPY RETURNDATASIZE PUSH1 0x0 REVERT JUMPDEST POP POP POP POP PUSH1 0x40 MLOAD RETURNDATASIZE PUSH1 0x20 DUP2 LT ISZERO PUSH2 0xDFD JUMPI PUSH1 0x0 DUP1 REVERT JUMPDEST POP MLOAD PUSH1 0x7 SLOAD PUSH1 0x40 DUP1 MLOAD PUSH4 0x70A08231 PUSH1 0xE0 SHL DUP2 MSTORE ADDRESS PUSH1 0x4 DUP3 ADD MSTORE SWAP1 MLOAD SWAP3 SWAP4 POP PUSH1 0x0 SWAP3 PUSH1 0x1 PUSH1 0x1 PUSH1 0xA0 SHL SUB SWAP1 SWAP3 AND SWAP2 PUSH4 0x70A08231 SWAP2 PUSH1 0x24 DUP1 DUP3 ADD SWAP3 PUSH1 0x20 SWAP3 SWAP1 SWAP2 SWAP1 DUP3 SWAP1 SUB ADD DUP2 DUP7 DUP1 EXTCODESIZE ISZERO DUP1 ISZERO PUSH2 0xE50 JUMPI PUSH1 0x0 DUP1 REVERT JUMPDEST POP GAS STATICCALL ISZERO DUP1 ISZERO PUSH2 0xE64 JUMPI RETURNDATASIZE PUSH1 0x0 DUP1 RETURNDATACOPY RETURNDATASIZE PUSH1 0x0 REVERT JUMPDEST POP POP POP POP PUSH1 0x40 MLOAD RETURNDATASIZE PUSH1 0x20 DUP2 LT ISZERO PUSH2 0xE7A JUMPI PUSH1 0x0 DUP1 REVERT JUMPDEST POP MLOAD SWAP1 POP PUSH1 0x0 PUSH2 0xE99 DUP4 PUSH1 0x1 PUSH1 0x1 PUSH1 0x70 SHL SUB DUP8 AND PUSH4 0xFFFFFFFF PUSH2 0x1C06 AND JUMP JUMPDEST SWAP1 POP PUSH1 0x0 PUSH2 0xEB6 DUP4 PUSH1 0x1 PUSH1 0x1 PUSH1 0x70 SHL SUB DUP8 AND PUSH4 0xFFFFFFFF PUSH2 0x1C06 AND JUMP JUMPDEST SWAP1 POP PUSH1 0x0 PUSH2 0xEC4 DUP8 DUP8 PUSH2 0x1F37 JUMP JUMPDEST PUSH1 0x0 SLOAD SWAP1 SWAP2 POP DUP1 PUSH2 0xF01 JUMPI PUSH2 0xEED PUSH2 0x3E8 PUSH2 0xA1F PUSH2 0xEE8 DUP8 DUP8 PUSH4 0xFFFFFFFF PUSH2 0x1BA3 AND JUMP JUMPDEST PUSH2 0x2071 JUMP JUMPDEST SWAP9 POP PUSH2 0xEFC PUSH1 0x0 PUSH2 0x3E8 PUSH2 0x20C3 JUMP JUMPDEST PUSH2 0xF50 JUMP JUMPDEST PUSH2 0xF4D PUSH1 0x1 PUSH1 0x1 PUSH1 0x70 SHL SUB DUP10 AND PUSH2 0xF1E DUP7 DUP5 PUSH4 0xFFFFFFFF PUSH2 0x1BA3 AND JUMP JUMPDEST DUP2 PUSH2 0xF25 JUMPI INVALID JUMPDEST DIV PUSH1 0x1 PUSH1 0x1 PUSH1 0x70 SHL SUB DUP10 AND PUSH2 0xF40 DUP7 DUP6 PUSH4 0xFFFFFFFF PUSH2 0x1BA3 AND JUMP JUMPDEST DUP2 PUSH2 0xF47 JUMPI INVALID JUMPDEST DIV PUSH2 0x2159 JUMP JUMPDEST SWAP9 POP JUMPDEST PUSH1 0x0 DUP10 GT PUSH2 0xF8F JUMPI PUSH1 0x40 MLOAD PUSH3 0x461BCD PUSH1 0xE5 SHL DUP2 MSTORE PUSH1 0x4 ADD DUP1 DUP1 PUSH1 0x20 ADD DUP3 DUP2 SUB DUP3 MSTORE PUSH1 0x28 DUP2 MSTORE PUSH1 0x20 ADD DUP1 PUSH2 0x2296 PUSH1 0x28 SWAP2 CODECOPY PUSH1 0x40 ADD SWAP2 POP POP PUSH1 0x40 MLOAD DUP1 SWAP2 SUB SWAP1 REVERT JUMPDEST PUSH2 0xF99 DUP11 DUP11 PUSH2 0x20C3 JUMP JUMPDEST PUSH2 0xFA5 DUP7 DUP7 DUP11 DUP11 PUSH2 0x1C56 JUMP JUMPDEST DUP2 ISZERO PUSH2 0xFD5 JUMPI PUSH1 0xA SLOAD PUSH2 0xFD1 SWAP1 PUSH1 0x1 PUSH1 0x1 PUSH1 0x70 SHL SUB DUP1 DUP3 AND SWAP2 PUSH1 0x1 PUSH1 0x70 SHL SWAP1 DIV AND PUSH4 0xFFFFFFFF PUSH2 0x1BA3 AND JUMP JUMPDEST PUSH1 0xD SSTORE JUMPDEST PUSH1 0x40 DUP1 MLOAD DUP6 DUP2 MSTORE PUSH1 0x20 DUP2 ADD DUP6 SWAP1 MSTORE DUP2 MLOAD CALLER SWAP3 PUSH32 0x4C209B5FC8AD50758F13E2E1088BA56A560DFF690A1C6FEF26394F4C03821C4F SWAP3 DUP3 SWAP1 SUB ADD SWAP1 LOG2 POP POP PUSH1 0x1 PUSH1 0xE SSTORE POP SWAP5 SWAP7 SWAP6 POP POP POP POP POP POP JUMP JUMPDEST PUSH1 0x1 PUSH1 0x20 MSTORE PUSH1 0x0 SWAP1 DUP2 MSTORE PUSH1 0x40 SWAP1 KECCAK256 SLOAD DUP2 JUMP JUMPDEST PUSH1 0x9 SLOAD DUP2 JUMP JUMPDEST PUSH1 0xD SLOAD DUP2 JUMP JUMPDEST PUSH1 0x4 PUSH1 0x20 MSTORE PUSH1 0x0 SWAP1 DUP2 MSTORE PUSH1 0x40 SWAP1 KECCAK256 SLOAD DUP2 JUMP JUMPDEST PUSH1 0x0 DUP1 PUSH1 0xE SLOAD PUSH1 0x1 EQ PUSH2 0x10A0 JUMPI PUSH1 0x40 DUP1 MLOAD PUSH3 0x461BCD PUSH1 0xE5 SHL DUP2 MSTORE PUSH1 0x20 PUSH1 0x4 DUP3 ADD MSTORE PUSH1 0x11 PUSH1 0x24 DUP3 ADD MSTORE PUSH17 0x14D85A5D1854DDD85C0E881313D0D2D151 PUSH1 0x7A SHL PUSH1 0x44 DUP3 ADD MSTORE SWAP1 MLOAD SWAP1 DUP2 SWAP1 SUB PUSH1 0x64 ADD SWAP1 REVERT JUMPDEST PUSH1 0x0 PUSH1 0xE DUP2 SWAP1 SSTORE DUP1 PUSH2 0x10B0 PUSH2 0xB73 JUMP JUMPDEST POP PUSH1 0x6 SLOAD PUSH1 0x7 SLOAD PUSH1 0x40 DUP1 MLOAD PUSH4 0x70A08231 PUSH1 0xE0 SHL DUP2 MSTORE ADDRESS PUSH1 0x4 DUP3 ADD MSTORE SWAP1 MLOAD SWAP5 SWAP7 POP SWAP3 SWAP5 POP PUSH1 0x1 PUSH1 0x1 PUSH1 0xA0 SHL SUB SWAP2 DUP3 AND SWAP4 SWAP2 AND SWAP2 PUSH1 0x0 SWAP2 DUP5 SWAP2 PUSH4 0x70A08231 SWAP2 PUSH1 0x24 DUP1 DUP4 ADD SWAP3 PUSH1 0x20 SWAP3 SWAP2 SWAP1 DUP3 SWAP1 SUB ADD DUP2 DUP7 DUP1 EXTCODESIZE ISZERO DUP1 ISZERO PUSH2 0x110C JUMPI PUSH1 0x0 DUP1 REVERT JUMPDEST POP GAS STATICCALL ISZERO DUP1 ISZERO PUSH2 0x1120 JUMPI RETURNDATASIZE PUSH1 0x0 DUP1 RETURNDATACOPY RETURNDATASIZE PUSH1 0x0 REVERT JUMPDEST POP POP POP POP PUSH1 0x40 MLOAD RETURNDATASIZE PUSH1 0x20 DUP2 LT ISZERO PUSH2 0x1136 JUMPI PUSH1 0x0 DUP1 REVERT JUMPDEST POP MLOAD PUSH1 0x40 DUP1 MLOAD PUSH4 0x70A08231 PUSH1 0xE0 SHL DUP2 MSTORE ADDRESS PUSH1 0x4 DUP3 ADD MSTORE SWAP1 MLOAD SWAP2 SWAP3 POP PUSH1 0x0 SWAP2 PUSH1 0x1 PUSH1 0x1 PUSH1 0xA0 SHL SUB DUP6 AND SWAP2 PUSH4 0x70A08231 SWAP2 PUSH1 0x24 DUP1 DUP4 ADD SWAP3 PUSH1 0x20 SWAP3 SWAP2 SWAP1 DUP3 SWAP1 SUB ADD DUP2 DUP7 DUP1 EXTCODESIZE ISZERO DUP1 ISZERO PUSH2 0x1184 JUMPI PUSH1 0x0 DUP1 REVERT JUMPDEST POP GAS STATICCALL ISZERO DUP1 ISZERO PUSH2 0x1198 JUMPI RETURNDATASIZE PUSH1 0x0 DUP1 RETURNDATACOPY RETURNDATASIZE PUSH1 0x0 REVERT JUMPDEST POP POP POP POP PUSH1 0x40 MLOAD RETURNDATASIZE PUSH1 0x20 DUP2 LT ISZERO PUSH2 0x11AE JUMPI PUSH1 0x0 DUP1 REVERT JUMPDEST POP MLOAD ADDRESS PUSH1 0x0 SWAP1 DUP2 MSTORE PUSH1 0x1 PUSH1 0x20 MSTORE PUSH1 0x40 DUP2 KECCAK256 SLOAD SWAP2 SWAP3 POP PUSH2 0x11CD DUP9 DUP9 PUSH2 0x1F37 JUMP JUMPDEST PUSH1 0x0 SLOAD SWAP1 SWAP2 POP DUP1 PUSH2 0x11E4 DUP5 DUP8 PUSH4 0xFFFFFFFF PUSH2 0x1BA3 AND JUMP JUMPDEST DUP2 PUSH2 0x11EB JUMPI INVALID JUMPDEST DIV SWAP11 POP DUP1 PUSH2 0x11FF DUP5 DUP7 PUSH4 0xFFFFFFFF PUSH2 0x1BA3 AND JUMP JUMPDEST DUP2 PUSH2 0x1206 JUMPI INVALID JUMPDEST DIV SWAP10 POP PUSH1 0x0 DUP12 GT DUP1 ISZERO PUSH2 0x1219 JUMPI POP PUSH1 0x0 DUP11 GT JUMPDEST PUSH2 0x1254 JUMPI PUSH1 0x40 MLOAD PUSH3 0x461BCD PUSH1 0xE5 SHL DUP2 MSTORE PUSH1 0x4 ADD DUP1 DUP1 PUSH1 0x20 ADD DUP3 DUP2 SUB DUP3 MSTORE PUSH1 0x28 DUP2 MSTORE PUSH1 0x20 ADD DUP1 PUSH2 0x2303 PUSH1 0x28 SWAP2 CODECOPY PUSH1 0x40 ADD SWAP2 POP POP PUSH1 0x40 MLOAD DUP1 SWAP2 SUB SWAP1 REVERT JUMPDEST PUSH2 0x125E ADDRESS DUP5 PUSH2 0x2171 JUMP JUMPDEST PUSH2 0x1269 DUP8 DUP14 DUP14 PUSH2 0x1A09 JUMP JUMPDEST PUSH2 0x1274 DUP7 DUP14 DUP13 PUSH2 0x1A09 JUMP JUMPDEST PUSH1 0x40 DUP1 MLOAD PUSH4 0x70A08231 PUSH1 0xE0 SHL DUP2 MSTORE ADDRESS PUSH1 0x4 DUP3 ADD MSTORE SWAP1 MLOAD PUSH1 0x1 PUSH1 0x1 PUSH1 0xA0 SHL SUB DUP10 AND SWAP2 PUSH4 0x70A08231 SWAP2 PUSH1 0x24 DUP1 DUP4 ADD SWAP3 PUSH1 0x20 SWAP3 SWAP2 SWAP1 DUP3 SWAP1 SUB ADD DUP2 DUP7 DUP1 EXTCODESIZE ISZERO DUP1 ISZERO PUSH2 0x12BA JUMPI PUSH1 0x0 DUP1 REVERT JUMPDEST POP GAS STATICCALL ISZERO DUP1 ISZERO PUSH2 0x12CE JUMPI RETURNDATASIZE PUSH1 0x0 DUP1 RETURNDATACOPY RETURNDATASIZE PUSH1 0x0 REVERT JUMPDEST POP POP POP POP PUSH1 0x40 MLOAD RETURNDATASIZE PUSH1 0x20 DUP2 LT ISZERO PUSH2 0x12E4 JUMPI PUSH1 0x0 DUP1 REVERT JUMPDEST POP MLOAD PUSH1 0x40 DUP1 MLOAD PUSH4 0x70A08231 PUSH1 0xE0 SHL DUP2 MSTORE ADDRESS PUSH1 0x4 DUP3 ADD MSTORE SWAP1 MLOAD SWAP2 SWAP7 POP PUSH1 0x1 PUSH1 0x1 PUSH1 0xA0 SHL SUB DUP9 AND SWAP2 PUSH4 0x70A08231 SWAP2 PUSH1 0x24 DUP1 DUP3 ADD SWAP3 PUSH1 0x20 SWAP3 SWAP1 SWAP2 SWAP1 DUP3 SWAP1 SUB ADD DUP2 DUP7 DUP1 EXTCODESIZE ISZERO DUP1 ISZERO PUSH2 0x1330 JUMPI PUSH1 0x0 DUP1 REVERT JUMPDEST POP GAS STATICCALL ISZERO DUP1 ISZERO PUSH2 0x1344 JUMPI RETURNDATASIZE PUSH1 0x0 DUP1 RETURNDATACOPY RETURNDATASIZE PUSH1 0x0 REVERT JUMPDEST POP POP POP POP PUSH1 0x40 MLOAD RETURNDATASIZE PUSH1 0x20 DUP2 LT ISZERO PUSH2 0x135A JUMPI PUSH1 0x0 DUP1 REVERT JUMPDEST POP MLOAD SWAP4 POP PUSH2 0x136A DUP6 DUP6 DUP12 DUP12 PUSH2 0x1C56 JUMP JUMPDEST DUP2 ISZERO PUSH2 0x139A JUMPI PUSH1 0xA SLOAD PUSH2 0x1396 SWAP1 PUSH1 0x1 PUSH1 0x1 PUSH1 0x70 SHL SUB DUP1 DUP3 AND SWAP2 PUSH1 0x1 PUSH1 0x70 SHL SWAP1 DIV AND PUSH4 0xFFFFFFFF PUSH2 0x1BA3 AND JUMP JUMPDEST PUSH1 0xD SSTORE JUMPDEST PUSH1 0x40 DUP1 MLOAD DUP13 DUP2 MSTORE PUSH1 0x20 DUP2 ADD DUP13 SWAP1 MSTORE DUP2 MLOAD PUSH1 0x1 PUSH1 0x1 PUSH1 0xA0 SHL SUB DUP16 AND SWAP3 CALLER SWAP3 PUSH32 0xDCCD412F0B1252819CB1FD330B93224CA42612892BB3F4F789976E6D81936496 SWAP3 SWAP1 DUP2 SWAP1 SUB SWAP1 SWAP2 ADD SWAP1 LOG3 POP POP POP POP POP POP POP POP POP PUSH1 0x1 PUSH1 0xE DUP2 SWAP1 SSTORE POP SWAP2 POP SWAP2 JUMP JUMPDEST PUSH1 0x40 MLOAD DUP1 PUSH1 0x40 ADD PUSH1 0x40 MSTORE DUP1 PUSH1 0x3 DUP2 MSTORE PUSH1 0x20 ADD PUSH3 0x736C7 PUSH1 0xEC SHL DUP2 MSTORE POP DUP2 JUMP JUMPDEST PUSH1 0x0 PUSH2 0xBAA CALLER DUP5 DUP5 PUSH2 0x1E7D JUMP JUMPDEST PUSH2 0x3E8 DUP2 JUMP JUMPDEST PUSH1 0xE SLOAD PUSH1 0x1 EQ PUSH2 0x1475 JUMPI PUSH1 0x40 DUP1 MLOAD PUSH3 0x461BCD PUSH1 0xE5 SHL DUP2 MSTORE PUSH1 0x20 PUSH1 0x4 DUP3 ADD MSTORE PUSH1 0x11 PUSH1 0x24 DUP3 ADD MSTORE PUSH17 0x14D85A5D1854DDD85C0E881313D0D2D151 PUSH1 0x7A SHL PUSH1 0x44 DUP3 ADD MSTORE SWAP1 MLOAD SWAP1 DUP2 SWAP1 SUB PUSH1 0x64 ADD SWAP1 REVERT JUMPDEST PUSH1 0x0 PUSH1 0xE SSTORE PUSH1 0x6 SLOAD PUSH1 0x7 SLOAD PUSH1 0xA SLOAD PUSH1 0x40 DUP1 MLOAD PUSH4 0x70A08231 PUSH1 0xE0 SHL DUP2 MSTORE ADDRESS PUSH1 0x4 DUP3 ADD MSTORE SWAP1 MLOAD PUSH1 0x1 PUSH1 0x1 PUSH1 0xA0 SHL SUB SWAP5 DUP6 AND SWAP5 SWAP1 SWAP4 AND SWAP3 PUSH2 0x1524 SWAP3 DUP6 SWAP3 DUP8 SWAP3 PUSH2 0x151F SWAP3 PUSH1 0x1 PUSH1 0x1 PUSH1 0x70 SHL SUB AND SWAP2 DUP6 SWAP2 PUSH4 0x70A08231 SWAP2 PUSH1 0x24 DUP1 DUP3 ADD SWAP3 PUSH1 0x20 SWAP3 SWAP1 SWAP2 SWAP1 DUP3 SWAP1 SUB ADD DUP2 DUP7 DUP1 EXTCODESIZE ISZERO DUP1 ISZERO PUSH2 0x14E7 JUMPI PUSH1 0x0 DUP1 REVERT JUMPDEST POP GAS STATICCALL ISZERO DUP1 ISZERO PUSH2 0x14FB JUMPI RETURNDATASIZE PUSH1 0x0 DUP1 RETURNDATACOPY RETURNDATASIZE PUSH1 0x0 REVERT JUMPDEST POP POP POP POP PUSH1 0x40 MLOAD RETURNDATASIZE PUSH1 0x20 DUP2 LT ISZERO PUSH2 0x1511 JUMPI PUSH1 0x0 DUP1 REVERT JUMPDEST POP MLOAD SWAP1 PUSH4 0xFFFFFFFF PUSH2 0x1C06 AND JUMP JUMPDEST PUSH2 0x1A09 JUMP JUMPDEST PUSH1 0xA SLOAD PUSH1 0x40 DUP1 MLOAD PUSH4 0x70A08231 PUSH1 0xE0 SHL DUP2 MSTORE ADDRESS PUSH1 0x4 DUP3 ADD MSTORE SWAP1 MLOAD PUSH2 0x158B SWAP3 DUP5 SWAP3 DUP8 SWAP3 PUSH2 0x151F SWAP3 PUSH1 0x1 PUSH1 0x70 SHL SWAP1 DIV PUSH1 0x1 PUSH1 0x1 PUSH1 0x70 SHL SUB AND SWAP2 PUSH1 0x1 PUSH1 0x1 PUSH1 0xA0 SHL SUB DUP7 AND SWAP2 PUSH4 0x70A08231 SWAP2 PUSH1 0x24 DUP1 DUP3 ADD SWAP3 PUSH1 0x20 SWAP3 SWAP1 SWAP2 SWAP1 DUP3 SWAP1 SUB ADD DUP2 DUP7 DUP1 EXTCODESIZE ISZERO DUP1 ISZERO PUSH2 0x14E7 JUMPI PUSH1 0x0 DUP1 REVERT JUMPDEST POP POP PUSH1 0x1 PUSH1 0xE SSTORE POP JUMP JUMPDEST PUSH1 0x8 SLOAD DUP2 JUMP JUMPDEST PUSH1 0x5 SLOAD PUSH1 0x1 PUSH1 0x1 PUSH1 0xA0 SHL SUB AND DUP2 JUMP JUMPDEST PUSH1 0x7 SLOAD PUSH1 0x1 PUSH1 0x1 PUSH1 0xA0 SHL SUB AND DUP2 JUMP JUMPDEST PUSH1 0x40 MLOAD CHAINID SWAP1 DUP1 PUSH1 0x52 PUSH2 0x232B DUP3 CODECOPY PUSH1 0x40 DUP1 MLOAD SWAP2 DUP3 SWAP1 SUB PUSH1 0x52 ADD DUP3 KECCAK256 DUP3 DUP3 ADD DUP3 MSTORE PUSH1 0xD DUP4 MSTORE PUSH13 0x536169746153776170204C5073 PUSH1 0x98 SHL PUSH1 0x20 SWAP4 DUP5 ADD MSTORE DUP2 MLOAD DUP1 DUP4 ADD DUP4 MSTORE PUSH1 0x1 DUP2 MSTORE PUSH1 0x31 PUSH1 0xF8 SHL SWAP1 DUP5 ADD MSTORE DUP2 MLOAD DUP1 DUP5 ADD SWAP2 SWAP1 SWAP2 MSTORE PUSH32 0x1651E190AACB4C4C6E236D176DB06ACCA329ADAED8D7377E08D89572632A33BA DUP2 DUP4 ADD MSTORE PUSH32 0xC89EFDAA54C0F20C7ADF612882DF0950F5A951637E0307CDCB4C672F298B8BC6 PUSH1 0x60 DUP3 ADD MSTORE PUSH1 0x80 DUP2 ADD DUP6 SWAP1 MSTORE ADDRESS PUSH1 0xA0 DUP1 DUP4 ADD SWAP2 SWAP1 SWAP2 MSTORE DUP3 MLOAD DUP1 DUP4 SUB SWAP1 SWAP2 ADD DUP2 MSTORE PUSH1 0xC0 SWAP1 SWAP2 ADD SWAP1 SWAP2 MSTORE DUP1 MLOAD SWAP2 ADD KECCAK256 PUSH1 0x3 SSTORE POP TIMESTAMP DUP6 LT ISZERO PUSH2 0x16D1 JUMPI PUSH1 0x40 DUP1 MLOAD PUSH3 0x461BCD PUSH1 0xE5 SHL DUP2 MSTORE PUSH1 0x20 PUSH1 0x4 DUP3 ADD MSTORE PUSH1 0x12 PUSH1 0x24 DUP3 ADD MSTORE PUSH18 0x14D85A5D1854DDD85C0E8811561412549151 PUSH1 0x72 SHL PUSH1 0x44 DUP3 ADD MSTORE SWAP1 MLOAD SWAP1 DUP2 SWAP1 SUB PUSH1 0x64 ADD SWAP1 REVERT JUMPDEST PUSH1 0x3 SLOAD PUSH1 0x1 PUSH1 0x1 PUSH1 0xA0 SHL SUB DUP1 DUP11 AND PUSH1 0x0 DUP2 DUP2 MSTORE PUSH1 0x4 PUSH1 0x20 SWAP1 DUP2 MSTORE PUSH1 0x40 DUP1 DUP4 KECCAK256 DUP1 SLOAD PUSH1 0x1 DUP1 DUP3 ADD SWAP1 SWAP3 SSTORE DUP3 MLOAD PUSH32 0x6E71EDAE12B1B97F4D1F60370FEF10105FA2FAAE0126114A169C64845D6126C9 DUP2 DUP7 ADD MSTORE DUP1 DUP5 ADD SWAP7 SWAP1 SWAP7 MSTORE SWAP6 DUP15 AND PUSH1 0x60 DUP7 ADD MSTORE PUSH1 0x80 DUP6 ADD DUP14 SWAP1 MSTORE PUSH1 0xA0 DUP6 ADD SWAP6 SWAP1 SWAP6 MSTORE PUSH1 0xC0 DUP1 DUP6 ADD DUP13 SWAP1 MSTORE DUP2 MLOAD DUP1 DUP7 SUB SWAP1 SWAP2 ADD DUP2 MSTORE PUSH1 0xE0 DUP6 ADD DUP3 MSTORE DUP1 MLOAD SWAP1 DUP4 ADD KECCAK256 PUSH2 0x1901 PUSH1 0xF0 SHL PUSH2 0x100 DUP7 ADD MSTORE PUSH2 0x102 DUP6 ADD SWAP7 SWAP1 SWAP7 MSTORE PUSH2 0x122 DUP1 DUP6 ADD SWAP7 SWAP1 SWAP7 MSTORE DUP1 MLOAD DUP1 DUP6 SUB SWAP1 SWAP7 ADD DUP7 MSTORE PUSH2 0x142 DUP5 ADD DUP1 DUP3 MSTORE DUP7 MLOAD SWAP7 DUP4 ADD SWAP7 SWAP1 SWAP7 KECCAK256 SWAP6 DUP4 SWAP1 MSTORE PUSH2 0x162 DUP5 ADD DUP1 DUP3 MSTORE DUP7 SWAP1 MSTORE PUSH1 0xFF DUP11 AND PUSH2 0x182 DUP6 ADD MSTORE PUSH2 0x1A2 DUP5 ADD DUP10 SWAP1 MSTORE PUSH2 0x1C2 DUP5 ADD DUP9 SWAP1 MSTORE MLOAD SWAP2 SWAP4 SWAP3 PUSH2 0x1E2 DUP1 DUP3 ADD SWAP4 PUSH1 0x1F NOT DUP2 ADD SWAP3 DUP2 SWAP1 SUB SWAP1 SWAP2 ADD SWAP1 DUP6 GAS STATICCALL ISZERO DUP1 ISZERO PUSH2 0x17EC JUMPI RETURNDATASIZE PUSH1 0x0 DUP1 RETURNDATACOPY RETURNDATASIZE PUSH1 0x0 REVERT JUMPDEST POP POP PUSH1 0x40 MLOAD PUSH1 0x1F NOT ADD MLOAD SWAP2 POP POP PUSH1 0x1 PUSH1 0x1 PUSH1 0xA0 SHL SUB DUP2 AND ISZERO DUP1 ISZERO SWAP1 PUSH2 0x1822 JUMPI POP DUP10 PUSH1 0x1 PUSH1 0x1 PUSH1 0xA0 SHL SUB AND DUP2 PUSH1 0x1 PUSH1 0x1 PUSH1 0xA0 SHL SUB AND EQ JUMPDEST PUSH2 0x1873 JUMPI PUSH1 0x40 DUP1 MLOAD PUSH3 0x461BCD PUSH1 0xE5 SHL DUP2 MSTORE PUSH1 0x20 PUSH1 0x4 DUP3 ADD MSTORE PUSH1 0x1C PUSH1 0x24 DUP3 ADD MSTORE PUSH32 0x5361697461537761703A20494E56414C49445F5349474E415455524500000000 PUSH1 0x44 DUP3 ADD MSTORE SWAP1 MLOAD SWAP1 DUP2 SWAP1 SUB PUSH1 0x64 ADD SWAP1 REVERT JUMPDEST PUSH2 0x187E DUP11 DUP11 DUP11 PUSH2 0x1E1B JUMP JUMPDEST POP POP POP POP POP POP POP POP POP POP JUMP JUMPDEST PUSH1 0x2 PUSH1 0x20 SWAP1 DUP2 MSTORE PUSH1 0x0 SWAP3 DUP4 MSTORE PUSH1 0x40 DUP1 DUP5 KECCAK256 SWAP1 SWAP2 MSTORE SWAP1 DUP3 MSTORE SWAP1 KECCAK256 SLOAD DUP2 JUMP JUMPDEST PUSH1 0xE SLOAD PUSH1 0x1 EQ PUSH2 0x18F2 JUMPI PUSH1 0x40 DUP1 MLOAD PUSH3 0x461BCD PUSH1 0xE5 SHL DUP2 MSTORE PUSH1 0x20 PUSH1 0x4 DUP3 ADD MSTORE PUSH1 0x11 PUSH1 0x24 DUP3 ADD MSTORE PUSH17 0x14D85A5D1854DDD85C0E881313D0D2D151 PUSH1 0x7A SHL PUSH1 0x44 DUP3 ADD MSTORE SWAP1 MLOAD SWAP1 DUP2 SWAP1 SUB PUSH1 0x64 ADD SWAP1 REVERT JUMPDEST PUSH1 0x0 PUSH1 0xE SSTORE PUSH1 0x6 SLOAD PUSH1 0x40 DUP1 MLOAD PUSH4 0x70A08231 PUSH1 0xE0 SHL DUP2 MSTORE ADDRESS PUSH1 0x4 DUP3 ADD MSTORE SWAP1 MLOAD PUSH2 0x1A02 SWAP3 PUSH1 0x1 PUSH1 0x1 PUSH1 0xA0 SHL SUB AND SWAP2 PUSH4 0x70A08231 SWAP2 PUSH1 0x24 DUP1 DUP4 ADD SWAP3 PUSH1 0x20 SWAP3 SWAP2 SWAP1 DUP3 SWAP1 SUB ADD DUP2 DUP7 DUP1 EXTCODESIZE ISZERO DUP1 ISZERO PUSH2 0x1943 JUMPI PUSH1 0x0 DUP1 REVERT JUMPDEST POP GAS STATICCALL ISZERO DUP1 ISZERO PUSH2 0x1957 JUMPI RETURNDATASIZE PUSH1 0x0 DUP1 RETURNDATACOPY RETURNDATASIZE PUSH1 0x0 REVERT JUMPDEST POP POP POP POP PUSH1 0x40 MLOAD RETURNDATASIZE PUSH1 0x20 DUP2 LT ISZERO PUSH2 0x196D JUMPI PUSH1 0x0 DUP1 REVERT JUMPDEST POP MLOAD PUSH1 0x7 SLOAD PUSH1 0x40 DUP1 MLOAD PUSH4 0x70A08231 PUSH1 0xE0 SHL DUP2 MSTORE ADDRESS PUSH1 0x4 DUP3 ADD MSTORE SWAP1 MLOAD PUSH1 0x1 PUSH1 0x1 PUSH1 0xA0 SHL SUB SWAP1 SWAP3 AND SWAP2 PUSH4 0x70A08231 SWAP2 PUSH1 0x24 DUP1 DUP3 ADD SWAP3 PUSH1 0x20 SWAP3 SWAP1 SWAP2 SWAP1 DUP3 SWAP1 SUB ADD DUP2 DUP7 DUP1 EXTCODESIZE ISZERO DUP1 ISZERO PUSH2 0x19BA JUMPI PUSH1 0x0 DUP1 REVERT JUMPDEST POP GAS STATICCALL ISZERO DUP1 ISZERO PUSH2 0x19CE JUMPI RETURNDATASIZE PUSH1 0x0 DUP1 RETURNDATACOPY RETURNDATASIZE PUSH1 0x0 REVERT JUMPDEST POP POP POP POP PUSH1 0x40 MLOAD RETURNDATASIZE PUSH1 0x20 DUP2 LT ISZERO PUSH2 0x19E4 JUMPI PUSH1 0x0 DUP1 REVERT JUMPDEST POP MLOAD PUSH1 0xA SLOAD PUSH1 0x1 PUSH1 0x1 PUSH1 0x70 SHL SUB DUP1 DUP3 AND SWAP2 PUSH1 0x1 PUSH1 0x70 SHL SWAP1 DIV AND PUSH2 0x1C56 JUMP JUMPDEST PUSH1 0x1 PUSH1 0xE SSTORE JUMP JUMPDEST PUSH1 0x40 DUP1 MLOAD DUP1 DUP3 ADD DUP3 MSTORE PUSH1 0x19 DUP2 MSTORE PUSH32 0x7472616E7366657228616464726573732C75696E743235362900000000000000 PUSH1 0x20 SWAP2 DUP3 ADD MSTORE DUP2 MLOAD PUSH1 0x1 PUSH1 0x1 PUSH1 0xA0 SHL SUB DUP6 DUP2 AND PUSH1 0x24 DUP4 ADD MSTORE PUSH1 0x44 DUP1 DUP4 ADD DUP7 SWAP1 MSTORE DUP5 MLOAD DUP1 DUP5 SUB SWAP1 SWAP2 ADD DUP2 MSTORE PUSH1 0x64 SWAP1 SWAP3 ADD DUP5 MSTORE SWAP2 DUP2 ADD DUP1 MLOAD PUSH1 0x1 PUSH1 0x1 PUSH1 0xE0 SHL SUB AND PUSH4 0xA9059CBB PUSH1 0xE0 SHL OR DUP2 MSTORE SWAP3 MLOAD DUP2 MLOAD PUSH1 0x0 SWAP5 PUSH1 0x60 SWAP5 DUP10 AND SWAP4 SWAP3 SWAP2 DUP3 SWAP2 SWAP1 DUP1 DUP4 DUP4 JUMPDEST PUSH1 0x20 DUP4 LT PUSH2 0x1AB6 JUMPI DUP1 MLOAD DUP3 MSTORE PUSH1 0x1F NOT SWAP1 SWAP3 ADD SWAP2 PUSH1 0x20 SWAP2 DUP3 ADD SWAP2 ADD PUSH2 0x1A97 JUMP JUMPDEST PUSH1 0x1 DUP4 PUSH1 0x20 SUB PUSH2 0x100 EXP SUB DUP1 NOT DUP3 MLOAD AND DUP2 DUP5 MLOAD AND DUP1 DUP3 OR DUP6 MSTORE POP POP POP POP POP POP SWAP1 POP ADD SWAP2 POP POP PUSH1 0x0 PUSH1 0x40 MLOAD DUP1 DUP4 SUB DUP2 PUSH1 0x0 DUP7 GAS CALL SWAP2 POP POP RETURNDATASIZE DUP1 PUSH1 0x0 DUP2 EQ PUSH2 0x1B18 JUMPI PUSH1 0x40 MLOAD SWAP2 POP PUSH1 0x1F NOT PUSH1 0x3F RETURNDATASIZE ADD AND DUP3 ADD PUSH1 0x40 MSTORE RETURNDATASIZE DUP3 MSTORE RETURNDATASIZE PUSH1 0x0 PUSH1 0x20 DUP5 ADD RETURNDATACOPY PUSH2 0x1B1D JUMP JUMPDEST PUSH1 0x60 SWAP2 POP JUMPDEST POP SWAP2 POP SWAP2 POP DUP2 DUP1 ISZERO PUSH2 0x1B4B JUMPI POP DUP1 MLOAD ISZERO DUP1 PUSH2 0x1B4B JUMPI POP DUP1 DUP1 PUSH1 0x20 ADD SWAP1 MLOAD PUSH1 0x20 DUP2 LT ISZERO PUSH2 0x1B48 JUMPI PUSH1 0x0 DUP1 REVERT JUMPDEST POP MLOAD JUMPDEST PUSH2 0x1B9C JUMPI PUSH1 0x40 DUP1 MLOAD PUSH3 0x461BCD PUSH1 0xE5 SHL DUP2 MSTORE PUSH1 0x20 PUSH1 0x4 DUP3 ADD MSTORE PUSH1 0x1A PUSH1 0x24 DUP3 ADD MSTORE PUSH32 0x5361697461537761703A205452414E534645525F4641494C4544000000000000 PUSH1 0x44 DUP3 ADD MSTORE SWAP1 MLOAD SWAP1 DUP2 SWAP1 SUB PUSH1 0x64 ADD SWAP1 REVERT JUMPDEST POP POP POP POP POP JUMP JUMPDEST PUSH1 0x0 DUP2 ISZERO DUP1 PUSH2 0x1BBE JUMPI POP POP DUP1 DUP3 MUL DUP3 DUP3 DUP3 DUP2 PUSH2 0x1BBB JUMPI INVALID JUMPDEST DIV EQ JUMPDEST PUSH2 0xBAE JUMPI PUSH1 0x40 DUP1 MLOAD PUSH3 0x461BCD PUSH1 0xE5 SHL DUP2 MSTORE PUSH1 0x20 PUSH1 0x4 DUP3 ADD MSTORE PUSH1 0x14 PUSH1 0x24 DUP3 ADD MSTORE PUSH20 0x64732D6D6174682D6D756C2D6F766572666C6F77 PUSH1 0x60 SHL PUSH1 0x44 DUP3 ADD MSTORE SWAP1 MLOAD SWAP1 DUP2 SWAP1 SUB PUSH1 0x64 ADD SWAP1 REVERT JUMPDEST DUP1 DUP3 SUB DUP3 DUP2 GT ISZERO PUSH2 0xBAE JUMPI PUSH1 0x40 DUP1 MLOAD PUSH3 0x461BCD PUSH1 0xE5 SHL DUP2 MSTORE PUSH1 0x20 PUSH1 0x4 DUP3 ADD MSTORE PUSH1 0x15 PUSH1 0x24 DUP3 ADD MSTORE PUSH21 0x64732D6D6174682D7375622D756E646572666C6F77 PUSH1 0x58 SHL PUSH1 0x44 DUP3 ADD MSTORE SWAP1 MLOAD SWAP1 DUP2 SWAP1 SUB PUSH1 0x64 ADD SWAP1 REVERT JUMPDEST PUSH1 0x1 PUSH1 0x1 PUSH1 0x70 SHL SUB DUP5 GT DUP1 ISZERO SWAP1 PUSH2 0x1C74 JUMPI POP PUSH1 0x1 PUSH1 0x1 PUSH1 0x70 SHL SUB DUP4 GT ISZERO JUMPDEST PUSH2 0x1CBB JUMPI PUSH1 0x40 DUP1 MLOAD PUSH3 0x461BCD PUSH1 0xE5 SHL DUP2 MSTORE PUSH1 0x20 PUSH1 0x4 DUP3 ADD MSTORE PUSH1 0x13 PUSH1 0x24 DUP3 ADD MSTORE PUSH19 0x5361697461537761703A204F564552464C4F57 PUSH1 0x68 SHL PUSH1 0x44 DUP3 ADD MSTORE SWAP1 MLOAD SWAP1 DUP2 SWAP1 SUB PUSH1 0x64 ADD SWAP1 REVERT JUMPDEST PUSH1 0xA SLOAD PUSH4 0xFFFFFFFF TIMESTAMP DUP2 AND SWAP2 PUSH1 0x1 PUSH1 0xE0 SHL SWAP1 DIV DUP2 AND DUP3 SUB SWAP1 DUP2 AND ISZERO DUP1 ISZERO SWAP1 PUSH2 0x1CEB JUMPI POP PUSH1 0x1 PUSH1 0x1 PUSH1 0x70 SHL SUB DUP5 AND ISZERO ISZERO JUMPDEST DUP1 ISZERO PUSH2 0x1CFF JUMPI POP PUSH1 0x1 PUSH1 0x1 PUSH1 0x70 SHL SUB DUP4 AND ISZERO ISZERO JUMPDEST ISZERO PUSH2 0x1D70 JUMPI DUP1 PUSH4 0xFFFFFFFF AND PUSH2 0x1D2D DUP6 PUSH2 0x1D18 DUP7 PUSH2 0x220F JUMP JUMPDEST PUSH1 0x1 PUSH1 0x1 PUSH1 0xE0 SHL SUB AND SWAP1 PUSH4 0xFFFFFFFF PUSH2 0x2221 AND JUMP JUMPDEST PUSH1 0xB DUP1 SLOAD PUSH1 0x1 PUSH1 0x1 PUSH1 0xE0 SHL SUB SWAP3 SWAP1 SWAP3 AND SWAP3 SWAP1 SWAP3 MUL ADD SWAP1 SSTORE PUSH4 0xFFFFFFFF DUP2 AND PUSH2 0x1D58 DUP5 PUSH2 0x1D18 DUP8 PUSH2 0x220F JUMP JUMPDEST PUSH1 0xC DUP1 SLOAD PUSH1 0x1 PUSH1 0x1 PUSH1 0xE0 SHL SUB SWAP3 SWAP1 SWAP3 AND SWAP3 SWAP1 SWAP3 MUL ADD SWAP1 SSTORE JUMPDEST PUSH1 0xA DUP1 SLOAD PUSH14 0xFFFFFFFFFFFFFFFFFFFFFFFFFFFF NOT AND PUSH1 0x1 PUSH1 0x1 PUSH1 0x70 SHL SUB DUP9 DUP2 AND SWAP2 SWAP1 SWAP2 OR PUSH14 0xFFFFFFFFFFFFFFFFFFFFFFFFFFFF PUSH1 0x70 SHL NOT AND PUSH1 0x1 PUSH1 0x70 SHL DUP9 DUP4 AND DUP2 MUL SWAP2 SWAP1 SWAP2 OR PUSH1 0x1 PUSH1 0x1 PUSH1 0xE0 SHL SUB AND PUSH1 0x1 PUSH1 0xE0 SHL PUSH4 0xFFFFFFFF DUP8 AND MUL OR SWAP3 DUP4 SWAP1 SSTORE PUSH1 0x40 DUP1 MLOAD DUP5 DUP5 AND DUP2 MSTORE SWAP2 SWAP1 SWAP4 DIV SWAP1 SWAP2 AND PUSH1 0x20 DUP3 ADD MSTORE DUP2 MLOAD PUSH32 0x1C411E9A96E071241C2F21F7726B17AE89E3CAB4C78BE50E062B03A9FFFBBAD1 SWAP3 SWAP2 DUP2 SWAP1 SUB SWAP1 SWAP2 ADD SWAP1 LOG1 POP POP POP POP POP POP JUMP JUMPDEST PUSH1 0x1 PUSH1 0x1 PUSH1 0xA0 SHL SUB DUP1 DUP5 AND PUSH1 0x0 DUP2 DUP2 MSTORE PUSH1 0x2 PUSH1 0x20 SWAP1 DUP2 MSTORE PUSH1 0x40 DUP1 DUP4 KECCAK256 SWAP5 DUP8 AND DUP1 DUP5 MSTORE SWAP5 DUP3 MSTORE SWAP2 DUP3 SWAP1 KECCAK256 DUP6 SWAP1 SSTORE DUP2 MLOAD DUP6 DUP2 MSTORE SWAP2 MLOAD PUSH32 0x8C5BE1E5EBEC7D5BD14F71427D1E84F3DD0314C0F7B2291E5B200AC8C7C3B925 SWAP3 DUP2 SWAP1 SUB SWAP1 SWAP2 ADD SWAP1 LOG3 POP POP POP JUMP JUMPDEST PUSH1 0x1 PUSH1 0x1 PUSH1 0xA0 SHL SUB DUP4 AND PUSH1 0x0 SWAP1 DUP2 MSTORE PUSH1 0x1 PUSH1 0x20 MSTORE PUSH1 0x40 SWAP1 KECCAK256 SLOAD PUSH2 0x1EA6 SWAP1 DUP3 PUSH4 0xFFFFFFFF PUSH2 0x1C06 AND JUMP JUMPDEST PUSH1 0x1 PUSH1 0x1 PUSH1 0xA0 SHL SUB DUP1 DUP6 AND PUSH1 0x0 SWAP1 DUP2 MSTORE PUSH1 0x1 PUSH1 0x20 MSTORE PUSH1 0x40 DUP1 DUP3 KECCAK256 SWAP4 SWAP1 SWAP4 SSTORE SWAP1 DUP5 AND DUP2 MSTORE KECCAK256 SLOAD PUSH2 0x1EDB SWAP1 DUP3 PUSH4 0xFFFFFFFF PUSH2 0x2246 AND JUMP JUMPDEST PUSH1 0x1 PUSH1 0x1 PUSH1 0xA0 SHL SUB DUP1 DUP5 AND PUSH1 0x0 DUP2 DUP2 MSTORE PUSH1 0x1 PUSH1 0x20 SWAP1 DUP2 MSTORE PUSH1 0x40 SWAP2 DUP3 SWAP1 KECCAK256 SWAP5 SWAP1 SWAP5 SSTORE DUP1 MLOAD DUP6 DUP2 MSTORE SWAP1 MLOAD SWAP2 SWAP4 SWAP3 DUP8 AND SWAP3 PUSH32 0xDDF252AD1BE2C89B69C2B068FC378DAA952BA7F163C4A11628F55A4DF523B3EF SWAP3 SWAP2 DUP3 SWAP1 SUB ADD SWAP1 LOG3 POP POP POP JUMP JUMPDEST PUSH1 0x0 DUP1 PUSH1 0x5 PUSH1 0x0 SWAP1 SLOAD SWAP1 PUSH2 0x100 EXP SWAP1 DIV PUSH1 0x1 PUSH1 0x1 PUSH1 0xA0 SHL SUB AND PUSH1 0x1 PUSH1 0x1 PUSH1 0xA0 SHL SUB AND PUSH4 0x17E7E58 PUSH1 0x40 MLOAD DUP2 PUSH4 0xFFFFFFFF AND PUSH1 0xE0 SHL DUP2 MSTORE PUSH1 0x4 ADD PUSH1 0x20 PUSH1 0x40 MLOAD DUP1 DUP4 SUB DUP2 DUP7 DUP1 EXTCODESIZE ISZERO DUP1 ISZERO PUSH2 0x1F88 JUMPI PUSH1 0x0 DUP1 REVERT JUMPDEST POP GAS STATICCALL ISZERO DUP1 ISZERO PUSH2 0x1F9C JUMPI RETURNDATASIZE PUSH1 0x0 DUP1 RETURNDATACOPY RETURNDATASIZE PUSH1 0x0 REVERT JUMPDEST POP POP POP POP PUSH1 0x40 MLOAD RETURNDATASIZE PUSH1 0x20 DUP2 LT ISZERO PUSH2 0x1FB2 JUMPI PUSH1 0x0 DUP1 REVERT JUMPDEST POP MLOAD PUSH1 0xD SLOAD PUSH1 0x1 PUSH1 0x1 PUSH1 0xA0 SHL SUB DUP3 AND ISZERO DUP1 ISZERO SWAP5 POP SWAP2 SWAP3 POP SWAP1 PUSH2 0x205D JUMPI DUP1 ISZERO PUSH2 0x2058 JUMPI PUSH1 0x0 PUSH2 0x1FF5 PUSH2 0xEE8 PUSH1 0x1 PUSH1 0x1 PUSH1 0x70 SHL SUB DUP9 DUP2 AND SWAP1 DUP9 AND PUSH4 0xFFFFFFFF PUSH2 0x1BA3 AND JUMP JUMPDEST SWAP1 POP PUSH1 0x0 PUSH2 0x2002 DUP4 PUSH2 0x2071 JUMP JUMPDEST SWAP1 POP DUP1 DUP3 GT ISZERO PUSH2 0x2055 JUMPI PUSH1 0x0 PUSH2 0x2030 PUSH2 0x2021 DUP5 DUP5 PUSH4 0xFFFFFFFF PUSH2 0x1C06 AND JUMP JUMPDEST PUSH1 0x0 SLOAD SWAP1 PUSH4 0xFFFFFFFF PUSH2 0x1BA3 AND JUMP JUMPDEST SWAP1 POP DUP2 PUSH1 0x0 DUP2 DUP4 DUP2 PUSH2 0x203E JUMPI INVALID JUMPDEST DIV SWAP1 POP DUP1 ISZERO PUSH2 0x2051 JUMPI PUSH2 0x2051 DUP8 DUP3 PUSH2 0x20C3 JUMP JUMPDEST POP POP POP JUMPDEST POP POP JUMPDEST PUSH2 0x2069 JUMP JUMPDEST DUP1 ISZERO PUSH2 0x2069 JUMPI PUSH1 0x0 PUSH1 0xD SSTORE JUMPDEST POP POP SWAP3 SWAP2 POP POP JUMP JUMPDEST PUSH1 0x0 PUSH1 0x3 DUP3 GT ISZERO PUSH2 0x20B4 JUMPI POP DUP1 PUSH1 0x1 PUSH1 0x2 DUP3 DIV ADD JUMPDEST DUP2 DUP2 LT ISZERO PUSH2 0x20AE JUMPI DUP1 SWAP2 POP PUSH1 0x2 DUP2 DUP3 DUP6 DUP2 PUSH2 0x209D JUMPI INVALID JUMPDEST DIV ADD DUP2 PUSH2 0x20A6 JUMPI INVALID JUMPDEST DIV SWAP1 POP PUSH2 0x2086 JUMP JUMPDEST POP PUSH2 0x20BE JUMP JUMPDEST DUP2 ISZERO PUSH2 0x20BE JUMPI POP PUSH1 0x1 JUMPDEST SWAP2 SWAP1 POP JUMP JUMPDEST PUSH1 0x0 SLOAD PUSH2 0x20D6 SWAP1 DUP3 PUSH4 0xFFFFFFFF PUSH2 0x2246 AND JUMP JUMPDEST PUSH1 0x0 SWAP1 DUP2 SSTORE PUSH1 0x1 PUSH1 0x1 PUSH1 0xA0 SHL SUB DUP4 AND DUP2 MSTORE PUSH1 0x1 PUSH1 0x20 MSTORE PUSH1 0x40 SWAP1 KECCAK256 SLOAD PUSH2 0x2101 SWAP1 DUP3 PUSH4 0xFFFFFFFF PUSH2 0x2246 AND JUMP JUMPDEST PUSH1 0x1 PUSH1 0x1 PUSH1 0xA0 SHL SUB DUP4 AND PUSH1 0x0 DUP2 DUP2 MSTORE PUSH1 0x1 PUSH1 0x20 SWAP1 DUP2 MSTORE PUSH1 0x40 DUP1 DUP4 KECCAK256 SWAP5 SWAP1 SWAP5 SSTORE DUP4 MLOAD DUP6 DUP2 MSTORE SWAP4 MLOAD SWAP3 SWAP4 SWAP2 SWAP3 PUSH32 0xDDF252AD1BE2C89B69C2B068FC378DAA952BA7F163C4A11628F55A4DF523B3EF SWAP3 DUP2 SWAP1 SUB SWAP1 SWAP2 ADD SWAP1 LOG3 POP POP JUMP JUMPDEST PUSH1 0x0 DUP2 DUP4 LT PUSH2 0x2168 JUMPI DUP2 PUSH2 0x216A JUMP JUMPDEST DUP3 JUMPDEST SWAP4 SWAP3 POP POP POP JUMP JUMPDEST PUSH1 0x1 PUSH1 0x1 PUSH1 0xA0 SHL SUB DUP3 AND PUSH1 0x0 SWAP1 DUP2 MSTORE PUSH1 0x1 PUSH1 0x20 MSTORE PUSH1 0x40 SWAP1 KECCAK256 SLOAD PUSH2 0x219A SWAP1 DUP3 PUSH4 0xFFFFFFFF PUSH2 0x1C06 AND JUMP JUMPDEST PUSH1 0x1 PUSH1 0x1 PUSH1 0xA0 SHL SUB DUP4 AND PUSH1 0x0 SWAP1 DUP2 MSTORE PUSH1 0x1 PUSH1 0x20 MSTORE PUSH1 0x40 DUP2 KECCAK256 SWAP2 SWAP1 SWAP2 SSTORE SLOAD PUSH2 0x21C7 SWAP1 DUP3 PUSH4 0xFFFFFFFF PUSH2 0x1C06 AND JUMP JUMPDEST PUSH1 0x0 SWAP1 DUP2 SSTORE PUSH1 0x40 DUP1 MLOAD DUP4 DUP2 MSTORE SWAP1 MLOAD PUSH1 0x1 PUSH1 0x1 PUSH1 0xA0 SHL SUB DUP6 AND SWAP2 PUSH32 0xDDF252AD1BE2C89B69C2B068FC378DAA952BA7F163C4A11628F55A4DF523B3EF SWAP2 SWAP1 DUP2 SWAP1 SUB PUSH1 0x20 ADD SWAP1 LOG3 POP POP JUMP JUMPDEST PUSH1 0x1 PUSH1 0x1 PUSH1 0x70 SHL SUB AND PUSH1 0x1 PUSH1 0x70 SHL MUL SWAP1 JUMP JUMPDEST PUSH1 0x0 PUSH1 0x1 PUSH1 0x1 PUSH1 0x70 SHL SUB DUP3 AND PUSH1 0x1 PUSH1 0x1 PUSH1 0xE0 SHL SUB DUP5 AND DUP2 PUSH2 0x223E JUMPI INVALID JUMPDEST DIV SWAP4 SWAP3 POP POP POP JUMP JUMPDEST DUP1 DUP3 ADD DUP3 DUP2 LT ISZERO PUSH2 0xBAE JUMPI PUSH1 0x40 DUP1 MLOAD PUSH3 0x461BCD PUSH1 0xE5 SHL DUP2 MSTORE PUSH1 0x20 PUSH1 0x4 DUP3 ADD MSTORE PUSH1 0x14 PUSH1 0x24 DUP3 ADD MSTORE PUSH20 0x64732D6D6174682D6164642D6F766572666C6F77 PUSH1 0x60 SHL PUSH1 0x44 DUP3 ADD MSTORE SWAP1 MLOAD SWAP1 DUP2 SWAP1 SUB PUSH1 0x64 ADD SWAP1 REVERT INVALID MSTORE8 PUSH2 0x6974 PUSH2 0x5377 PUSH2 0x703A KECCAK256 0x49 0x4E MSTORE8 SSTORE CHAINID CHAINID 0x49 NUMBER 0x49 GASLIMIT 0x4E SLOAD 0x5F 0x4C 0x49 MLOAD SSTORE 0x49 DIFFICULTY 0x49 SLOAD MSIZE 0x5F 0x4D 0x49 0x4E SLOAD GASLIMIT DIFFICULTY MSTORE8 PUSH2 0x6974 PUSH2 0x5377 PUSH2 0x703A KECCAK256 0x49 0x4E MSTORE8 SSTORE CHAINID CHAINID 0x49 NUMBER 0x49 GASLIMIT 0x4E SLOAD 0x5F 0x4C 0x49 MLOAD SSTORE 0x49 DIFFICULTY 0x49 SLOAD MSIZE MSTORE8 PUSH2 0x6974 PUSH2 0x5377 PUSH2 0x703A KECCAK256 0x49 0x4E MSTORE8 SSTORE CHAINID CHAINID 0x49 NUMBER 0x49 GASLIMIT 0x4E SLOAD 0x5F 0x49 0x4E POP SSTORE SLOAD 0x5F COINBASE 0x4D 0x4F SSTORE 0x4E SLOAD MSTORE8 PUSH2 0x6974 PUSH2 0x5377 PUSH2 0x703A KECCAK256 0x49 0x4E MSTORE8 SSTORE CHAINID CHAINID 0x49 NUMBER 0x49 GASLIMIT 0x4E SLOAD 0x5F 0x4C 0x49 MLOAD SSTORE 0x49 DIFFICULTY 0x49 SLOAD MSIZE 0x5F TIMESTAMP SSTORE MSTORE 0x4E GASLIMIT DIFFICULTY GASLIMIT 0x49 POP CALLDATACOPY BALANCE ORIGIN DIFFICULTY PUSH16 0x6D61696E28737472696E67206E616D65 0x2C PUSH20 0x7472696E672076657273696F6E2C75696E743235 CALLDATASIZE KECCAK256 PUSH4 0x6861696E 0x49 PUSH5 0x2C61646472 PUSH6 0x737320766572 PUSH10 0x6679696E67436F6E7472 PUSH2 0x6374 0x29 MSTORE8 PUSH2 0x6974 PUSH2 0x5377 PUSH2 0x703A KECCAK256 0x49 0x4E MSTORE8 SSTORE CHAINID CHAINID 0x49 NUMBER 0x49 GASLIMIT 0x4E SLOAD 0x5F 0x4F SSTORE SLOAD POP SSTORE SLOAD 0x5F COINBASE 0x4D 0x4F SSTORE 0x4E SLOAD LOG2 PUSH6 0x627A7A723158 KECCAK256 EXP JUMPDEST CALLDATASIZE 0xAA 0xE7 NOT CODECOPY AND PUSH1 0x47 0x2A PUSH10 0xC3D78FB7F4407E5B69F2 DUP7 CREATE PC DUP15 SUB SWAP5 0xCC 0xBF BLOCKHASH SWAP6 PUSH5 0x736F6C6343 STOP SDIV LT STOP ORIGIN GASLIMIT 0x49 POP CALLDATACOPY BALANCE ORIGIN DIFFICULTY PUSH16 0x6D61696E28737472696E67206E616D65 0x2C PUSH20 0x7472696E672076657273696F6E2C75696E743235 CALLDATASIZE KECCAK256 PUSH4 0x6861696E 0x49 PUSH5 0x2C61646472 PUSH6 0x737320766572 PUSH10 0x6679696E67436F6E7472 PUSH2 0x6374 0x29 "
				},
				"gasEstimates": {
					"creation": {
						"codeDepositCost": "1834800",
						"executionCost": "infinite",
						"totalCost": "infinite"
					},
					"external": {
						"DOMAIN_SEPARATOR()": "1088",
						"MINIMUM_LIQUIDITY()": "243",
						"PERMIT_TYPEHASH()": "244",
						"SWAP_FEE_DENOMINATOR()": "1066",
						"SWAP_FEE_NUMERATOR()": "1087",
						"allowance(address,address)": "1305",
						"approve(address,uint256)": "22366",
						"balanceOf(address)": "1170",
						"burn(address)": "infinite",
						"decimals()": "275",
						"factory()": "1148",
						"getReserves()": "1240",
						"initialize(address,address)": "42806",
						"kLast()": "1088",
						"mint(address)": "infinite",
						"name()": "infinite",
						"nonces(address)": "1169",
						"permit(address,address,uint256,uint256,uint8,bytes32,bytes32)": "infinite",
						"price0CumulativeLast()": "1065",
						"price1CumulativeLast()": "1087",
						"skim(address)": "infinite",
						"swap(uint256,uint256,address,bytes)": "infinite",
						"symbol()": "infinite",
						"sync()": "infinite",
						"token0()": "1105",
						"token1()": "1081",
						"totalSupply()": "1088",
						"transfer(address,uint256)": "infinite",
						"transferFrom(address,address,uint256)": "infinite"
					},
					"internal": {
						"_mintFee(uint112,uint112)": "infinite",
						"_safeTransfer(address,address,uint256)": "infinite",
						"_update(uint256,uint256,uint112,uint112)": "infinite"
					}
				},
				"methodIdentifiers": {
					"DOMAIN_SEPARATOR()": "3644e515",
					"MINIMUM_LIQUIDITY()": "ba9a7a56",
					"PERMIT_TYPEHASH()": "30adf81f",
					"SWAP_FEE_DENOMINATOR()": "71ebeacc",
					"SWAP_FEE_NUMERATOR()": "bee62fc7",
					"allowance(address,address)": "dd62ed3e",
					"approve(address,uint256)": "095ea7b3",
					"balanceOf(address)": "70a08231",
					"burn(address)": "89afcb44",
					"decimals()": "313ce567",
					"factory()": "c45a0155",
					"getReserves()": "0902f1ac",
					"initialize(address,address)": "485cc955",
					"kLast()": "7464fc3d",
					"mint(address)": "6a627842",
					"name()": "06fdde03",
					"nonces(address)": "7ecebe00",
					"permit(address,address,uint256,uint256,uint8,bytes32,bytes32)": "d505accf",
					"price0CumulativeLast()": "5909c0d5",
					"price1CumulativeLast()": "5a3d5493",
					"skim(address)": "bc25cf77",
					"swap(uint256,uint256,address,bytes)": "022c0d9f",
					"symbol()": "95d89b41",
					"sync()": "fff6cae9",
					"token0()": "0dfe1681",
					"token1()": "d21220a7",
					"totalSupply()": "18160ddd",
					"transfer(address,uint256)": "a9059cbb",
					"transferFrom(address,address,uint256)": "23b872dd"
				}
			},
			"storageLayout": {
				"storage": [
					{
						"astId": 241,
						"contract": "contracts/SaitaSwapPair.sol:SaitaSwapPair",
						"label": "totalSupply",
						"offset": 0,
						"slot": "0",
						"type": "t_uint256"
					},
					{
						"astId": 245,
						"contract": "contracts/SaitaSwapPair.sol:SaitaSwapPair",
						"label": "balanceOf",
						"offset": 0,
						"slot": "1",
						"type": "t_mapping(t_address,t_uint256)"
					},
					{
						"astId": 251,
						"contract": "contracts/SaitaSwapPair.sol:SaitaSwapPair",
						"label": "allowance",
						"offset": 0,
						"slot": "2",
						"type": "t_mapping(t_address,t_mapping(t_address,t_uint256))"
					},
					{
						"astId": 253,
						"contract": "contracts/SaitaSwapPair.sol:SaitaSwapPair",
						"label": "DOMAIN_SEPARATOR",
						"offset": 0,
						"slot": "3",
						"type": "t_bytes32"
					},
					{
						"astId": 260,
						"contract": "contracts/SaitaSwapPair.sol:SaitaSwapPair",
						"label": "nonces",
						"offset": 0,
						"slot": "4",
						"type": "t_mapping(t_address,t_uint256)"
					},
					{
						"astId": 676,
						"contract": "contracts/SaitaSwapPair.sol:SaitaSwapPair",
						"label": "factory",
						"offset": 0,
						"slot": "5",
						"type": "t_address"
					},
					{
						"astId": 678,
						"contract": "contracts/SaitaSwapPair.sol:SaitaSwapPair",
						"label": "token0",
						"offset": 0,
						"slot": "6",
						"type": "t_address"
					},
					{
						"astId": 680,
						"contract": "contracts/SaitaSwapPair.sol:SaitaSwapPair",
						"label": "token1",
						"offset": 0,
						"slot": "7",
						"type": "t_address"
					},
					{
						"astId": 683,
						"contract": "contracts/SaitaSwapPair.sol:SaitaSwapPair",
						"label": "SWAP_FEE_NUMERATOR",
						"offset": 0,
						"slot": "8",
						"type": "t_uint256"
					},
					{
						"astId": 686,
						"contract": "contracts/SaitaSwapPair.sol:SaitaSwapPair",
						"label": "SWAP_FEE_DENOMINATOR",
						"offset": 0,
						"slot": "9",
						"type": "t_uint256"
					},
					{
						"astId": 688,
						"contract": "contracts/SaitaSwapPair.sol:SaitaSwapPair",
						"label": "reserve0",
						"offset": 0,
						"slot": "10",
						"type": "t_uint112"
					},
					{
						"astId": 690,
						"contract": "contracts/SaitaSwapPair.sol:SaitaSwapPair",
						"label": "reserve1",
						"offset": 14,
						"slot": "10",
						"type": "t_uint112"
					},
					{
						"astId": 692,
						"contract": "contracts/SaitaSwapPair.sol:SaitaSwapPair",
						"label": "blockTimestampLast",
						"offset": 28,
						"slot": "10",
						"type": "t_uint32"
					},
					{
						"astId": 694,
						"contract": "contracts/SaitaSwapPair.sol:SaitaSwapPair",
						"label": "price0CumulativeLast",
						"offset": 0,
						"slot": "11",
						"type": "t_uint256"
					},
					{
						"astId": 696,
						"contract": "contracts/SaitaSwapPair.sol:SaitaSwapPair",
						"label": "price1CumulativeLast",
						"offset": 0,
						"slot": "12",
						"type": "t_uint256"
					},
					{
						"astId": 698,
						"contract": "contracts/SaitaSwapPair.sol:SaitaSwapPair",
						"label": "kLast",
						"offset": 0,
						"slot": "13",
						"type": "t_uint256"
					},
					{
						"astId": 701,
						"contract": "contracts/SaitaSwapPair.sol:SaitaSwapPair",
						"label": "unlocked",
						"offset": 0,
						"slot": "14",
						"type": "t_uint256"
					}
				],
				"types": {
					"t_address": {
						"encoding": "inplace",
						"label": "address",
						"numberOfBytes": "20"
					},
					"t_bytes32": {
						"encoding": "inplace",
						"label": "bytes32",
						"numberOfBytes": "32"
					},
					"t_mapping(t_address,t_mapping(t_address,t_uint256))": {
						"encoding": "mapping",
						"key": "t_address",
						"label": "mapping(address => mapping(address => uint256))",
						"numberOfBytes": "32",
						"value": "t_mapping(t_address,t_uint256)"
					},
					"t_mapping(t_address,t_uint256)": {
						"encoding": "mapping",
						"key": "t_address",
						"label": "mapping(address => uint256)",
						"numberOfBytes": "32",
						"value": "t_uint256"
					},
					"t_uint112": {
						"encoding": "inplace",
						"label": "uint112",
						"numberOfBytes": "14"
					},
					"t_uint256": {
						"encoding": "inplace",
						"label": "uint256",
						"numberOfBytes": "32"
					},
					"t_uint32": {
						"encoding": "inplace",
						"label": "uint32",
						"numberOfBytes": "4"
					}
				}
			},
			"userdoc": {
				"methods": {}
			}
		}
	}
}