{
	"contracts/SaitaSwapPair.sol": {
		"SaitaSwapPair": {
			"abi": [
				{
					"inputs": [],
					"payable": false,
					"stateMutability": "nonpayable",
					"type": "constructor"
				},
				{
					"anonymous": false,
					"inputs": [
						{
							"indexed": true,
							"internalType": "address",
							"name": "owner",
							"type": "address"
						},
						{
							"indexed": true,
							"internalType": "address",
							"name": "spender",
							"type": "address"
						},
						{
							"indexed": false,
							"internalType": "uint256",
							"name": "value",
							"type": "uint256"
						}
					],
					"name": "Approval",
					"type": "event"
				},
				{
					"anonymous": false,
					"inputs": [
						{
							"indexed": true,
							"internalType": "address",
							"name": "sender",
							"type": "address"
						},
						{
							"indexed": false,
							"internalType": "uint256",
							"name": "amount0",
							"type": "uint256"
						},
						{
							"indexed": false,
							"internalType": "uint256",
							"name": "amount1",
							"type": "uint256"
						},
						{
							"indexed": true,
							"internalType": "address",
							"name": "to",
							"type": "address"
						}
					],
					"name": "Burn",
					"type": "event"
				},
				{
					"anonymous": false,
					"inputs": [
						{
							"indexed": true,
							"internalType": "address",
							"name": "sender",
							"type": "address"
						},
						{
							"indexed": false,
							"internalType": "uint256",
							"name": "amount0",
							"type": "uint256"
						},
						{
							"indexed": false,
							"internalType": "uint256",
							"name": "amount1",
							"type": "uint256"
						}
					],
					"name": "Mint",
					"type": "event"
				},
				{
					"anonymous": false,
					"inputs": [
						{
							"indexed": true,
							"internalType": "address",
							"name": "sender",
							"type": "address"
						},
						{
							"indexed": false,
							"internalType": "uint256",
							"name": "amount0In",
							"type": "uint256"
						},
						{
							"indexed": false,
							"internalType": "uint256",
							"name": "amount1In",
							"type": "uint256"
						},
						{
							"indexed": false,
							"internalType": "uint256",
							"name": "amount0Out",
							"type": "uint256"
						},
						{
							"indexed": false,
							"internalType": "uint256",
							"name": "amount1Out",
							"type": "uint256"
						},
						{
							"indexed": true,
							"internalType": "address",
							"name": "to",
							"type": "address"
						}
					],
					"name": "Swap",
					"type": "event"
				},
				{
					"anonymous": false,
					"inputs": [
						{
							"indexed": false,
							"internalType": "uint112",
							"name": "reserve0",
							"type": "uint112"
						},
						{
							"indexed": false,
							"internalType": "uint112",
							"name": "reserve1",
							"type": "uint112"
						}
					],
					"name": "Sync",
					"type": "event"
				},
				{
					"anonymous": false,
					"inputs": [
						{
							"indexed": true,
							"internalType": "address",
							"name": "from",
							"type": "address"
						},
						{
							"indexed": true,
							"internalType": "address",
							"name": "to",
							"type": "address"
						},
						{
							"indexed": false,
							"internalType": "uint256",
							"name": "value",
							"type": "uint256"
						}
					],
					"name": "Transfer",
					"type": "event"
				},
				{
					"constant": true,
					"inputs": [],
					"name": "DOMAIN_SEPARATOR",
					"outputs": [
						{
							"internalType": "bytes32",
							"name": "",
							"type": "bytes32"
						}
					],
					"payable": false,
					"stateMutability": "view",
					"type": "function"
				},
				{
					"constant": true,
					"inputs": [],
					"name": "MINIMUM_LIQUIDITY",
					"outputs": [
						{
							"internalType": "uint256",
							"name": "",
							"type": "uint256"
						}
					],
					"payable": false,
					"stateMutability": "view",
					"type": "function"
				},
				{
					"constant": true,
					"inputs": [],
					"name": "PERMIT_TYPEHASH",
					"outputs": [
						{
							"internalType": "bytes32",
							"name": "",
							"type": "bytes32"
						}
					],
					"payable": false,
					"stateMutability": "view",
					"type": "function"
				},
				{
					"constant": true,
					"inputs": [],
					"name": "SWAP_FEE_DENOMINATOR",
					"outputs": [
						{
							"internalType": "uint256",
							"name": "",
							"type": "uint256"
						}
					],
					"payable": false,
					"stateMutability": "view",
					"type": "function"
				},
				{
					"constant": true,
					"inputs": [],
					"name": "SWAP_FEE_NUMERATOR",
					"outputs": [
						{
							"internalType": "uint256",
							"name": "",
							"type": "uint256"
						}
					],
					"payable": false,
					"stateMutability": "view",
					"type": "function"
				},
				{
					"constant": true,
					"inputs": [
						{
							"internalType": "address",
							"name": "",
							"type": "address"
						},
						{
							"internalType": "address",
							"name": "",
							"type": "address"
						}
					],
					"name": "allowance",
					"outputs": [
						{
							"internalType": "uint256",
							"name": "",
							"type": "uint256"
						}
					],
					"payable": false,
					"stateMutability": "view",
					"type": "function"
				},
				{
					"constant": false,
					"inputs": [
						{
							"internalType": "address",
							"name": "spender",
							"type": "address"
						},
						{
							"internalType": "uint256",
							"name": "value",
							"type": "uint256"
						}
					],
					"name": "approve",
					"outputs": [
						{
							"internalType": "bool",
							"name": "",
							"type": "bool"
						}
					],
					"payable": false,
					"stateMutability": "nonpayable",
					"type": "function"
				},
				{
					"constant": true,
					"inputs": [
						{
							"internalType": "address",
							"name": "",
							"type": "address"
						}
					],
					"name": "balanceOf",
					"outputs": [
						{
							"internalType": "uint256",
							"name": "",
							"type": "uint256"
						}
					],
					"payable": false,
					"stateMutability": "view",
					"type": "function"
				},
				{
					"constant": false,
					"inputs": [
						{
							"internalType": "address",
							"name": "to",
							"type": "address"
						}
					],
					"name": "burn",
					"outputs": [
						{
							"internalType": "uint256",
							"name": "amount0",
							"type": "uint256"
						},
						{
							"internalType": "uint256",
							"name": "amount1",
							"type": "uint256"
						}
					],
					"payable": false,
					"stateMutability": "nonpayable",
					"type": "function"
				},
				{
					"constant": true,
					"inputs": [],
					"name": "decimals",
					"outputs": [
						{
							"internalType": "uint8",
							"name": "",
							"type": "uint8"
						}
					],
					"payable": false,
					"stateMutability": "view",
					"type": "function"
				},
				{
					"constant": true,
					"inputs": [],
					"name": "factory",
					"outputs": [
						{
							"internalType": "address",
							"name": "",
							"type": "address"
						}
					],
					"payable": false,
					"stateMutability": "view",
					"type": "function"
				},
				{
					"constant": true,
					"inputs": [],
					"name": "getReserves",
					"outputs": [
						{
							"internalType": "uint112",
							"name": "_reserve0",
							"type": "uint112"
						},
						{
							"internalType": "uint112",
							"name": "_reserve1",
							"type": "uint112"
						},
						{
							"internalType": "uint32",
							"name": "_blockTimestampLast",
							"type": "uint32"
						}
					],
					"payable": false,
					"stateMutability": "view",
					"type": "function"
				},
				{
					"constant": false,
					"inputs": [
						{
							"internalType": "address",
							"name": "_token0",
							"type": "address"
						},
						{
							"internalType": "address",
							"name": "_token1",
							"type": "address"
						}
					],
					"name": "initialize",
					"outputs": [],
					"payable": false,
					"stateMutability": "nonpayable",
					"type": "function"
				},
				{
					"constant": true,
					"inputs": [],
					"name": "kLast",
					"outputs": [
						{
							"internalType": "uint256",
							"name": "",
							"type": "uint256"
						}
					],
					"payable": false,
					"stateMutability": "view",
					"type": "function"
				},
				{
					"constant": false,
					"inputs": [
						{
							"internalType": "address",
							"name": "to",
							"type": "address"
						}
					],
					"name": "mint",
					"outputs": [
						{
							"internalType": "uint256",
							"name": "liquidity",
							"type": "uint256"
						}
					],
					"payable": false,
					"stateMutability": "nonpayable",
					"type": "function"
				},
				{
					"constant": true,
					"inputs": [],
					"name": "name",
					"outputs": [
						{
							"internalType": "string",
							"name": "",
							"type": "string"
						}
					],
					"payable": false,
					"stateMutability": "view",
					"type": "function"
				},
				{
					"constant": true,
					"inputs": [
						{
							"internalType": "address",
							"name": "",
							"type": "address"
						}
					],
					"name": "nonces",
					"outputs": [
						{
							"internalType": "uint256",
							"name": "",
							"type": "uint256"
						}
					],
					"payable": false,
					"stateMutability": "view",
					"type": "function"
				},
				{
					"constant": false,
					"inputs": [
						{
							"internalType": "address",
							"name": "owner",
							"type": "address"
						},
						{
							"internalType": "address",
							"name": "spender",
							"type": "address"
						},
						{
							"internalType": "uint256",
							"name": "value",
							"type": "uint256"
						},
						{
							"internalType": "uint256",
							"name": "deadline",
							"type": "uint256"
						},
						{
							"internalType": "uint8",
							"name": "v",
							"type": "uint8"
						},
						{
							"internalType": "bytes32",
							"name": "r",
							"type": "bytes32"
						},
						{
							"internalType": "bytes32",
							"name": "s",
							"type": "bytes32"
						}
					],
					"name": "permit",
					"outputs": [],
					"payable": false,
					"stateMutability": "nonpayable",
					"type": "function"
				},
				{
					"constant": true,
					"inputs": [],
					"name": "price0CumulativeLast",
					"outputs": [
						{
							"internalType": "uint256",
							"name": "",
							"type": "uint256"
						}
					],
					"payable": false,
					"stateMutability": "view",
					"type": "function"
				},
				{
					"constant": true,
					"inputs": [],
					"name": "price1CumulativeLast",
					"outputs": [
						{
							"internalType": "uint256",
							"name": "",
							"type": "uint256"
						}
					],
					"payable": false,
					"stateMutability": "view",
					"type": "function"
				},
				{
					"constant": false,
					"inputs": [
						{
							"internalType": "address",
							"name": "to",
							"type": "address"
						}
					],
					"name": "skim",
					"outputs": [],
					"payable": false,
					"stateMutability": "nonpayable",
					"type": "function"
				},
				{
					"constant": false,
					"inputs": [
						{
							"internalType": "uint256",
							"name": "amount0Out",
							"type": "uint256"
						},
						{
							"internalType": "uint256",
							"name": "amount1Out",
							"type": "uint256"
						},
						{
							"internalType": "address",
							"name": "to",
							"type": "address"
						},
						{
							"internalType": "bytes",
							"name": "data",
							"type": "bytes"
						}
					],
					"name": "swap",
					"outputs": [],
					"payable": false,
					"stateMutability": "nonpayable",
					"type": "function"
				},
				{
					"constant": true,
					"inputs": [],
					"name": "symbol",
					"outputs": [
						{
							"internalType": "string",
							"name": "",
							"type": "string"
						}
					],
					"payable": false,
					"stateMutability": "view",
					"type": "function"
				},
				{
					"constant": false,
					"inputs": [],
					"name": "sync",
					"outputs": [],
					"payable": false,
					"stateMutability": "nonpayable",
					"type": "function"
				},
				{
					"constant": true,
					"inputs": [],
					"name": "token0",
					"outputs": [
						{
							"internalType": "address",
							"name": "",
							"type": "address"
						}
					],
					"payable": false,
					"stateMutability": "view",
					"type": "function"
				},
				{
					"constant": true,
					"inputs": [],
					"name": "token1",
					"outputs": [
						{
							"internalType": "address",
							"name": "",
							"type": "address"
						}
					],
					"payable": false,
					"stateMutability": "view",
					"type": "function"
				},
				{
					"constant": true,
					"inputs": [],
					"name": "totalSupply",
					"outputs": [
						{
							"internalType": "uint256",
							"name": "",
							"type": "uint256"
						}
					],
					"payable": false,
					"stateMutability": "view",
					"type": "function"
				},
				{
					"constant": false,
					"inputs": [
						{
							"internalType": "address",
							"name": "to",
							"type": "address"
						},
						{
							"internalType": "uint256",
							"name": "value",
							"type": "uint256"
						}
					],
					"name": "transfer",
					"outputs": [
						{
							"internalType": "bool",
							"name": "",
							"type": "bool"
						}
					],
					"payable": false,
					"stateMutability": "nonpayable",
					"type": "function"
				},
				{
					"constant": false,
					"inputs": [
						{
							"internalType": "address",
							"name": "from",
							"type": "address"
						},
						{
							"internalType": "address",
							"name": "to",
							"type": "address"
						},
						{
							"internalType": "uint256",
							"name": "value",
							"type": "uint256"
						}
					],
					"name": "transferFrom",
					"outputs": [
						{
							"internalType": "bool",
							"name": "",
							"type": "bool"
						}
					],
					"payable": false,
					"stateMutability": "nonpayable",
					"type": "function"
				}
			],
			"devdoc": {
				"methods": {}
			},
			"evm": {
				"assembly": "    /* \"contracts/SaitaSwapPair.sol\":326:9978  contract SaitaSwapPair is ISaitaSwapPair, SaitaSwapERC20 {... */\n  mstore(0x40, 0x80)\n    /* \"contracts/SaitaSwapPair.sol\":718:719  2 */\n  0x02\n    /* \"contracts/SaitaSwapPair.sol\":687:719  uint public SWAP_FEE_NUMERATOR=2 */\n  0x08\n  sstore\n    /* \"contracts/SaitaSwapPair.sol\":758:762  1000 */\n  0x03e8\n    /* \"contracts/SaitaSwapPair.sol\":725:762  uint public SWAP_FEE_DENOMINATOR=1000 */\n  0x09\n  sstore\n    /* \"contracts/SaitaSwapPair.sol\":1265:1266  1 */\n  0x01\n    /* \"contracts/SaitaSwapPair.sol\":1241:1266  uint private unlocked = 1 */\n  0x0e\n  sstore\n    /* \"contracts/SaitaSwapPair.sol\":2321:2379  constructor() public {... */\n  callvalue\n    /* \"--CODEGEN--\":8:17   */\n  dup1\n    /* \"--CODEGEN--\":5:7   */\n  iszero\n  tag_1\n  jumpi\n    /* \"--CODEGEN--\":30:31   */\n  0x00\n    /* \"--CODEGEN--\":27:28   */\n  dup1\n    /* \"--CODEGEN--\":20:32   */\n  revert\n    /* \"--CODEGEN--\":5:7   */\ntag_1:\n    /* \"contracts/SaitaSwapPair.sol\":2321:2379  constructor() public {... */\n  pop\n    /* \"contracts/SaitaSwapERC20.sol\":1455:1467  uint chainId */\n  0x00\n    /* \"contracts/SaitaSwapERC20.sol\":1511:1518  chainid */\n  chainid\n    /* \"contracts/SaitaSwapERC20.sol\":1500:1518  chainId := chainid */\n  swap1\n  pop\n    /* \"contracts/SaitaSwapERC20.sol\":1607:1702  keccak256('EIP712Domain(string name,string version,uint256 chainId,address verifyingContract)') */\n  mload(0x40)\n  dup1\n  dup1\n  data_8b73c3c69bb8fe3d512ecc4cf759cc79239f7b179b0ffacaa9a75d522b39400f\n  0x52\n  swap2\n  codecopy\n  0x52\n  add\n  swap1\n  pop\n  mload(0x40)\n  dup1\n  swap2\n  sub\n  swap1\n  keccak256\n    /* \"contracts/SaitaSwapERC20.sol\":1736:1740  name */\n  mload(0x40)\n  dup1\n  0x40\n  add\n  0x40\n  mstore\n  dup1\n  0x0d\n  dup2\n  mstore\n  0x20\n  add\n  0x536169746153776170204c507300000000000000000000000000000000000000\n  dup2\n  mstore\n  pop\n    /* \"contracts/SaitaSwapERC20.sol\":1720:1742  keccak256(bytes(name)) */\n  dup1\n  mload\n  swap1\n  0x20\n  add\n  keccak256\n    /* \"contracts/SaitaSwapERC20.sol\":1770:1780  bytes('1') */\n  mload(0x40)\n  dup1\n  0x40\n  add\n  0x40\n  mstore\n  dup1\n  0x01\n  dup2\n  mstore\n  0x20\n  add\n  0x3100000000000000000000000000000000000000000000000000000000000000\n  dup2\n  mstore\n  pop\n    /* \"contracts/SaitaSwapERC20.sol\":1760:1781  keccak256(bytes('1')) */\n  dup1\n  mload\n  swap1\n  0x20\n  add\n  keccak256\n    /* \"contracts/SaitaSwapERC20.sol\":1799:1806  chainId */\n  dup4\n    /* \"contracts/SaitaSwapERC20.sol\":1832:1836  this */\n  address\n    /* \"contracts/SaitaSwapERC20.sol\":1579:1851  abi.encode(... */\n  add(0x20, mload(0x40))\n  dup1\n  dup7\n  dup2\n  mstore\n  0x20\n  add\n  dup6\n  dup2\n  mstore\n  0x20\n  add\n  dup5\n  dup2\n  mstore\n  0x20\n  add\n  dup4\n  dup2\n  mstore\n  0x20\n  add\n  dup3\n  0xffffffffffffffffffffffffffffffffffffffff\n  and\n  0xffffffffffffffffffffffffffffffffffffffff\n  and\n  dup2\n  mstore\n  0x20\n  add\n  swap6\n  pop\n  pop\n  pop\n  pop\n  pop\n  pop\n  mload(0x40)\n    /* \"--CODEGEN--\":49:53   */\n  0x20\n    /* \"--CODEGEN--\":39:46   */\n  dup2\n    /* \"--CODEGEN--\":30:37   */\n  dup4\n    /* \"--CODEGEN--\":26:47   */\n  sub\n    /* \"--CODEGEN--\":22:54   */\n  sub\n    /* \"--CODEGEN--\":13:20   */\n  dup2\n    /* \"--CODEGEN--\":6:55   */\n  mstore\n    /* \"contracts/SaitaSwapERC20.sol\":1579:1851  abi.encode(... */\n  swap1\n  0x40\n  mstore\n    /* \"contracts/SaitaSwapERC20.sol\":1556:1861  keccak256(... */\n  dup1\n  mload\n  swap1\n  0x20\n  add\n  keccak256\n    /* \"contracts/SaitaSwapERC20.sol\":1537:1553  DOMAIN_SEPARATOR */\n  0x03\n    /* \"contracts/SaitaSwapERC20.sol\":1537:1861  DOMAIN_SEPARATOR = keccak256(... */\n  dup2\n  swap1\n  sstore\n  pop\n    /* \"contracts/SaitaSwapERC20.sol\":1418:1868  constructor() public {... */\n  pop\n    /* \"contracts/SaitaSwapPair.sol\":2362:2372  msg.sender */\n  caller\n    /* \"contracts/SaitaSwapPair.sol\":2352:2359  factory */\n  0x05\n  0x00\n    /* \"contracts/SaitaSwapPair.sol\":2352:2372  factory = msg.sender */\n  0x0100\n  exp\n  dup2\n  sload\n  dup2\n  0xffffffffffffffffffffffffffffffffffffffff\n  mul\n  not\n  and\n  swap1\n  dup4\n  0xffffffffffffffffffffffffffffffffffffffff\n  and\n  mul\n  or\n  swap1\n  sstore\n  pop\n    /* \"contracts/SaitaSwapPair.sol\":326:9978  contract SaitaSwapPair is ISaitaSwapPair, SaitaSwapERC20 {... */\n  dataSize(sub_0)\n  dup1\n  dataOffset(sub_0)\n  0x00\n  codecopy\n  0x00\n  return\nstop\ndata_8b73c3c69bb8fe3d512ecc4cf759cc79239f7b179b0ffacaa9a75d522b39400f 454950373132446f6d61696e28737472696e67206e616d652c737472696e672076657273696f6e2c75696e7432353620636861696e49642c6164647265737320766572696679696e67436f6e747261637429\n\nsub_0: assembly {\n        /* \"contracts/SaitaSwapPair.sol\":326:9978  contract SaitaSwapPair is ISaitaSwapPair, SaitaSwapERC20 {... */\n      mstore(0x40, 0x80)\n      callvalue\n        /* \"--CODEGEN--\":8:17   */\n      dup1\n        /* \"--CODEGEN--\":5:7   */\n      iszero\n      tag_1\n      jumpi\n        /* \"--CODEGEN--\":30:31   */\n      0x00\n        /* \"--CODEGEN--\":27:28   */\n      dup1\n        /* \"--CODEGEN--\":20:32   */\n      revert\n        /* \"--CODEGEN--\":5:7   */\n    tag_1:\n        /* \"contracts/SaitaSwapPair.sol\":326:9978  contract SaitaSwapPair is ISaitaSwapPair, SaitaSwapERC20 {... */\n      pop\n      jumpi(tag_2, lt(calldatasize, 0x04))\n      shr(0xe0, calldataload(0x00))\n      dup1\n      0x70a08231\n      gt\n      tag_32\n      jumpi\n      dup1\n      0xba9a7a56\n      gt\n      tag_33\n      jumpi\n      dup1\n      0xd21220a7\n      gt\n      tag_34\n      jumpi\n      dup1\n      0xd21220a7\n      eq\n      tag_28\n      jumpi\n      dup1\n      0xd505accf\n      eq\n      tag_29\n      jumpi\n      dup1\n      0xdd62ed3e\n      eq\n      tag_30\n      jumpi\n      dup1\n      0xfff6cae9\n      eq\n      tag_31\n      jumpi\n      jump(tag_2)\n    tag_34:\n      dup1\n      0xba9a7a56\n      eq\n      tag_24\n      jumpi\n      dup1\n      0xbc25cf77\n      eq\n      tag_25\n      jumpi\n      dup1\n      0xbee62fc7\n      eq\n      tag_26\n      jumpi\n      dup1\n      0xc45a0155\n      eq\n      tag_27\n      jumpi\n      jump(tag_2)\n    tag_33:\n      dup1\n      0x7ecebe00\n      gt\n      tag_35\n      jumpi\n      dup1\n      0x7ecebe00\n      eq\n      tag_20\n      jumpi\n      dup1\n      0x89afcb44\n      eq\n      tag_21\n      jumpi\n      dup1\n      0x95d89b41\n      eq\n      tag_22\n      jumpi\n      dup1\n      0xa9059cbb\n      eq\n      tag_23\n      jumpi\n      jump(tag_2)\n    tag_35:\n      dup1\n      0x70a08231\n      eq\n      tag_17\n      jumpi\n      dup1\n      0x71ebeacc\n      eq\n      tag_18\n      jumpi\n      dup1\n      0x7464fc3d\n      eq\n      tag_19\n      jumpi\n      jump(tag_2)\n    tag_32:\n      dup1\n      0x30adf81f\n      gt\n      tag_36\n      jumpi\n      dup1\n      0x485cc955\n      gt\n      tag_37\n      jumpi\n      dup1\n      0x485cc955\n      eq\n      tag_13\n      jumpi\n      dup1\n      0x5909c0d5\n      eq\n      tag_14\n      jumpi\n      dup1\n      0x5a3d5493\n      eq\n      tag_15\n      jumpi\n      dup1\n      0x6a627842\n      eq\n      tag_16\n      jumpi\n      jump(tag_2)\n    tag_37:\n      dup1\n      0x30adf81f\n      eq\n      tag_10\n      jumpi\n      dup1\n      0x313ce567\n      eq\n      tag_11\n      jumpi\n      dup1\n      0x3644e515\n      eq\n      tag_12\n      jumpi\n      jump(tag_2)\n    tag_36:\n      dup1\n      0x095ea7b3\n      gt\n      tag_38\n      jumpi\n      dup1\n      0x095ea7b3\n      eq\n      tag_6\n      jumpi\n      dup1\n      0x0dfe1681\n      eq\n      tag_7\n      jumpi\n      dup1\n      0x18160ddd\n      eq\n      tag_8\n      jumpi\n      dup1\n      0x23b872dd\n      eq\n      tag_9\n      jumpi\n      jump(tag_2)\n    tag_38:\n      dup1\n      0x022c0d9f\n      eq\n      tag_3\n      jumpi\n      dup1\n      0x06fdde03\n      eq\n      tag_4\n      jumpi\n      dup1\n      0x0902f1ac\n      eq\n      tag_5\n      jumpi\n    tag_2:\n      0x00\n      dup1\n      revert\n        /* \"contracts/SaitaSwapPair.sol\":7439:9399  function swap(uint amount0Out, uint amount1Out, address to, bytes calldata data) external lock {... */\n    tag_3:\n      tag_39\n      0x04\n      dup1\n      calldatasize\n      sub\n        /* \"--CODEGEN--\":13:16   */\n      0x80\n        /* \"--CODEGEN--\":8:11   */\n      dup2\n        /* \"--CODEGEN--\":5:17   */\n      lt\n        /* \"--CODEGEN--\":2:4   */\n      iszero\n      tag_40\n      jumpi\n        /* \"--CODEGEN--\":30:31   */\n      0x00\n        /* \"--CODEGEN--\":27:28   */\n      dup1\n        /* \"--CODEGEN--\":20:32   */\n      revert\n        /* \"--CODEGEN--\":2:4   */\n    tag_40:\n        /* \"contracts/SaitaSwapPair.sol\":7439:9399  function swap(uint amount0Out, uint amount1Out, address to, bytes calldata data) external lock {... */\n      dup2\n      add\n      swap1\n      dup1\n      dup1\n      calldataload\n      swap1\n      0x20\n      add\n      swap1\n      swap3\n      swap2\n      swap1\n      dup1\n      calldataload\n      swap1\n      0x20\n      add\n      swap1\n      swap3\n      swap2\n      swap1\n      dup1\n      calldataload\n      0xffffffffffffffffffffffffffffffffffffffff\n      and\n      swap1\n      0x20\n      add\n      swap1\n      swap3\n      swap2\n      swap1\n      dup1\n      calldataload\n      swap1\n      0x20\n      add\n      swap1\n        /* \"--CODEGEN--\":21:32   */\n      0x0100000000\n        /* \"--CODEGEN--\":8:19   */\n      dup2\n        /* \"--CODEGEN--\":5:33   */\n      gt\n        /* \"--CODEGEN--\":2:4   */\n      iszero\n      tag_41\n      jumpi\n        /* \"--CODEGEN--\":46:47   */\n      0x00\n        /* \"--CODEGEN--\":43:44   */\n      dup1\n        /* \"--CODEGEN--\":36:48   */\n      revert\n        /* \"--CODEGEN--\":2:4   */\n    tag_41:\n        /* \"contracts/SaitaSwapPair.sol\":7439:9399  function swap(uint amount0Out, uint amount1Out, address to, bytes calldata data) external lock {... */\n      dup3\n      add\n        /* \"--CODEGEN--\":35:44   */\n      dup4\n        /* \"--CODEGEN--\":28:32   */\n      0x20\n        /* \"--CODEGEN--\":12:26   */\n      dup3\n        /* \"--CODEGEN--\":8:33   */\n      add\n        /* \"--CODEGEN--\":5:45   */\n      gt\n        /* \"--CODEGEN--\":2:4   */\n      iszero\n      tag_42\n      jumpi\n        /* \"--CODEGEN--\":58:59   */\n      0x00\n        /* \"--CODEGEN--\":55:56   */\n      dup1\n        /* \"--CODEGEN--\":48:60   */\n      revert\n        /* \"--CODEGEN--\":2:4   */\n    tag_42:\n        /* \"contracts/SaitaSwapPair.sol\":7439:9399  function swap(uint amount0Out, uint amount1Out, address to, bytes calldata data) external lock {... */\n      dup1\n      calldataload\n      swap1\n      0x20\n      add\n      swap2\n        /* \"--CODEGEN--\":100:109   */\n      dup5\n        /* \"--CODEGEN--\":95:96   */\n      0x01\n        /* \"--CODEGEN--\":81:93   */\n      dup4\n        /* \"--CODEGEN--\":77:97   */\n      mul\n        /* \"--CODEGEN--\":67:75   */\n      dup5\n        /* \"--CODEGEN--\":63:98   */\n      add\n        /* \"--CODEGEN--\":60:110   */\n      gt\n        /* \"--CODEGEN--\":39:50   */\n      0x0100000000\n        /* \"--CODEGEN--\":25:37   */\n      dup4\n        /* \"--CODEGEN--\":22:51   */\n      gt\n        /* \"--CODEGEN--\":11:118   */\n      or\n        /* \"--CODEGEN--\":8:10   */\n      iszero\n      tag_43\n      jumpi\n        /* \"--CODEGEN--\":131:132   */\n      0x00\n        /* \"--CODEGEN--\":128:129   */\n      dup1\n        /* \"--CODEGEN--\":121:133   */\n      revert\n        /* \"--CODEGEN--\":8:10   */\n    tag_43:\n        /* \"contracts/SaitaSwapPair.sol\":7439:9399  function swap(uint amount0Out, uint amount1Out, address to, bytes calldata data) external lock {... */\n      swap1\n      swap2\n      swap3\n      swap4\n      swap2\n      swap3\n      swap4\n      swap1\n      pop\n      pop\n      pop\n      tag_44\n      jump\t// in\n    tag_39:\n      stop\n        /* \"contracts/SaitaSwapERC20.sol\":223:268  string public constant name = 'SaitaSwap LPs' */\n    tag_4:\n      tag_45\n      tag_46\n      jump\t// in\n    tag_45:\n      mload(0x40)\n      dup1\n      dup1\n      0x20\n      add\n      dup3\n      dup2\n      sub\n      dup3\n      mstore\n      dup4\n      dup2\n      dup2\n      mload\n      dup2\n      mstore\n      0x20\n      add\n      swap2\n      pop\n      dup1\n      mload\n      swap1\n      0x20\n      add\n      swap1\n      dup1\n      dup4\n      dup4\n        /* \"--CODEGEN--\":23:24   */\n      0x00\n        /* \"--CODEGEN--\":8:108   */\n    tag_47:\n        /* \"--CODEGEN--\":33:36   */\n      dup4\n        /* \"--CODEGEN--\":30:31   */\n      dup2\n        /* \"--CODEGEN--\":27:37   */\n      lt\n        /* \"--CODEGEN--\":8:108   */\n      iszero\n      tag_49\n      jumpi\n        /* \"--CODEGEN--\":99:100   */\n      dup1\n        /* \"--CODEGEN--\":94:97   */\n      dup3\n        /* \"--CODEGEN--\":90:101   */\n      add\n        /* \"--CODEGEN--\":84:102   */\n      mload\n        /* \"--CODEGEN--\":80:81   */\n      dup2\n        /* \"--CODEGEN--\":75:78   */\n      dup5\n        /* \"--CODEGEN--\":71:82   */\n      add\n        /* \"--CODEGEN--\":64:103   */\n      mstore\n        /* \"--CODEGEN--\":52:54   */\n      0x20\n        /* \"--CODEGEN--\":49:50   */\n      dup2\n        /* \"--CODEGEN--\":45:55   */\n      add\n        /* \"--CODEGEN--\":40:55   */\n      swap1\n      pop\n        /* \"--CODEGEN--\":8:108   */\n      jump(tag_47)\n    tag_49:\n        /* \"--CODEGEN--\":12:26   */\n      pop\n        /* \"contracts/SaitaSwapERC20.sol\":223:268  string public constant name = 'SaitaSwap LPs' */\n      pop\n      pop\n      pop\n      swap1\n      pop\n      swap1\n      dup2\n      add\n      swap1\n      0x1f\n      and\n      dup1\n      iszero\n      tag_50\n      jumpi\n      dup1\n      dup3\n      sub\n      dup1\n      mload\n      0x01\n      dup4\n      0x20\n      sub\n      0x0100\n      exp\n      sub\n      not\n      and\n      dup2\n      mstore\n      0x20\n      add\n      swap2\n      pop\n    tag_50:\n      pop\n      swap3\n      pop\n      pop\n      pop\n      mload(0x40)\n      dup1\n      swap2\n      sub\n      swap1\n      return\n        /* \"contracts/SaitaSwapPair.sol\":1409:1636  function getReserves() public view returns (uint112 _reserve0, uint112 _reserve1, uint32 _blockTimestampLast) {... */\n    tag_5:\n      tag_51\n      tag_52\n      jump\t// in\n    tag_51:\n      mload(0x40)\n      dup1\n      dup5\n      0xffffffffffffffffffffffffffff\n      and\n      0xffffffffffffffffffffffffffff\n      and\n      dup2\n      mstore\n      0x20\n      add\n      dup4\n      0xffffffffffffffffffffffffffff\n      and\n      0xffffffffffffffffffffffffffff\n      and\n      dup2\n      mstore\n      0x20\n      add\n      dup3\n      0xffffffff\n      and\n      0xffffffff\n      and\n      dup2\n      mstore\n      0x20\n      add\n      swap4\n      pop\n      pop\n      pop\n      pop\n      mload(0x40)\n      dup1\n      swap2\n      sub\n      swap1\n      return\n        /* \"contracts/SaitaSwapERC20.sol\":2682:2826  function approve(address spender, uint value) external returns (bool) {... */\n    tag_6:\n      tag_53\n      0x04\n      dup1\n      calldatasize\n      sub\n        /* \"--CODEGEN--\":13:15   */\n      0x40\n        /* \"--CODEGEN--\":8:11   */\n      dup2\n        /* \"--CODEGEN--\":5:16   */\n      lt\n        /* \"--CODEGEN--\":2:4   */\n      iszero\n      tag_54\n      jumpi\n        /* \"--CODEGEN--\":29:30   */\n      0x00\n        /* \"--CODEGEN--\":26:27   */\n      dup1\n        /* \"--CODEGEN--\":19:31   */\n      revert\n        /* \"--CODEGEN--\":2:4   */\n    tag_54:\n        /* \"contracts/SaitaSwapERC20.sol\":2682:2826  function approve(address spender, uint value) external returns (bool) {... */\n      dup2\n      add\n      swap1\n      dup1\n      dup1\n      calldataload\n      0xffffffffffffffffffffffffffffffffffffffff\n      and\n      swap1\n      0x20\n      add\n      swap1\n      swap3\n      swap2\n      swap1\n      dup1\n      calldataload\n      swap1\n      0x20\n      add\n      swap1\n      swap3\n      swap2\n      swap1\n      pop\n      pop\n      pop\n      tag_55\n      jump\t// in\n    tag_53:\n      mload(0x40)\n      dup1\n      dup3\n      iszero\n      iszero\n      iszero\n      iszero\n      dup2\n      mstore\n      0x20\n      add\n      swap2\n      pop\n      pop\n      mload(0x40)\n      dup1\n      swap2\n      sub\n      swap1\n      return\n        /* \"contracts/SaitaSwapPair.sol\":628:649  address public token0 */\n    tag_7:\n      tag_56\n      tag_57\n      jump\t// in\n    tag_56:\n      mload(0x40)\n      dup1\n      dup3\n      0xffffffffffffffffffffffffffffffffffffffff\n      and\n      0xffffffffffffffffffffffffffffffffffffffff\n      and\n      dup2\n      mstore\n      0x20\n      add\n      swap2\n      pop\n      pop\n      mload(0x40)\n      dup1\n      swap2\n      sub\n      swap1\n      return\n        /* \"contracts/SaitaSwapERC20.sol\":358:382  uint  public totalSupply */\n    tag_8:\n      tag_58\n      tag_59\n      jump\t// in\n    tag_58:\n      mload(0x40)\n      dup1\n      dup3\n      dup2\n      mstore\n      0x20\n      add\n      swap2\n      pop\n      pop\n      mload(0x40)\n      dup1\n      swap2\n      sub\n      swap1\n      return\n        /* \"contracts/SaitaSwapERC20.sol\":2974:3269  function transferFrom(address from, address to, uint value) external returns (bool) {... */\n    tag_9:\n      tag_60\n      0x04\n      dup1\n      calldatasize\n      sub\n        /* \"--CODEGEN--\":13:15   */\n      0x60\n        /* \"--CODEGEN--\":8:11   */\n      dup2\n        /* \"--CODEGEN--\":5:16   */\n      lt\n        /* \"--CODEGEN--\":2:4   */\n      iszero\n      tag_61\n      jumpi\n        /* \"--CODEGEN--\":29:30   */\n      0x00\n        /* \"--CODEGEN--\":26:27   */\n      dup1\n        /* \"--CODEGEN--\":19:31   */\n      revert\n        /* \"--CODEGEN--\":2:4   */\n    tag_61:\n        /* \"contracts/SaitaSwapERC20.sol\":2974:3269  function transferFrom(address from, address to, uint value) external returns (bool) {... */\n      dup2\n      add\n      swap1\n      dup1\n      dup1\n      calldataload\n      0xffffffffffffffffffffffffffffffffffffffff\n      and\n      swap1\n      0x20\n      add\n      swap1\n      swap3\n      swap2\n      swap1\n      dup1\n      calldataload\n      0xffffffffffffffffffffffffffffffffffffffff\n      and\n      swap1\n      0x20\n      add\n      swap1\n      swap3\n      swap2\n      swap1\n      dup1\n      calldataload\n      swap1\n      0x20\n      add\n      swap1\n      swap3\n      swap2\n      swap1\n      pop\n      pop\n      pop\n      tag_62\n      jump\t// in\n    tag_60:\n      mload(0x40)\n      dup1\n      dup3\n      iszero\n      iszero\n      iszero\n      iszero\n      dup2\n      mstore\n      0x20\n      add\n      swap2\n      pop\n      pop\n      mload(0x40)\n      dup1\n      swap2\n      sub\n      swap1\n      return\n        /* \"contracts/SaitaSwapERC20.sol\":644:752  bytes32 public constant PERMIT_TYPEHASH = 0x6e71edae12b1b97f4d1f60370fef10105fa2faae0126114a169c64845d6126c9 */\n    tag_10:\n      tag_63\n      tag_64\n      jump\t// in\n    tag_63:\n      mload(0x40)\n      dup1\n      dup3\n      dup2\n      mstore\n      0x20\n      add\n      swap2\n      pop\n      pop\n      mload(0x40)\n      dup1\n      swap2\n      sub\n      swap1\n      return\n        /* \"contracts/SaitaSwapERC20.sol\":317:352  uint8 public constant decimals = 18 */\n    tag_11:\n      tag_65\n      tag_66\n      jump\t// in\n    tag_65:\n      mload(0x40)\n      dup1\n      dup3\n      0xff\n      and\n      0xff\n      and\n      dup2\n      mstore\n      0x20\n      add\n      swap2\n      pop\n      pop\n      mload(0x40)\n      dup1\n      swap2\n      sub\n      swap1\n      return\n        /* \"contracts/SaitaSwapERC20.sol\":503:534  bytes32 public DOMAIN_SEPARATOR */\n    tag_12:\n      tag_67\n      tag_68\n      jump\t// in\n    tag_67:\n      mload(0x40)\n      dup1\n      dup3\n      dup2\n      mstore\n      0x20\n      add\n      swap2\n      pop\n      pop\n      mload(0x40)\n      dup1\n      swap2\n      sub\n      swap1\n      return\n        /* \"contracts/SaitaSwapPair.sol\":2441:2647  function initialize(address _token0, address _token1) external {... */\n    tag_13:\n      tag_69\n      0x04\n      dup1\n      calldatasize\n      sub\n        /* \"--CODEGEN--\":13:15   */\n      0x40\n        /* \"--CODEGEN--\":8:11   */\n      dup2\n        /* \"--CODEGEN--\":5:16   */\n      lt\n        /* \"--CODEGEN--\":2:4   */\n      iszero\n      tag_70\n      jumpi\n        /* \"--CODEGEN--\":29:30   */\n      0x00\n        /* \"--CODEGEN--\":26:27   */\n      dup1\n        /* \"--CODEGEN--\":19:31   */\n      revert\n        /* \"--CODEGEN--\":2:4   */\n    tag_70:\n        /* \"contracts/SaitaSwapPair.sol\":2441:2647  function initialize(address _token0, address _token1) external {... */\n      dup2\n      add\n      swap1\n      dup1\n      dup1\n      calldataload\n      0xffffffffffffffffffffffffffffffffffffffff\n      and\n      swap1\n      0x20\n      add\n      swap1\n      swap3\n      swap2\n      swap1\n      dup1\n      calldataload\n      0xffffffffffffffffffffffffffffffffffffffff\n      and\n      swap1\n      0x20\n      add\n      swap1\n      swap3\n      swap2\n      swap1\n      pop\n      pop\n      pop\n      tag_71\n      jump\t// in\n    tag_69:\n      stop\n        /* \"contracts/SaitaSwapPair.sol\":1061:1093  uint public price0CumulativeLast */\n    tag_14:\n      tag_72\n      tag_73\n      jump\t// in\n    tag_72:\n      mload(0x40)\n      dup1\n      dup3\n      dup2\n      mstore\n      0x20\n      add\n      swap2\n      pop\n      pop\n      mload(0x40)\n      dup1\n      swap2\n      sub\n      swap1\n      return\n        /* \"contracts/SaitaSwapPair.sol\":1099:1131  uint public price1CumulativeLast */\n    tag_15:\n      tag_74\n      tag_75\n      jump\t// in\n    tag_74:\n      mload(0x40)\n      dup1\n      dup3\n      dup2\n      mstore\n      0x20\n      add\n      swap2\n      pop\n      pop\n      mload(0x40)\n      dup1\n      swap2\n      sub\n      swap1\n      return\n        /* \"contracts/SaitaSwapPair.sol\":4558:5777  function mint(address to) external lock returns (uint liquidity) {... */\n    tag_16:\n      tag_76\n      0x04\n      dup1\n      calldatasize\n      sub\n        /* \"--CODEGEN--\":13:15   */\n      0x20\n        /* \"--CODEGEN--\":8:11   */\n      dup2\n        /* \"--CODEGEN--\":5:16   */\n      lt\n        /* \"--CODEGEN--\":2:4   */\n      iszero\n      tag_77\n      jumpi\n        /* \"--CODEGEN--\":29:30   */\n      0x00\n        /* \"--CODEGEN--\":26:27   */\n      dup1\n        /* \"--CODEGEN--\":19:31   */\n      revert\n        /* \"--CODEGEN--\":2:4   */\n    tag_77:\n        /* \"contracts/SaitaSwapPair.sol\":4558:5777  function mint(address to) external lock returns (uint liquidity) {... */\n      dup2\n      add\n      swap1\n      dup1\n      dup1\n      calldataload\n      0xffffffffffffffffffffffffffffffffffffffff\n      and\n      swap1\n      0x20\n      add\n      swap1\n      swap3\n      swap2\n      swap1\n      pop\n      pop\n      pop\n      tag_78\n      jump\t// in\n    tag_76:\n      mload(0x40)\n      dup1\n      dup3\n      dup2\n      mstore\n      0x20\n      add\n      swap2\n      pop\n      pop\n      mload(0x40)\n      dup1\n      swap2\n      sub\n      swap1\n      return\n        /* \"contracts/SaitaSwapERC20.sol\":388:429  mapping(address => uint) public balanceOf */\n    tag_17:\n      tag_79\n      0x04\n      dup1\n      calldatasize\n      sub\n        /* \"--CODEGEN--\":13:15   */\n      0x20\n        /* \"--CODEGEN--\":8:11   */\n      dup2\n        /* \"--CODEGEN--\":5:16   */\n      lt\n        /* \"--CODEGEN--\":2:4   */\n      iszero\n      tag_80\n      jumpi\n        /* \"--CODEGEN--\":29:30   */\n      0x00\n        /* \"--CODEGEN--\":26:27   */\n      dup1\n        /* \"--CODEGEN--\":19:31   */\n      revert\n        /* \"--CODEGEN--\":2:4   */\n    tag_80:\n        /* \"contracts/SaitaSwapERC20.sol\":388:429  mapping(address => uint) public balanceOf */\n      dup2\n      add\n      swap1\n      dup1\n      dup1\n      calldataload\n      0xffffffffffffffffffffffffffffffffffffffff\n      and\n      swap1\n      0x20\n      add\n      swap1\n      swap3\n      swap2\n      swap1\n      pop\n      pop\n      pop\n      tag_81\n      jump\t// in\n    tag_79:\n      mload(0x40)\n      dup1\n      dup3\n      dup2\n      mstore\n      0x20\n      add\n      swap2\n      pop\n      pop\n      mload(0x40)\n      dup1\n      swap2\n      sub\n      swap1\n      return\n        /* \"contracts/SaitaSwapPair.sol\":725:762  uint public SWAP_FEE_DENOMINATOR=1000 */\n    tag_18:\n      tag_82\n      tag_83\n      jump\t// in\n    tag_82:\n      mload(0x40)\n      dup1\n      dup3\n      dup2\n      mstore\n      0x20\n      add\n      swap2\n      pop\n      pop\n      mload(0x40)\n      dup1\n      swap2\n      sub\n      swap1\n      return\n        /* \"contracts/SaitaSwapPair.sol\":1137:1154  uint public kLast */\n    tag_19:\n      tag_84\n      tag_85\n      jump\t// in\n    tag_84:\n      mload(0x40)\n      dup1\n      dup3\n      dup2\n      mstore\n      0x20\n      add\n      swap2\n      pop\n      pop\n      mload(0x40)\n      dup1\n      swap2\n      sub\n      swap1\n      return\n        /* \"contracts/SaitaSwapERC20.sol\":758:796  mapping(address => uint) public nonces */\n    tag_20:\n      tag_86\n      0x04\n      dup1\n      calldatasize\n      sub\n        /* \"--CODEGEN--\":13:15   */\n      0x20\n        /* \"--CODEGEN--\":8:11   */\n      dup2\n        /* \"--CODEGEN--\":5:16   */\n      lt\n        /* \"--CODEGEN--\":2:4   */\n      iszero\n      tag_87\n      jumpi\n        /* \"--CODEGEN--\":29:30   */\n      0x00\n        /* \"--CODEGEN--\":26:27   */\n      dup1\n        /* \"--CODEGEN--\":19:31   */\n      revert\n        /* \"--CODEGEN--\":2:4   */\n    tag_87:\n        /* \"contracts/SaitaSwapERC20.sol\":758:796  mapping(address => uint) public nonces */\n      dup2\n      add\n      swap1\n      dup1\n      dup1\n      calldataload\n      0xffffffffffffffffffffffffffffffffffffffff\n      and\n      swap1\n      0x20\n      add\n      swap1\n      swap3\n      swap2\n      swap1\n      pop\n      pop\n      pop\n      tag_88\n      jump\t// in\n    tag_86:\n      mload(0x40)\n      dup1\n      dup3\n      dup2\n      mstore\n      0x20\n      add\n      swap2\n      pop\n      pop\n      mload(0x40)\n      dup1\n      swap2\n      sub\n      swap1\n      return\n        /* \"contracts/SaitaSwapPair.sol\":5886:7330  function burn(address to) external lock returns (uint amount0, uint amount1) {... */\n    tag_21:\n      tag_89\n      0x04\n      dup1\n      calldatasize\n      sub\n        /* \"--CODEGEN--\":13:15   */\n      0x20\n        /* \"--CODEGEN--\":8:11   */\n      dup2\n        /* \"--CODEGEN--\":5:16   */\n      lt\n        /* \"--CODEGEN--\":2:4   */\n      iszero\n      tag_90\n      jumpi\n        /* \"--CODEGEN--\":29:30   */\n      0x00\n        /* \"--CODEGEN--\":26:27   */\n      dup1\n        /* \"--CODEGEN--\":19:31   */\n      revert\n        /* \"--CODEGEN--\":2:4   */\n    tag_90:\n        /* \"contracts/SaitaSwapPair.sol\":5886:7330  function burn(address to) external lock returns (uint amount0, uint amount1) {... */\n      dup2\n      add\n      swap1\n      dup1\n      dup1\n      calldataload\n      0xffffffffffffffffffffffffffffffffffffffff\n      and\n      swap1\n      0x20\n      add\n      swap1\n      swap3\n      swap2\n      swap1\n      pop\n      pop\n      pop\n      tag_91\n      jump\t// in\n    tag_89:\n      mload(0x40)\n      dup1\n      dup4\n      dup2\n      mstore\n      0x20\n      add\n      dup3\n      dup2\n      mstore\n      0x20\n      add\n      swap3\n      pop\n      pop\n      pop\n      mload(0x40)\n      dup1\n      swap2\n      sub\n      swap1\n      return\n        /* \"contracts/SaitaSwapERC20.sol\":274:311  string public constant symbol = 'slp' */\n    tag_22:\n      tag_92\n      tag_93\n      jump\t// in\n    tag_92:\n      mload(0x40)\n      dup1\n      dup1\n      0x20\n      add\n      dup3\n      dup2\n      sub\n      dup3\n      mstore\n      dup4\n      dup2\n      dup2\n      mload\n      dup2\n      mstore\n      0x20\n      add\n      swap2\n      pop\n      dup1\n      mload\n      swap1\n      0x20\n      add\n      swap1\n      dup1\n      dup4\n      dup4\n        /* \"--CODEGEN--\":23:24   */\n      0x00\n        /* \"--CODEGEN--\":8:108   */\n    tag_94:\n        /* \"--CODEGEN--\":33:36   */\n      dup4\n        /* \"--CODEGEN--\":30:31   */\n      dup2\n        /* \"--CODEGEN--\":27:37   */\n      lt\n        /* \"--CODEGEN--\":8:108   */\n      iszero\n      tag_96\n      jumpi\n        /* \"--CODEGEN--\":99:100   */\n      dup1\n        /* \"--CODEGEN--\":94:97   */\n      dup3\n        /* \"--CODEGEN--\":90:101   */\n      add\n        /* \"--CODEGEN--\":84:102   */\n      mload\n        /* \"--CODEGEN--\":80:81   */\n      dup2\n        /* \"--CODEGEN--\":75:78   */\n      dup5\n        /* \"--CODEGEN--\":71:82   */\n      add\n        /* \"--CODEGEN--\":64:103   */\n      mstore\n        /* \"--CODEGEN--\":52:54   */\n      0x20\n        /* \"--CODEGEN--\":49:50   */\n      dup2\n        /* \"--CODEGEN--\":45:55   */\n      add\n        /* \"--CODEGEN--\":40:55   */\n      swap1\n      pop\n        /* \"--CODEGEN--\":8:108   */\n      jump(tag_94)\n    tag_96:\n        /* \"--CODEGEN--\":12:26   */\n      pop\n        /* \"contracts/SaitaSwapERC20.sol\":274:311  string public constant symbol = 'slp' */\n      pop\n      pop\n      pop\n      swap1\n      pop\n      swap1\n      dup2\n      add\n      swap1\n      0x1f\n      and\n      dup1\n      iszero\n      tag_97\n      jumpi\n      dup1\n      dup3\n      sub\n      dup1\n      mload\n      0x01\n      dup4\n      0x20\n      sub\n      0x0100\n      exp\n      sub\n      not\n      and\n      dup2\n      mstore\n      0x20\n      add\n      swap2\n      pop\n    tag_97:\n      pop\n      swap3\n      pop\n      pop\n      pop\n      mload(0x40)\n      dup1\n      swap2\n      sub\n      swap1\n      return\n        /* \"contracts/SaitaSwapERC20.sol\":2832:2968  function transfer(address to, uint value) external returns (bool) {... */\n    tag_23:\n      tag_98\n      0x04\n      dup1\n      calldatasize\n      sub\n        /* \"--CODEGEN--\":13:15   */\n      0x40\n        /* \"--CODEGEN--\":8:11   */\n      dup2\n        /* \"--CODEGEN--\":5:16   */\n      lt\n        /* \"--CODEGEN--\":2:4   */\n      iszero\n      tag_99\n      jumpi\n        /* \"--CODEGEN--\":29:30   */\n      0x00\n        /* \"--CODEGEN--\":26:27   */\n      dup1\n        /* \"--CODEGEN--\":19:31   */\n      revert\n        /* \"--CODEGEN--\":2:4   */\n    tag_99:\n        /* \"contracts/SaitaSwapERC20.sol\":2832:2968  function transfer(address to, uint value) external returns (bool) {... */\n      dup2\n      add\n      swap1\n      dup1\n      dup1\n      calldataload\n      0xffffffffffffffffffffffffffffffffffffffff\n      and\n      swap1\n      0x20\n      add\n      swap1\n      swap3\n      swap2\n      swap1\n      dup1\n      calldataload\n      swap1\n      0x20\n      add\n      swap1\n      swap3\n      swap2\n      swap1\n      pop\n      pop\n      pop\n      tag_100\n      jump\t// in\n    tag_98:\n      mload(0x40)\n      dup1\n      dup3\n      iszero\n      iszero\n      iszero\n      iszero\n      dup2\n      mstore\n      0x20\n      add\n      swap2\n      pop\n      pop\n      mload(0x40)\n      dup1\n      swap2\n      sub\n      swap1\n      return\n        /* \"contracts/SaitaSwapPair.sol\":453:499  uint public constant MINIMUM_LIQUIDITY = 10**3 */\n    tag_24:\n      tag_101\n      tag_102\n      jump\t// in\n    tag_101:\n      mload(0x40)\n      dup1\n      dup3\n      dup2\n      mstore\n      0x20\n      add\n      swap2\n      pop\n      pop\n      mload(0x40)\n      dup1\n      swap2\n      sub\n      swap1\n      return\n        /* \"contracts/SaitaSwapPair.sol\":9445:9774  function skim(address to) external lock {... */\n    tag_25:\n      tag_103\n      0x04\n      dup1\n      calldatasize\n      sub\n        /* \"--CODEGEN--\":13:15   */\n      0x20\n        /* \"--CODEGEN--\":8:11   */\n      dup2\n        /* \"--CODEGEN--\":5:16   */\n      lt\n        /* \"--CODEGEN--\":2:4   */\n      iszero\n      tag_104\n      jumpi\n        /* \"--CODEGEN--\":29:30   */\n      0x00\n        /* \"--CODEGEN--\":26:27   */\n      dup1\n        /* \"--CODEGEN--\":19:31   */\n      revert\n        /* \"--CODEGEN--\":2:4   */\n    tag_104:\n        /* \"contracts/SaitaSwapPair.sol\":9445:9774  function skim(address to) external lock {... */\n      dup2\n      add\n      swap1\n      dup1\n      dup1\n      calldataload\n      0xffffffffffffffffffffffffffffffffffffffff\n      and\n      swap1\n      0x20\n      add\n      swap1\n      swap3\n      swap2\n      swap1\n      pop\n      pop\n      pop\n      tag_105\n      jump\t// in\n    tag_103:\n      stop\n        /* \"contracts/SaitaSwapPair.sol\":687:719  uint public SWAP_FEE_NUMERATOR=2 */\n    tag_26:\n      tag_106\n      tag_107\n      jump\t// in\n    tag_106:\n      mload(0x40)\n      dup1\n      dup3\n      dup2\n      mstore\n      0x20\n      add\n      swap2\n      pop\n      pop\n      mload(0x40)\n      dup1\n      swap2\n      sub\n      swap1\n      return\n        /* \"contracts/SaitaSwapPair.sol\":600:622  address public factory */\n    tag_27:\n      tag_108\n      tag_109\n      jump\t// in\n    tag_108:\n      mload(0x40)\n      dup1\n      dup3\n      0xffffffffffffffffffffffffffffffffffffffff\n      and\n      0xffffffffffffffffffffffffffffffffffffffff\n      and\n      dup2\n      mstore\n      0x20\n      add\n      swap2\n      pop\n      pop\n      mload(0x40)\n      dup1\n      swap2\n      sub\n      swap1\n      return\n        /* \"contracts/SaitaSwapPair.sol\":655:676  address public token1 */\n    tag_28:\n      tag_110\n      tag_111\n      jump\t// in\n    tag_110:\n      mload(0x40)\n      dup1\n      dup3\n      0xffffffffffffffffffffffffffffffffffffffff\n      and\n      0xffffffffffffffffffffffffffffffffffffffff\n      and\n      dup2\n      mstore\n      0x20\n      add\n      swap2\n      pop\n      pop\n      mload(0x40)\n      dup1\n      swap2\n      sub\n      swap1\n      return\n        /* \"contracts/SaitaSwapERC20.sol\":3275:3945  function permit(address owner, address spender, uint value, uint deadline, uint8 v, bytes32 r, bytes32 s) external ReChain {... */\n    tag_29:\n      tag_112\n      0x04\n      dup1\n      calldatasize\n      sub\n        /* \"--CODEGEN--\":13:16   */\n      0xe0\n        /* \"--CODEGEN--\":8:11   */\n      dup2\n        /* \"--CODEGEN--\":5:17   */\n      lt\n        /* \"--CODEGEN--\":2:4   */\n      iszero\n      tag_113\n      jumpi\n        /* \"--CODEGEN--\":30:31   */\n      0x00\n        /* \"--CODEGEN--\":27:28   */\n      dup1\n        /* \"--CODEGEN--\":20:32   */\n      revert\n        /* \"--CODEGEN--\":2:4   */\n    tag_113:\n        /* \"contracts/SaitaSwapERC20.sol\":3275:3945  function permit(address owner, address spender, uint value, uint deadline, uint8 v, bytes32 r, bytes32 s) external ReChain {... */\n      dup2\n      add\n      swap1\n      dup1\n      dup1\n      calldataload\n      0xffffffffffffffffffffffffffffffffffffffff\n      and\n      swap1\n      0x20\n      add\n      swap1\n      swap3\n      swap2\n      swap1\n      dup1\n      calldataload\n      0xffffffffffffffffffffffffffffffffffffffff\n      and\n      swap1\n      0x20\n      add\n      swap1\n      swap3\n      swap2\n      swap1\n      dup1\n      calldataload\n      swap1\n      0x20\n      add\n      swap1\n      swap3\n      swap2\n      swap1\n      dup1\n      calldataload\n      swap1\n      0x20\n      add\n      swap1\n      swap3\n      swap2\n      swap1\n      dup1\n      calldataload\n      0xff\n      and\n      swap1\n      0x20\n      add\n      swap1\n      swap3\n      swap2\n      swap1\n      dup1\n      calldataload\n      swap1\n      0x20\n      add\n      swap1\n      swap3\n      swap2\n      swap1\n      dup1\n      calldataload\n      swap1\n      0x20\n      add\n      swap1\n      swap3\n      swap2\n      swap1\n      pop\n      pop\n      pop\n      tag_114\n      jump\t// in\n    tag_112:\n      stop\n        /* \"contracts/SaitaSwapERC20.sol\":435:496  mapping(address => mapping(address => uint)) public allowance */\n    tag_30:\n      tag_115\n      0x04\n      dup1\n      calldatasize\n      sub\n        /* \"--CODEGEN--\":13:15   */\n      0x40\n        /* \"--CODEGEN--\":8:11   */\n      dup2\n        /* \"--CODEGEN--\":5:16   */\n      lt\n        /* \"--CODEGEN--\":2:4   */\n      iszero\n      tag_116\n      jumpi\n        /* \"--CODEGEN--\":29:30   */\n      0x00\n        /* \"--CODEGEN--\":26:27   */\n      dup1\n        /* \"--CODEGEN--\":19:31   */\n      revert\n        /* \"--CODEGEN--\":2:4   */\n    tag_116:\n        /* \"contracts/SaitaSwapERC20.sol\":435:496  mapping(address => mapping(address => uint)) public allowance */\n      dup2\n      add\n      swap1\n      dup1\n      dup1\n      calldataload\n      0xffffffffffffffffffffffffffffffffffffffff\n      and\n      swap1\n      0x20\n      add\n      swap1\n      swap3\n      swap2\n      swap1\n      dup1\n      calldataload\n      0xffffffffffffffffffffffffffffffffffffffff\n      and\n      swap1\n      0x20\n      add\n      swap1\n      swap3\n      swap2\n      swap1\n      pop\n      pop\n      pop\n      tag_117\n      jump\t// in\n    tag_115:\n      mload(0x40)\n      dup1\n      dup3\n      dup2\n      mstore\n      0x20\n      add\n      swap2\n      pop\n      pop\n      mload(0x40)\n      dup1\n      swap2\n      sub\n      swap1\n      return\n        /* \"contracts/SaitaSwapPair.sol\":9820:9976  function sync() external lock {... */\n    tag_31:\n      tag_118\n      tag_119\n      jump\t// in\n    tag_118:\n      stop\n        /* \"contracts/SaitaSwapPair.sol\":7439:9399  function swap(uint amount0Out, uint amount1Out, address to, bytes calldata data) external lock {... */\n    tag_44:\n        /* \"contracts/SaitaSwapPair.sol\":1318:1319  1 */\n      0x01\n        /* \"contracts/SaitaSwapPair.sol\":1306:1314  unlocked */\n      sload(0x0e)\n        /* \"contracts/SaitaSwapPair.sol\":1306:1319  unlocked == 1 */\n      eq\n        /* \"contracts/SaitaSwapPair.sol\":1298:1341  require(unlocked == 1, 'SaitaSwap: LOCKED') */\n      tag_121\n      jumpi\n      mload(0x40)\n      0x08c379a000000000000000000000000000000000000000000000000000000000\n      dup2\n      mstore\n      0x04\n      add\n      dup1\n      dup1\n      0x20\n      add\n      dup3\n      dup2\n      sub\n      dup3\n      mstore\n      0x11\n      dup2\n      mstore\n      0x20\n      add\n      dup1\n      0x5361697461537761703a204c4f434b4544000000000000000000000000000000\n      dup2\n      mstore\n      pop\n      0x20\n      add\n      swap2\n      pop\n      pop\n      mload(0x40)\n      dup1\n      swap2\n      sub\n      swap1\n      revert\n    tag_121:\n        /* \"contracts/SaitaSwapPair.sol\":1362:1363  0 */\n      0x00\n        /* \"contracts/SaitaSwapPair.sol\":1351:1359  unlocked */\n      0x0e\n        /* \"contracts/SaitaSwapPair.sol\":1351:1363  unlocked = 0 */\n      dup2\n      swap1\n      sstore\n      pop\n        /* \"contracts/SaitaSwapPair.sol\":7565:7566  0 */\n      0x00\n        /* \"contracts/SaitaSwapPair.sol\":7552:7562  amount0Out */\n      dup6\n        /* \"contracts/SaitaSwapPair.sol\":7552:7566  amount0Out > 0 */\n      gt\n        /* \"contracts/SaitaSwapPair.sol\":7552:7584  amount0Out > 0 || amount1Out > 0 */\n      dup1\n      tag_123\n      jumpi\n      pop\n        /* \"contracts/SaitaSwapPair.sol\":7583:7584  0 */\n      0x00\n        /* \"contracts/SaitaSwapPair.sol\":7570:7580  amount1Out */\n      dup5\n        /* \"contracts/SaitaSwapPair.sol\":7570:7584  amount1Out > 0 */\n      gt\n        /* \"contracts/SaitaSwapPair.sol\":7552:7584  amount0Out > 0 || amount1Out > 0 */\n    tag_123:\n        /* \"contracts/SaitaSwapPair.sol\":7544:7626  require(amount0Out > 0 || amount1Out > 0, 'SaitaSwap: INSUFFICIENT_OUTPUT_AMOUNT') */\n      tag_124\n      jumpi\n      mload(0x40)\n      0x08c379a000000000000000000000000000000000000000000000000000000000\n      dup2\n      mstore\n      0x04\n      add\n      dup1\n      dup1\n      0x20\n      add\n      dup3\n      dup2\n      sub\n      dup3\n      mstore\n      0x25\n      dup2\n      mstore\n      0x20\n      add\n      dup1\n      data_8fc7f9c8d80b681ea54bd06a118a94fe4d1bef35d2499ddb0eb71b6a664bd6ba\n      0x25\n      swap2\n      codecopy\n      0x40\n      add\n      swap2\n      pop\n      pop\n      mload(0x40)\n      dup1\n      swap2\n      sub\n      swap1\n      revert\n    tag_124:\n        /* \"contracts/SaitaSwapPair.sol\":7637:7654  uint112 _reserve0 */\n      0x00\n        /* \"contracts/SaitaSwapPair.sol\":7656:7673  uint112 _reserve1 */\n      dup1\n        /* \"contracts/SaitaSwapPair.sol\":7678:7691  getReserves() */\n      tag_125\n        /* \"contracts/SaitaSwapPair.sol\":7678:7689  getReserves */\n      tag_52\n        /* \"contracts/SaitaSwapPair.sol\":7678:7691  getReserves() */\n      jump\t// in\n    tag_125:\n        /* \"contracts/SaitaSwapPair.sol\":7636:7691  (uint112 _reserve0, uint112 _reserve1,) = getReserves() */\n      pop\n      swap2\n      pop\n      swap2\n      pop\n        /* \"contracts/SaitaSwapPair.sol\":7737:7746  _reserve0 */\n      dup2\n        /* \"contracts/SaitaSwapPair.sol\":7724:7746  amount0Out < _reserve0 */\n      0xffffffffffffffffffffffffffff\n      and\n        /* \"contracts/SaitaSwapPair.sol\":7724:7734  amount0Out */\n      dup8\n        /* \"contracts/SaitaSwapPair.sol\":7724:7746  amount0Out < _reserve0 */\n      lt\n        /* \"contracts/SaitaSwapPair.sol\":7724:7772  amount0Out < _reserve0 && amount1Out < _reserve1 */\n      dup1\n      iszero\n      tag_126\n      jumpi\n      pop\n        /* \"contracts/SaitaSwapPair.sol\":7763:7772  _reserve1 */\n      dup1\n        /* \"contracts/SaitaSwapPair.sol\":7750:7772  amount1Out < _reserve1 */\n      0xffffffffffffffffffffffffffff\n      and\n        /* \"contracts/SaitaSwapPair.sol\":7750:7760  amount1Out */\n      dup7\n        /* \"contracts/SaitaSwapPair.sol\":7750:7772  amount1Out < _reserve1 */\n      lt\n        /* \"contracts/SaitaSwapPair.sol\":7724:7772  amount0Out < _reserve0 && amount1Out < _reserve1 */\n    tag_126:\n        /* \"contracts/SaitaSwapPair.sol\":7716:7810  require(amount0Out < _reserve0 && amount1Out < _reserve1, 'SaitaSwap: INSUFFICIENT_LIQUIDITY') */\n      tag_127\n      jumpi\n      mload(0x40)\n      0x08c379a000000000000000000000000000000000000000000000000000000000\n      dup2\n      mstore\n      0x04\n      add\n      dup1\n      dup1\n      0x20\n      add\n      dup3\n      dup2\n      sub\n      dup3\n      mstore\n      0x21\n      dup2\n      mstore\n      0x20\n      add\n      dup1\n      data_5017166a195bb30912ef8c95a2dee0e03788aa587911ab5bc5bbf5cd0090e903\n      0x21\n      swap2\n      codecopy\n      0x40\n      add\n      swap2\n      pop\n      pop\n      mload(0x40)\n      dup1\n      swap2\n      sub\n      swap1\n      revert\n    tag_127:\n        /* \"contracts/SaitaSwapPair.sol\":7821:7834  uint balance0 */\n      0x00\n        /* \"contracts/SaitaSwapPair.sol\":7844:7857  uint balance1 */\n      dup1\n        /* \"contracts/SaitaSwapPair.sol\":7932:7947  address _token0 */\n      0x00\n        /* \"contracts/SaitaSwapPair.sol\":7950:7956  token0 */\n      0x06\n      0x00\n      swap1\n      sload\n      swap1\n      0x0100\n      exp\n      swap1\n      div\n      0xffffffffffffffffffffffffffffffffffffffff\n      and\n        /* \"contracts/SaitaSwapPair.sol\":7932:7956  address _token0 = token0 */\n      swap1\n      pop\n        /* \"contracts/SaitaSwapPair.sol\":7966:7981  address _token1 */\n      0x00\n        /* \"contracts/SaitaSwapPair.sol\":7984:7990  token1 */\n      0x07\n      0x00\n      swap1\n      sload\n      swap1\n      0x0100\n      exp\n      swap1\n      div\n      0xffffffffffffffffffffffffffffffffffffffff\n      and\n        /* \"contracts/SaitaSwapPair.sol\":7966:7990  address _token1 = token1 */\n      swap1\n      pop\n        /* \"contracts/SaitaSwapPair.sol\":8014:8021  _token0 */\n      dup2\n        /* \"contracts/SaitaSwapPair.sol\":8008:8021  to != _token0 */\n      0xffffffffffffffffffffffffffffffffffffffff\n      and\n        /* \"contracts/SaitaSwapPair.sol\":8008:8010  to */\n      dup10\n        /* \"contracts/SaitaSwapPair.sol\":8008:8021  to != _token0 */\n      0xffffffffffffffffffffffffffffffffffffffff\n      and\n      eq\n      iszero\n        /* \"contracts/SaitaSwapPair.sol\":8008:8038  to != _token0 && to != _token1 */\n      dup1\n      iszero\n      tag_128\n      jumpi\n      pop\n        /* \"contracts/SaitaSwapPair.sol\":8031:8038  _token1 */\n      dup1\n        /* \"contracts/SaitaSwapPair.sol\":8025:8038  to != _token1 */\n      0xffffffffffffffffffffffffffffffffffffffff\n      and\n        /* \"contracts/SaitaSwapPair.sol\":8025:8027  to */\n      dup10\n        /* \"contracts/SaitaSwapPair.sol\":8025:8038  to != _token1 */\n      0xffffffffffffffffffffffffffffffffffffffff\n      and\n      eq\n      iszero\n        /* \"contracts/SaitaSwapPair.sol\":8008:8038  to != _token0 && to != _token1 */\n    tag_128:\n        /* \"contracts/SaitaSwapPair.sol\":8000:8064  require(to != _token0 && to != _token1, 'SaitaSwap: INVALID_TO') */\n      tag_129\n      jumpi\n      mload(0x40)\n      0x08c379a000000000000000000000000000000000000000000000000000000000\n      dup2\n      mstore\n      0x04\n      add\n      dup1\n      dup1\n      0x20\n      add\n      dup3\n      dup2\n      sub\n      dup3\n      mstore\n      0x15\n      dup2\n      mstore\n      0x20\n      add\n      dup1\n      0x5361697461537761703a20494e56414c49445f544f0000000000000000000000\n      dup2\n      mstore\n      pop\n      0x20\n      add\n      swap2\n      pop\n      pop\n      mload(0x40)\n      dup1\n      swap2\n      sub\n      swap1\n      revert\n    tag_129:\n        /* \"contracts/SaitaSwapPair.sol\":8091:8092  0 */\n      0x00\n        /* \"contracts/SaitaSwapPair.sol\":8078:8088  amount0Out */\n      dup12\n        /* \"contracts/SaitaSwapPair.sol\":8078:8092  amount0Out > 0 */\n      gt\n        /* \"contracts/SaitaSwapPair.sol\":8074:8132  if (amount0Out > 0) _safeTransfer(_token0, to, amount0Out) */\n      iszero\n      tag_130\n      jumpi\n        /* \"contracts/SaitaSwapPair.sol\":8094:8132  _safeTransfer(_token0, to, amount0Out) */\n      tag_131\n        /* \"contracts/SaitaSwapPair.sol\":8108:8115  _token0 */\n      dup3\n        /* \"contracts/SaitaSwapPair.sol\":8117:8119  to */\n      dup11\n        /* \"contracts/SaitaSwapPair.sol\":8121:8131  amount0Out */\n      dup14\n        /* \"contracts/SaitaSwapPair.sol\":8094:8107  _safeTransfer */\n      tag_132\n        /* \"contracts/SaitaSwapPair.sol\":8094:8132  _safeTransfer(_token0, to, amount0Out) */\n      jump\t// in\n    tag_131:\n        /* \"contracts/SaitaSwapPair.sol\":8074:8132  if (amount0Out > 0) _safeTransfer(_token0, to, amount0Out) */\n    tag_130:\n        /* \"contracts/SaitaSwapPair.sol\":8193:8194  0 */\n      0x00\n        /* \"contracts/SaitaSwapPair.sol\":8180:8190  amount1Out */\n      dup11\n        /* \"contracts/SaitaSwapPair.sol\":8180:8194  amount1Out > 0 */\n      gt\n        /* \"contracts/SaitaSwapPair.sol\":8176:8234  if (amount1Out > 0) _safeTransfer(_token1, to, amount1Out) */\n      iszero\n      tag_133\n      jumpi\n        /* \"contracts/SaitaSwapPair.sol\":8196:8234  _safeTransfer(_token1, to, amount1Out) */\n      tag_134\n        /* \"contracts/SaitaSwapPair.sol\":8210:8217  _token1 */\n      dup2\n        /* \"contracts/SaitaSwapPair.sol\":8219:8221  to */\n      dup11\n        /* \"contracts/SaitaSwapPair.sol\":8223:8233  amount1Out */\n      dup13\n        /* \"contracts/SaitaSwapPair.sol\":8196:8209  _safeTransfer */\n      tag_132\n        /* \"contracts/SaitaSwapPair.sol\":8196:8234  _safeTransfer(_token1, to, amount1Out) */\n      jump\t// in\n    tag_134:\n        /* \"contracts/SaitaSwapPair.sol\":8176:8234  if (amount1Out > 0) _safeTransfer(_token1, to, amount1Out) */\n    tag_133:\n        /* \"contracts/SaitaSwapPair.sol\":8296:8297  0 */\n      0x00\n        /* \"contracts/SaitaSwapPair.sol\":8282:8286  data */\n      dup9\n      dup9\n        /* \"contracts/SaitaSwapPair.sol\":8282:8293  data.length */\n      swap1\n      pop\n        /* \"contracts/SaitaSwapPair.sol\":8282:8297  data.length > 0 */\n      gt\n        /* \"contracts/SaitaSwapPair.sol\":8278:8375  if (data.length > 0) ISaitaSwapCallee(to).SaitaSwapCall(msg.sender, amount0Out, amount1Out, data) */\n      iszero\n      tag_135\n      jumpi\n        /* \"contracts/SaitaSwapPair.sol\":8316:8318  to */\n      dup9\n        /* \"contracts/SaitaSwapPair.sol\":8299:8333  ISaitaSwapCallee(to).SaitaSwapCall */\n      0xffffffffffffffffffffffffffffffffffffffff\n      and\n      0xfe1b3a66\n        /* \"contracts/SaitaSwapPair.sol\":8334:8344  msg.sender */\n      caller\n        /* \"contracts/SaitaSwapPair.sol\":8346:8356  amount0Out */\n      dup14\n        /* \"contracts/SaitaSwapPair.sol\":8358:8368  amount1Out */\n      dup14\n        /* \"contracts/SaitaSwapPair.sol\":8370:8374  data */\n      dup13\n      dup13\n        /* \"contracts/SaitaSwapPair.sol\":8299:8375  ISaitaSwapCallee(to).SaitaSwapCall(msg.sender, amount0Out, amount1Out, data) */\n      mload(0x40)\n      dup7\n      0xffffffff\n      and\n      0xe0\n      shl\n      dup2\n      mstore\n      0x04\n      add\n      dup1\n      dup7\n      0xffffffffffffffffffffffffffffffffffffffff\n      and\n      0xffffffffffffffffffffffffffffffffffffffff\n      and\n      dup2\n      mstore\n      0x20\n      add\n      dup6\n      dup2\n      mstore\n      0x20\n      add\n      dup5\n      dup2\n      mstore\n      0x20\n      add\n      dup1\n      0x20\n      add\n      dup3\n      dup2\n      sub\n      dup3\n      mstore\n      dup5\n      dup5\n      dup3\n      dup2\n      dup2\n      mstore\n      0x20\n      add\n      swap3\n      pop\n        /* \"--CODEGEN--\":30:33   */\n      dup1\n        /* \"--CODEGEN--\":22:28   */\n      dup3\n        /* \"--CODEGEN--\":14:20   */\n      dup5\n        /* \"--CODEGEN--\":1:34   */\n      calldatacopy\n        /* \"--CODEGEN--\":99:100   */\n      0x00\n        /* \"--CODEGEN--\":93:96   */\n      dup2\n        /* \"--CODEGEN--\":85:91   */\n      dup5\n        /* \"--CODEGEN--\":81:97   */\n      add\n        /* \"--CODEGEN--\":74:101   */\n      mstore\n        /* \"--CODEGEN--\":137:141   */\n      0x1f\n        /* \"--CODEGEN--\":133:142   */\n      not\n        /* \"--CODEGEN--\":126:130   */\n      0x1f\n        /* \"--CODEGEN--\":121:124   */\n      dup3\n        /* \"--CODEGEN--\":117:131   */\n      add\n        /* \"--CODEGEN--\":113:143   */\n      and\n        /* \"--CODEGEN--\":106:143   */\n      swap1\n      pop\n        /* \"--CODEGEN--\":169:172   */\n      dup1\n        /* \"--CODEGEN--\":161:167   */\n      dup4\n        /* \"--CODEGEN--\":157:173   */\n      add\n        /* \"--CODEGEN--\":147:173   */\n      swap3\n      pop\n        /* \"contracts/SaitaSwapPair.sol\":8299:8375  ISaitaSwapCallee(to).SaitaSwapCall(msg.sender, amount0Out, amount1Out, data) */\n      pop\n      pop\n      swap7\n      pop\n      pop\n      pop\n      pop\n      pop\n      pop\n      pop\n      0x00\n      mload(0x40)\n      dup1\n      dup4\n      sub\n      dup2\n      0x00\n      dup8\n      dup1\n      extcodesize\n      iszero\n        /* \"--CODEGEN--\":8:17   */\n      dup1\n        /* \"--CODEGEN--\":5:7   */\n      iszero\n      tag_136\n      jumpi\n        /* \"--CODEGEN--\":30:31   */\n      0x00\n        /* \"--CODEGEN--\":27:28   */\n      dup1\n        /* \"--CODEGEN--\":20:32   */\n      revert\n        /* \"--CODEGEN--\":5:7   */\n    tag_136:\n        /* \"contracts/SaitaSwapPair.sol\":8299:8375  ISaitaSwapCallee(to).SaitaSwapCall(msg.sender, amount0Out, amount1Out, data) */\n      pop\n      gas\n      call\n      iszero\n        /* \"--CODEGEN--\":8:17   */\n      dup1\n        /* \"--CODEGEN--\":5:7   */\n      iszero\n      tag_137\n      jumpi\n        /* \"--CODEGEN--\":45:61   */\n      returndatasize\n        /* \"--CODEGEN--\":42:43   */\n      0x00\n        /* \"--CODEGEN--\":39:40   */\n      dup1\n        /* \"--CODEGEN--\":24:62   */\n      returndatacopy\n        /* \"--CODEGEN--\":77:93   */\n      returndatasize\n        /* \"--CODEGEN--\":74:75   */\n      0x00\n        /* \"--CODEGEN--\":67:94   */\n      revert\n        /* \"--CODEGEN--\":5:7   */\n    tag_137:\n        /* \"contracts/SaitaSwapPair.sol\":8299:8375  ISaitaSwapCallee(to).SaitaSwapCall(msg.sender, amount0Out, amount1Out, data) */\n      pop\n      pop\n      pop\n      pop\n        /* \"contracts/SaitaSwapPair.sol\":8278:8375  if (data.length > 0) ISaitaSwapCallee(to).SaitaSwapCall(msg.sender, amount0Out, amount1Out, data) */\n    tag_135:\n        /* \"contracts/SaitaSwapPair.sol\":8403:8410  _token0 */\n      dup2\n        /* \"contracts/SaitaSwapPair.sol\":8396:8421  IERC20(_token0).balanceOf */\n      0xffffffffffffffffffffffffffffffffffffffff\n      and\n      0x70a08231\n        /* \"contracts/SaitaSwapPair.sol\":8430:8434  this */\n      address\n        /* \"contracts/SaitaSwapPair.sol\":8396:8436  IERC20(_token0).balanceOf(address(this)) */\n      mload(0x40)\n      dup3\n      0xffffffff\n      and\n      0xe0\n      shl\n      dup2\n      mstore\n      0x04\n      add\n      dup1\n      dup3\n      0xffffffffffffffffffffffffffffffffffffffff\n      and\n      0xffffffffffffffffffffffffffffffffffffffff\n      and\n      dup2\n      mstore\n      0x20\n      add\n      swap2\n      pop\n      pop\n      0x20\n      mload(0x40)\n      dup1\n      dup4\n      sub\n      dup2\n      dup7\n      dup1\n      extcodesize\n      iszero\n        /* \"--CODEGEN--\":8:17   */\n      dup1\n        /* \"--CODEGEN--\":5:7   */\n      iszero\n      tag_138\n      jumpi\n        /* \"--CODEGEN--\":30:31   */\n      0x00\n        /* \"--CODEGEN--\":27:28   */\n      dup1\n        /* \"--CODEGEN--\":20:32   */\n      revert\n        /* \"--CODEGEN--\":5:7   */\n    tag_138:\n        /* \"contracts/SaitaSwapPair.sol\":8396:8436  IERC20(_token0).balanceOf(address(this)) */\n      pop\n      gas\n      staticcall\n      iszero\n        /* \"--CODEGEN--\":8:17   */\n      dup1\n        /* \"--CODEGEN--\":5:7   */\n      iszero\n      tag_139\n      jumpi\n        /* \"--CODEGEN--\":45:61   */\n      returndatasize\n        /* \"--CODEGEN--\":42:43   */\n      0x00\n        /* \"--CODEGEN--\":39:40   */\n      dup1\n        /* \"--CODEGEN--\":24:62   */\n      returndatacopy\n        /* \"--CODEGEN--\":77:93   */\n      returndatasize\n        /* \"--CODEGEN--\":74:75   */\n      0x00\n        /* \"--CODEGEN--\":67:94   */\n      revert\n        /* \"--CODEGEN--\":5:7   */\n    tag_139:\n        /* \"contracts/SaitaSwapPair.sol\":8396:8436  IERC20(_token0).balanceOf(address(this)) */\n      pop\n      pop\n      pop\n      pop\n      mload(0x40)\n      returndatasize\n        /* \"--CODEGEN--\":13:15   */\n      0x20\n        /* \"--CODEGEN--\":8:11   */\n      dup2\n        /* \"--CODEGEN--\":5:16   */\n      lt\n        /* \"--CODEGEN--\":2:4   */\n      iszero\n      tag_140\n      jumpi\n        /* \"--CODEGEN--\":29:30   */\n      0x00\n        /* \"--CODEGEN--\":26:27   */\n      dup1\n        /* \"--CODEGEN--\":19:31   */\n      revert\n        /* \"--CODEGEN--\":2:4   */\n    tag_140:\n        /* \"contracts/SaitaSwapPair.sol\":8396:8436  IERC20(_token0).balanceOf(address(this)) */\n      dup2\n      add\n      swap1\n      dup1\n      dup1\n      mload\n      swap1\n      0x20\n      add\n      swap1\n      swap3\n      swap2\n      swap1\n      pop\n      pop\n      pop\n        /* \"contracts/SaitaSwapPair.sol\":8385:8436  balance0 = IERC20(_token0).balanceOf(address(this)) */\n      swap4\n      pop\n        /* \"contracts/SaitaSwapPair.sol\":8464:8471  _token1 */\n      dup1\n        /* \"contracts/SaitaSwapPair.sol\":8457:8482  IERC20(_token1).balanceOf */\n      0xffffffffffffffffffffffffffffffffffffffff\n      and\n      0x70a08231\n        /* \"contracts/SaitaSwapPair.sol\":8491:8495  this */\n      address\n        /* \"contracts/SaitaSwapPair.sol\":8457:8497  IERC20(_token1).balanceOf(address(this)) */\n      mload(0x40)\n      dup3\n      0xffffffff\n      and\n      0xe0\n      shl\n      dup2\n      mstore\n      0x04\n      add\n      dup1\n      dup3\n      0xffffffffffffffffffffffffffffffffffffffff\n      and\n      0xffffffffffffffffffffffffffffffffffffffff\n      and\n      dup2\n      mstore\n      0x20\n      add\n      swap2\n      pop\n      pop\n      0x20\n      mload(0x40)\n      dup1\n      dup4\n      sub\n      dup2\n      dup7\n      dup1\n      extcodesize\n      iszero\n        /* \"--CODEGEN--\":8:17   */\n      dup1\n        /* \"--CODEGEN--\":5:7   */\n      iszero\n      tag_141\n      jumpi\n        /* \"--CODEGEN--\":30:31   */\n      0x00\n        /* \"--CODEGEN--\":27:28   */\n      dup1\n        /* \"--CODEGEN--\":20:32   */\n      revert\n        /* \"--CODEGEN--\":5:7   */\n    tag_141:\n        /* \"contracts/SaitaSwapPair.sol\":8457:8497  IERC20(_token1).balanceOf(address(this)) */\n      pop\n      gas\n      staticcall\n      iszero\n        /* \"--CODEGEN--\":8:17   */\n      dup1\n        /* \"--CODEGEN--\":5:7   */\n      iszero\n      tag_142\n      jumpi\n        /* \"--CODEGEN--\":45:61   */\n      returndatasize\n        /* \"--CODEGEN--\":42:43   */\n      0x00\n        /* \"--CODEGEN--\":39:40   */\n      dup1\n        /* \"--CODEGEN--\":24:62   */\n      returndatacopy\n        /* \"--CODEGEN--\":77:93   */\n      returndatasize\n        /* \"--CODEGEN--\":74:75   */\n      0x00\n        /* \"--CODEGEN--\":67:94   */\n      revert\n        /* \"--CODEGEN--\":5:7   */\n    tag_142:\n        /* \"contracts/SaitaSwapPair.sol\":8457:8497  IERC20(_token1).balanceOf(address(this)) */\n      pop\n      pop\n      pop\n      pop\n      mload(0x40)\n      returndatasize\n        /* \"--CODEGEN--\":13:15   */\n      0x20\n        /* \"--CODEGEN--\":8:11   */\n      dup2\n        /* \"--CODEGEN--\":5:16   */\n      lt\n        /* \"--CODEGEN--\":2:4   */\n      iszero\n      tag_143\n      jumpi\n        /* \"--CODEGEN--\":29:30   */\n      0x00\n        /* \"--CODEGEN--\":26:27   */\n      dup1\n        /* \"--CODEGEN--\":19:31   */\n      revert\n        /* \"--CODEGEN--\":2:4   */\n    tag_143:\n        /* \"contracts/SaitaSwapPair.sol\":8457:8497  IERC20(_token1).balanceOf(address(this)) */\n      dup2\n      add\n      swap1\n      dup1\n      dup1\n      mload\n      swap1\n      0x20\n      add\n      swap1\n      swap3\n      swap2\n      swap1\n      pop\n      pop\n      pop\n        /* \"contracts/SaitaSwapPair.sol\":8446:8497  balance1 = IERC20(_token1).balanceOf(address(this)) */\n      swap3\n      pop\n        /* \"contracts/SaitaSwapPair.sol\":1373:1374  _ */\n      pop\n      pop\n        /* \"contracts/SaitaSwapPair.sol\":8517:8531  uint amount0In */\n      0x00\n        /* \"contracts/SaitaSwapPair.sol\":8557:8567  amount0Out */\n      dup10\n        /* \"contracts/SaitaSwapPair.sol\":8545:8554  _reserve0 */\n      dup6\n        /* \"contracts/SaitaSwapPair.sol\":8545:8567  _reserve0 - amount0Out */\n      0xffffffffffffffffffffffffffff\n      and\n      sub\n        /* \"contracts/SaitaSwapPair.sol\":8534:8542  balance0 */\n      dup4\n        /* \"contracts/SaitaSwapPair.sol\":8534:8567  balance0 > _reserve0 - amount0Out */\n      gt\n        /* \"contracts/SaitaSwapPair.sol\":8534:8609  balance0 > _reserve0 - amount0Out ? balance0 - (_reserve0 - amount0Out) : 0 */\n      tag_144\n      jumpi\n        /* \"contracts/SaitaSwapPair.sol\":8608:8609  0 */\n      0x00\n        /* \"contracts/SaitaSwapPair.sol\":8534:8609  balance0 > _reserve0 - amount0Out ? balance0 - (_reserve0 - amount0Out) : 0 */\n      jump(tag_145)\n    tag_144:\n        /* \"contracts/SaitaSwapPair.sol\":8594:8604  amount0Out */\n      dup10\n        /* \"contracts/SaitaSwapPair.sol\":8582:8591  _reserve0 */\n      dup6\n        /* \"contracts/SaitaSwapPair.sol\":8582:8604  _reserve0 - amount0Out */\n      0xffffffffffffffffffffffffffff\n      and\n      sub\n        /* \"contracts/SaitaSwapPair.sol\":8570:8578  balance0 */\n      dup4\n        /* \"contracts/SaitaSwapPair.sol\":8570:8605  balance0 - (_reserve0 - amount0Out) */\n      sub\n        /* \"contracts/SaitaSwapPair.sol\":8534:8609  balance0 > _reserve0 - amount0Out ? balance0 - (_reserve0 - amount0Out) : 0 */\n    tag_145:\n        /* \"contracts/SaitaSwapPair.sol\":8517:8609  uint amount0In = balance0 > _reserve0 - amount0Out ? balance0 - (_reserve0 - amount0Out) : 0 */\n      swap1\n      pop\n        /* \"contracts/SaitaSwapPair.sol\":8619:8633  uint amount1In */\n      0x00\n        /* \"contracts/SaitaSwapPair.sol\":8659:8669  amount1Out */\n      dup10\n        /* \"contracts/SaitaSwapPair.sol\":8647:8656  _reserve1 */\n      dup6\n        /* \"contracts/SaitaSwapPair.sol\":8647:8669  _reserve1 - amount1Out */\n      0xffffffffffffffffffffffffffff\n      and\n      sub\n        /* \"contracts/SaitaSwapPair.sol\":8636:8644  balance1 */\n      dup4\n        /* \"contracts/SaitaSwapPair.sol\":8636:8669  balance1 > _reserve1 - amount1Out */\n      gt\n        /* \"contracts/SaitaSwapPair.sol\":8636:8711  balance1 > _reserve1 - amount1Out ? balance1 - (_reserve1 - amount1Out) : 0 */\n      tag_146\n      jumpi\n        /* \"contracts/SaitaSwapPair.sol\":8710:8711  0 */\n      0x00\n        /* \"contracts/SaitaSwapPair.sol\":8636:8711  balance1 > _reserve1 - amount1Out ? balance1 - (_reserve1 - amount1Out) : 0 */\n      jump(tag_147)\n    tag_146:\n        /* \"contracts/SaitaSwapPair.sol\":8696:8706  amount1Out */\n      dup10\n        /* \"contracts/SaitaSwapPair.sol\":8684:8693  _reserve1 */\n      dup6\n        /* \"contracts/SaitaSwapPair.sol\":8684:8706  _reserve1 - amount1Out */\n      0xffffffffffffffffffffffffffff\n      and\n      sub\n        /* \"contracts/SaitaSwapPair.sol\":8672:8680  balance1 */\n      dup4\n        /* \"contracts/SaitaSwapPair.sol\":8672:8707  balance1 - (_reserve1 - amount1Out) */\n      sub\n        /* \"contracts/SaitaSwapPair.sol\":8636:8711  balance1 > _reserve1 - amount1Out ? balance1 - (_reserve1 - amount1Out) : 0 */\n    tag_147:\n        /* \"contracts/SaitaSwapPair.sol\":8619:8711  uint amount1In = balance1 > _reserve1 - amount1Out ? balance1 - (_reserve1 - amount1Out) : 0 */\n      swap1\n      pop\n        /* \"contracts/SaitaSwapPair.sol\":8741:8742  0 */\n      0x00\n        /* \"contracts/SaitaSwapPair.sol\":8729:8738  amount0In */\n      dup3\n        /* \"contracts/SaitaSwapPair.sol\":8729:8742  amount0In > 0 */\n      gt\n        /* \"contracts/SaitaSwapPair.sol\":8729:8759  amount0In > 0 || amount1In > 0 */\n      dup1\n      tag_148\n      jumpi\n      pop\n        /* \"contracts/SaitaSwapPair.sol\":8758:8759  0 */\n      0x00\n        /* \"contracts/SaitaSwapPair.sol\":8746:8755  amount1In */\n      dup2\n        /* \"contracts/SaitaSwapPair.sol\":8746:8759  amount1In > 0 */\n      gt\n        /* \"contracts/SaitaSwapPair.sol\":8729:8759  amount0In > 0 || amount1In > 0 */\n    tag_148:\n        /* \"contracts/SaitaSwapPair.sol\":8721:8800  require(amount0In > 0 || amount1In > 0, 'SaitaSwap: INSUFFICIENT_INPUT_AMOUNT') */\n      tag_149\n      jumpi\n      mload(0x40)\n      0x08c379a000000000000000000000000000000000000000000000000000000000\n      dup2\n      mstore\n      0x04\n      add\n      dup1\n      dup1\n      0x20\n      add\n      dup3\n      dup2\n      sub\n      dup3\n      mstore\n      0x24\n      dup2\n      mstore\n      0x20\n      add\n      dup1\n      data_552b3fcd35fb870a20ea0632e5730c886a6bfa687fc63a2ee7517b413814fddf\n      0x24\n      swap2\n      codecopy\n      0x40\n      add\n      swap2\n      pop\n      pop\n      mload(0x40)\n      dup1\n      swap2\n      sub\n      swap1\n      revert\n    tag_149:\n        /* \"contracts/SaitaSwapPair.sol\":8884:8905  uint balance0Adjusted */\n      0x00\n        /* \"contracts/SaitaSwapPair.sol\":8908:8981  balance0.mul(SWAP_FEE_DENOMINATOR).sub(amount0In.mul(SWAP_FEE_NUMERATOR)) */\n      tag_150\n        /* \"contracts/SaitaSwapPair.sol\":8947:8980  amount0In.mul(SWAP_FEE_NUMERATOR) */\n      tag_151\n        /* \"contracts/SaitaSwapPair.sol\":8961:8979  SWAP_FEE_NUMERATOR */\n      sload(0x08)\n        /* \"contracts/SaitaSwapPair.sol\":8947:8956  amount0In */\n      dup6\n        /* \"contracts/SaitaSwapPair.sol\":8947:8960  amount0In.mul */\n      tag_152\n      swap1\n        /* \"contracts/SaitaSwapPair.sol\":8947:8980  amount0In.mul(SWAP_FEE_NUMERATOR) */\n      swap2\n      swap1\n      0xffffffff\n      and\n      jump\t// in\n    tag_151:\n        /* \"contracts/SaitaSwapPair.sol\":8908:8942  balance0.mul(SWAP_FEE_DENOMINATOR) */\n      tag_153\n        /* \"contracts/SaitaSwapPair.sol\":8921:8941  SWAP_FEE_DENOMINATOR */\n      sload(0x09)\n        /* \"contracts/SaitaSwapPair.sol\":8908:8916  balance0 */\n      dup9\n        /* \"contracts/SaitaSwapPair.sol\":8908:8920  balance0.mul */\n      tag_152\n      swap1\n        /* \"contracts/SaitaSwapPair.sol\":8908:8942  balance0.mul(SWAP_FEE_DENOMINATOR) */\n      swap2\n      swap1\n      0xffffffff\n      and\n      jump\t// in\n    tag_153:\n        /* \"contracts/SaitaSwapPair.sol\":8908:8946  balance0.mul(SWAP_FEE_DENOMINATOR).sub */\n      tag_154\n      swap1\n        /* \"contracts/SaitaSwapPair.sol\":8908:8981  balance0.mul(SWAP_FEE_DENOMINATOR).sub(amount0In.mul(SWAP_FEE_NUMERATOR)) */\n      swap2\n      swap1\n      0xffffffff\n      and\n      jump\t// in\n    tag_150:\n        /* \"contracts/SaitaSwapPair.sol\":8884:8981  uint balance0Adjusted = balance0.mul(SWAP_FEE_DENOMINATOR).sub(amount0In.mul(SWAP_FEE_NUMERATOR)) */\n      swap1\n      pop\n        /* \"contracts/SaitaSwapPair.sol\":8991:9012  uint balance1Adjusted */\n      0x00\n        /* \"contracts/SaitaSwapPair.sol\":9015:9088  balance1.mul(SWAP_FEE_DENOMINATOR).sub(amount1In.mul(SWAP_FEE_NUMERATOR)) */\n      tag_155\n        /* \"contracts/SaitaSwapPair.sol\":9054:9087  amount1In.mul(SWAP_FEE_NUMERATOR) */\n      tag_156\n        /* \"contracts/SaitaSwapPair.sol\":9068:9086  SWAP_FEE_NUMERATOR */\n      sload(0x08)\n        /* \"contracts/SaitaSwapPair.sol\":9054:9063  amount1In */\n      dup6\n        /* \"contracts/SaitaSwapPair.sol\":9054:9067  amount1In.mul */\n      tag_152\n      swap1\n        /* \"contracts/SaitaSwapPair.sol\":9054:9087  amount1In.mul(SWAP_FEE_NUMERATOR) */\n      swap2\n      swap1\n      0xffffffff\n      and\n      jump\t// in\n    tag_156:\n        /* \"contracts/SaitaSwapPair.sol\":9015:9049  balance1.mul(SWAP_FEE_DENOMINATOR) */\n      tag_157\n        /* \"contracts/SaitaSwapPair.sol\":9028:9048  SWAP_FEE_DENOMINATOR */\n      sload(0x09)\n        /* \"contracts/SaitaSwapPair.sol\":9015:9023  balance1 */\n      dup9\n        /* \"contracts/SaitaSwapPair.sol\":9015:9027  balance1.mul */\n      tag_152\n      swap1\n        /* \"contracts/SaitaSwapPair.sol\":9015:9049  balance1.mul(SWAP_FEE_DENOMINATOR) */\n      swap2\n      swap1\n      0xffffffff\n      and\n      jump\t// in\n    tag_157:\n        /* \"contracts/SaitaSwapPair.sol\":9015:9053  balance1.mul(SWAP_FEE_DENOMINATOR).sub */\n      tag_154\n      swap1\n        /* \"contracts/SaitaSwapPair.sol\":9015:9088  balance1.mul(SWAP_FEE_DENOMINATOR).sub(amount1In.mul(SWAP_FEE_NUMERATOR)) */\n      swap2\n      swap1\n      0xffffffff\n      and\n      jump\t// in\n    tag_155:\n        /* \"contracts/SaitaSwapPair.sol\":8991:9088  uint balance1Adjusted = balance1.mul(SWAP_FEE_DENOMINATOR).sub(amount1In.mul(SWAP_FEE_NUMERATOR)) */\n      swap1\n      pop\n        /* \"contracts/SaitaSwapPair.sol\":9148:9224  uint(_reserve0).mul(_reserve1).mul(SWAP_FEE_DENOMINATOR**SWAP_FEE_NUMERATOR) */\n      tag_158\n        /* \"contracts/SaitaSwapPair.sol\":9205:9223  SWAP_FEE_NUMERATOR */\n      sload(0x08)\n        /* \"contracts/SaitaSwapPair.sol\":9183:9203  SWAP_FEE_DENOMINATOR */\n      sload(0x09)\n        /* \"contracts/SaitaSwapPair.sol\":9183:9223  SWAP_FEE_DENOMINATOR**SWAP_FEE_NUMERATOR */\n      exp\n        /* \"contracts/SaitaSwapPair.sol\":9148:9178  uint(_reserve0).mul(_reserve1) */\n      tag_159\n        /* \"contracts/SaitaSwapPair.sol\":9168:9177  _reserve1 */\n      dup10\n        /* \"contracts/SaitaSwapPair.sol\":9148:9178  uint(_reserve0).mul(_reserve1) */\n      0xffffffffffffffffffffffffffff\n      and\n        /* \"contracts/SaitaSwapPair.sol\":9153:9162  _reserve0 */\n      dup12\n        /* \"contracts/SaitaSwapPair.sol\":9148:9163  uint(_reserve0) */\n      0xffffffffffffffffffffffffffff\n      and\n        /* \"contracts/SaitaSwapPair.sol\":9148:9167  uint(_reserve0).mul */\n      tag_152\n      swap1\n        /* \"contracts/SaitaSwapPair.sol\":9148:9178  uint(_reserve0).mul(_reserve1) */\n      swap2\n      swap1\n      0xffffffff\n      and\n      jump\t// in\n    tag_159:\n        /* \"contracts/SaitaSwapPair.sol\":9148:9182  uint(_reserve0).mul(_reserve1).mul */\n      tag_152\n      swap1\n        /* \"contracts/SaitaSwapPair.sol\":9148:9224  uint(_reserve0).mul(_reserve1).mul(SWAP_FEE_DENOMINATOR**SWAP_FEE_NUMERATOR) */\n      swap2\n      swap1\n      0xffffffff\n      and\n      jump\t// in\n    tag_158:\n        /* \"contracts/SaitaSwapPair.sol\":9106:9144  balance0Adjusted.mul(balance1Adjusted) */\n      tag_160\n        /* \"contracts/SaitaSwapPair.sol\":9127:9143  balance1Adjusted */\n      dup3\n        /* \"contracts/SaitaSwapPair.sol\":9106:9122  balance0Adjusted */\n      dup5\n        /* \"contracts/SaitaSwapPair.sol\":9106:9126  balance0Adjusted.mul */\n      tag_152\n      swap1\n        /* \"contracts/SaitaSwapPair.sol\":9106:9144  balance0Adjusted.mul(balance1Adjusted) */\n      swap2\n      swap1\n      0xffffffff\n      and\n      jump\t// in\n    tag_160:\n        /* \"contracts/SaitaSwapPair.sol\":9106:9224  balance0Adjusted.mul(balance1Adjusted) >= uint(_reserve0).mul(_reserve1).mul(SWAP_FEE_DENOMINATOR**SWAP_FEE_NUMERATOR) */\n      lt\n      iszero\n        /* \"contracts/SaitaSwapPair.sol\":9098:9241  require(balance0Adjusted.mul(balance1Adjusted) >= uint(_reserve0).mul(_reserve1).mul(SWAP_FEE_DENOMINATOR**SWAP_FEE_NUMERATOR), 'SaitaSwap: K') */\n      tag_161\n      jumpi\n      mload(0x40)\n      0x08c379a000000000000000000000000000000000000000000000000000000000\n      dup2\n      mstore\n      0x04\n      add\n      dup1\n      dup1\n      0x20\n      add\n      dup3\n      dup2\n      sub\n      dup3\n      mstore\n      0x0c\n      dup2\n      mstore\n      0x20\n      add\n      dup1\n      0x5361697461537761703a204b0000000000000000000000000000000000000000\n      dup2\n      mstore\n      pop\n      0x20\n      add\n      swap2\n      pop\n      pop\n      mload(0x40)\n      dup1\n      swap2\n      sub\n      swap1\n      revert\n    tag_161:\n        /* \"contracts/SaitaSwapPair.sol\":1373:1374  _ */\n      pop\n      pop\n        /* \"contracts/SaitaSwapPair.sol\":9262:9311  _update(balance0, balance1, _reserve0, _reserve1) */\n      tag_162\n        /* \"contracts/SaitaSwapPair.sol\":9270:9278  balance0 */\n      dup5\n        /* \"contracts/SaitaSwapPair.sol\":9280:9288  balance1 */\n      dup5\n        /* \"contracts/SaitaSwapPair.sol\":9290:9299  _reserve0 */\n      dup9\n        /* \"contracts/SaitaSwapPair.sol\":9301:9310  _reserve1 */\n      dup9\n        /* \"contracts/SaitaSwapPair.sol\":9262:9269  _update */\n      tag_163\n        /* \"contracts/SaitaSwapPair.sol\":9262:9311  _update(balance0, balance1, _reserve0, _reserve1) */\n      jump\t// in\n    tag_162:\n        /* \"contracts/SaitaSwapPair.sol\":9389:9391  to */\n      dup9\n        /* \"contracts/SaitaSwapPair.sol\":9326:9392  Swap(msg.sender, amount0In, amount1In, amount0Out, amount1Out, to) */\n      0xffffffffffffffffffffffffffffffffffffffff\n      and\n        /* \"contracts/SaitaSwapPair.sol\":9331:9341  msg.sender */\n      caller\n        /* \"contracts/SaitaSwapPair.sol\":9326:9392  Swap(msg.sender, amount0In, amount1In, amount0Out, amount1Out, to) */\n      0xffffffffffffffffffffffffffffffffffffffff\n      and\n      0xd78ad95fa46c994b6551d0da85fc275fe613ce37657fb8d5e3d130840159d822\n        /* \"contracts/SaitaSwapPair.sol\":9343:9352  amount0In */\n      dup5\n        /* \"contracts/SaitaSwapPair.sol\":9354:9363  amount1In */\n      dup5\n        /* \"contracts/SaitaSwapPair.sol\":9365:9375  amount0Out */\n      dup16\n        /* \"contracts/SaitaSwapPair.sol\":9377:9387  amount1Out */\n      dup16\n        /* \"contracts/SaitaSwapPair.sol\":9326:9392  Swap(msg.sender, amount0In, amount1In, amount0Out, amount1Out, to) */\n      mload(0x40)\n      dup1\n      dup6\n      dup2\n      mstore\n      0x20\n      add\n      dup5\n      dup2\n      mstore\n      0x20\n      add\n      dup4\n      dup2\n      mstore\n      0x20\n      add\n      dup3\n      dup2\n      mstore\n      0x20\n      add\n      swap5\n      pop\n      pop\n      pop\n      pop\n      pop\n      mload(0x40)\n      dup1\n      swap2\n      sub\n      swap1\n      log3\n        /* \"contracts/SaitaSwapPair.sol\":1373:1374  _ */\n      pop\n      pop\n      pop\n      pop\n      pop\n      pop\n        /* \"contracts/SaitaSwapPair.sol\":1395:1396  1 */\n      0x01\n        /* \"contracts/SaitaSwapPair.sol\":1384:1392  unlocked */\n      0x0e\n        /* \"contracts/SaitaSwapPair.sol\":1384:1396  unlocked = 1 */\n      dup2\n      swap1\n      sstore\n      pop\n        /* \"contracts/SaitaSwapPair.sol\":7439:9399  function swap(uint amount0Out, uint amount1Out, address to, bytes calldata data) external lock {... */\n      pop\n      pop\n      pop\n      pop\n      pop\n      jump\t// out\n        /* \"contracts/SaitaSwapERC20.sol\":223:268  string public constant name = 'SaitaSwap LPs' */\n    tag_46:\n      mload(0x40)\n      dup1\n      0x40\n      add\n      0x40\n      mstore\n      dup1\n      0x0d\n      dup2\n      mstore\n      0x20\n      add\n      0x536169746153776170204c507300000000000000000000000000000000000000\n      dup2\n      mstore\n      pop\n      dup2\n      jump\t// out\n        /* \"contracts/SaitaSwapPair.sol\":1409:1636  function getReserves() public view returns (uint112 _reserve0, uint112 _reserve1, uint32 _blockTimestampLast) {... */\n    tag_52:\n        /* \"contracts/SaitaSwapPair.sol\":1453:1470  uint112 _reserve0 */\n      0x00\n        /* \"contracts/SaitaSwapPair.sol\":1472:1489  uint112 _reserve1 */\n      dup1\n        /* \"contracts/SaitaSwapPair.sol\":1491:1517  uint32 _blockTimestampLast */\n      0x00\n        /* \"contracts/SaitaSwapPair.sol\":1541:1549  reserve0 */\n      0x0a\n      0x00\n      swap1\n      sload\n      swap1\n      0x0100\n      exp\n      swap1\n      div\n      0xffffffffffffffffffffffffffff\n      and\n        /* \"contracts/SaitaSwapPair.sol\":1529:1549  _reserve0 = reserve0 */\n      swap3\n      pop\n        /* \"contracts/SaitaSwapPair.sol\":1571:1579  reserve1 */\n      0x0a\n      0x0e\n      swap1\n      sload\n      swap1\n      0x0100\n      exp\n      swap1\n      div\n      0xffffffffffffffffffffffffffff\n      and\n        /* \"contracts/SaitaSwapPair.sol\":1559:1579  _reserve1 = reserve1 */\n      swap2\n      pop\n        /* \"contracts/SaitaSwapPair.sol\":1611:1629  blockTimestampLast */\n      0x0a\n      0x1c\n      swap1\n      sload\n      swap1\n      0x0100\n      exp\n      swap1\n      div\n      0xffffffff\n      and\n        /* \"contracts/SaitaSwapPair.sol\":1589:1629  _blockTimestampLast = blockTimestampLast */\n      swap1\n      pop\n        /* \"contracts/SaitaSwapPair.sol\":1409:1636  function getReserves() public view returns (uint112 _reserve0, uint112 _reserve1, uint32 _blockTimestampLast) {... */\n      swap1\n      swap2\n      swap3\n      jump\t// out\n        /* \"contracts/SaitaSwapERC20.sol\":2682:2826  function approve(address spender, uint value) external returns (bool) {... */\n    tag_55:\n        /* \"contracts/SaitaSwapERC20.sol\":2746:2750  bool */\n      0x00\n        /* \"contracts/SaitaSwapERC20.sol\":2762:2798  _approve(msg.sender, spender, value) */\n      tag_166\n        /* \"contracts/SaitaSwapERC20.sol\":2771:2781  msg.sender */\n      caller\n        /* \"contracts/SaitaSwapERC20.sol\":2783:2790  spender */\n      dup5\n        /* \"contracts/SaitaSwapERC20.sol\":2792:2797  value */\n      dup5\n        /* \"contracts/SaitaSwapERC20.sol\":2762:2770  _approve */\n      tag_167\n        /* \"contracts/SaitaSwapERC20.sol\":2762:2798  _approve(msg.sender, spender, value) */\n      jump\t// in\n    tag_166:\n        /* \"contracts/SaitaSwapERC20.sol\":2815:2819  true */\n      0x01\n        /* \"contracts/SaitaSwapERC20.sol\":2808:2819  return true */\n      swap1\n      pop\n        /* \"contracts/SaitaSwapERC20.sol\":2682:2826  function approve(address spender, uint value) external returns (bool) {... */\n      swap3\n      swap2\n      pop\n      pop\n      jump\t// out\n        /* \"contracts/SaitaSwapPair.sol\":628:649  address public token0 */\n    tag_57:\n      0x06\n      0x00\n      swap1\n      sload\n      swap1\n      0x0100\n      exp\n      swap1\n      div\n      0xffffffffffffffffffffffffffffffffffffffff\n      and\n      dup2\n      jump\t// out\n        /* \"contracts/SaitaSwapERC20.sol\":358:382  uint  public totalSupply */\n    tag_59:\n      sload(0x00)\n      dup2\n      jump\t// out\n        /* \"contracts/SaitaSwapERC20.sol\":2974:3269  function transferFrom(address from, address to, uint value) external returns (bool) {... */\n    tag_62:\n        /* \"contracts/SaitaSwapERC20.sol\":3052:3056  bool */\n      0x00\n        /* \"contracts/SaitaSwapERC20.sol\":3108:3110  -1 */\n      0xffffffffffffffffffffffffffffffffffffffffffffffffffffffffffffffff\n        /* \"contracts/SaitaSwapERC20.sol\":3072:3081  allowance */\n      0x02\n        /* \"contracts/SaitaSwapERC20.sol\":3072:3087  allowance[from] */\n      0x00\n        /* \"contracts/SaitaSwapERC20.sol\":3082:3086  from */\n      dup7\n        /* \"contracts/SaitaSwapERC20.sol\":3072:3087  allowance[from] */\n      0xffffffffffffffffffffffffffffffffffffffff\n      and\n      0xffffffffffffffffffffffffffffffffffffffff\n      and\n      dup2\n      mstore\n      0x20\n      add\n      swap1\n      dup2\n      mstore\n      0x20\n      add\n      0x00\n      keccak256\n        /* \"contracts/SaitaSwapERC20.sol\":3072:3099  allowance[from][msg.sender] */\n      0x00\n        /* \"contracts/SaitaSwapERC20.sol\":3088:3098  msg.sender */\n      caller\n        /* \"contracts/SaitaSwapERC20.sol\":3072:3099  allowance[from][msg.sender] */\n      0xffffffffffffffffffffffffffffffffffffffff\n      and\n      0xffffffffffffffffffffffffffffffffffffffff\n      and\n      dup2\n      mstore\n      0x20\n      add\n      swap1\n      dup2\n      mstore\n      0x20\n      add\n      0x00\n      keccak256\n      sload\n        /* \"contracts/SaitaSwapERC20.sol\":3072:3111  allowance[from][msg.sender] != uint(-1) */\n      eq\n        /* \"contracts/SaitaSwapERC20.sol\":3068:3206  if (allowance[from][msg.sender] != uint(-1)) {... */\n      tag_169\n      jumpi\n        /* \"contracts/SaitaSwapERC20.sol\":3157:3195  allowance[from][msg.sender].sub(value) */\n      tag_170\n        /* \"contracts/SaitaSwapERC20.sol\":3189:3194  value */\n      dup3\n        /* \"contracts/SaitaSwapERC20.sol\":3157:3166  allowance */\n      0x02\n        /* \"contracts/SaitaSwapERC20.sol\":3157:3172  allowance[from] */\n      0x00\n        /* \"contracts/SaitaSwapERC20.sol\":3167:3171  from */\n      dup8\n        /* \"contracts/SaitaSwapERC20.sol\":3157:3172  allowance[from] */\n      0xffffffffffffffffffffffffffffffffffffffff\n      and\n      0xffffffffffffffffffffffffffffffffffffffff\n      and\n      dup2\n      mstore\n      0x20\n      add\n      swap1\n      dup2\n      mstore\n      0x20\n      add\n      0x00\n      keccak256\n        /* \"contracts/SaitaSwapERC20.sol\":3157:3184  allowance[from][msg.sender] */\n      0x00\n        /* \"contracts/SaitaSwapERC20.sol\":3173:3183  msg.sender */\n      caller\n        /* \"contracts/SaitaSwapERC20.sol\":3157:3184  allowance[from][msg.sender] */\n      0xffffffffffffffffffffffffffffffffffffffff\n      and\n      0xffffffffffffffffffffffffffffffffffffffff\n      and\n      dup2\n      mstore\n      0x20\n      add\n      swap1\n      dup2\n      mstore\n      0x20\n      add\n      0x00\n      keccak256\n      sload\n        /* \"contracts/SaitaSwapERC20.sol\":3157:3188  allowance[from][msg.sender].sub */\n      tag_154\n      swap1\n        /* \"contracts/SaitaSwapERC20.sol\":3157:3195  allowance[from][msg.sender].sub(value) */\n      swap2\n      swap1\n      0xffffffff\n      and\n      jump\t// in\n    tag_170:\n        /* \"contracts/SaitaSwapERC20.sol\":3127:3136  allowance */\n      0x02\n        /* \"contracts/SaitaSwapERC20.sol\":3127:3142  allowance[from] */\n      0x00\n        /* \"contracts/SaitaSwapERC20.sol\":3137:3141  from */\n      dup7\n        /* \"contracts/SaitaSwapERC20.sol\":3127:3142  allowance[from] */\n      0xffffffffffffffffffffffffffffffffffffffff\n      and\n      0xffffffffffffffffffffffffffffffffffffffff\n      and\n      dup2\n      mstore\n      0x20\n      add\n      swap1\n      dup2\n      mstore\n      0x20\n      add\n      0x00\n      keccak256\n        /* \"contracts/SaitaSwapERC20.sol\":3127:3154  allowance[from][msg.sender] */\n      0x00\n        /* \"contracts/SaitaSwapERC20.sol\":3143:3153  msg.sender */\n      caller\n        /* \"contracts/SaitaSwapERC20.sol\":3127:3154  allowance[from][msg.sender] */\n      0xffffffffffffffffffffffffffffffffffffffff\n      and\n      0xffffffffffffffffffffffffffffffffffffffff\n      and\n      dup2\n      mstore\n      0x20\n      add\n      swap1\n      dup2\n      mstore\n      0x20\n      add\n      0x00\n      keccak256\n        /* \"contracts/SaitaSwapERC20.sol\":3127:3195  allowance[from][msg.sender] = allowance[from][msg.sender].sub(value) */\n      dup2\n      swap1\n      sstore\n      pop\n        /* \"contracts/SaitaSwapERC20.sol\":3068:3206  if (allowance[from][msg.sender] != uint(-1)) {... */\n    tag_169:\n        /* \"contracts/SaitaSwapERC20.sol\":3215:3241  _transfer(from, to, value) */\n      tag_171\n        /* \"contracts/SaitaSwapERC20.sol\":3225:3229  from */\n      dup5\n        /* \"contracts/SaitaSwapERC20.sol\":3231:3233  to */\n      dup5\n        /* \"contracts/SaitaSwapERC20.sol\":3235:3240  value */\n      dup5\n        /* \"contracts/SaitaSwapERC20.sol\":3215:3224  _transfer */\n      tag_172\n        /* \"contracts/SaitaSwapERC20.sol\":3215:3241  _transfer(from, to, value) */\n      jump\t// in\n    tag_171:\n        /* \"contracts/SaitaSwapERC20.sol\":3258:3262  true */\n      0x01\n        /* \"contracts/SaitaSwapERC20.sol\":3251:3262  return true */\n      swap1\n      pop\n        /* \"contracts/SaitaSwapERC20.sol\":2974:3269  function transferFrom(address from, address to, uint value) external returns (bool) {... */\n      swap4\n      swap3\n      pop\n      pop\n      pop\n      jump\t// out\n        /* \"contracts/SaitaSwapERC20.sol\":644:752  bytes32 public constant PERMIT_TYPEHASH = 0x6e71edae12b1b97f4d1f60370fef10105fa2faae0126114a169c64845d6126c9 */\n    tag_64:\n        /* \"contracts/SaitaSwapERC20.sol\":686:752  0x6e71edae12b1b97f4d1f60370fef10105fa2faae0126114a169c64845d6126c9 */\n      0x6e71edae12b1b97f4d1f60370fef10105fa2faae0126114a169c64845d6126c9\n        /* \"contracts/SaitaSwapERC20.sol\":644:752  bytes32 public constant PERMIT_TYPEHASH = 0x6e71edae12b1b97f4d1f60370fef10105fa2faae0126114a169c64845d6126c9 */\n      0x00\n      shl\n      dup2\n      jump\t// out\n        /* \"contracts/SaitaSwapERC20.sol\":317:352  uint8 public constant decimals = 18 */\n    tag_66:\n        /* \"contracts/SaitaSwapERC20.sol\":350:352  18 */\n      0x12\n        /* \"contracts/SaitaSwapERC20.sol\":317:352  uint8 public constant decimals = 18 */\n      dup2\n      jump\t// out\n        /* \"contracts/SaitaSwapERC20.sol\":503:534  bytes32 public DOMAIN_SEPARATOR */\n    tag_68:\n      sload(0x03)\n      dup2\n      jump\t// out\n        /* \"contracts/SaitaSwapPair.sol\":2441:2647  function initialize(address _token0, address _token1) external {... */\n    tag_71:\n        /* \"contracts/SaitaSwapPair.sol\":2536:2543  factory */\n      0x05\n      0x00\n      swap1\n      sload\n      swap1\n      0x0100\n      exp\n      swap1\n      div\n      0xffffffffffffffffffffffffffffffffffffffff\n      and\n        /* \"contracts/SaitaSwapPair.sol\":2522:2543  msg.sender == factory */\n      0xffffffffffffffffffffffffffffffffffffffff\n      and\n        /* \"contracts/SaitaSwapPair.sol\":2522:2532  msg.sender */\n      caller\n        /* \"contracts/SaitaSwapPair.sol\":2522:2543  msg.sender == factory */\n      0xffffffffffffffffffffffffffffffffffffffff\n      and\n      eq\n        /* \"contracts/SaitaSwapPair.sol\":2514:2568  require(msg.sender == factory, 'SaitaSwap: FORBIDDEN') */\n      tag_174\n      jumpi\n      mload(0x40)\n      0x08c379a000000000000000000000000000000000000000000000000000000000\n      dup2\n      mstore\n      0x04\n      add\n      dup1\n      dup1\n      0x20\n      add\n      dup3\n      dup2\n      sub\n      dup3\n      mstore\n      0x14\n      dup2\n      mstore\n      0x20\n      add\n      dup1\n      0x5361697461537761703a20464f5242494444454e000000000000000000000000\n      dup2\n      mstore\n      pop\n      0x20\n      add\n      swap2\n      pop\n      pop\n      mload(0x40)\n      dup1\n      swap2\n      sub\n      swap1\n      revert\n    tag_174:\n        /* \"contracts/SaitaSwapPair.sol\":2607:2614  _token0 */\n      dup2\n        /* \"contracts/SaitaSwapPair.sol\":2598:2604  token0 */\n      0x06\n      0x00\n        /* \"contracts/SaitaSwapPair.sol\":2598:2614  token0 = _token0 */\n      0x0100\n      exp\n      dup2\n      sload\n      dup2\n      0xffffffffffffffffffffffffffffffffffffffff\n      mul\n      not\n      and\n      swap1\n      dup4\n      0xffffffffffffffffffffffffffffffffffffffff\n      and\n      mul\n      or\n      swap1\n      sstore\n      pop\n        /* \"contracts/SaitaSwapPair.sol\":2633:2640  _token1 */\n      dup1\n        /* \"contracts/SaitaSwapPair.sol\":2624:2630  token1 */\n      0x07\n      0x00\n        /* \"contracts/SaitaSwapPair.sol\":2624:2640  token1 = _token1 */\n      0x0100\n      exp\n      dup2\n      sload\n      dup2\n      0xffffffffffffffffffffffffffffffffffffffff\n      mul\n      not\n      and\n      swap1\n      dup4\n      0xffffffffffffffffffffffffffffffffffffffff\n      and\n      mul\n      or\n      swap1\n      sstore\n      pop\n        /* \"contracts/SaitaSwapPair.sol\":2441:2647  function initialize(address _token0, address _token1) external {... */\n      pop\n      pop\n      jump\t// out\n        /* \"contracts/SaitaSwapPair.sol\":1061:1093  uint public price0CumulativeLast */\n    tag_73:\n      sload(0x0b)\n      dup2\n      jump\t// out\n        /* \"contracts/SaitaSwapPair.sol\":1099:1131  uint public price1CumulativeLast */\n    tag_75:\n      sload(0x0c)\n      dup2\n      jump\t// out\n        /* \"contracts/SaitaSwapPair.sol\":4558:5777  function mint(address to) external lock returns (uint liquidity) {... */\n    tag_78:\n        /* \"contracts/SaitaSwapPair.sol\":4607:4621  uint liquidity */\n      0x00\n        /* \"contracts/SaitaSwapPair.sol\":1318:1319  1 */\n      0x01\n        /* \"contracts/SaitaSwapPair.sol\":1306:1314  unlocked */\n      sload(0x0e)\n        /* \"contracts/SaitaSwapPair.sol\":1306:1319  unlocked == 1 */\n      eq\n        /* \"contracts/SaitaSwapPair.sol\":1298:1341  require(unlocked == 1, 'SaitaSwap: LOCKED') */\n      tag_176\n      jumpi\n      mload(0x40)\n      0x08c379a000000000000000000000000000000000000000000000000000000000\n      dup2\n      mstore\n      0x04\n      add\n      dup1\n      dup1\n      0x20\n      add\n      dup3\n      dup2\n      sub\n      dup3\n      mstore\n      0x11\n      dup2\n      mstore\n      0x20\n      add\n      dup1\n      0x5361697461537761703a204c4f434b4544000000000000000000000000000000\n      dup2\n      mstore\n      pop\n      0x20\n      add\n      swap2\n      pop\n      pop\n      mload(0x40)\n      dup1\n      swap2\n      sub\n      swap1\n      revert\n    tag_176:\n        /* \"contracts/SaitaSwapPair.sol\":1362:1363  0 */\n      0x00\n        /* \"contracts/SaitaSwapPair.sol\":1351:1359  unlocked */\n      0x0e\n        /* \"contracts/SaitaSwapPair.sol\":1351:1363  unlocked = 0 */\n      dup2\n      swap1\n      sstore\n      pop\n        /* \"contracts/SaitaSwapPair.sol\":4634:4651  uint112 _reserve0 */\n      0x00\n        /* \"contracts/SaitaSwapPair.sol\":4653:4670  uint112 _reserve1 */\n      dup1\n        /* \"contracts/SaitaSwapPair.sol\":4675:4688  getReserves() */\n      tag_178\n        /* \"contracts/SaitaSwapPair.sol\":4675:4686  getReserves */\n      tag_52\n        /* \"contracts/SaitaSwapPair.sol\":4675:4688  getReserves() */\n      jump\t// in\n    tag_178:\n        /* \"contracts/SaitaSwapPair.sol\":4633:4688  (uint112 _reserve0, uint112 _reserve1,) = getReserves() */\n      pop\n      swap2\n      pop\n      swap2\n      pop\n        /* \"contracts/SaitaSwapPair.sol\":4713:4726  uint balance0 */\n      0x00\n        /* \"contracts/SaitaSwapPair.sol\":4736:4742  token0 */\n      0x06\n      0x00\n      swap1\n      sload\n      swap1\n      0x0100\n      exp\n      swap1\n      div\n      0xffffffffffffffffffffffffffffffffffffffff\n      and\n        /* \"contracts/SaitaSwapPair.sol\":4729:4753  IERC20(token0).balanceOf */\n      0xffffffffffffffffffffffffffffffffffffffff\n      and\n      0x70a08231\n        /* \"contracts/SaitaSwapPair.sol\":4762:4766  this */\n      address\n        /* \"contracts/SaitaSwapPair.sol\":4729:4768  IERC20(token0).balanceOf(address(this)) */\n      mload(0x40)\n      dup3\n      0xffffffff\n      and\n      0xe0\n      shl\n      dup2\n      mstore\n      0x04\n      add\n      dup1\n      dup3\n      0xffffffffffffffffffffffffffffffffffffffff\n      and\n      0xffffffffffffffffffffffffffffffffffffffff\n      and\n      dup2\n      mstore\n      0x20\n      add\n      swap2\n      pop\n      pop\n      0x20\n      mload(0x40)\n      dup1\n      dup4\n      sub\n      dup2\n      dup7\n      dup1\n      extcodesize\n      iszero\n        /* \"--CODEGEN--\":8:17   */\n      dup1\n        /* \"--CODEGEN--\":5:7   */\n      iszero\n      tag_179\n      jumpi\n        /* \"--CODEGEN--\":30:31   */\n      0x00\n        /* \"--CODEGEN--\":27:28   */\n      dup1\n        /* \"--CODEGEN--\":20:32   */\n      revert\n        /* \"--CODEGEN--\":5:7   */\n    tag_179:\n        /* \"contracts/SaitaSwapPair.sol\":4729:4768  IERC20(token0).balanceOf(address(this)) */\n      pop\n      gas\n      staticcall\n      iszero\n        /* \"--CODEGEN--\":8:17   */\n      dup1\n        /* \"--CODEGEN--\":5:7   */\n      iszero\n      tag_180\n      jumpi\n        /* \"--CODEGEN--\":45:61   */\n      returndatasize\n        /* \"--CODEGEN--\":42:43   */\n      0x00\n        /* \"--CODEGEN--\":39:40   */\n      dup1\n        /* \"--CODEGEN--\":24:62   */\n      returndatacopy\n        /* \"--CODEGEN--\":77:93   */\n      returndatasize\n        /* \"--CODEGEN--\":74:75   */\n      0x00\n        /* \"--CODEGEN--\":67:94   */\n      revert\n        /* \"--CODEGEN--\":5:7   */\n    tag_180:\n        /* \"contracts/SaitaSwapPair.sol\":4729:4768  IERC20(token0).balanceOf(address(this)) */\n      pop\n      pop\n      pop\n      pop\n      mload(0x40)\n      returndatasize\n        /* \"--CODEGEN--\":13:15   */\n      0x20\n        /* \"--CODEGEN--\":8:11   */\n      dup2\n        /* \"--CODEGEN--\":5:16   */\n      lt\n        /* \"--CODEGEN--\":2:4   */\n      iszero\n      tag_181\n      jumpi\n        /* \"--CODEGEN--\":29:30   */\n      0x00\n        /* \"--CODEGEN--\":26:27   */\n      dup1\n        /* \"--CODEGEN--\":19:31   */\n      revert\n        /* \"--CODEGEN--\":2:4   */\n    tag_181:\n        /* \"contracts/SaitaSwapPair.sol\":4729:4768  IERC20(token0).balanceOf(address(this)) */\n      dup2\n      add\n      swap1\n      dup1\n      dup1\n      mload\n      swap1\n      0x20\n      add\n      swap1\n      swap3\n      swap2\n      swap1\n      pop\n      pop\n      pop\n        /* \"contracts/SaitaSwapPair.sol\":4713:4768  uint balance0 = IERC20(token0).balanceOf(address(this)) */\n      swap1\n      pop\n        /* \"contracts/SaitaSwapPair.sol\":4778:4791  uint balance1 */\n      0x00\n        /* \"contracts/SaitaSwapPair.sol\":4801:4807  token1 */\n      0x07\n      0x00\n      swap1\n      sload\n      swap1\n      0x0100\n      exp\n      swap1\n      div\n      0xffffffffffffffffffffffffffffffffffffffff\n      and\n        /* \"contracts/SaitaSwapPair.sol\":4794:4818  IERC20(token1).balanceOf */\n      0xffffffffffffffffffffffffffffffffffffffff\n      and\n      0x70a08231\n        /* \"contracts/SaitaSwapPair.sol\":4827:4831  this */\n      address\n        /* \"contracts/SaitaSwapPair.sol\":4794:4833  IERC20(token1).balanceOf(address(this)) */\n      mload(0x40)\n      dup3\n      0xffffffff\n      and\n      0xe0\n      shl\n      dup2\n      mstore\n      0x04\n      add\n      dup1\n      dup3\n      0xffffffffffffffffffffffffffffffffffffffff\n      and\n      0xffffffffffffffffffffffffffffffffffffffff\n      and\n      dup2\n      mstore\n      0x20\n      add\n      swap2\n      pop\n      pop\n      0x20\n      mload(0x40)\n      dup1\n      dup4\n      sub\n      dup2\n      dup7\n      dup1\n      extcodesize\n      iszero\n        /* \"--CODEGEN--\":8:17   */\n      dup1\n        /* \"--CODEGEN--\":5:7   */\n      iszero\n      tag_182\n      jumpi\n        /* \"--CODEGEN--\":30:31   */\n      0x00\n        /* \"--CODEGEN--\":27:28   */\n      dup1\n        /* \"--CODEGEN--\":20:32   */\n      revert\n        /* \"--CODEGEN--\":5:7   */\n    tag_182:\n        /* \"contracts/SaitaSwapPair.sol\":4794:4833  IERC20(token1).balanceOf(address(this)) */\n      pop\n      gas\n      staticcall\n      iszero\n        /* \"--CODEGEN--\":8:17   */\n      dup1\n        /* \"--CODEGEN--\":5:7   */\n      iszero\n      tag_183\n      jumpi\n        /* \"--CODEGEN--\":45:61   */\n      returndatasize\n        /* \"--CODEGEN--\":42:43   */\n      0x00\n        /* \"--CODEGEN--\":39:40   */\n      dup1\n        /* \"--CODEGEN--\":24:62   */\n      returndatacopy\n        /* \"--CODEGEN--\":77:93   */\n      returndatasize\n        /* \"--CODEGEN--\":74:75   */\n      0x00\n        /* \"--CODEGEN--\":67:94   */\n      revert\n        /* \"--CODEGEN--\":5:7   */\n    tag_183:\n        /* \"contracts/SaitaSwapPair.sol\":4794:4833  IERC20(token1).balanceOf(address(this)) */\n      pop\n      pop\n      pop\n      pop\n      mload(0x40)\n      returndatasize\n        /* \"--CODEGEN--\":13:15   */\n      0x20\n        /* \"--CODEGEN--\":8:11   */\n      dup2\n        /* \"--CODEGEN--\":5:16   */\n      lt\n        /* \"--CODEGEN--\":2:4   */\n      iszero\n      tag_184\n      jumpi\n        /* \"--CODEGEN--\":29:30   */\n      0x00\n        /* \"--CODEGEN--\":26:27   */\n      dup1\n        /* \"--CODEGEN--\":19:31   */\n      revert\n        /* \"--CODEGEN--\":2:4   */\n    tag_184:\n        /* \"contracts/SaitaSwapPair.sol\":4794:4833  IERC20(token1).balanceOf(address(this)) */\n      dup2\n      add\n      swap1\n      dup1\n      dup1\n      mload\n      swap1\n      0x20\n      add\n      swap1\n      swap3\n      swap2\n      swap1\n      pop\n      pop\n      pop\n        /* \"contracts/SaitaSwapPair.sol\":4778:4833  uint balance1 = IERC20(token1).balanceOf(address(this)) */\n      swap1\n      pop\n        /* \"contracts/SaitaSwapPair.sol\":4843:4855  uint amount0 */\n      0x00\n        /* \"contracts/SaitaSwapPair.sol\":4858:4881  balance0.sub(_reserve0) */\n      tag_185\n        /* \"contracts/SaitaSwapPair.sol\":4871:4880  _reserve0 */\n      dup6\n        /* \"contracts/SaitaSwapPair.sol\":4858:4881  balance0.sub(_reserve0) */\n      0xffffffffffffffffffffffffffff\n      and\n        /* \"contracts/SaitaSwapPair.sol\":4858:4866  balance0 */\n      dup5\n        /* \"contracts/SaitaSwapPair.sol\":4858:4870  balance0.sub */\n      tag_154\n      swap1\n        /* \"contracts/SaitaSwapPair.sol\":4858:4881  balance0.sub(_reserve0) */\n      swap2\n      swap1\n      0xffffffff\n      and\n      jump\t// in\n    tag_185:\n        /* \"contracts/SaitaSwapPair.sol\":4843:4881  uint amount0 = balance0.sub(_reserve0) */\n      swap1\n      pop\n        /* \"contracts/SaitaSwapPair.sol\":4891:4903  uint amount1 */\n      0x00\n        /* \"contracts/SaitaSwapPair.sol\":4906:4929  balance1.sub(_reserve1) */\n      tag_186\n        /* \"contracts/SaitaSwapPair.sol\":4919:4928  _reserve1 */\n      dup6\n        /* \"contracts/SaitaSwapPair.sol\":4906:4929  balance1.sub(_reserve1) */\n      0xffffffffffffffffffffffffffff\n      and\n        /* \"contracts/SaitaSwapPair.sol\":4906:4914  balance1 */\n      dup5\n        /* \"contracts/SaitaSwapPair.sol\":4906:4918  balance1.sub */\n      tag_154\n      swap1\n        /* \"contracts/SaitaSwapPair.sol\":4906:4929  balance1.sub(_reserve1) */\n      swap2\n      swap1\n      0xffffffff\n      and\n      jump\t// in\n    tag_186:\n        /* \"contracts/SaitaSwapPair.sol\":4891:4929  uint amount1 = balance1.sub(_reserve1) */\n      swap1\n      pop\n        /* \"contracts/SaitaSwapPair.sol\":4940:4950  bool feeOn */\n      0x00\n        /* \"contracts/SaitaSwapPair.sol\":4953:4983  _mintFee(_reserve0, _reserve1) */\n      tag_187\n        /* \"contracts/SaitaSwapPair.sol\":4962:4971  _reserve0 */\n      dup8\n        /* \"contracts/SaitaSwapPair.sol\":4973:4982  _reserve1 */\n      dup8\n        /* \"contracts/SaitaSwapPair.sol\":4953:4961  _mintFee */\n      tag_188\n        /* \"contracts/SaitaSwapPair.sol\":4953:4983  _mintFee(_reserve0, _reserve1) */\n      jump\t// in\n    tag_187:\n        /* \"contracts/SaitaSwapPair.sol\":4940:4983  bool feeOn = _mintFee(_reserve0, _reserve1) */\n      swap1\n      pop\n        /* \"contracts/SaitaSwapPair.sol\":4993:5010  uint _totalSupply */\n      0x00\n        /* \"contracts/SaitaSwapPair.sol\":5013:5024  totalSupply */\n      dup1\n      sload\n        /* \"contracts/SaitaSwapPair.sol\":4993:5024  uint _totalSupply = totalSupply */\n      swap1\n      pop\n        /* \"contracts/SaitaSwapPair.sol\":5132:5133  0 */\n      0x00\n        /* \"contracts/SaitaSwapPair.sol\":5116:5128  _totalSupply */\n      dup2\n        /* \"contracts/SaitaSwapPair.sol\":5116:5133  _totalSupply == 0 */\n      eq\n        /* \"contracts/SaitaSwapPair.sol\":5112:5459  if (_totalSupply == 0) {... */\n      iszero\n      tag_189\n      jumpi\n        /* \"contracts/SaitaSwapPair.sol\":5161:5215  Math.sqrt(amount0.mul(amount1)).sub(MINIMUM_LIQUIDITY) */\n      tag_190\n        /* \"contracts/SaitaSwapPair.sol\":494:499  10**3 */\n      0x03e8\n        /* \"contracts/SaitaSwapPair.sol\":5161:5192  Math.sqrt(amount0.mul(amount1)) */\n      tag_191\n        /* \"contracts/SaitaSwapPair.sol\":5171:5191  amount0.mul(amount1) */\n      tag_192\n        /* \"contracts/SaitaSwapPair.sol\":5183:5190  amount1 */\n      dup7\n        /* \"contracts/SaitaSwapPair.sol\":5171:5178  amount0 */\n      dup9\n        /* \"contracts/SaitaSwapPair.sol\":5171:5182  amount0.mul */\n      tag_152\n      swap1\n        /* \"contracts/SaitaSwapPair.sol\":5171:5191  amount0.mul(amount1) */\n      swap2\n      swap1\n      0xffffffff\n      and\n      jump\t// in\n    tag_192:\n        /* \"contracts/SaitaSwapPair.sol\":5161:5170  Math.sqrt */\n      tag_193\n        /* \"contracts/SaitaSwapPair.sol\":5161:5192  Math.sqrt(amount0.mul(amount1)) */\n      jump\t// in\n    tag_191:\n        /* \"contracts/SaitaSwapPair.sol\":5161:5196  Math.sqrt(amount0.mul(amount1)).sub */\n      tag_154\n      swap1\n        /* \"contracts/SaitaSwapPair.sol\":5161:5215  Math.sqrt(amount0.mul(amount1)).sub(MINIMUM_LIQUIDITY) */\n      swap2\n      swap1\n      0xffffffff\n      and\n      jump\t// in\n    tag_190:\n        /* \"contracts/SaitaSwapPair.sol\":5149:5215  liquidity = Math.sqrt(amount0.mul(amount1)).sub(MINIMUM_LIQUIDITY) */\n      swap9\n      pop\n        /* \"contracts/SaitaSwapPair.sol\":5228:5264  _mint(address(0), MINIMUM_LIQUIDITY) */\n      tag_194\n        /* \"contracts/SaitaSwapPair.sol\":5242:5243  0 */\n      0x00\n        /* \"contracts/SaitaSwapPair.sol\":494:499  10**3 */\n      0x03e8\n        /* \"contracts/SaitaSwapPair.sol\":5228:5233  _mint */\n      tag_195\n        /* \"contracts/SaitaSwapPair.sol\":5228:5264  _mint(address(0), MINIMUM_LIQUIDITY) */\n      jump\t// in\n    tag_194:\n        /* \"contracts/SaitaSwapPair.sol\":5112:5459  if (_totalSupply == 0) {... */\n      jump(tag_196)\n    tag_189:\n        /* \"contracts/SaitaSwapPair.sol\":5362:5448  Math.min(amount0.mul(_totalSupply) / _reserve0, amount1.mul(_totalSupply) / _reserve1) */\n      tag_197\n        /* \"contracts/SaitaSwapPair.sol\":5399:5408  _reserve0 */\n      dup9\n        /* \"contracts/SaitaSwapPair.sol\":5371:5408  amount0.mul(_totalSupply) / _reserve0 */\n      0xffffffffffffffffffffffffffff\n      and\n        /* \"contracts/SaitaSwapPair.sol\":5371:5396  amount0.mul(_totalSupply) */\n      tag_198\n        /* \"contracts/SaitaSwapPair.sol\":5383:5395  _totalSupply */\n      dup4\n        /* \"contracts/SaitaSwapPair.sol\":5371:5378  amount0 */\n      dup8\n        /* \"contracts/SaitaSwapPair.sol\":5371:5382  amount0.mul */\n      tag_152\n      swap1\n        /* \"contracts/SaitaSwapPair.sol\":5371:5396  amount0.mul(_totalSupply) */\n      swap2\n      swap1\n      0xffffffff\n      and\n      jump\t// in\n    tag_198:\n        /* \"contracts/SaitaSwapPair.sol\":5371:5408  amount0.mul(_totalSupply) / _reserve0 */\n      dup2\n      tag_199\n      jumpi\n      invalid\n    tag_199:\n      div\n        /* \"contracts/SaitaSwapPair.sol\":5438:5447  _reserve1 */\n      dup9\n        /* \"contracts/SaitaSwapPair.sol\":5410:5447  amount1.mul(_totalSupply) / _reserve1 */\n      0xffffffffffffffffffffffffffff\n      and\n        /* \"contracts/SaitaSwapPair.sol\":5410:5435  amount1.mul(_totalSupply) */\n      tag_200\n        /* \"contracts/SaitaSwapPair.sol\":5422:5434  _totalSupply */\n      dup5\n        /* \"contracts/SaitaSwapPair.sol\":5410:5417  amount1 */\n      dup8\n        /* \"contracts/SaitaSwapPair.sol\":5410:5421  amount1.mul */\n      tag_152\n      swap1\n        /* \"contracts/SaitaSwapPair.sol\":5410:5435  amount1.mul(_totalSupply) */\n      swap2\n      swap1\n      0xffffffff\n      and\n      jump\t// in\n    tag_200:\n        /* \"contracts/SaitaSwapPair.sol\":5410:5447  amount1.mul(_totalSupply) / _reserve1 */\n      dup2\n      tag_201\n      jumpi\n      invalid\n    tag_201:\n      div\n        /* \"contracts/SaitaSwapPair.sol\":5362:5370  Math.min */\n      tag_202\n        /* \"contracts/SaitaSwapPair.sol\":5362:5448  Math.min(amount0.mul(_totalSupply) / _reserve0, amount1.mul(_totalSupply) / _reserve1) */\n      jump\t// in\n    tag_197:\n        /* \"contracts/SaitaSwapPair.sol\":5350:5448  liquidity = Math.min(amount0.mul(_totalSupply) / _reserve0, amount1.mul(_totalSupply) / _reserve1) */\n      swap9\n      pop\n        /* \"contracts/SaitaSwapPair.sol\":5112:5459  if (_totalSupply == 0) {... */\n    tag_196:\n        /* \"contracts/SaitaSwapPair.sol\":5488:5489  0 */\n      0x00\n        /* \"contracts/SaitaSwapPair.sol\":5476:5485  liquidity */\n      dup10\n        /* \"contracts/SaitaSwapPair.sol\":5476:5489  liquidity > 0 */\n      gt\n        /* \"contracts/SaitaSwapPair.sol\":5468:5534  require(liquidity > 0, 'SaitaSwap: INSUFFICIENT_LIQUIDITY_MINTED') */\n      tag_203\n      jumpi\n      mload(0x40)\n      0x08c379a000000000000000000000000000000000000000000000000000000000\n      dup2\n      mstore\n      0x04\n      add\n      dup1\n      dup1\n      0x20\n      add\n      dup3\n      dup2\n      sub\n      dup3\n      mstore\n      0x28\n      dup2\n      mstore\n      0x20\n      add\n      dup1\n      data_0a51e7944d2122a77fd4e73c44622c7641a6ffe5c17d5a532aabed4e2ee72ec2\n      0x28\n      swap2\n      codecopy\n      0x40\n      add\n      swap2\n      pop\n      pop\n      mload(0x40)\n      dup1\n      swap2\n      sub\n      swap1\n      revert\n    tag_203:\n        /* \"contracts/SaitaSwapPair.sol\":5544:5564  _mint(to, liquidity) */\n      tag_204\n        /* \"contracts/SaitaSwapPair.sol\":5550:5552  to */\n      dup11\n        /* \"contracts/SaitaSwapPair.sol\":5554:5563  liquidity */\n      dup11\n        /* \"contracts/SaitaSwapPair.sol\":5544:5549  _mint */\n      tag_195\n        /* \"contracts/SaitaSwapPair.sol\":5544:5564  _mint(to, liquidity) */\n      jump\t// in\n    tag_204:\n        /* \"contracts/SaitaSwapPair.sol\":5575:5624  _update(balance0, balance1, _reserve0, _reserve1) */\n      tag_205\n        /* \"contracts/SaitaSwapPair.sol\":5583:5591  balance0 */\n      dup7\n        /* \"contracts/SaitaSwapPair.sol\":5593:5601  balance1 */\n      dup7\n        /* \"contracts/SaitaSwapPair.sol\":5603:5612  _reserve0 */\n      dup11\n        /* \"contracts/SaitaSwapPair.sol\":5614:5623  _reserve1 */\n      dup11\n        /* \"contracts/SaitaSwapPair.sol\":5575:5582  _update */\n      tag_163\n        /* \"contracts/SaitaSwapPair.sol\":5575:5624  _update(balance0, balance1, _reserve0, _reserve1) */\n      jump\t// in\n    tag_205:\n        /* \"contracts/SaitaSwapPair.sol\":5638:5643  feeOn */\n      dup2\n        /* \"contracts/SaitaSwapPair.sol\":5634:5681  if (feeOn) kLast = uint(reserve0).mul(reserve1) */\n      iszero\n      tag_206\n      jumpi\n        /* \"contracts/SaitaSwapPair.sol\":5653:5681  uint(reserve0).mul(reserve1) */\n      tag_207\n        /* \"contracts/SaitaSwapPair.sol\":5672:5680  reserve1 */\n      0x0a\n      0x0e\n      swap1\n      sload\n      swap1\n      0x0100\n      exp\n      swap1\n      div\n      0xffffffffffffffffffffffffffff\n      and\n        /* \"contracts/SaitaSwapPair.sol\":5653:5681  uint(reserve0).mul(reserve1) */\n      0xffffffffffffffffffffffffffff\n      and\n        /* \"contracts/SaitaSwapPair.sol\":5658:5666  reserve0 */\n      0x0a\n      0x00\n      swap1\n      sload\n      swap1\n      0x0100\n      exp\n      swap1\n      div\n      0xffffffffffffffffffffffffffff\n      and\n        /* \"contracts/SaitaSwapPair.sol\":5653:5667  uint(reserve0) */\n      0xffffffffffffffffffffffffffff\n      and\n        /* \"contracts/SaitaSwapPair.sol\":5653:5671  uint(reserve0).mul */\n      tag_152\n      swap1\n        /* \"contracts/SaitaSwapPair.sol\":5653:5681  uint(reserve0).mul(reserve1) */\n      swap2\n      swap1\n      0xffffffff\n      and\n      jump\t// in\n    tag_207:\n        /* \"contracts/SaitaSwapPair.sol\":5645:5650  kLast */\n      0x0d\n        /* \"contracts/SaitaSwapPair.sol\":5645:5681  kLast = uint(reserve0).mul(reserve1) */\n      dup2\n      swap1\n      sstore\n      pop\n        /* \"contracts/SaitaSwapPair.sol\":5634:5681  if (feeOn) kLast = uint(reserve0).mul(reserve1) */\n    tag_206:\n        /* \"contracts/SaitaSwapPair.sol\":5741:5751  msg.sender */\n      caller\n        /* \"contracts/SaitaSwapPair.sol\":5736:5770  Mint(msg.sender, amount0, amount1) */\n      0xffffffffffffffffffffffffffffffffffffffff\n      and\n      0x4c209b5fc8ad50758f13e2e1088ba56a560dff690a1c6fef26394f4c03821c4f\n        /* \"contracts/SaitaSwapPair.sol\":5753:5760  amount0 */\n      dup6\n        /* \"contracts/SaitaSwapPair.sol\":5762:5769  amount1 */\n      dup6\n        /* \"contracts/SaitaSwapPair.sol\":5736:5770  Mint(msg.sender, amount0, amount1) */\n      mload(0x40)\n      dup1\n      dup4\n      dup2\n      mstore\n      0x20\n      add\n      dup3\n      dup2\n      mstore\n      0x20\n      add\n      swap3\n      pop\n      pop\n      pop\n      mload(0x40)\n      dup1\n      swap2\n      sub\n      swap1\n      log2\n        /* \"contracts/SaitaSwapPair.sol\":1373:1374  _ */\n      pop\n      pop\n      pop\n      pop\n      pop\n      pop\n      pop\n      pop\n        /* \"contracts/SaitaSwapPair.sol\":1395:1396  1 */\n      0x01\n        /* \"contracts/SaitaSwapPair.sol\":1384:1392  unlocked */\n      0x0e\n        /* \"contracts/SaitaSwapPair.sol\":1384:1396  unlocked = 1 */\n      dup2\n      swap1\n      sstore\n      pop\n        /* \"contracts/SaitaSwapPair.sol\":4558:5777  function mint(address to) external lock returns (uint liquidity) {... */\n      swap2\n      swap1\n      pop\n      jump\t// out\n        /* \"contracts/SaitaSwapERC20.sol\":388:429  mapping(address => uint) public balanceOf */\n    tag_81:\n      mstore(0x20, 0x01)\n      dup1\n      0x00\n      mstore\n      keccak256(0x00, 0x40)\n      0x00\n      swap2\n      pop\n      swap1\n      pop\n      sload\n      dup2\n      jump\t// out\n        /* \"contracts/SaitaSwapPair.sol\":725:762  uint public SWAP_FEE_DENOMINATOR=1000 */\n    tag_83:\n      sload(0x09)\n      dup2\n      jump\t// out\n        /* \"contracts/SaitaSwapPair.sol\":1137:1154  uint public kLast */\n    tag_85:\n      sload(0x0d)\n      dup2\n      jump\t// out\n        /* \"contracts/SaitaSwapERC20.sol\":758:796  mapping(address => uint) public nonces */\n    tag_88:\n      mstore(0x20, 0x04)\n      dup1\n      0x00\n      mstore\n      keccak256(0x00, 0x40)\n      0x00\n      swap2\n      pop\n      swap1\n      pop\n      sload\n      dup2\n      jump\t// out\n        /* \"contracts/SaitaSwapPair.sol\":5886:7330  function burn(address to) external lock returns (uint amount0, uint amount1) {... */\n    tag_91:\n        /* \"contracts/SaitaSwapPair.sol\":5935:5947  uint amount0 */\n      0x00\n        /* \"contracts/SaitaSwapPair.sol\":5949:5961  uint amount1 */\n      dup1\n        /* \"contracts/SaitaSwapPair.sol\":1318:1319  1 */\n      0x01\n        /* \"contracts/SaitaSwapPair.sol\":1306:1314  unlocked */\n      sload(0x0e)\n        /* \"contracts/SaitaSwapPair.sol\":1306:1319  unlocked == 1 */\n      eq\n        /* \"contracts/SaitaSwapPair.sol\":1298:1341  require(unlocked == 1, 'SaitaSwap: LOCKED') */\n      tag_209\n      jumpi\n      mload(0x40)\n      0x08c379a000000000000000000000000000000000000000000000000000000000\n      dup2\n      mstore\n      0x04\n      add\n      dup1\n      dup1\n      0x20\n      add\n      dup3\n      dup2\n      sub\n      dup3\n      mstore\n      0x11\n      dup2\n      mstore\n      0x20\n      add\n      dup1\n      0x5361697461537761703a204c4f434b4544000000000000000000000000000000\n      dup2\n      mstore\n      pop\n      0x20\n      add\n      swap2\n      pop\n      pop\n      mload(0x40)\n      dup1\n      swap2\n      sub\n      swap1\n      revert\n    tag_209:\n        /* \"contracts/SaitaSwapPair.sol\":1362:1363  0 */\n      0x00\n        /* \"contracts/SaitaSwapPair.sol\":1351:1359  unlocked */\n      0x0e\n        /* \"contracts/SaitaSwapPair.sol\":1351:1363  unlocked = 0 */\n      dup2\n      swap1\n      sstore\n      pop\n        /* \"contracts/SaitaSwapPair.sol\":5974:5991  uint112 _reserve0 */\n      0x00\n        /* \"contracts/SaitaSwapPair.sol\":5993:6010  uint112 _reserve1 */\n      dup1\n        /* \"contracts/SaitaSwapPair.sol\":6015:6028  getReserves() */\n      tag_211\n        /* \"contracts/SaitaSwapPair.sol\":6015:6026  getReserves */\n      tag_52\n        /* \"contracts/SaitaSwapPair.sol\":6015:6028  getReserves() */\n      jump\t// in\n    tag_211:\n        /* \"contracts/SaitaSwapPair.sol\":5973:6028  (uint112 _reserve0, uint112 _reserve1,) = getReserves() */\n      pop\n      swap2\n      pop\n      swap2\n      pop\n        /* \"contracts/SaitaSwapPair.sol\":6053:6068  address _token0 */\n      0x00\n        /* \"contracts/SaitaSwapPair.sol\":6071:6077  token0 */\n      0x06\n      0x00\n      swap1\n      sload\n      swap1\n      0x0100\n      exp\n      swap1\n      div\n      0xffffffffffffffffffffffffffffffffffffffff\n      and\n        /* \"contracts/SaitaSwapPair.sol\":6053:6077  address _token0 = token0 */\n      swap1\n      pop\n        /* \"contracts/SaitaSwapPair.sol\":6133:6148  address _token1 */\n      0x00\n        /* \"contracts/SaitaSwapPair.sol\":6151:6157  token1 */\n      0x07\n      0x00\n      swap1\n      sload\n      swap1\n      0x0100\n      exp\n      swap1\n      div\n      0xffffffffffffffffffffffffffffffffffffffff\n      and\n        /* \"contracts/SaitaSwapPair.sol\":6133:6157  address _token1 = token1 */\n      swap1\n      pop\n        /* \"contracts/SaitaSwapPair.sol\":6213:6226  uint balance0 */\n      0x00\n        /* \"contracts/SaitaSwapPair.sol\":6236:6243  _token0 */\n      dup3\n        /* \"contracts/SaitaSwapPair.sol\":6229:6254  IERC20(_token0).balanceOf */\n      0xffffffffffffffffffffffffffffffffffffffff\n      and\n      0x70a08231\n        /* \"contracts/SaitaSwapPair.sol\":6263:6267  this */\n      address\n        /* \"contracts/SaitaSwapPair.sol\":6229:6269  IERC20(_token0).balanceOf(address(this)) */\n      mload(0x40)\n      dup3\n      0xffffffff\n      and\n      0xe0\n      shl\n      dup2\n      mstore\n      0x04\n      add\n      dup1\n      dup3\n      0xffffffffffffffffffffffffffffffffffffffff\n      and\n      0xffffffffffffffffffffffffffffffffffffffff\n      and\n      dup2\n      mstore\n      0x20\n      add\n      swap2\n      pop\n      pop\n      0x20\n      mload(0x40)\n      dup1\n      dup4\n      sub\n      dup2\n      dup7\n      dup1\n      extcodesize\n      iszero\n        /* \"--CODEGEN--\":8:17   */\n      dup1\n        /* \"--CODEGEN--\":5:7   */\n      iszero\n      tag_212\n      jumpi\n        /* \"--CODEGEN--\":30:31   */\n      0x00\n        /* \"--CODEGEN--\":27:28   */\n      dup1\n        /* \"--CODEGEN--\":20:32   */\n      revert\n        /* \"--CODEGEN--\":5:7   */\n    tag_212:\n        /* \"contracts/SaitaSwapPair.sol\":6229:6269  IERC20(_token0).balanceOf(address(this)) */\n      pop\n      gas\n      staticcall\n      iszero\n        /* \"--CODEGEN--\":8:17   */\n      dup1\n        /* \"--CODEGEN--\":5:7   */\n      iszero\n      tag_213\n      jumpi\n        /* \"--CODEGEN--\":45:61   */\n      returndatasize\n        /* \"--CODEGEN--\":42:43   */\n      0x00\n        /* \"--CODEGEN--\":39:40   */\n      dup1\n        /* \"--CODEGEN--\":24:62   */\n      returndatacopy\n        /* \"--CODEGEN--\":77:93   */\n      returndatasize\n        /* \"--CODEGEN--\":74:75   */\n      0x00\n        /* \"--CODEGEN--\":67:94   */\n      revert\n        /* \"--CODEGEN--\":5:7   */\n    tag_213:\n        /* \"contracts/SaitaSwapPair.sol\":6229:6269  IERC20(_token0).balanceOf(address(this)) */\n      pop\n      pop\n      pop\n      pop\n      mload(0x40)\n      returndatasize\n        /* \"--CODEGEN--\":13:15   */\n      0x20\n        /* \"--CODEGEN--\":8:11   */\n      dup2\n        /* \"--CODEGEN--\":5:16   */\n      lt\n        /* \"--CODEGEN--\":2:4   */\n      iszero\n      tag_214\n      jumpi\n        /* \"--CODEGEN--\":29:30   */\n      0x00\n        /* \"--CODEGEN--\":26:27   */\n      dup1\n        /* \"--CODEGEN--\":19:31   */\n      revert\n        /* \"--CODEGEN--\":2:4   */\n    tag_214:\n        /* \"contracts/SaitaSwapPair.sol\":6229:6269  IERC20(_token0).balanceOf(address(this)) */\n      dup2\n      add\n      swap1\n      dup1\n      dup1\n      mload\n      swap1\n      0x20\n      add\n      swap1\n      swap3\n      swap2\n      swap1\n      pop\n      pop\n      pop\n        /* \"contracts/SaitaSwapPair.sol\":6213:6269  uint balance0 = IERC20(_token0).balanceOf(address(this)) */\n      swap1\n      pop\n        /* \"contracts/SaitaSwapPair.sol\":6279:6292  uint balance1 */\n      0x00\n        /* \"contracts/SaitaSwapPair.sol\":6302:6309  _token1 */\n      dup3\n        /* \"contracts/SaitaSwapPair.sol\":6295:6320  IERC20(_token1).balanceOf */\n      0xffffffffffffffffffffffffffffffffffffffff\n      and\n      0x70a08231\n        /* \"contracts/SaitaSwapPair.sol\":6329:6333  this */\n      address\n        /* \"contracts/SaitaSwapPair.sol\":6295:6335  IERC20(_token1).balanceOf(address(this)) */\n      mload(0x40)\n      dup3\n      0xffffffff\n      and\n      0xe0\n      shl\n      dup2\n      mstore\n      0x04\n      add\n      dup1\n      dup3\n      0xffffffffffffffffffffffffffffffffffffffff\n      and\n      0xffffffffffffffffffffffffffffffffffffffff\n      and\n      dup2\n      mstore\n      0x20\n      add\n      swap2\n      pop\n      pop\n      0x20\n      mload(0x40)\n      dup1\n      dup4\n      sub\n      dup2\n      dup7\n      dup1\n      extcodesize\n      iszero\n        /* \"--CODEGEN--\":8:17   */\n      dup1\n        /* \"--CODEGEN--\":5:7   */\n      iszero\n      tag_215\n      jumpi\n        /* \"--CODEGEN--\":30:31   */\n      0x00\n        /* \"--CODEGEN--\":27:28   */\n      dup1\n        /* \"--CODEGEN--\":20:32   */\n      revert\n        /* \"--CODEGEN--\":5:7   */\n    tag_215:\n        /* \"contracts/SaitaSwapPair.sol\":6295:6335  IERC20(_token1).balanceOf(address(this)) */\n      pop\n      gas\n      staticcall\n      iszero\n        /* \"--CODEGEN--\":8:17   */\n      dup1\n        /* \"--CODEGEN--\":5:7   */\n      iszero\n      tag_216\n      jumpi\n        /* \"--CODEGEN--\":45:61   */\n      returndatasize\n        /* \"--CODEGEN--\":42:43   */\n      0x00\n        /* \"--CODEGEN--\":39:40   */\n      dup1\n        /* \"--CODEGEN--\":24:62   */\n      returndatacopy\n        /* \"--CODEGEN--\":77:93   */\n      returndatasize\n        /* \"--CODEGEN--\":74:75   */\n      0x00\n        /* \"--CODEGEN--\":67:94   */\n      revert\n        /* \"--CODEGEN--\":5:7   */\n    tag_216:\n        /* \"contracts/SaitaSwapPair.sol\":6295:6335  IERC20(_token1).balanceOf(address(this)) */\n      pop\n      pop\n      pop\n      pop\n      mload(0x40)\n      returndatasize\n        /* \"--CODEGEN--\":13:15   */\n      0x20\n        /* \"--CODEGEN--\":8:11   */\n      dup2\n        /* \"--CODEGEN--\":5:16   */\n      lt\n        /* \"--CODEGEN--\":2:4   */\n      iszero\n      tag_217\n      jumpi\n        /* \"--CODEGEN--\":29:30   */\n      0x00\n        /* \"--CODEGEN--\":26:27   */\n      dup1\n        /* \"--CODEGEN--\":19:31   */\n      revert\n        /* \"--CODEGEN--\":2:4   */\n    tag_217:\n        /* \"contracts/SaitaSwapPair.sol\":6295:6335  IERC20(_token1).balanceOf(address(this)) */\n      dup2\n      add\n      swap1\n      dup1\n      dup1\n      mload\n      swap1\n      0x20\n      add\n      swap1\n      swap3\n      swap2\n      swap1\n      pop\n      pop\n      pop\n        /* \"contracts/SaitaSwapPair.sol\":6279:6335  uint balance1 = IERC20(_token1).balanceOf(address(this)) */\n      swap1\n      pop\n        /* \"contracts/SaitaSwapPair.sol\":6345:6359  uint liquidity */\n      0x00\n        /* \"contracts/SaitaSwapPair.sol\":6362:6371  balanceOf */\n      0x01\n        /* \"contracts/SaitaSwapPair.sol\":6362:6386  balanceOf[address(this)] */\n      0x00\n        /* \"contracts/SaitaSwapPair.sol\":6380:6384  this */\n      address\n        /* \"contracts/SaitaSwapPair.sol\":6362:6386  balanceOf[address(this)] */\n      0xffffffffffffffffffffffffffffffffffffffff\n      and\n      0xffffffffffffffffffffffffffffffffffffffff\n      and\n      dup2\n      mstore\n      0x20\n      add\n      swap1\n      dup2\n      mstore\n      0x20\n      add\n      0x00\n      keccak256\n      sload\n        /* \"contracts/SaitaSwapPair.sol\":6345:6386  uint liquidity = balanceOf[address(this)] */\n      swap1\n      pop\n        /* \"contracts/SaitaSwapPair.sol\":6397:6407  bool feeOn */\n      0x00\n        /* \"contracts/SaitaSwapPair.sol\":6410:6440  _mintFee(_reserve0, _reserve1) */\n      tag_218\n        /* \"contracts/SaitaSwapPair.sol\":6419:6428  _reserve0 */\n      dup9\n        /* \"contracts/SaitaSwapPair.sol\":6430:6439  _reserve1 */\n      dup9\n        /* \"contracts/SaitaSwapPair.sol\":6410:6418  _mintFee */\n      tag_188\n        /* \"contracts/SaitaSwapPair.sol\":6410:6440  _mintFee(_reserve0, _reserve1) */\n      jump\t// in\n    tag_218:\n        /* \"contracts/SaitaSwapPair.sol\":6397:6440  bool feeOn = _mintFee(_reserve0, _reserve1) */\n      swap1\n      pop\n        /* \"contracts/SaitaSwapPair.sol\":6450:6467  uint _totalSupply */\n      0x00\n        /* \"contracts/SaitaSwapPair.sol\":6470:6481  totalSupply */\n      dup1\n      sload\n        /* \"contracts/SaitaSwapPair.sol\":6450:6481  uint _totalSupply = totalSupply */\n      swap1\n      pop\n        /* \"contracts/SaitaSwapPair.sol\":6605:6617  _totalSupply */\n      dup1\n        /* \"contracts/SaitaSwapPair.sol\":6579:6602  liquidity.mul(balance0) */\n      tag_219\n        /* \"contracts/SaitaSwapPair.sol\":6593:6601  balance0 */\n      dup7\n        /* \"contracts/SaitaSwapPair.sol\":6579:6588  liquidity */\n      dup6\n        /* \"contracts/SaitaSwapPair.sol\":6579:6592  liquidity.mul */\n      tag_152\n      swap1\n        /* \"contracts/SaitaSwapPair.sol\":6579:6602  liquidity.mul(balance0) */\n      swap2\n      swap1\n      0xffffffff\n      and\n      jump\t// in\n    tag_219:\n        /* \"contracts/SaitaSwapPair.sol\":6579:6617  liquidity.mul(balance0) / _totalSupply */\n      dup2\n      tag_220\n      jumpi\n      invalid\n    tag_220:\n      div\n        /* \"contracts/SaitaSwapPair.sol\":6569:6617  amount0 = liquidity.mul(balance0) / _totalSupply */\n      swap11\n      pop\n        /* \"contracts/SaitaSwapPair.sol\":6711:6723  _totalSupply */\n      dup1\n        /* \"contracts/SaitaSwapPair.sol\":6685:6708  liquidity.mul(balance1) */\n      tag_221\n        /* \"contracts/SaitaSwapPair.sol\":6699:6707  balance1 */\n      dup6\n        /* \"contracts/SaitaSwapPair.sol\":6685:6694  liquidity */\n      dup6\n        /* \"contracts/SaitaSwapPair.sol\":6685:6698  liquidity.mul */\n      tag_152\n      swap1\n        /* \"contracts/SaitaSwapPair.sol\":6685:6708  liquidity.mul(balance1) */\n      swap2\n      swap1\n      0xffffffff\n      and\n      jump\t// in\n    tag_221:\n        /* \"contracts/SaitaSwapPair.sol\":6685:6723  liquidity.mul(balance1) / _totalSupply */\n      dup2\n      tag_222\n      jumpi\n      invalid\n    tag_222:\n      div\n        /* \"contracts/SaitaSwapPair.sol\":6675:6723  amount1 = liquidity.mul(balance1) / _totalSupply */\n      swap10\n      pop\n        /* \"contracts/SaitaSwapPair.sol\":6799:6800  0 */\n      0x00\n        /* \"contracts/SaitaSwapPair.sol\":6789:6796  amount0 */\n      dup12\n        /* \"contracts/SaitaSwapPair.sol\":6789:6800  amount0 > 0 */\n      gt\n        /* \"contracts/SaitaSwapPair.sol\":6789:6815  amount0 > 0 && amount1 > 0 */\n      dup1\n      iszero\n      tag_223\n      jumpi\n      pop\n        /* \"contracts/SaitaSwapPair.sol\":6814:6815  0 */\n      0x00\n        /* \"contracts/SaitaSwapPair.sol\":6804:6811  amount1 */\n      dup11\n        /* \"contracts/SaitaSwapPair.sol\":6804:6815  amount1 > 0 */\n      gt\n        /* \"contracts/SaitaSwapPair.sol\":6789:6815  amount0 > 0 && amount1 > 0 */\n    tag_223:\n        /* \"contracts/SaitaSwapPair.sol\":6781:6860  require(amount0 > 0 && amount1 > 0, 'SaitaSwap: INSUFFICIENT_LIQUIDITY_BURNED') */\n      tag_224\n      jumpi\n      mload(0x40)\n      0x08c379a000000000000000000000000000000000000000000000000000000000\n      dup2\n      mstore\n      0x04\n      add\n      dup1\n      dup1\n      0x20\n      add\n      dup3\n      dup2\n      sub\n      dup3\n      mstore\n      0x28\n      dup2\n      mstore\n      0x20\n      add\n      dup1\n      data_5e82f3f52455bf4ac5f469da7ca9ef9ebf1a038e167ba303f62198c7bdd5951c\n      0x28\n      swap2\n      codecopy\n      0x40\n      add\n      swap2\n      pop\n      pop\n      mload(0x40)\n      dup1\n      swap2\n      sub\n      swap1\n      revert\n    tag_224:\n        /* \"contracts/SaitaSwapPair.sol\":6870:6901  _burn(address(this), liquidity) */\n      tag_225\n        /* \"contracts/SaitaSwapPair.sol\":6884:6888  this */\n      address\n        /* \"contracts/SaitaSwapPair.sol\":6891:6900  liquidity */\n      dup5\n        /* \"contracts/SaitaSwapPair.sol\":6870:6875  _burn */\n      tag_226\n        /* \"contracts/SaitaSwapPair.sol\":6870:6901  _burn(address(this), liquidity) */\n      jump\t// in\n    tag_225:\n        /* \"contracts/SaitaSwapPair.sol\":6911:6946  _safeTransfer(_token0, to, amount0) */\n      tag_227\n        /* \"contracts/SaitaSwapPair.sol\":6925:6932  _token0 */\n      dup8\n        /* \"contracts/SaitaSwapPair.sol\":6934:6936  to */\n      dup14\n        /* \"contracts/SaitaSwapPair.sol\":6938:6945  amount0 */\n      dup14\n        /* \"contracts/SaitaSwapPair.sol\":6911:6924  _safeTransfer */\n      tag_132\n        /* \"contracts/SaitaSwapPair.sol\":6911:6946  _safeTransfer(_token0, to, amount0) */\n      jump\t// in\n    tag_227:\n        /* \"contracts/SaitaSwapPair.sol\":6956:6991  _safeTransfer(_token1, to, amount1) */\n      tag_228\n        /* \"contracts/SaitaSwapPair.sol\":6970:6977  _token1 */\n      dup7\n        /* \"contracts/SaitaSwapPair.sol\":6979:6981  to */\n      dup14\n        /* \"contracts/SaitaSwapPair.sol\":6983:6990  amount1 */\n      dup13\n        /* \"contracts/SaitaSwapPair.sol\":6956:6969  _safeTransfer */\n      tag_132\n        /* \"contracts/SaitaSwapPair.sol\":6956:6991  _safeTransfer(_token1, to, amount1) */\n      jump\t// in\n    tag_228:\n        /* \"contracts/SaitaSwapPair.sol\":7019:7026  _token0 */\n      dup7\n        /* \"contracts/SaitaSwapPair.sol\":7012:7037  IERC20(_token0).balanceOf */\n      0xffffffffffffffffffffffffffffffffffffffff\n      and\n      0x70a08231\n        /* \"contracts/SaitaSwapPair.sol\":7046:7050  this */\n      address\n        /* \"contracts/SaitaSwapPair.sol\":7012:7052  IERC20(_token0).balanceOf(address(this)) */\n      mload(0x40)\n      dup3\n      0xffffffff\n      and\n      0xe0\n      shl\n      dup2\n      mstore\n      0x04\n      add\n      dup1\n      dup3\n      0xffffffffffffffffffffffffffffffffffffffff\n      and\n      0xffffffffffffffffffffffffffffffffffffffff\n      and\n      dup2\n      mstore\n      0x20\n      add\n      swap2\n      pop\n      pop\n      0x20\n      mload(0x40)\n      dup1\n      dup4\n      sub\n      dup2\n      dup7\n      dup1\n      extcodesize\n      iszero\n        /* \"--CODEGEN--\":8:17   */\n      dup1\n        /* \"--CODEGEN--\":5:7   */\n      iszero\n      tag_229\n      jumpi\n        /* \"--CODEGEN--\":30:31   */\n      0x00\n        /* \"--CODEGEN--\":27:28   */\n      dup1\n        /* \"--CODEGEN--\":20:32   */\n      revert\n        /* \"--CODEGEN--\":5:7   */\n    tag_229:\n        /* \"contracts/SaitaSwapPair.sol\":7012:7052  IERC20(_token0).balanceOf(address(this)) */\n      pop\n      gas\n      staticcall\n      iszero\n        /* \"--CODEGEN--\":8:17   */\n      dup1\n        /* \"--CODEGEN--\":5:7   */\n      iszero\n      tag_230\n      jumpi\n        /* \"--CODEGEN--\":45:61   */\n      returndatasize\n        /* \"--CODEGEN--\":42:43   */\n      0x00\n        /* \"--CODEGEN--\":39:40   */\n      dup1\n        /* \"--CODEGEN--\":24:62   */\n      returndatacopy\n        /* \"--CODEGEN--\":77:93   */\n      returndatasize\n        /* \"--CODEGEN--\":74:75   */\n      0x00\n        /* \"--CODEGEN--\":67:94   */\n      revert\n        /* \"--CODEGEN--\":5:7   */\n    tag_230:\n        /* \"contracts/SaitaSwapPair.sol\":7012:7052  IERC20(_token0).balanceOf(address(this)) */\n      pop\n      pop\n      pop\n      pop\n      mload(0x40)\n      returndatasize\n        /* \"--CODEGEN--\":13:15   */\n      0x20\n        /* \"--CODEGEN--\":8:11   */\n      dup2\n        /* \"--CODEGEN--\":5:16   */\n      lt\n        /* \"--CODEGEN--\":2:4   */\n      iszero\n      tag_231\n      jumpi\n        /* \"--CODEGEN--\":29:30   */\n      0x00\n        /* \"--CODEGEN--\":26:27   */\n      dup1\n        /* \"--CODEGEN--\":19:31   */\n      revert\n        /* \"--CODEGEN--\":2:4   */\n    tag_231:\n        /* \"contracts/SaitaSwapPair.sol\":7012:7052  IERC20(_token0).balanceOf(address(this)) */\n      dup2\n      add\n      swap1\n      dup1\n      dup1\n      mload\n      swap1\n      0x20\n      add\n      swap1\n      swap3\n      swap2\n      swap1\n      pop\n      pop\n      pop\n        /* \"contracts/SaitaSwapPair.sol\":7001:7052  balance0 = IERC20(_token0).balanceOf(address(this)) */\n      swap5\n      pop\n        /* \"contracts/SaitaSwapPair.sol\":7080:7087  _token1 */\n      dup6\n        /* \"contracts/SaitaSwapPair.sol\":7073:7098  IERC20(_token1).balanceOf */\n      0xffffffffffffffffffffffffffffffffffffffff\n      and\n      0x70a08231\n        /* \"contracts/SaitaSwapPair.sol\":7107:7111  this */\n      address\n        /* \"contracts/SaitaSwapPair.sol\":7073:7113  IERC20(_token1).balanceOf(address(this)) */\n      mload(0x40)\n      dup3\n      0xffffffff\n      and\n      0xe0\n      shl\n      dup2\n      mstore\n      0x04\n      add\n      dup1\n      dup3\n      0xffffffffffffffffffffffffffffffffffffffff\n      and\n      0xffffffffffffffffffffffffffffffffffffffff\n      and\n      dup2\n      mstore\n      0x20\n      add\n      swap2\n      pop\n      pop\n      0x20\n      mload(0x40)\n      dup1\n      dup4\n      sub\n      dup2\n      dup7\n      dup1\n      extcodesize\n      iszero\n        /* \"--CODEGEN--\":8:17   */\n      dup1\n        /* \"--CODEGEN--\":5:7   */\n      iszero\n      tag_232\n      jumpi\n        /* \"--CODEGEN--\":30:31   */\n      0x00\n        /* \"--CODEGEN--\":27:28   */\n      dup1\n        /* \"--CODEGEN--\":20:32   */\n      revert\n        /* \"--CODEGEN--\":5:7   */\n    tag_232:\n        /* \"contracts/SaitaSwapPair.sol\":7073:7113  IERC20(_token1).balanceOf(address(this)) */\n      pop\n      gas\n      staticcall\n      iszero\n        /* \"--CODEGEN--\":8:17   */\n      dup1\n        /* \"--CODEGEN--\":5:7   */\n      iszero\n      tag_233\n      jumpi\n        /* \"--CODEGEN--\":45:61   */\n      returndatasize\n        /* \"--CODEGEN--\":42:43   */\n      0x00\n        /* \"--CODEGEN--\":39:40   */\n      dup1\n        /* \"--CODEGEN--\":24:62   */\n      returndatacopy\n        /* \"--CODEGEN--\":77:93   */\n      returndatasize\n        /* \"--CODEGEN--\":74:75   */\n      0x00\n        /* \"--CODEGEN--\":67:94   */\n      revert\n        /* \"--CODEGEN--\":5:7   */\n    tag_233:\n        /* \"contracts/SaitaSwapPair.sol\":7073:7113  IERC20(_token1).balanceOf(address(this)) */\n      pop\n      pop\n      pop\n      pop\n      mload(0x40)\n      returndatasize\n        /* \"--CODEGEN--\":13:15   */\n      0x20\n        /* \"--CODEGEN--\":8:11   */\n      dup2\n        /* \"--CODEGEN--\":5:16   */\n      lt\n        /* \"--CODEGEN--\":2:4   */\n      iszero\n      tag_234\n      jumpi\n        /* \"--CODEGEN--\":29:30   */\n      0x00\n        /* \"--CODEGEN--\":26:27   */\n      dup1\n        /* \"--CODEGEN--\":19:31   */\n      revert\n        /* \"--CODEGEN--\":2:4   */\n    tag_234:\n        /* \"contracts/SaitaSwapPair.sol\":7073:7113  IERC20(_token1).balanceOf(address(this)) */\n      dup2\n      add\n      swap1\n      dup1\n      dup1\n      mload\n      swap1\n      0x20\n      add\n      swap1\n      swap3\n      swap2\n      swap1\n      pop\n      pop\n      pop\n        /* \"contracts/SaitaSwapPair.sol\":7062:7113  balance1 = IERC20(_token1).balanceOf(address(this)) */\n      swap4\n      pop\n        /* \"contracts/SaitaSwapPair.sol\":7124:7173  _update(balance0, balance1, _reserve0, _reserve1) */\n      tag_235\n        /* \"contracts/SaitaSwapPair.sol\":7132:7140  balance0 */\n      dup6\n        /* \"contracts/SaitaSwapPair.sol\":7142:7150  balance1 */\n      dup6\n        /* \"contracts/SaitaSwapPair.sol\":7152:7161  _reserve0 */\n      dup12\n        /* \"contracts/SaitaSwapPair.sol\":7163:7172  _reserve1 */\n      dup12\n        /* \"contracts/SaitaSwapPair.sol\":7124:7131  _update */\n      tag_163\n        /* \"contracts/SaitaSwapPair.sol\":7124:7173  _update(balance0, balance1, _reserve0, _reserve1) */\n      jump\t// in\n    tag_235:\n        /* \"contracts/SaitaSwapPair.sol\":7187:7192  feeOn */\n      dup2\n        /* \"contracts/SaitaSwapPair.sol\":7183:7230  if (feeOn) kLast = uint(reserve0).mul(reserve1) */\n      iszero\n      tag_236\n      jumpi\n        /* \"contracts/SaitaSwapPair.sol\":7202:7230  uint(reserve0).mul(reserve1) */\n      tag_237\n        /* \"contracts/SaitaSwapPair.sol\":7221:7229  reserve1 */\n      0x0a\n      0x0e\n      swap1\n      sload\n      swap1\n      0x0100\n      exp\n      swap1\n      div\n      0xffffffffffffffffffffffffffff\n      and\n        /* \"contracts/SaitaSwapPair.sol\":7202:7230  uint(reserve0).mul(reserve1) */\n      0xffffffffffffffffffffffffffff\n      and\n        /* \"contracts/SaitaSwapPair.sol\":7207:7215  reserve0 */\n      0x0a\n      0x00\n      swap1\n      sload\n      swap1\n      0x0100\n      exp\n      swap1\n      div\n      0xffffffffffffffffffffffffffff\n      and\n        /* \"contracts/SaitaSwapPair.sol\":7202:7216  uint(reserve0) */\n      0xffffffffffffffffffffffffffff\n      and\n        /* \"contracts/SaitaSwapPair.sol\":7202:7220  uint(reserve0).mul */\n      tag_152\n      swap1\n        /* \"contracts/SaitaSwapPair.sol\":7202:7230  uint(reserve0).mul(reserve1) */\n      swap2\n      swap1\n      0xffffffff\n      and\n      jump\t// in\n    tag_237:\n        /* \"contracts/SaitaSwapPair.sol\":7194:7199  kLast */\n      0x0d\n        /* \"contracts/SaitaSwapPair.sol\":7194:7230  kLast = uint(reserve0).mul(reserve1) */\n      dup2\n      swap1\n      sstore\n      pop\n        /* \"contracts/SaitaSwapPair.sol\":7183:7230  if (feeOn) kLast = uint(reserve0).mul(reserve1) */\n    tag_236:\n        /* \"contracts/SaitaSwapPair.sol\":7320:7322  to */\n      dup12\n        /* \"contracts/SaitaSwapPair.sol\":7285:7323  Burn(msg.sender, amount0, amount1, to) */\n      0xffffffffffffffffffffffffffffffffffffffff\n      and\n        /* \"contracts/SaitaSwapPair.sol\":7290:7300  msg.sender */\n      caller\n        /* \"contracts/SaitaSwapPair.sol\":7285:7323  Burn(msg.sender, amount0, amount1, to) */\n      0xffffffffffffffffffffffffffffffffffffffff\n      and\n      0xdccd412f0b1252819cb1fd330b93224ca42612892bb3f4f789976e6d81936496\n        /* \"contracts/SaitaSwapPair.sol\":7302:7309  amount0 */\n      dup14\n        /* \"contracts/SaitaSwapPair.sol\":7311:7318  amount1 */\n      dup14\n        /* \"contracts/SaitaSwapPair.sol\":7285:7323  Burn(msg.sender, amount0, amount1, to) */\n      mload(0x40)\n      dup1\n      dup4\n      dup2\n      mstore\n      0x20\n      add\n      dup3\n      dup2\n      mstore\n      0x20\n      add\n      swap3\n      pop\n      pop\n      pop\n      mload(0x40)\n      dup1\n      swap2\n      sub\n      swap1\n      log3\n        /* \"contracts/SaitaSwapPair.sol\":1373:1374  _ */\n      pop\n      pop\n      pop\n      pop\n      pop\n      pop\n      pop\n      pop\n      pop\n        /* \"contracts/SaitaSwapPair.sol\":1395:1396  1 */\n      0x01\n        /* \"contracts/SaitaSwapPair.sol\":1384:1392  unlocked */\n      0x0e\n        /* \"contracts/SaitaSwapPair.sol\":1384:1396  unlocked = 1 */\n      dup2\n      swap1\n      sstore\n      pop\n        /* \"contracts/SaitaSwapPair.sol\":5886:7330  function burn(address to) external lock returns (uint amount0, uint amount1) {... */\n      swap2\n      pop\n      swap2\n      jump\t// out\n        /* \"contracts/SaitaSwapERC20.sol\":274:311  string public constant symbol = 'slp' */\n    tag_93:\n      mload(0x40)\n      dup1\n      0x40\n      add\n      0x40\n      mstore\n      dup1\n      0x03\n      dup2\n      mstore\n      0x20\n      add\n      0x736c700000000000000000000000000000000000000000000000000000000000\n      dup2\n      mstore\n      pop\n      dup2\n      jump\t// out\n        /* \"contracts/SaitaSwapERC20.sol\":2832:2968  function transfer(address to, uint value) external returns (bool) {... */\n    tag_100:\n        /* \"contracts/SaitaSwapERC20.sol\":2892:2896  bool */\n      0x00\n        /* \"contracts/SaitaSwapERC20.sol\":2908:2940  _transfer(msg.sender, to, value) */\n      tag_239\n        /* \"contracts/SaitaSwapERC20.sol\":2918:2928  msg.sender */\n      caller\n        /* \"contracts/SaitaSwapERC20.sol\":2930:2932  to */\n      dup5\n        /* \"contracts/SaitaSwapERC20.sol\":2934:2939  value */\n      dup5\n        /* \"contracts/SaitaSwapERC20.sol\":2908:2917  _transfer */\n      tag_172\n        /* \"contracts/SaitaSwapERC20.sol\":2908:2940  _transfer(msg.sender, to, value) */\n      jump\t// in\n    tag_239:\n        /* \"contracts/SaitaSwapERC20.sol\":2957:2961  true */\n      0x01\n        /* \"contracts/SaitaSwapERC20.sol\":2950:2961  return true */\n      swap1\n      pop\n        /* \"contracts/SaitaSwapERC20.sol\":2832:2968  function transfer(address to, uint value) external returns (bool) {... */\n      swap3\n      swap2\n      pop\n      pop\n      jump\t// out\n        /* \"contracts/SaitaSwapPair.sol\":453:499  uint public constant MINIMUM_LIQUIDITY = 10**3 */\n    tag_102:\n        /* \"contracts/SaitaSwapPair.sol\":494:499  10**3 */\n      0x03e8\n        /* \"contracts/SaitaSwapPair.sol\":453:499  uint public constant MINIMUM_LIQUIDITY = 10**3 */\n      dup2\n      jump\t// out\n        /* \"contracts/SaitaSwapPair.sol\":9445:9774  function skim(address to) external lock {... */\n    tag_105:\n        /* \"contracts/SaitaSwapPair.sol\":1318:1319  1 */\n      0x01\n        /* \"contracts/SaitaSwapPair.sol\":1306:1314  unlocked */\n      sload(0x0e)\n        /* \"contracts/SaitaSwapPair.sol\":1306:1319  unlocked == 1 */\n      eq\n        /* \"contracts/SaitaSwapPair.sol\":1298:1341  require(unlocked == 1, 'SaitaSwap: LOCKED') */\n      tag_241\n      jumpi\n      mload(0x40)\n      0x08c379a000000000000000000000000000000000000000000000000000000000\n      dup2\n      mstore\n      0x04\n      add\n      dup1\n      dup1\n      0x20\n      add\n      dup3\n      dup2\n      sub\n      dup3\n      mstore\n      0x11\n      dup2\n      mstore\n      0x20\n      add\n      dup1\n      0x5361697461537761703a204c4f434b4544000000000000000000000000000000\n      dup2\n      mstore\n      pop\n      0x20\n      add\n      swap2\n      pop\n      pop\n      mload(0x40)\n      dup1\n      swap2\n      sub\n      swap1\n      revert\n    tag_241:\n        /* \"contracts/SaitaSwapPair.sol\":1362:1363  0 */\n      0x00\n        /* \"contracts/SaitaSwapPair.sol\":1351:1359  unlocked */\n      0x0e\n        /* \"contracts/SaitaSwapPair.sol\":1351:1363  unlocked = 0 */\n      dup2\n      swap1\n      sstore\n      pop\n        /* \"contracts/SaitaSwapPair.sol\":9495:9510  address _token0 */\n      0x00\n        /* \"contracts/SaitaSwapPair.sol\":9513:9519  token0 */\n      0x06\n      0x00\n      swap1\n      sload\n      swap1\n      0x0100\n      exp\n      swap1\n      div\n      0xffffffffffffffffffffffffffffffffffffffff\n      and\n        /* \"contracts/SaitaSwapPair.sol\":9495:9519  address _token0 = token0 */\n      swap1\n      pop\n        /* \"contracts/SaitaSwapPair.sol\":9544:9559  address _token1 */\n      0x00\n        /* \"contracts/SaitaSwapPair.sol\":9562:9568  token1 */\n      0x07\n      0x00\n      swap1\n      sload\n      swap1\n      0x0100\n      exp\n      swap1\n      div\n      0xffffffffffffffffffffffffffffffffffffffff\n      and\n        /* \"contracts/SaitaSwapPair.sol\":9544:9568  address _token1 = token1 */\n      swap1\n      pop\n        /* \"contracts/SaitaSwapPair.sol\":9593:9675  _safeTransfer(_token0, to, IERC20(_token0).balanceOf(address(this)).sub(reserve0)) */\n      tag_243\n        /* \"contracts/SaitaSwapPair.sol\":9607:9614  _token0 */\n      dup3\n        /* \"contracts/SaitaSwapPair.sol\":9616:9618  to */\n      dup5\n        /* \"contracts/SaitaSwapPair.sol\":9620:9674  IERC20(_token0).balanceOf(address(this)).sub(reserve0) */\n      tag_244\n        /* \"contracts/SaitaSwapPair.sol\":9665:9673  reserve0 */\n      0x0a\n      0x00\n      swap1\n      sload\n      swap1\n      0x0100\n      exp\n      swap1\n      div\n      0xffffffffffffffffffffffffffff\n      and\n        /* \"contracts/SaitaSwapPair.sol\":9620:9674  IERC20(_token0).balanceOf(address(this)).sub(reserve0) */\n      0xffffffffffffffffffffffffffff\n      and\n        /* \"contracts/SaitaSwapPair.sol\":9627:9634  _token0 */\n      dup7\n        /* \"contracts/SaitaSwapPair.sol\":9620:9645  IERC20(_token0).balanceOf */\n      0xffffffffffffffffffffffffffffffffffffffff\n      and\n      0x70a08231\n        /* \"contracts/SaitaSwapPair.sol\":9654:9658  this */\n      address\n        /* \"contracts/SaitaSwapPair.sol\":9620:9660  IERC20(_token0).balanceOf(address(this)) */\n      mload(0x40)\n      dup3\n      0xffffffff\n      and\n      0xe0\n      shl\n      dup2\n      mstore\n      0x04\n      add\n      dup1\n      dup3\n      0xffffffffffffffffffffffffffffffffffffffff\n      and\n      0xffffffffffffffffffffffffffffffffffffffff\n      and\n      dup2\n      mstore\n      0x20\n      add\n      swap2\n      pop\n      pop\n      0x20\n      mload(0x40)\n      dup1\n      dup4\n      sub\n      dup2\n      dup7\n      dup1\n      extcodesize\n      iszero\n        /* \"--CODEGEN--\":8:17   */\n      dup1\n        /* \"--CODEGEN--\":5:7   */\n      iszero\n      tag_245\n      jumpi\n        /* \"--CODEGEN--\":30:31   */\n      0x00\n        /* \"--CODEGEN--\":27:28   */\n      dup1\n        /* \"--CODEGEN--\":20:32   */\n      revert\n        /* \"--CODEGEN--\":5:7   */\n    tag_245:\n        /* \"contracts/SaitaSwapPair.sol\":9620:9660  IERC20(_token0).balanceOf(address(this)) */\n      pop\n      gas\n      staticcall\n      iszero\n        /* \"--CODEGEN--\":8:17   */\n      dup1\n        /* \"--CODEGEN--\":5:7   */\n      iszero\n      tag_246\n      jumpi\n        /* \"--CODEGEN--\":45:61   */\n      returndatasize\n        /* \"--CODEGEN--\":42:43   */\n      0x00\n        /* \"--CODEGEN--\":39:40   */\n      dup1\n        /* \"--CODEGEN--\":24:62   */\n      returndatacopy\n        /* \"--CODEGEN--\":77:93   */\n      returndatasize\n        /* \"--CODEGEN--\":74:75   */\n      0x00\n        /* \"--CODEGEN--\":67:94   */\n      revert\n        /* \"--CODEGEN--\":5:7   */\n    tag_246:\n        /* \"contracts/SaitaSwapPair.sol\":9620:9660  IERC20(_token0).balanceOf(address(this)) */\n      pop\n      pop\n      pop\n      pop\n      mload(0x40)\n      returndatasize\n        /* \"--CODEGEN--\":13:15   */\n      0x20\n        /* \"--CODEGEN--\":8:11   */\n      dup2\n        /* \"--CODEGEN--\":5:16   */\n      lt\n        /* \"--CODEGEN--\":2:4   */\n      iszero\n      tag_247\n      jumpi\n        /* \"--CODEGEN--\":29:30   */\n      0x00\n        /* \"--CODEGEN--\":26:27   */\n      dup1\n        /* \"--CODEGEN--\":19:31   */\n      revert\n        /* \"--CODEGEN--\":2:4   */\n    tag_247:\n        /* \"contracts/SaitaSwapPair.sol\":9620:9660  IERC20(_token0).balanceOf(address(this)) */\n      dup2\n      add\n      swap1\n      dup1\n      dup1\n      mload\n      swap1\n      0x20\n      add\n      swap1\n      swap3\n      swap2\n      swap1\n      pop\n      pop\n      pop\n        /* \"contracts/SaitaSwapPair.sol\":9620:9664  IERC20(_token0).balanceOf(address(this)).sub */\n      tag_154\n      swap1\n        /* \"contracts/SaitaSwapPair.sol\":9620:9674  IERC20(_token0).balanceOf(address(this)).sub(reserve0) */\n      swap2\n      swap1\n      0xffffffff\n      and\n      jump\t// in\n    tag_244:\n        /* \"contracts/SaitaSwapPair.sol\":9593:9606  _safeTransfer */\n      tag_132\n        /* \"contracts/SaitaSwapPair.sol\":9593:9675  _safeTransfer(_token0, to, IERC20(_token0).balanceOf(address(this)).sub(reserve0)) */\n      jump\t// in\n    tag_243:\n        /* \"contracts/SaitaSwapPair.sol\":9685:9767  _safeTransfer(_token1, to, IERC20(_token1).balanceOf(address(this)).sub(reserve1)) */\n      tag_248\n        /* \"contracts/SaitaSwapPair.sol\":9699:9706  _token1 */\n      dup2\n        /* \"contracts/SaitaSwapPair.sol\":9708:9710  to */\n      dup5\n        /* \"contracts/SaitaSwapPair.sol\":9712:9766  IERC20(_token1).balanceOf(address(this)).sub(reserve1) */\n      tag_249\n        /* \"contracts/SaitaSwapPair.sol\":9757:9765  reserve1 */\n      0x0a\n      0x0e\n      swap1\n      sload\n      swap1\n      0x0100\n      exp\n      swap1\n      div\n      0xffffffffffffffffffffffffffff\n      and\n        /* \"contracts/SaitaSwapPair.sol\":9712:9766  IERC20(_token1).balanceOf(address(this)).sub(reserve1) */\n      0xffffffffffffffffffffffffffff\n      and\n        /* \"contracts/SaitaSwapPair.sol\":9719:9726  _token1 */\n      dup6\n        /* \"contracts/SaitaSwapPair.sol\":9712:9737  IERC20(_token1).balanceOf */\n      0xffffffffffffffffffffffffffffffffffffffff\n      and\n      0x70a08231\n        /* \"contracts/SaitaSwapPair.sol\":9746:9750  this */\n      address\n        /* \"contracts/SaitaSwapPair.sol\":9712:9752  IERC20(_token1).balanceOf(address(this)) */\n      mload(0x40)\n      dup3\n      0xffffffff\n      and\n      0xe0\n      shl\n      dup2\n      mstore\n      0x04\n      add\n      dup1\n      dup3\n      0xffffffffffffffffffffffffffffffffffffffff\n      and\n      0xffffffffffffffffffffffffffffffffffffffff\n      and\n      dup2\n      mstore\n      0x20\n      add\n      swap2\n      pop\n      pop\n      0x20\n      mload(0x40)\n      dup1\n      dup4\n      sub\n      dup2\n      dup7\n      dup1\n      extcodesize\n      iszero\n        /* \"--CODEGEN--\":8:17   */\n      dup1\n        /* \"--CODEGEN--\":5:7   */\n      iszero\n      tag_250\n      jumpi\n        /* \"--CODEGEN--\":30:31   */\n      0x00\n        /* \"--CODEGEN--\":27:28   */\n      dup1\n        /* \"--CODEGEN--\":20:32   */\n      revert\n        /* \"--CODEGEN--\":5:7   */\n    tag_250:\n        /* \"contracts/SaitaSwapPair.sol\":9712:9752  IERC20(_token1).balanceOf(address(this)) */\n      pop\n      gas\n      staticcall\n      iszero\n        /* \"--CODEGEN--\":8:17   */\n      dup1\n        /* \"--CODEGEN--\":5:7   */\n      iszero\n      tag_251\n      jumpi\n        /* \"--CODEGEN--\":45:61   */\n      returndatasize\n        /* \"--CODEGEN--\":42:43   */\n      0x00\n        /* \"--CODEGEN--\":39:40   */\n      dup1\n        /* \"--CODEGEN--\":24:62   */\n      returndatacopy\n        /* \"--CODEGEN--\":77:93   */\n      returndatasize\n        /* \"--CODEGEN--\":74:75   */\n      0x00\n        /* \"--CODEGEN--\":67:94   */\n      revert\n        /* \"--CODEGEN--\":5:7   */\n    tag_251:\n        /* \"contracts/SaitaSwapPair.sol\":9712:9752  IERC20(_token1).balanceOf(address(this)) */\n      pop\n      pop\n      pop\n      pop\n      mload(0x40)\n      returndatasize\n        /* \"--CODEGEN--\":13:15   */\n      0x20\n        /* \"--CODEGEN--\":8:11   */\n      dup2\n        /* \"--CODEGEN--\":5:16   */\n      lt\n        /* \"--CODEGEN--\":2:4   */\n      iszero\n      tag_252\n      jumpi\n        /* \"--CODEGEN--\":29:30   */\n      0x00\n        /* \"--CODEGEN--\":26:27   */\n      dup1\n        /* \"--CODEGEN--\":19:31   */\n      revert\n        /* \"--CODEGEN--\":2:4   */\n    tag_252:\n        /* \"contracts/SaitaSwapPair.sol\":9712:9752  IERC20(_token1).balanceOf(address(this)) */\n      dup2\n      add\n      swap1\n      dup1\n      dup1\n      mload\n      swap1\n      0x20\n      add\n      swap1\n      swap3\n      swap2\n      swap1\n      pop\n      pop\n      pop\n        /* \"contracts/SaitaSwapPair.sol\":9712:9756  IERC20(_token1).balanceOf(address(this)).sub */\n      tag_154\n      swap1\n        /* \"contracts/SaitaSwapPair.sol\":9712:9766  IERC20(_token1).balanceOf(address(this)).sub(reserve1) */\n      swap2\n      swap1\n      0xffffffff\n      and\n      jump\t// in\n    tag_249:\n        /* \"contracts/SaitaSwapPair.sol\":9685:9698  _safeTransfer */\n      tag_132\n        /* \"contracts/SaitaSwapPair.sol\":9685:9767  _safeTransfer(_token1, to, IERC20(_token1).balanceOf(address(this)).sub(reserve1)) */\n      jump\t// in\n    tag_248:\n        /* \"contracts/SaitaSwapPair.sol\":1373:1374  _ */\n      pop\n      pop\n        /* \"contracts/SaitaSwapPair.sol\":1395:1396  1 */\n      0x01\n        /* \"contracts/SaitaSwapPair.sol\":1384:1392  unlocked */\n      0x0e\n        /* \"contracts/SaitaSwapPair.sol\":1384:1396  unlocked = 1 */\n      dup2\n      swap1\n      sstore\n      pop\n        /* \"contracts/SaitaSwapPair.sol\":9445:9774  function skim(address to) external lock {... */\n      pop\n      jump\t// out\n        /* \"contracts/SaitaSwapPair.sol\":687:719  uint public SWAP_FEE_NUMERATOR=2 */\n    tag_107:\n      sload(0x08)\n      dup2\n      jump\t// out\n        /* \"contracts/SaitaSwapPair.sol\":600:622  address public factory */\n    tag_109:\n      0x05\n      0x00\n      swap1\n      sload\n      swap1\n      0x0100\n      exp\n      swap1\n      div\n      0xffffffffffffffffffffffffffffffffffffffff\n      and\n      dup2\n      jump\t// out\n        /* \"contracts/SaitaSwapPair.sol\":655:676  address public token1 */\n    tag_111:\n      0x07\n      0x00\n      swap1\n      sload\n      swap1\n      0x0100\n      exp\n      swap1\n      div\n      0xffffffffffffffffffffffffffffffffffffffff\n      and\n      dup2\n      jump\t// out\n        /* \"contracts/SaitaSwapERC20.sol\":3275:3945  function permit(address owner, address spender, uint value, uint deadline, uint8 v, bytes32 r, bytes32 s) external ReChain {... */\n    tag_114:\n        /* \"contracts/SaitaSwapERC20.sol\":988:1000  uint chainId */\n      0x00\n        /* \"contracts/SaitaSwapERC20.sol\":1044:1051  chainid */\n      chainid\n        /* \"contracts/SaitaSwapERC20.sol\":1033:1051  chainId := chainid */\n      swap1\n      pop\n        /* \"contracts/SaitaSwapERC20.sol\":1140:1235  keccak256('EIP712Domain(string name,string version,uint256 chainId,address verifyingContract)') */\n      mload(0x40)\n      dup1\n      dup1\n      data_8b73c3c69bb8fe3d512ecc4cf759cc79239f7b179b0ffacaa9a75d522b39400f\n      0x52\n      swap2\n      codecopy\n      0x52\n      add\n      swap1\n      pop\n      mload(0x40)\n      dup1\n      swap2\n      sub\n      swap1\n      keccak256\n        /* \"contracts/SaitaSwapERC20.sol\":1269:1273  name */\n      mload(0x40)\n      dup1\n      0x40\n      add\n      0x40\n      mstore\n      dup1\n      0x0d\n      dup2\n      mstore\n      0x20\n      add\n      0x536169746153776170204c507300000000000000000000000000000000000000\n      dup2\n      mstore\n      pop\n        /* \"contracts/SaitaSwapERC20.sol\":1253:1275  keccak256(bytes(name)) */\n      dup1\n      mload\n      swap1\n      0x20\n      add\n      keccak256\n        /* \"contracts/SaitaSwapERC20.sol\":1303:1313  bytes('1') */\n      mload(0x40)\n      dup1\n      0x40\n      add\n      0x40\n      mstore\n      dup1\n      0x01\n      dup2\n      mstore\n      0x20\n      add\n      0x3100000000000000000000000000000000000000000000000000000000000000\n      dup2\n      mstore\n      pop\n        /* \"contracts/SaitaSwapERC20.sol\":1293:1314  keccak256(bytes('1')) */\n      dup1\n      mload\n      swap1\n      0x20\n      add\n      keccak256\n        /* \"contracts/SaitaSwapERC20.sol\":1332:1339  chainId */\n      dup4\n        /* \"contracts/SaitaSwapERC20.sol\":1365:1369  this */\n      address\n        /* \"contracts/SaitaSwapERC20.sol\":1112:1384  abi.encode(... */\n      add(0x20, mload(0x40))\n      dup1\n      dup7\n      dup2\n      mstore\n      0x20\n      add\n      dup6\n      dup2\n      mstore\n      0x20\n      add\n      dup5\n      dup2\n      mstore\n      0x20\n      add\n      dup4\n      dup2\n      mstore\n      0x20\n      add\n      dup3\n      0xffffffffffffffffffffffffffffffffffffffff\n      and\n      0xffffffffffffffffffffffffffffffffffffffff\n      and\n      dup2\n      mstore\n      0x20\n      add\n      swap6\n      pop\n      pop\n      pop\n      pop\n      pop\n      pop\n      mload(0x40)\n        /* \"--CODEGEN--\":49:53   */\n      0x20\n        /* \"--CODEGEN--\":39:46   */\n      dup2\n        /* \"--CODEGEN--\":30:37   */\n      dup4\n        /* \"--CODEGEN--\":26:47   */\n      sub\n        /* \"--CODEGEN--\":22:54   */\n      sub\n        /* \"--CODEGEN--\":13:20   */\n      dup2\n        /* \"--CODEGEN--\":6:55   */\n      mstore\n        /* \"contracts/SaitaSwapERC20.sol\":1112:1384  abi.encode(... */\n      swap1\n      0x40\n      mstore\n        /* \"contracts/SaitaSwapERC20.sol\":1089:1394  keccak256(... */\n      dup1\n      mload\n      swap1\n      0x20\n      add\n      keccak256\n        /* \"contracts/SaitaSwapERC20.sol\":1070:1086  DOMAIN_SEPARATOR */\n      0x03\n        /* \"contracts/SaitaSwapERC20.sol\":1070:1394  DOMAIN_SEPARATOR = keccak256(... */\n      dup2\n      swap1\n      sstore\n      pop\n        /* \"contracts/SaitaSwapERC20.sol\":3428:3443  block.timestamp */\n      timestamp\n        /* \"contracts/SaitaSwapERC20.sol\":3416:3424  deadline */\n      dup6\n        /* \"contracts/SaitaSwapERC20.sol\":3416:3443  deadline >= block.timestamp */\n      lt\n      iszero\n        /* \"contracts/SaitaSwapERC20.sol\":3408:3466  require(deadline >= block.timestamp, 'SaitaSwap: EXPIRED') */\n      tag_255\n      jumpi\n      mload(0x40)\n      0x08c379a000000000000000000000000000000000000000000000000000000000\n      dup2\n      mstore\n      0x04\n      add\n      dup1\n      dup1\n      0x20\n      add\n      dup3\n      dup2\n      sub\n      dup3\n      mstore\n      0x12\n      dup2\n      mstore\n      0x20\n      add\n      dup1\n      0x5361697461537761703a20455850495245440000000000000000000000000000\n      dup2\n      mstore\n      pop\n      0x20\n      add\n      swap2\n      pop\n      pop\n      mload(0x40)\n      dup1\n      swap2\n      sub\n      swap1\n      revert\n    tag_255:\n        /* \"contracts/SaitaSwapERC20.sol\":3476:3490  bytes32 digest */\n      0x00\n        /* \"contracts/SaitaSwapERC20.sol\":3578:3594  DOMAIN_SEPARATOR */\n      sload(0x03)\n        /* \"contracts/SaitaSwapERC20.sol\":686:752  0x6e71edae12b1b97f4d1f60370fef10105fa2faae0126114a169c64845d6126c9 */\n      0x6e71edae12b1b97f4d1f60370fef10105fa2faae0126114a169c64845d6126c9\n        /* \"contracts/SaitaSwapERC20.sol\":3633:3648  PERMIT_TYPEHASH */\n      0x00\n      shl\n        /* \"contracts/SaitaSwapERC20.sol\":3650:3655  owner */\n      dup11\n        /* \"contracts/SaitaSwapERC20.sol\":3657:3664  spender */\n      dup11\n        /* \"contracts/SaitaSwapERC20.sol\":3666:3671  value */\n      dup11\n        /* \"contracts/SaitaSwapERC20.sol\":3673:3679  nonces */\n      0x04\n        /* \"contracts/SaitaSwapERC20.sol\":3673:3686  nonces[owner] */\n      0x00\n        /* \"contracts/SaitaSwapERC20.sol\":3680:3685  owner */\n      dup16\n        /* \"contracts/SaitaSwapERC20.sol\":3673:3686  nonces[owner] */\n      0xffffffffffffffffffffffffffffffffffffffff\n      and\n      0xffffffffffffffffffffffffffffffffffffffff\n      and\n      dup2\n      mstore\n      0x20\n      add\n      swap1\n      dup2\n      mstore\n      0x20\n      add\n      0x00\n      keccak256\n      0x00\n        /* \"contracts/SaitaSwapERC20.sol\":3673:3688  nonces[owner]++ */\n      dup2\n      sload\n      dup1\n      swap3\n      swap2\n      swap1\n      0x01\n      add\n      swap2\n      swap1\n      pop\n      sstore\n        /* \"contracts/SaitaSwapERC20.sol\":3690:3698  deadline */\n      dup12\n        /* \"contracts/SaitaSwapERC20.sol\":3622:3699  abi.encode(PERMIT_TYPEHASH, owner, spender, value, nonces[owner]++, deadline) */\n      add(0x20, mload(0x40))\n      dup1\n      dup8\n      dup2\n      mstore\n      0x20\n      add\n      dup7\n      0xffffffffffffffffffffffffffffffffffffffff\n      and\n      0xffffffffffffffffffffffffffffffffffffffff\n      and\n      dup2\n      mstore\n      0x20\n      add\n      dup6\n      0xffffffffffffffffffffffffffffffffffffffff\n      and\n      0xffffffffffffffffffffffffffffffffffffffff\n      and\n      dup2\n      mstore\n      0x20\n      add\n      dup5\n      dup2\n      mstore\n      0x20\n      add\n      dup4\n      dup2\n      mstore\n      0x20\n      add\n      dup3\n      dup2\n      mstore\n      0x20\n      add\n      swap7\n      pop\n      pop\n      pop\n      pop\n      pop\n      pop\n      pop\n      mload(0x40)\n        /* \"--CODEGEN--\":49:53   */\n      0x20\n        /* \"--CODEGEN--\":39:46   */\n      dup2\n        /* \"--CODEGEN--\":30:37   */\n      dup4\n        /* \"--CODEGEN--\":26:47   */\n      sub\n        /* \"--CODEGEN--\":22:54   */\n      sub\n        /* \"--CODEGEN--\":13:20   */\n      dup2\n        /* \"--CODEGEN--\":6:55   */\n      mstore\n        /* \"contracts/SaitaSwapERC20.sol\":3622:3699  abi.encode(PERMIT_TYPEHASH, owner, spender, value, nonces[owner]++, deadline) */\n      swap1\n      0x40\n      mstore\n        /* \"contracts/SaitaSwapERC20.sol\":3612:3700  keccak256(abi.encode(PERMIT_TYPEHASH, owner, spender, value, nonces[owner]++, deadline)) */\n      dup1\n      mload\n      swap1\n      0x20\n      add\n      keccak256\n        /* \"contracts/SaitaSwapERC20.sol\":3516:3714  abi.encodePacked(... */\n      add(0x20, mload(0x40))\n      dup1\n      dup1\n      0x1901000000000000000000000000000000000000000000000000000000000000\n      dup2\n      mstore\n      pop\n      0x02\n      add\n      dup4\n      dup2\n      mstore\n      0x20\n      add\n      dup3\n      dup2\n      mstore\n      0x20\n      add\n      swap3\n      pop\n      pop\n      pop\n      mload(0x40)\n        /* \"--CODEGEN--\":49:53   */\n      0x20\n        /* \"--CODEGEN--\":39:46   */\n      dup2\n        /* \"--CODEGEN--\":30:37   */\n      dup4\n        /* \"--CODEGEN--\":26:47   */\n      sub\n        /* \"--CODEGEN--\":22:54   */\n      sub\n        /* \"--CODEGEN--\":13:20   */\n      dup2\n        /* \"--CODEGEN--\":6:55   */\n      mstore\n        /* \"contracts/SaitaSwapERC20.sol\":3516:3714  abi.encodePacked(... */\n      swap1\n      0x40\n      mstore\n        /* \"contracts/SaitaSwapERC20.sol\":3493:3724  keccak256(... */\n      dup1\n      mload\n      swap1\n      0x20\n      add\n      keccak256\n        /* \"contracts/SaitaSwapERC20.sol\":3476:3724  bytes32 digest = keccak256(... */\n      swap1\n      pop\n        /* \"contracts/SaitaSwapERC20.sol\":3734:3758  address recoveredAddress */\n      0x00\n        /* \"contracts/SaitaSwapERC20.sol\":3761:3787  ecrecover(digest, v, r, s) */\n      0x01\n        /* \"contracts/SaitaSwapERC20.sol\":3771:3777  digest */\n      dup3\n        /* \"contracts/SaitaSwapERC20.sol\":3779:3780  v */\n      dup8\n        /* \"contracts/SaitaSwapERC20.sol\":3782:3783  r */\n      dup8\n        /* \"contracts/SaitaSwapERC20.sol\":3785:3786  s */\n      dup8\n        /* \"contracts/SaitaSwapERC20.sol\":3761:3787  ecrecover(digest, v, r, s) */\n      mload(0x40)\n      0x00\n      dup2\n      mstore\n      0x20\n      add\n      0x40\n      mstore\n      mload(0x40)\n      dup1\n      dup6\n      dup2\n      mstore\n      0x20\n      add\n      dup5\n      0xff\n      and\n      0xff\n      and\n      dup2\n      mstore\n      0x20\n      add\n      dup4\n      dup2\n      mstore\n      0x20\n      add\n      dup3\n      dup2\n      mstore\n      0x20\n      add\n      swap5\n      pop\n      pop\n      pop\n      pop\n      pop\n      0x20\n      mload(0x40)\n      0x20\n      dup2\n      sub\n      swap1\n      dup1\n      dup5\n      sub\n      swap1\n      dup6\n      gas\n      staticcall\n      iszero\n        /* \"--CODEGEN--\":8:17   */\n      dup1\n        /* \"--CODEGEN--\":5:7   */\n      iszero\n      tag_256\n      jumpi\n        /* \"--CODEGEN--\":45:61   */\n      returndatasize\n        /* \"--CODEGEN--\":42:43   */\n      0x00\n        /* \"--CODEGEN--\":39:40   */\n      dup1\n        /* \"--CODEGEN--\":24:62   */\n      returndatacopy\n        /* \"--CODEGEN--\":77:93   */\n      returndatasize\n        /* \"--CODEGEN--\":74:75   */\n      0x00\n        /* \"--CODEGEN--\":67:94   */\n      revert\n        /* \"--CODEGEN--\":5:7   */\n    tag_256:\n        /* \"contracts/SaitaSwapERC20.sol\":3761:3787  ecrecover(digest, v, r, s) */\n      pop\n      pop\n      pop\n      mload(sub(mload(0x40), 0x20))\n        /* \"contracts/SaitaSwapERC20.sol\":3734:3787  address recoveredAddress = ecrecover(digest, v, r, s) */\n      swap1\n      pop\n        /* \"contracts/SaitaSwapERC20.sol\":3833:3834  0 */\n      0x00\n        /* \"contracts/SaitaSwapERC20.sol\":3805:3835  recoveredAddress != address(0) */\n      0xffffffffffffffffffffffffffffffffffffffff\n      and\n        /* \"contracts/SaitaSwapERC20.sol\":3805:3821  recoveredAddress */\n      dup2\n        /* \"contracts/SaitaSwapERC20.sol\":3805:3835  recoveredAddress != address(0) */\n      0xffffffffffffffffffffffffffffffffffffffff\n      and\n      eq\n      iszero\n        /* \"contracts/SaitaSwapERC20.sol\":3805:3864  recoveredAddress != address(0) && recoveredAddress == owner */\n      dup1\n      iszero\n      tag_257\n      jumpi\n      pop\n        /* \"contracts/SaitaSwapERC20.sol\":3859:3864  owner */\n      dup10\n        /* \"contracts/SaitaSwapERC20.sol\":3839:3864  recoveredAddress == owner */\n      0xffffffffffffffffffffffffffffffffffffffff\n      and\n        /* \"contracts/SaitaSwapERC20.sol\":3839:3855  recoveredAddress */\n      dup2\n        /* \"contracts/SaitaSwapERC20.sol\":3839:3864  recoveredAddress == owner */\n      0xffffffffffffffffffffffffffffffffffffffff\n      and\n      eq\n        /* \"contracts/SaitaSwapERC20.sol\":3805:3864  recoveredAddress != address(0) && recoveredAddress == owner */\n    tag_257:\n        /* \"contracts/SaitaSwapERC20.sol\":3797:3897  require(recoveredAddress != address(0) && recoveredAddress == owner, 'SaitaSwap: INVALID_SIGNATURE') */\n      tag_258\n      jumpi\n      mload(0x40)\n      0x08c379a000000000000000000000000000000000000000000000000000000000\n      dup2\n      mstore\n      0x04\n      add\n      dup1\n      dup1\n      0x20\n      add\n      dup3\n      dup2\n      sub\n      dup3\n      mstore\n      0x1c\n      dup2\n      mstore\n      0x20\n      add\n      dup1\n      0x5361697461537761703a20494e56414c49445f5349474e415455524500000000\n      dup2\n      mstore\n      pop\n      0x20\n      add\n      swap2\n      pop\n      pop\n      mload(0x40)\n      dup1\n      swap2\n      sub\n      swap1\n      revert\n    tag_258:\n        /* \"contracts/SaitaSwapERC20.sol\":3907:3938  _approve(owner, spender, value) */\n      tag_259\n        /* \"contracts/SaitaSwapERC20.sol\":3916:3921  owner */\n      dup11\n        /* \"contracts/SaitaSwapERC20.sol\":3923:3930  spender */\n      dup11\n        /* \"contracts/SaitaSwapERC20.sol\":3932:3937  value */\n      dup11\n        /* \"contracts/SaitaSwapERC20.sol\":3907:3915  _approve */\n      tag_167\n        /* \"contracts/SaitaSwapERC20.sol\":3907:3938  _approve(owner, spender, value) */\n      jump\t// in\n    tag_259:\n        /* \"contracts/SaitaSwapERC20.sol\":1404:1405  _ */\n      pop\n      pop\n        /* \"contracts/SaitaSwapERC20.sol\":3275:3945  function permit(address owner, address spender, uint value, uint deadline, uint8 v, bytes32 r, bytes32 s) external ReChain {... */\n      pop\n      pop\n      pop\n      pop\n      pop\n      pop\n      pop\n      pop\n      jump\t// out\n        /* \"contracts/SaitaSwapERC20.sol\":435:496  mapping(address => mapping(address => uint)) public allowance */\n    tag_117:\n      mstore(0x20, 0x02)\n      dup2\n      0x00\n      mstore\n      mstore(0x20, keccak256(0x00, 0x40))\n      dup1\n      0x00\n      mstore\n      keccak256(0x00, 0x40)\n      0x00\n      swap2\n      pop\n      swap2\n      pop\n      pop\n      sload\n      dup2\n      jump\t// out\n        /* \"contracts/SaitaSwapPair.sol\":9820:9976  function sync() external lock {... */\n    tag_119:\n        /* \"contracts/SaitaSwapPair.sol\":1318:1319  1 */\n      0x01\n        /* \"contracts/SaitaSwapPair.sol\":1306:1314  unlocked */\n      sload(0x0e)\n        /* \"contracts/SaitaSwapPair.sol\":1306:1319  unlocked == 1 */\n      eq\n        /* \"contracts/SaitaSwapPair.sol\":1298:1341  require(unlocked == 1, 'SaitaSwap: LOCKED') */\n      tag_261\n      jumpi\n      mload(0x40)\n      0x08c379a000000000000000000000000000000000000000000000000000000000\n      dup2\n      mstore\n      0x04\n      add\n      dup1\n      dup1\n      0x20\n      add\n      dup3\n      dup2\n      sub\n      dup3\n      mstore\n      0x11\n      dup2\n      mstore\n      0x20\n      add\n      dup1\n      0x5361697461537761703a204c4f434b4544000000000000000000000000000000\n      dup2\n      mstore\n      pop\n      0x20\n      add\n      swap2\n      pop\n      pop\n      mload(0x40)\n      dup1\n      swap2\n      sub\n      swap1\n      revert\n    tag_261:\n        /* \"contracts/SaitaSwapPair.sol\":1362:1363  0 */\n      0x00\n        /* \"contracts/SaitaSwapPair.sol\":1351:1359  unlocked */\n      0x0e\n        /* \"contracts/SaitaSwapPair.sol\":1351:1363  unlocked = 0 */\n      dup2\n      swap1\n      sstore\n      pop\n        /* \"contracts/SaitaSwapPair.sol\":9860:9969  _update(IERC20(token0).balanceOf(address(this)), IERC20(token1).balanceOf(address(this)), reserve0, reserve1) */\n      tag_263\n        /* \"contracts/SaitaSwapPair.sol\":9875:9881  token0 */\n      0x06\n      0x00\n      swap1\n      sload\n      swap1\n      0x0100\n      exp\n      swap1\n      div\n      0xffffffffffffffffffffffffffffffffffffffff\n      and\n        /* \"contracts/SaitaSwapPair.sol\":9868:9892  IERC20(token0).balanceOf */\n      0xffffffffffffffffffffffffffffffffffffffff\n      and\n      0x70a08231\n        /* \"contracts/SaitaSwapPair.sol\":9901:9905  this */\n      address\n        /* \"contracts/SaitaSwapPair.sol\":9868:9907  IERC20(token0).balanceOf(address(this)) */\n      mload(0x40)\n      dup3\n      0xffffffff\n      and\n      0xe0\n      shl\n      dup2\n      mstore\n      0x04\n      add\n      dup1\n      dup3\n      0xffffffffffffffffffffffffffffffffffffffff\n      and\n      0xffffffffffffffffffffffffffffffffffffffff\n      and\n      dup2\n      mstore\n      0x20\n      add\n      swap2\n      pop\n      pop\n      0x20\n      mload(0x40)\n      dup1\n      dup4\n      sub\n      dup2\n      dup7\n      dup1\n      extcodesize\n      iszero\n        /* \"--CODEGEN--\":8:17   */\n      dup1\n        /* \"--CODEGEN--\":5:7   */\n      iszero\n      tag_264\n      jumpi\n        /* \"--CODEGEN--\":30:31   */\n      0x00\n        /* \"--CODEGEN--\":27:28   */\n      dup1\n        /* \"--CODEGEN--\":20:32   */\n      revert\n        /* \"--CODEGEN--\":5:7   */\n    tag_264:\n        /* \"contracts/SaitaSwapPair.sol\":9868:9907  IERC20(token0).balanceOf(address(this)) */\n      pop\n      gas\n      staticcall\n      iszero\n        /* \"--CODEGEN--\":8:17   */\n      dup1\n        /* \"--CODEGEN--\":5:7   */\n      iszero\n      tag_265\n      jumpi\n        /* \"--CODEGEN--\":45:61   */\n      returndatasize\n        /* \"--CODEGEN--\":42:43   */\n      0x00\n        /* \"--CODEGEN--\":39:40   */\n      dup1\n        /* \"--CODEGEN--\":24:62   */\n      returndatacopy\n        /* \"--CODEGEN--\":77:93   */\n      returndatasize\n        /* \"--CODEGEN--\":74:75   */\n      0x00\n        /* \"--CODEGEN--\":67:94   */\n      revert\n        /* \"--CODEGEN--\":5:7   */\n    tag_265:\n        /* \"contracts/SaitaSwapPair.sol\":9868:9907  IERC20(token0).balanceOf(address(this)) */\n      pop\n      pop\n      pop\n      pop\n      mload(0x40)\n      returndatasize\n        /* \"--CODEGEN--\":13:15   */\n      0x20\n        /* \"--CODEGEN--\":8:11   */\n      dup2\n        /* \"--CODEGEN--\":5:16   */\n      lt\n        /* \"--CODEGEN--\":2:4   */\n      iszero\n      tag_266\n      jumpi\n        /* \"--CODEGEN--\":29:30   */\n      0x00\n        /* \"--CODEGEN--\":26:27   */\n      dup1\n        /* \"--CODEGEN--\":19:31   */\n      revert\n        /* \"--CODEGEN--\":2:4   */\n    tag_266:\n        /* \"contracts/SaitaSwapPair.sol\":9868:9907  IERC20(token0).balanceOf(address(this)) */\n      dup2\n      add\n      swap1\n      dup1\n      dup1\n      mload\n      swap1\n      0x20\n      add\n      swap1\n      swap3\n      swap2\n      swap1\n      pop\n      pop\n      pop\n        /* \"contracts/SaitaSwapPair.sol\":9916:9922  token1 */\n      0x07\n      0x00\n      swap1\n      sload\n      swap1\n      0x0100\n      exp\n      swap1\n      div\n      0xffffffffffffffffffffffffffffffffffffffff\n      and\n        /* \"contracts/SaitaSwapPair.sol\":9909:9933  IERC20(token1).balanceOf */\n      0xffffffffffffffffffffffffffffffffffffffff\n      and\n      0x70a08231\n        /* \"contracts/SaitaSwapPair.sol\":9942:9946  this */\n      address\n        /* \"contracts/SaitaSwapPair.sol\":9909:9948  IERC20(token1).balanceOf(address(this)) */\n      mload(0x40)\n      dup3\n      0xffffffff\n      and\n      0xe0\n      shl\n      dup2\n      mstore\n      0x04\n      add\n      dup1\n      dup3\n      0xffffffffffffffffffffffffffffffffffffffff\n      and\n      0xffffffffffffffffffffffffffffffffffffffff\n      and\n      dup2\n      mstore\n      0x20\n      add\n      swap2\n      pop\n      pop\n      0x20\n      mload(0x40)\n      dup1\n      dup4\n      sub\n      dup2\n      dup7\n      dup1\n      extcodesize\n      iszero\n        /* \"--CODEGEN--\":8:17   */\n      dup1\n        /* \"--CODEGEN--\":5:7   */\n      iszero\n      tag_267\n      jumpi\n        /* \"--CODEGEN--\":30:31   */\n      0x00\n        /* \"--CODEGEN--\":27:28   */\n      dup1\n        /* \"--CODEGEN--\":20:32   */\n      revert\n        /* \"--CODEGEN--\":5:7   */\n    tag_267:\n        /* \"contracts/SaitaSwapPair.sol\":9909:9948  IERC20(token1).balanceOf(address(this)) */\n      pop\n      gas\n      staticcall\n      iszero\n        /* \"--CODEGEN--\":8:17   */\n      dup1\n        /* \"--CODEGEN--\":5:7   */\n      iszero\n      tag_268\n      jumpi\n        /* \"--CODEGEN--\":45:61   */\n      returndatasize\n        /* \"--CODEGEN--\":42:43   */\n      0x00\n        /* \"--CODEGEN--\":39:40   */\n      dup1\n        /* \"--CODEGEN--\":24:62   */\n      returndatacopy\n        /* \"--CODEGEN--\":77:93   */\n      returndatasize\n        /* \"--CODEGEN--\":74:75   */\n      0x00\n        /* \"--CODEGEN--\":67:94   */\n      revert\n        /* \"--CODEGEN--\":5:7   */\n    tag_268:\n        /* \"contracts/SaitaSwapPair.sol\":9909:9948  IERC20(token1).balanceOf(address(this)) */\n      pop\n      pop\n      pop\n      pop\n      mload(0x40)\n      returndatasize\n        /* \"--CODEGEN--\":13:15   */\n      0x20\n        /* \"--CODEGEN--\":8:11   */\n      dup2\n        /* \"--CODEGEN--\":5:16   */\n      lt\n        /* \"--CODEGEN--\":2:4   */\n      iszero\n      tag_269\n      jumpi\n        /* \"--CODEGEN--\":29:30   */\n      0x00\n        /* \"--CODEGEN--\":26:27   */\n      dup1\n        /* \"--CODEGEN--\":19:31   */\n      revert\n        /* \"--CODEGEN--\":2:4   */\n    tag_269:\n        /* \"contracts/SaitaSwapPair.sol\":9909:9948  IERC20(token1).balanceOf(address(this)) */\n      dup2\n      add\n      swap1\n      dup1\n      dup1\n      mload\n      swap1\n      0x20\n      add\n      swap1\n      swap3\n      swap2\n      swap1\n      pop\n      pop\n      pop\n        /* \"contracts/SaitaSwapPair.sol\":9950:9958  reserve0 */\n      0x0a\n      0x00\n      swap1\n      sload\n      swap1\n      0x0100\n      exp\n      swap1\n      div\n      0xffffffffffffffffffffffffffff\n      and\n        /* \"contracts/SaitaSwapPair.sol\":9960:9968  reserve1 */\n      0x0a\n      0x0e\n      swap1\n      sload\n      swap1\n      0x0100\n      exp\n      swap1\n      div\n      0xffffffffffffffffffffffffffff\n      and\n        /* \"contracts/SaitaSwapPair.sol\":9860:9867  _update */\n      tag_163\n        /* \"contracts/SaitaSwapPair.sol\":9860:9969  _update(IERC20(token0).balanceOf(address(this)), IERC20(token1).balanceOf(address(this)), reserve0, reserve1) */\n      jump\t// in\n    tag_263:\n        /* \"contracts/SaitaSwapPair.sol\":1395:1396  1 */\n      0x01\n        /* \"contracts/SaitaSwapPair.sol\":1384:1392  unlocked */\n      0x0e\n        /* \"contracts/SaitaSwapPair.sol\":1384:1396  unlocked = 1 */\n      dup2\n      swap1\n      sstore\n      pop\n        /* \"contracts/SaitaSwapPair.sol\":9820:9976  function sync() external lock {... */\n      jump\t// out\n        /* \"contracts/SaitaSwapPair.sol\":1642:1926  function _safeTransfer(address token, address to, uint value) private {... */\n    tag_132:\n        /* \"contracts/SaitaSwapPair.sol\":1723:1735  bool success */\n      0x00\n        /* \"contracts/SaitaSwapPair.sol\":1737:1754  bytes memory data */\n      0x60\n        /* \"contracts/SaitaSwapPair.sol\":1758:1763  token */\n      dup5\n        /* \"contracts/SaitaSwapPair.sol\":1758:1768  token.call */\n      0xffffffffffffffffffffffffffffffffffffffff\n      and\n        /* \"contracts/SaitaSwapPair.sol\":557:591  bytes('transfer(address,uint256)') */\n      mload(0x40)\n      dup1\n      0x40\n      add\n      0x40\n      mstore\n      dup1\n      0x19\n      dup2\n      mstore\n      0x20\n      add\n      0x7472616e7366657228616464726573732c75696e743235362900000000000000\n      dup2\n      mstore\n      pop\n        /* \"contracts/SaitaSwapPair.sol\":547:592  keccak256(bytes('transfer(address,uint256)')) */\n      dup1\n      mload\n      swap1\n      0x20\n      add\n      keccak256\n        /* \"contracts/SaitaSwapPair.sol\":1802:1804  to */\n      dup6\n        /* \"contracts/SaitaSwapPair.sol\":1806:1811  value */\n      dup6\n        /* \"contracts/SaitaSwapPair.sol\":1769:1812  abi.encodeWithSelector(SELECTOR, to, value) */\n      add(0x24, mload(0x40))\n      dup1\n      dup4\n      0xffffffffffffffffffffffffffffffffffffffff\n      and\n      0xffffffffffffffffffffffffffffffffffffffff\n      and\n      dup2\n      mstore\n      0x20\n      add\n      dup3\n      dup2\n      mstore\n      0x20\n      add\n      swap3\n      pop\n      pop\n      pop\n      mload(0x40)\n        /* \"--CODEGEN--\":49:53   */\n      0x20\n        /* \"--CODEGEN--\":39:46   */\n      dup2\n        /* \"--CODEGEN--\":30:37   */\n      dup4\n        /* \"--CODEGEN--\":26:47   */\n      sub\n        /* \"--CODEGEN--\":22:54   */\n      sub\n        /* \"--CODEGEN--\":13:20   */\n      dup2\n        /* \"--CODEGEN--\":6:55   */\n      mstore\n        /* \"contracts/SaitaSwapPair.sol\":1769:1812  abi.encodeWithSelector(SELECTOR, to, value) */\n      swap1\n      0x40\n      mstore\n      swap1\n      not(0xffffffffffffffffffffffffffffffffffffffffffffffffffffffff)\n      and\n        /* \"--CODEGEN--\":38:42   */\n      0x20\n        /* \"--CODEGEN--\":29:36   */\n      dup3\n        /* \"--CODEGEN--\":25:43   */\n      add\n        /* \"--CODEGEN--\":67:77   */\n      dup1\n        /* \"--CODEGEN--\":61:78   */\n      mload\n        /* \"--CODEGEN--\":96:154   */\n      0xffffffffffffffffffffffffffffffffffffffffffffffffffffffff\n        /* \"--CODEGEN--\":199:207   */\n      dup4\n        /* \"--CODEGEN--\":192:196   */\n      dup2\n        /* \"--CODEGEN--\":186:190   */\n      dup4\n        /* \"--CODEGEN--\":182:197   */\n      and\n        /* \"--CODEGEN--\":179:208   */\n      or\n        /* \"--CODEGEN--\":167:177   */\n      dup4\n        /* \"--CODEGEN--\":160:209   */\n      mstore\n        /* \"--CODEGEN--\":0:215   */\n      pop\n      pop\n      pop\n        /* \"contracts/SaitaSwapPair.sol\":1769:1812  abi.encodeWithSelector(SELECTOR, to, value) */\n      pop\n        /* \"contracts/SaitaSwapPair.sol\":1758:1813  token.call(abi.encodeWithSelector(SELECTOR, to, value)) */\n      mload(0x40)\n      dup1\n      dup3\n      dup1\n      mload\n      swap1\n      0x20\n      add\n      swap1\n      dup1\n      dup4\n      dup4\n        /* \"--CODEGEN--\":36:189   */\n    tag_271:\n        /* \"--CODEGEN--\":66:68   */\n      0x20\n        /* \"--CODEGEN--\":61:64   */\n      dup4\n        /* \"--CODEGEN--\":58:69   */\n      lt\n        /* \"--CODEGEN--\":36:189   */\n      tag_273\n      jumpi\n        /* \"--CODEGEN--\":182:185   */\n      dup1\n        /* \"--CODEGEN--\":176:186   */\n      mload\n        /* \"--CODEGEN--\":171:174   */\n      dup3\n        /* \"--CODEGEN--\":164:187   */\n      mstore\n        /* \"--CODEGEN--\":98:100   */\n      0x20\n        /* \"--CODEGEN--\":93:96   */\n      dup3\n        /* \"--CODEGEN--\":89:101   */\n      add\n        /* \"--CODEGEN--\":82:101   */\n      swap2\n      pop\n        /* \"--CODEGEN--\":123:125   */\n      0x20\n        /* \"--CODEGEN--\":118:121   */\n      dup2\n        /* \"--CODEGEN--\":114:126   */\n      add\n        /* \"--CODEGEN--\":107:126   */\n      swap1\n      pop\n        /* \"--CODEGEN--\":148:150   */\n      0x20\n        /* \"--CODEGEN--\":143:146   */\n      dup4\n        /* \"--CODEGEN--\":139:151   */\n      sub\n        /* \"--CODEGEN--\":132:151   */\n      swap3\n      pop\n        /* \"--CODEGEN--\":36:189   */\n      jump(tag_271)\n    tag_273:\n        /* \"--CODEGEN--\":274:275   */\n      0x01\n        /* \"--CODEGEN--\":267:270   */\n      dup4\n        /* \"--CODEGEN--\":263:265   */\n      0x20\n        /* \"--CODEGEN--\":259:271   */\n      sub\n        /* \"--CODEGEN--\":254:257   */\n      0x0100\n        /* \"--CODEGEN--\":250:272   */\n      exp\n        /* \"--CODEGEN--\":246:276   */\n      sub\n        /* \"--CODEGEN--\":315:319   */\n      dup1\n        /* \"--CODEGEN--\":311:320   */\n      not\n        /* \"--CODEGEN--\":305:308   */\n      dup3\n        /* \"--CODEGEN--\":299:309   */\n      mload\n        /* \"--CODEGEN--\":295:321   */\n      and\n        /* \"--CODEGEN--\":356:360   */\n      dup2\n        /* \"--CODEGEN--\":350:353   */\n      dup5\n        /* \"--CODEGEN--\":344:354   */\n      mload\n        /* \"--CODEGEN--\":340:361   */\n      and\n        /* \"--CODEGEN--\":389:396   */\n      dup1\n        /* \"--CODEGEN--\":380:387   */\n      dup3\n        /* \"--CODEGEN--\":377:397   */\n      or\n        /* \"--CODEGEN--\":372:375   */\n      dup6\n        /* \"--CODEGEN--\":365:398   */\n      mstore\n        /* \"--CODEGEN--\":3:402   */\n      pop\n      pop\n      pop\n        /* \"contracts/SaitaSwapPair.sol\":1758:1813  token.call(abi.encodeWithSelector(SELECTOR, to, value)) */\n      pop\n      pop\n      pop\n      swap1\n      pop\n      add\n      swap2\n      pop\n      pop\n      0x00\n      mload(0x40)\n      dup1\n      dup4\n      sub\n      dup2\n      0x00\n      dup7\n      gas\n      call\n      swap2\n      pop\n      pop\n      returndatasize\n        /* \"--CODEGEN--\":14:15   */\n      dup1\n        /* \"--CODEGEN--\":21:22   */\n      0x00\n        /* \"--CODEGEN--\":16:47   */\n      dup2\n      eq\n      tag_275\n      jumpi\n        /* \"--CODEGEN--\":75:79   */\n      0x40\n        /* \"--CODEGEN--\":69:80   */\n      mload\n        /* \"--CODEGEN--\":64:80   */\n      swap2\n      pop\n        /* \"--CODEGEN--\":144:148   */\n      0x1f\n        /* \"--CODEGEN--\":140:149   */\n      not\n        /* \"--CODEGEN--\":133:137   */\n      0x3f\n        /* \"--CODEGEN--\":115:131   */\n      returndatasize\n        /* \"--CODEGEN--\":111:138   */\n      add\n        /* \"--CODEGEN--\":107:150   */\n      and\n        /* \"--CODEGEN--\":104:105   */\n      dup3\n        /* \"--CODEGEN--\":100:151   */\n      add\n        /* \"--CODEGEN--\":94:98   */\n      0x40\n        /* \"--CODEGEN--\":87:152   */\n      mstore\n        /* \"--CODEGEN--\":169:185   */\n      returndatasize\n        /* \"--CODEGEN--\":166:167   */\n      dup3\n        /* \"--CODEGEN--\":159:186   */\n      mstore\n        /* \"--CODEGEN--\":225:241   */\n      returndatasize\n        /* \"--CODEGEN--\":222:223   */\n      0x00\n        /* \"--CODEGEN--\":215:219   */\n      0x20\n        /* \"--CODEGEN--\":212:213   */\n      dup5\n        /* \"--CODEGEN--\":208:220   */\n      add\n        /* \"--CODEGEN--\":193:242   */\n      returndatacopy\n        /* \"--CODEGEN--\":7:249   */\n      jump(tag_274)\n        /* \"--CODEGEN--\":16:47   */\n    tag_275:\n        /* \"--CODEGEN--\":36:40   */\n      0x60\n        /* \"--CODEGEN--\":31:40   */\n      swap2\n      pop\n        /* \"--CODEGEN--\":7:249   */\n    tag_274:\n      pop\n        /* \"contracts/SaitaSwapPair.sol\":1722:1813  (bool success, bytes memory data) = token.call(abi.encodeWithSelector(SELECTOR, to, value)) */\n      swap2\n      pop\n      swap2\n      pop\n        /* \"contracts/SaitaSwapPair.sol\":1831:1838  success */\n      dup2\n        /* \"contracts/SaitaSwapPair.sol\":1831:1888  success && (data.length == 0 || abi.decode(data, (bool))) */\n      dup1\n      iszero\n      tag_276\n      jumpi\n      pop\n        /* \"contracts/SaitaSwapPair.sol\":1858:1859  0 */\n      0x00\n        /* \"contracts/SaitaSwapPair.sol\":1843:1847  data */\n      dup2\n        /* \"contracts/SaitaSwapPair.sol\":1843:1854  data.length */\n      mload\n        /* \"contracts/SaitaSwapPair.sol\":1843:1859  data.length == 0 */\n      eq\n        /* \"contracts/SaitaSwapPair.sol\":1843:1887  data.length == 0 || abi.decode(data, (bool)) */\n      dup1\n      tag_277\n      jumpi\n      pop\n        /* \"contracts/SaitaSwapPair.sol\":1874:1878  data */\n      dup1\n        /* \"contracts/SaitaSwapPair.sol\":1863:1887  abi.decode(data, (bool)) */\n      dup1\n      0x20\n      add\n      swap1\n      mload\n        /* \"--CODEGEN--\":13:15   */\n      0x20\n        /* \"--CODEGEN--\":8:11   */\n      dup2\n        /* \"--CODEGEN--\":5:16   */\n      lt\n        /* \"--CODEGEN--\":2:4   */\n      iszero\n      tag_278\n      jumpi\n        /* \"--CODEGEN--\":29:30   */\n      0x00\n        /* \"--CODEGEN--\":26:27   */\n      dup1\n        /* \"--CODEGEN--\":19:31   */\n      revert\n        /* \"--CODEGEN--\":2:4   */\n    tag_278:\n        /* \"contracts/SaitaSwapPair.sol\":1863:1887  abi.decode(data, (bool)) */\n      dup2\n      add\n      swap1\n      dup1\n      dup1\n      mload\n      swap1\n      0x20\n      add\n      swap1\n      swap3\n      swap2\n      swap1\n      pop\n      pop\n      pop\n        /* \"contracts/SaitaSwapPair.sol\":1843:1887  data.length == 0 || abi.decode(data, (bool)) */\n    tag_277:\n        /* \"contracts/SaitaSwapPair.sol\":1831:1888  success && (data.length == 0 || abi.decode(data, (bool))) */\n    tag_276:\n        /* \"contracts/SaitaSwapPair.sol\":1823:1919  require(success && (data.length == 0 || abi.decode(data, (bool))), 'SaitaSwap: TRANSFER_FAILED') */\n      tag_279\n      jumpi\n      mload(0x40)\n      0x08c379a000000000000000000000000000000000000000000000000000000000\n      dup2\n      mstore\n      0x04\n      add\n      dup1\n      dup1\n      0x20\n      add\n      dup3\n      dup2\n      sub\n      dup3\n      mstore\n      0x1a\n      dup2\n      mstore\n      0x20\n      add\n      dup1\n      0x5361697461537761703a205452414e534645525f4641494c4544000000000000\n      dup2\n      mstore\n      pop\n      0x20\n      add\n      swap2\n      pop\n      pop\n      mload(0x40)\n      dup1\n      swap2\n      sub\n      swap1\n      revert\n    tag_279:\n        /* \"contracts/SaitaSwapPair.sol\":1642:1926  function _safeTransfer(address token, address to, uint value) private {... */\n      pop\n      pop\n      pop\n      pop\n      pop\n      jump\t// out\n        /* \"contracts/libraries/SafeMath.sol\":421:561  function mul(uint x, uint y) internal pure returns (uint z) {... */\n    tag_152:\n        /* \"contracts/libraries/SafeMath.sol\":473:479  uint z */\n      0x00\n        /* \"contracts/libraries/SafeMath.sol\":504:505  0 */\n      dup1\n        /* \"contracts/libraries/SafeMath.sol\":499:500  y */\n      dup3\n        /* \"contracts/libraries/SafeMath.sol\":499:505  y == 0 */\n      eq\n        /* \"contracts/libraries/SafeMath.sol\":499:529  y == 0 || (z = x * y) / y == x */\n      dup1\n      tag_281\n      jumpi\n      pop\n        /* \"contracts/libraries/SafeMath.sol\":528:529  x */\n      dup3\n        /* \"contracts/libraries/SafeMath.sol\":523:524  y */\n      dup3\n        /* \"contracts/libraries/SafeMath.sol\":518:519  y */\n      dup4\n        /* \"contracts/libraries/SafeMath.sol\":514:515  x */\n      dup6\n        /* \"contracts/libraries/SafeMath.sol\":514:519  x * y */\n      mul\n        /* \"contracts/libraries/SafeMath.sol\":510:519  z = x * y */\n      swap3\n      pop\n      dup3\n        /* \"contracts/libraries/SafeMath.sol\":509:524  (z = x * y) / y */\n      dup2\n      tag_282\n      jumpi\n      invalid\n    tag_282:\n      div\n        /* \"contracts/libraries/SafeMath.sol\":509:529  (z = x * y) / y == x */\n      eq\n        /* \"contracts/libraries/SafeMath.sol\":499:529  y == 0 || (z = x * y) / y == x */\n    tag_281:\n        /* \"contracts/libraries/SafeMath.sol\":491:554  require(y == 0 || (z = x * y) / y == x, 'ds-math-mul-overflow') */\n      tag_283\n      jumpi\n      mload(0x40)\n      0x08c379a000000000000000000000000000000000000000000000000000000000\n      dup2\n      mstore\n      0x04\n      add\n      dup1\n      dup1\n      0x20\n      add\n      dup3\n      dup2\n      sub\n      dup3\n      mstore\n      0x14\n      dup2\n      mstore\n      0x20\n      add\n      dup1\n      0x64732d6d6174682d6d756c2d6f766572666c6f77000000000000000000000000\n      dup2\n      mstore\n      pop\n      0x20\n      add\n      swap2\n      pop\n      pop\n      mload(0x40)\n      dup1\n      swap2\n      sub\n      swap1\n      revert\n    tag_283:\n        /* \"contracts/libraries/SafeMath.sol\":421:561  function mul(uint x, uint y) internal pure returns (uint z) {... */\n      swap3\n      swap2\n      pop\n      pop\n      jump\t// out\n        /* \"contracts/libraries/SafeMath.sol\":288:415  function sub(uint x, uint y) internal pure returns (uint z) {... */\n    tag_154:\n        /* \"contracts/libraries/SafeMath.sol\":340:346  uint z */\n      0x00\n        /* \"contracts/libraries/SafeMath.sol\":381:382  x */\n      dup3\n        /* \"contracts/libraries/SafeMath.sol\":375:376  y */\n      dup3\n        /* \"contracts/libraries/SafeMath.sol\":371:372  x */\n      dup5\n        /* \"contracts/libraries/SafeMath.sol\":371:376  x - y */\n      sub\n        /* \"contracts/libraries/SafeMath.sol\":367:376  z = x - y */\n      swap2\n      pop\n      dup2\n        /* \"contracts/libraries/SafeMath.sol\":366:382  (z = x - y) <= x */\n      gt\n      iszero\n        /* \"contracts/libraries/SafeMath.sol\":358:408  require((z = x - y) <= x, 'ds-math-sub-underflow') */\n      tag_285\n      jumpi\n      mload(0x40)\n      0x08c379a000000000000000000000000000000000000000000000000000000000\n      dup2\n      mstore\n      0x04\n      add\n      dup1\n      dup1\n      0x20\n      add\n      dup3\n      dup2\n      sub\n      dup3\n      mstore\n      0x15\n      dup2\n      mstore\n      0x20\n      add\n      dup1\n      0x64732d6d6174682d7375622d756e646572666c6f770000000000000000000000\n      dup2\n      mstore\n      pop\n      0x20\n      add\n      swap2\n      pop\n      pop\n      mload(0x40)\n      dup1\n      swap2\n      sub\n      swap1\n      revert\n    tag_285:\n        /* \"contracts/libraries/SafeMath.sol\":288:415  function sub(uint x, uint y) internal pure returns (uint z) {... */\n      swap3\n      swap2\n      pop\n      pop\n      jump\t// out\n        /* \"contracts/SaitaSwapPair.sol\":2729:3576  function _update(uint balance0, uint balance1, uint112 _reserve0, uint112 _reserve1) private {... */\n    tag_163:\n        /* \"contracts/SaitaSwapPair.sol\":2860:2862  -1 */\n      0xffffffffffffffffffffffffffffffffffffffffffffffffffffffffffffffff\n        /* \"contracts/SaitaSwapPair.sol\":2840:2863  balance0 <= uint112(-1) */\n      0xffffffffffffffffffffffffffff\n      and\n        /* \"contracts/SaitaSwapPair.sol\":2840:2848  balance0 */\n      dup5\n        /* \"contracts/SaitaSwapPair.sol\":2840:2863  balance0 <= uint112(-1) */\n      gt\n      iszero\n        /* \"contracts/SaitaSwapPair.sol\":2840:2890  balance0 <= uint112(-1) && balance1 <= uint112(-1) */\n      dup1\n      iszero\n      tag_287\n      jumpi\n      pop\n        /* \"contracts/SaitaSwapPair.sol\":2887:2889  -1 */\n      0xffffffffffffffffffffffffffffffffffffffffffffffffffffffffffffffff\n        /* \"contracts/SaitaSwapPair.sol\":2867:2890  balance1 <= uint112(-1) */\n      0xffffffffffffffffffffffffffff\n      and\n        /* \"contracts/SaitaSwapPair.sol\":2867:2875  balance1 */\n      dup4\n        /* \"contracts/SaitaSwapPair.sol\":2867:2890  balance1 <= uint112(-1) */\n      gt\n      iszero\n        /* \"contracts/SaitaSwapPair.sol\":2840:2890  balance0 <= uint112(-1) && balance1 <= uint112(-1) */\n    tag_287:\n        /* \"contracts/SaitaSwapPair.sol\":2832:2914  require(balance0 <= uint112(-1) && balance1 <= uint112(-1), 'SaitaSwap: OVERFLOW') */\n      tag_288\n      jumpi\n      mload(0x40)\n      0x08c379a000000000000000000000000000000000000000000000000000000000\n      dup2\n      mstore\n      0x04\n      add\n      dup1\n      dup1\n      0x20\n      add\n      dup3\n      dup2\n      sub\n      dup3\n      mstore\n      0x13\n      dup2\n      mstore\n      0x20\n      add\n      dup1\n      0x5361697461537761703a204f564552464c4f5700000000000000000000000000\n      dup2\n      mstore\n      pop\n      0x20\n      add\n      swap2\n      pop\n      pop\n      mload(0x40)\n      dup1\n      swap2\n      sub\n      swap1\n      revert\n    tag_288:\n        /* \"contracts/SaitaSwapPair.sol\":2924:2945  uint32 blockTimestamp */\n      0x00\n        /* \"contracts/SaitaSwapPair.sol\":2973:2978  2**32 */\n      0x0100000000\n        /* \"contracts/SaitaSwapPair.sol\":2955:2970  block.timestamp */\n      timestamp\n        /* \"contracts/SaitaSwapPair.sol\":2955:2978  block.timestamp % 2**32 */\n      dup2\n      tag_289\n      jumpi\n      invalid\n    tag_289:\n      mod\n        /* \"contracts/SaitaSwapPair.sol\":2924:2979  uint32 blockTimestamp = uint32(block.timestamp % 2**32) */\n      swap1\n      pop\n        /* \"contracts/SaitaSwapPair.sol\":2989:3007  uint32 timeElapsed */\n      0x00\n        /* \"contracts/SaitaSwapPair.sol\":3027:3045  blockTimestampLast */\n      0x0a\n      0x1c\n      swap1\n      sload\n      swap1\n      0x0100\n      exp\n      swap1\n      div\n      0xffffffff\n      and\n        /* \"contracts/SaitaSwapPair.sol\":3010:3024  blockTimestamp */\n      dup3\n        /* \"contracts/SaitaSwapPair.sol\":3010:3045  blockTimestamp - blockTimestampLast */\n      sub\n        /* \"contracts/SaitaSwapPair.sol\":2989:3045  uint32 timeElapsed = blockTimestamp - blockTimestampLast */\n      swap1\n      pop\n        /* \"contracts/SaitaSwapPair.sol\":3096:3097  0 */\n      0x00\n        /* \"contracts/SaitaSwapPair.sol\":3082:3093  timeElapsed */\n      dup2\n        /* \"contracts/SaitaSwapPair.sol\":3082:3097  timeElapsed > 0 */\n      0xffffffff\n      and\n      gt\n        /* \"contracts/SaitaSwapPair.sol\":3082:3115  timeElapsed > 0 && _reserve0 != 0 */\n      dup1\n      iszero\n      tag_290\n      jumpi\n      pop\n        /* \"contracts/SaitaSwapPair.sol\":3114:3115  0 */\n      0x00\n        /* \"contracts/SaitaSwapPair.sol\":3101:3110  _reserve0 */\n      dup5\n        /* \"contracts/SaitaSwapPair.sol\":3101:3115  _reserve0 != 0 */\n      0xffffffffffffffffffffffffffff\n      and\n      eq\n      iszero\n        /* \"contracts/SaitaSwapPair.sol\":3082:3115  timeElapsed > 0 && _reserve0 != 0 */\n    tag_290:\n        /* \"contracts/SaitaSwapPair.sol\":3082:3133  timeElapsed > 0 && _reserve0 != 0 && _reserve1 != 0 */\n      dup1\n      iszero\n      tag_291\n      jumpi\n      pop\n        /* \"contracts/SaitaSwapPair.sol\":3132:3133  0 */\n      0x00\n        /* \"contracts/SaitaSwapPair.sol\":3119:3128  _reserve1 */\n      dup4\n        /* \"contracts/SaitaSwapPair.sol\":3119:3133  _reserve1 != 0 */\n      0xffffffffffffffffffffffffffff\n      and\n      eq\n      iszero\n        /* \"contracts/SaitaSwapPair.sol\":3082:3133  timeElapsed > 0 && _reserve0 != 0 && _reserve1 != 0 */\n    tag_291:\n        /* \"contracts/SaitaSwapPair.sol\":3078:3410  if (timeElapsed > 0 && _reserve0 != 0 && _reserve1 != 0) {... */\n      iszero\n      tag_292\n      jumpi\n        /* \"contracts/SaitaSwapPair.sol\":3286:3297  timeElapsed */\n      dup1\n        /* \"contracts/SaitaSwapPair.sol\":3233:3297  uint(UQ112x112.encode(_reserve1).uqdiv(_reserve0)) * timeElapsed */\n      0xffffffff\n      and\n        /* \"contracts/SaitaSwapPair.sol\":3238:3282  UQ112x112.encode(_reserve1).uqdiv(_reserve0) */\n      tag_293\n        /* \"contracts/SaitaSwapPair.sol\":3272:3281  _reserve0 */\n      dup6\n        /* \"contracts/SaitaSwapPair.sol\":3238:3265  UQ112x112.encode(_reserve1) */\n      tag_294\n        /* \"contracts/SaitaSwapPair.sol\":3255:3264  _reserve1 */\n      dup7\n        /* \"contracts/SaitaSwapPair.sol\":3238:3254  UQ112x112.encode */\n      tag_295\n        /* \"contracts/SaitaSwapPair.sol\":3238:3265  UQ112x112.encode(_reserve1) */\n      jump\t// in\n    tag_294:\n        /* \"contracts/SaitaSwapPair.sol\":3238:3271  UQ112x112.encode(_reserve1).uqdiv */\n      0xffffffffffffffffffffffffffffffffffffffffffffffffffffffff\n      and\n      tag_296\n      swap1\n        /* \"contracts/SaitaSwapPair.sol\":3238:3282  UQ112x112.encode(_reserve1).uqdiv(_reserve0) */\n      swap2\n      swap1\n      0xffffffff\n      and\n      jump\t// in\n    tag_293:\n        /* \"contracts/SaitaSwapPair.sol\":3233:3283  uint(UQ112x112.encode(_reserve1).uqdiv(_reserve0)) */\n      0xffffffffffffffffffffffffffffffffffffffffffffffffffffffff\n      and\n        /* \"contracts/SaitaSwapPair.sol\":3233:3297  uint(UQ112x112.encode(_reserve1).uqdiv(_reserve0)) * timeElapsed */\n      mul\n        /* \"contracts/SaitaSwapPair.sol\":3209:3229  price0CumulativeLast */\n      0x0b\n      0x00\n        /* \"contracts/SaitaSwapPair.sol\":3209:3297  price0CumulativeLast += uint(UQ112x112.encode(_reserve1).uqdiv(_reserve0)) * timeElapsed */\n      dup3\n      dup3\n      sload\n      add\n      swap3\n      pop\n      pop\n      dup2\n      swap1\n      sstore\n      pop\n        /* \"contracts/SaitaSwapPair.sol\":3388:3399  timeElapsed */\n      dup1\n        /* \"contracts/SaitaSwapPair.sol\":3335:3399  uint(UQ112x112.encode(_reserve0).uqdiv(_reserve1)) * timeElapsed */\n      0xffffffff\n      and\n        /* \"contracts/SaitaSwapPair.sol\":3340:3384  UQ112x112.encode(_reserve0).uqdiv(_reserve1) */\n      tag_297\n        /* \"contracts/SaitaSwapPair.sol\":3374:3383  _reserve1 */\n      dup5\n        /* \"contracts/SaitaSwapPair.sol\":3340:3367  UQ112x112.encode(_reserve0) */\n      tag_298\n        /* \"contracts/SaitaSwapPair.sol\":3357:3366  _reserve0 */\n      dup8\n        /* \"contracts/SaitaSwapPair.sol\":3340:3356  UQ112x112.encode */\n      tag_295\n        /* \"contracts/SaitaSwapPair.sol\":3340:3367  UQ112x112.encode(_reserve0) */\n      jump\t// in\n    tag_298:\n        /* \"contracts/SaitaSwapPair.sol\":3340:3373  UQ112x112.encode(_reserve0).uqdiv */\n      0xffffffffffffffffffffffffffffffffffffffffffffffffffffffff\n      and\n      tag_296\n      swap1\n        /* \"contracts/SaitaSwapPair.sol\":3340:3384  UQ112x112.encode(_reserve0).uqdiv(_reserve1) */\n      swap2\n      swap1\n      0xffffffff\n      and\n      jump\t// in\n    tag_297:\n        /* \"contracts/SaitaSwapPair.sol\":3335:3385  uint(UQ112x112.encode(_reserve0).uqdiv(_reserve1)) */\n      0xffffffffffffffffffffffffffffffffffffffffffffffffffffffff\n      and\n        /* \"contracts/SaitaSwapPair.sol\":3335:3399  uint(UQ112x112.encode(_reserve0).uqdiv(_reserve1)) * timeElapsed */\n      mul\n        /* \"contracts/SaitaSwapPair.sol\":3311:3331  price1CumulativeLast */\n      0x0c\n      0x00\n        /* \"contracts/SaitaSwapPair.sol\":3311:3399  price1CumulativeLast += uint(UQ112x112.encode(_reserve0).uqdiv(_reserve1)) * timeElapsed */\n      dup3\n      dup3\n      sload\n      add\n      swap3\n      pop\n      pop\n      dup2\n      swap1\n      sstore\n      pop\n        /* \"contracts/SaitaSwapPair.sol\":3078:3410  if (timeElapsed > 0 && _reserve0 != 0 && _reserve1 != 0) {... */\n    tag_292:\n        /* \"contracts/SaitaSwapPair.sol\":3438:3446  balance0 */\n      dup6\n        /* \"contracts/SaitaSwapPair.sol\":3419:3427  reserve0 */\n      0x0a\n      0x00\n        /* \"contracts/SaitaSwapPair.sol\":3419:3447  reserve0 = uint112(balance0) */\n      0x0100\n      exp\n      dup2\n      sload\n      dup2\n      0xffffffffffffffffffffffffffff\n      mul\n      not\n      and\n      swap1\n      dup4\n      0xffffffffffffffffffffffffffff\n      and\n      mul\n      or\n      swap1\n      sstore\n      pop\n        /* \"contracts/SaitaSwapPair.sol\":3476:3484  balance1 */\n      dup5\n        /* \"contracts/SaitaSwapPair.sol\":3457:3465  reserve1 */\n      0x0a\n      0x0e\n        /* \"contracts/SaitaSwapPair.sol\":3457:3485  reserve1 = uint112(balance1) */\n      0x0100\n      exp\n      dup2\n      sload\n      dup2\n      0xffffffffffffffffffffffffffff\n      mul\n      not\n      and\n      swap1\n      dup4\n      0xffffffffffffffffffffffffffff\n      and\n      mul\n      or\n      swap1\n      sstore\n      pop\n        /* \"contracts/SaitaSwapPair.sol\":3516:3530  blockTimestamp */\n      dup2\n        /* \"contracts/SaitaSwapPair.sol\":3495:3513  blockTimestampLast */\n      0x0a\n      0x1c\n        /* \"contracts/SaitaSwapPair.sol\":3495:3530  blockTimestampLast = blockTimestamp */\n      0x0100\n      exp\n      dup2\n      sload\n      dup2\n      0xffffffff\n      mul\n      not\n      and\n      swap1\n      dup4\n      0xffffffff\n      and\n      mul\n      or\n      swap1\n      sstore\n      pop\n        /* \"contracts/SaitaSwapPair.sol\":3545:3569  Sync(reserve0, reserve1) */\n      0x1c411e9a96e071241c2f21f7726b17ae89e3cab4c78be50e062b03a9fffbbad1\n        /* \"contracts/SaitaSwapPair.sol\":3550:3558  reserve0 */\n      0x0a\n      0x00\n      swap1\n      sload\n      swap1\n      0x0100\n      exp\n      swap1\n      div\n      0xffffffffffffffffffffffffffff\n      and\n        /* \"contracts/SaitaSwapPair.sol\":3560:3568  reserve1 */\n      0x0a\n      0x0e\n      swap1\n      sload\n      swap1\n      0x0100\n      exp\n      swap1\n      div\n      0xffffffffffffffffffffffffffff\n      and\n        /* \"contracts/SaitaSwapPair.sol\":3545:3569  Sync(reserve0, reserve1) */\n      mload(0x40)\n      dup1\n      dup4\n      0xffffffffffffffffffffffffffff\n      and\n      0xffffffffffffffffffffffffffff\n      and\n      dup2\n      mstore\n      0x20\n      add\n      dup3\n      0xffffffffffffffffffffffffffff\n      and\n      0xffffffffffffffffffffffffffff\n      and\n      dup2\n      mstore\n      0x20\n      add\n      swap3\n      pop\n      pop\n      pop\n      mload(0x40)\n      dup1\n      swap2\n      sub\n      swap1\n      log1\n        /* \"contracts/SaitaSwapPair.sol\":2729:3576  function _update(uint balance0, uint balance1, uint112 _reserve0, uint112 _reserve1) private {... */\n      pop\n      pop\n      pop\n      pop\n      pop\n      pop\n      jump\t// out\n        /* \"contracts/SaitaSwapERC20.sol\":2288:2454  function _approve(address owner, address spender, uint value) private {... */\n    tag_167:\n        /* \"contracts/SaitaSwapERC20.sol\":2396:2401  value */\n      dup1\n        /* \"contracts/SaitaSwapERC20.sol\":2368:2377  allowance */\n      0x02\n        /* \"contracts/SaitaSwapERC20.sol\":2368:2384  allowance[owner] */\n      0x00\n        /* \"contracts/SaitaSwapERC20.sol\":2378:2383  owner */\n      dup6\n        /* \"contracts/SaitaSwapERC20.sol\":2368:2384  allowance[owner] */\n      0xffffffffffffffffffffffffffffffffffffffff\n      and\n      0xffffffffffffffffffffffffffffffffffffffff\n      and\n      dup2\n      mstore\n      0x20\n      add\n      swap1\n      dup2\n      mstore\n      0x20\n      add\n      0x00\n      keccak256\n        /* \"contracts/SaitaSwapERC20.sol\":2368:2393  allowance[owner][spender] */\n      0x00\n        /* \"contracts/SaitaSwapERC20.sol\":2385:2392  spender */\n      dup5\n        /* \"contracts/SaitaSwapERC20.sol\":2368:2393  allowance[owner][spender] */\n      0xffffffffffffffffffffffffffffffffffffffff\n      and\n      0xffffffffffffffffffffffffffffffffffffffff\n      and\n      dup2\n      mstore\n      0x20\n      add\n      swap1\n      dup2\n      mstore\n      0x20\n      add\n      0x00\n      keccak256\n        /* \"contracts/SaitaSwapERC20.sol\":2368:2401  allowance[owner][spender] = value */\n      dup2\n      swap1\n      sstore\n      pop\n        /* \"contracts/SaitaSwapERC20.sol\":2432:2439  spender */\n      dup2\n        /* \"contracts/SaitaSwapERC20.sol\":2416:2447  Approval(owner, spender, value) */\n      0xffffffffffffffffffffffffffffffffffffffff\n      and\n        /* \"contracts/SaitaSwapERC20.sol\":2425:2430  owner */\n      dup4\n        /* \"contracts/SaitaSwapERC20.sol\":2416:2447  Approval(owner, spender, value) */\n      0xffffffffffffffffffffffffffffffffffffffff\n      and\n      0x8c5be1e5ebec7d5bd14f71427d1e84f3dd0314c0f7b2291e5b200ac8c7c3b925\n        /* \"contracts/SaitaSwapERC20.sol\":2441:2446  value */\n      dup4\n        /* \"contracts/SaitaSwapERC20.sol\":2416:2447  Approval(owner, spender, value) */\n      mload(0x40)\n      dup1\n      dup3\n      dup2\n      mstore\n      0x20\n      add\n      swap2\n      pop\n      pop\n      mload(0x40)\n      dup1\n      swap2\n      sub\n      swap1\n      log3\n        /* \"contracts/SaitaSwapERC20.sol\":2288:2454  function _approve(address owner, address spender, uint value) private {... */\n      pop\n      pop\n      pop\n      jump\t// out\n        /* \"contracts/SaitaSwapERC20.sol\":2460:2676  function _transfer(address from, address to, uint value) private {... */\n    tag_172:\n        /* \"contracts/SaitaSwapERC20.sol\":2553:2579  balanceOf[from].sub(value) */\n      tag_301\n        /* \"contracts/SaitaSwapERC20.sol\":2573:2578  value */\n      dup2\n        /* \"contracts/SaitaSwapERC20.sol\":2553:2562  balanceOf */\n      0x01\n        /* \"contracts/SaitaSwapERC20.sol\":2553:2568  balanceOf[from] */\n      0x00\n        /* \"contracts/SaitaSwapERC20.sol\":2563:2567  from */\n      dup7\n        /* \"contracts/SaitaSwapERC20.sol\":2553:2568  balanceOf[from] */\n      0xffffffffffffffffffffffffffffffffffffffff\n      and\n      0xffffffffffffffffffffffffffffffffffffffff\n      and\n      dup2\n      mstore\n      0x20\n      add\n      swap1\n      dup2\n      mstore\n      0x20\n      add\n      0x00\n      keccak256\n      sload\n        /* \"contracts/SaitaSwapERC20.sol\":2553:2572  balanceOf[from].sub */\n      tag_154\n      swap1\n        /* \"contracts/SaitaSwapERC20.sol\":2553:2579  balanceOf[from].sub(value) */\n      swap2\n      swap1\n      0xffffffff\n      and\n      jump\t// in\n    tag_301:\n        /* \"contracts/SaitaSwapERC20.sol\":2535:2544  balanceOf */\n      0x01\n        /* \"contracts/SaitaSwapERC20.sol\":2535:2550  balanceOf[from] */\n      0x00\n        /* \"contracts/SaitaSwapERC20.sol\":2545:2549  from */\n      dup6\n        /* \"contracts/SaitaSwapERC20.sol\":2535:2550  balanceOf[from] */\n      0xffffffffffffffffffffffffffffffffffffffff\n      and\n      0xffffffffffffffffffffffffffffffffffffffff\n      and\n      dup2\n      mstore\n      0x20\n      add\n      swap1\n      dup2\n      mstore\n      0x20\n      add\n      0x00\n      keccak256\n        /* \"contracts/SaitaSwapERC20.sol\":2535:2579  balanceOf[from] = balanceOf[from].sub(value) */\n      dup2\n      swap1\n      sstore\n      pop\n        /* \"contracts/SaitaSwapERC20.sol\":2605:2629  balanceOf[to].add(value) */\n      tag_302\n        /* \"contracts/SaitaSwapERC20.sol\":2623:2628  value */\n      dup2\n        /* \"contracts/SaitaSwapERC20.sol\":2605:2614  balanceOf */\n      0x01\n        /* \"contracts/SaitaSwapERC20.sol\":2605:2618  balanceOf[to] */\n      0x00\n        /* \"contracts/SaitaSwapERC20.sol\":2615:2617  to */\n      dup6\n        /* \"contracts/SaitaSwapERC20.sol\":2605:2618  balanceOf[to] */\n      0xffffffffffffffffffffffffffffffffffffffff\n      and\n      0xffffffffffffffffffffffffffffffffffffffff\n      and\n      dup2\n      mstore\n      0x20\n      add\n      swap1\n      dup2\n      mstore\n      0x20\n      add\n      0x00\n      keccak256\n      sload\n        /* \"contracts/SaitaSwapERC20.sol\":2605:2622  balanceOf[to].add */\n      tag_303\n      swap1\n        /* \"contracts/SaitaSwapERC20.sol\":2605:2629  balanceOf[to].add(value) */\n      swap2\n      swap1\n      0xffffffff\n      and\n      jump\t// in\n    tag_302:\n        /* \"contracts/SaitaSwapERC20.sol\":2589:2598  balanceOf */\n      0x01\n        /* \"contracts/SaitaSwapERC20.sol\":2589:2602  balanceOf[to] */\n      0x00\n        /* \"contracts/SaitaSwapERC20.sol\":2599:2601  to */\n      dup5\n        /* \"contracts/SaitaSwapERC20.sol\":2589:2602  balanceOf[to] */\n      0xffffffffffffffffffffffffffffffffffffffff\n      and\n      0xffffffffffffffffffffffffffffffffffffffff\n      and\n      dup2\n      mstore\n      0x20\n      add\n      swap1\n      dup2\n      mstore\n      0x20\n      add\n      0x00\n      keccak256\n        /* \"contracts/SaitaSwapERC20.sol\":2589:2629  balanceOf[to] = balanceOf[to].add(value) */\n      dup2\n      swap1\n      sstore\n      pop\n        /* \"contracts/SaitaSwapERC20.sol\":2659:2661  to */\n      dup2\n        /* \"contracts/SaitaSwapERC20.sol\":2644:2669  Transfer(from, to, value) */\n      0xffffffffffffffffffffffffffffffffffffffff\n      and\n        /* \"contracts/SaitaSwapERC20.sol\":2653:2657  from */\n      dup4\n        /* \"contracts/SaitaSwapERC20.sol\":2644:2669  Transfer(from, to, value) */\n      0xffffffffffffffffffffffffffffffffffffffff\n      and\n      0xddf252ad1be2c89b69c2b068fc378daa952ba7f163c4a11628f55a4df523b3ef\n        /* \"contracts/SaitaSwapERC20.sol\":2663:2668  value */\n      dup4\n        /* \"contracts/SaitaSwapERC20.sol\":2644:2669  Transfer(from, to, value) */\n      mload(0x40)\n      dup1\n      dup3\n      dup2\n      mstore\n      0x20\n      add\n      swap2\n      pop\n      pop\n      mload(0x40)\n      dup1\n      swap2\n      sub\n      swap1\n      log3\n        /* \"contracts/SaitaSwapERC20.sol\":2460:2676  function _transfer(address from, address to, uint value) private {... */\n      pop\n      pop\n      pop\n      jump\t// out\n        /* \"contracts/SaitaSwapPair.sol\":3648:4449  function _mintFee(uint112 _reserve0, uint112 _reserve1) private returns (bool feeOn) {... */\n    tag_188:\n        /* \"contracts/SaitaSwapPair.sol\":3721:3731  bool feeOn */\n      0x00\n        /* \"contracts/SaitaSwapPair.sol\":3743:3756  address feeTo */\n      dup1\n        /* \"contracts/SaitaSwapPair.sol\":3777:3784  factory */\n      0x05\n      0x00\n      swap1\n      sload\n      swap1\n      0x0100\n      exp\n      swap1\n      div\n      0xffffffffffffffffffffffffffffffffffffffff\n      and\n        /* \"contracts/SaitaSwapPair.sol\":3759:3791  ISaitaSwapFactory(factory).feeTo */\n      0xffffffffffffffffffffffffffffffffffffffff\n      and\n      0x017e7e58\n        /* \"contracts/SaitaSwapPair.sol\":3759:3793  ISaitaSwapFactory(factory).feeTo() */\n      mload(0x40)\n      dup2\n      0xffffffff\n      and\n      0xe0\n      shl\n      dup2\n      mstore\n      0x04\n      add\n      0x20\n      mload(0x40)\n      dup1\n      dup4\n      sub\n      dup2\n      dup7\n      dup1\n      extcodesize\n      iszero\n        /* \"--CODEGEN--\":8:17   */\n      dup1\n        /* \"--CODEGEN--\":5:7   */\n      iszero\n      tag_305\n      jumpi\n        /* \"--CODEGEN--\":30:31   */\n      0x00\n        /* \"--CODEGEN--\":27:28   */\n      dup1\n        /* \"--CODEGEN--\":20:32   */\n      revert\n        /* \"--CODEGEN--\":5:7   */\n    tag_305:\n        /* \"contracts/SaitaSwapPair.sol\":3759:3793  ISaitaSwapFactory(factory).feeTo() */\n      pop\n      gas\n      staticcall\n      iszero\n        /* \"--CODEGEN--\":8:17   */\n      dup1\n        /* \"--CODEGEN--\":5:7   */\n      iszero\n      tag_306\n      jumpi\n        /* \"--CODEGEN--\":45:61   */\n      returndatasize\n        /* \"--CODEGEN--\":42:43   */\n      0x00\n        /* \"--CODEGEN--\":39:40   */\n      dup1\n        /* \"--CODEGEN--\":24:62   */\n      returndatacopy\n        /* \"--CODEGEN--\":77:93   */\n      returndatasize\n        /* \"--CODEGEN--\":74:75   */\n      0x00\n        /* \"--CODEGEN--\":67:94   */\n      revert\n        /* \"--CODEGEN--\":5:7   */\n    tag_306:\n        /* \"contracts/SaitaSwapPair.sol\":3759:3793  ISaitaSwapFactory(factory).feeTo() */\n      pop\n      pop\n      pop\n      pop\n      mload(0x40)\n      returndatasize\n        /* \"--CODEGEN--\":13:15   */\n      0x20\n        /* \"--CODEGEN--\":8:11   */\n      dup2\n        /* \"--CODEGEN--\":5:16   */\n      lt\n        /* \"--CODEGEN--\":2:4   */\n      iszero\n      tag_307\n      jumpi\n        /* \"--CODEGEN--\":29:30   */\n      0x00\n        /* \"--CODEGEN--\":26:27   */\n      dup1\n        /* \"--CODEGEN--\":19:31   */\n      revert\n        /* \"--CODEGEN--\":2:4   */\n    tag_307:\n        /* \"contracts/SaitaSwapPair.sol\":3759:3793  ISaitaSwapFactory(factory).feeTo() */\n      dup2\n      add\n      swap1\n      dup1\n      dup1\n      mload\n      swap1\n      0x20\n      add\n      swap1\n      swap3\n      swap2\n      swap1\n      pop\n      pop\n      pop\n        /* \"contracts/SaitaSwapPair.sol\":3743:3793  address feeTo = ISaitaSwapFactory(factory).feeTo() */\n      swap1\n      pop\n        /* \"contracts/SaitaSwapPair.sol\":3828:3829  0 */\n      0x00\n        /* \"contracts/SaitaSwapPair.sol\":3811:3830  feeTo != address(0) */\n      0xffffffffffffffffffffffffffffffffffffffff\n      and\n        /* \"contracts/SaitaSwapPair.sol\":3811:3816  feeTo */\n      dup2\n        /* \"contracts/SaitaSwapPair.sol\":3811:3830  feeTo != address(0) */\n      0xffffffffffffffffffffffffffffffffffffffff\n      and\n      eq\n      iszero\n        /* \"contracts/SaitaSwapPair.sol\":3803:3830  feeOn = feeTo != address(0) */\n      swap2\n      pop\n        /* \"contracts/SaitaSwapPair.sol\":3840:3851  uint _kLast */\n      0x00\n        /* \"contracts/SaitaSwapPair.sol\":3854:3859  kLast */\n      sload(0x0d)\n        /* \"contracts/SaitaSwapPair.sol\":3840:3859  uint _kLast = kLast */\n      swap1\n      pop\n        /* \"contracts/SaitaSwapPair.sol\":3888:3893  feeOn */\n      dup3\n        /* \"contracts/SaitaSwapPair.sol\":3884:4443  if (feeOn) {... */\n      iszero\n      tag_308\n      jumpi\n        /* \"contracts/SaitaSwapPair.sol\":3923:3924  0 */\n      0x00\n        /* \"contracts/SaitaSwapPair.sol\":3913:3919  _kLast */\n      dup2\n        /* \"contracts/SaitaSwapPair.sol\":3913:3924  _kLast != 0 */\n      eq\n        /* \"contracts/SaitaSwapPair.sol\":3909:4376  if (_kLast != 0) {... */\n      tag_309\n      jumpi\n        /* \"contracts/SaitaSwapPair.sol\":3944:3954  uint rootK */\n      0x00\n        /* \"contracts/SaitaSwapPair.sol\":3957:3998  Math.sqrt(uint(_reserve0).mul(_reserve1)) */\n      tag_310\n        /* \"contracts/SaitaSwapPair.sol\":3967:3997  uint(_reserve0).mul(_reserve1) */\n      tag_311\n        /* \"contracts/SaitaSwapPair.sol\":3987:3996  _reserve1 */\n      dup7\n        /* \"contracts/SaitaSwapPair.sol\":3967:3997  uint(_reserve0).mul(_reserve1) */\n      0xffffffffffffffffffffffffffff\n      and\n        /* \"contracts/SaitaSwapPair.sol\":3972:3981  _reserve0 */\n      dup9\n        /* \"contracts/SaitaSwapPair.sol\":3967:3982  uint(_reserve0) */\n      0xffffffffffffffffffffffffffff\n      and\n        /* \"contracts/SaitaSwapPair.sol\":3967:3986  uint(_reserve0).mul */\n      tag_152\n      swap1\n        /* \"contracts/SaitaSwapPair.sol\":3967:3997  uint(_reserve0).mul(_reserve1) */\n      swap2\n      swap1\n      0xffffffff\n      and\n      jump\t// in\n    tag_311:\n        /* \"contracts/SaitaSwapPair.sol\":3957:3966  Math.sqrt */\n      tag_193\n        /* \"contracts/SaitaSwapPair.sol\":3957:3998  Math.sqrt(uint(_reserve0).mul(_reserve1)) */\n      jump\t// in\n    tag_310:\n        /* \"contracts/SaitaSwapPair.sol\":3944:3998  uint rootK = Math.sqrt(uint(_reserve0).mul(_reserve1)) */\n      swap1\n      pop\n        /* \"contracts/SaitaSwapPair.sol\":4016:4030  uint rootKLast */\n      0x00\n        /* \"contracts/SaitaSwapPair.sol\":4033:4050  Math.sqrt(_kLast) */\n      tag_312\n        /* \"contracts/SaitaSwapPair.sol\":4043:4049  _kLast */\n      dup4\n        /* \"contracts/SaitaSwapPair.sol\":4033:4042  Math.sqrt */\n      tag_193\n        /* \"contracts/SaitaSwapPair.sol\":4033:4050  Math.sqrt(_kLast) */\n      jump\t// in\n    tag_312:\n        /* \"contracts/SaitaSwapPair.sol\":4016:4050  uint rootKLast = Math.sqrt(_kLast) */\n      swap1\n      pop\n        /* \"contracts/SaitaSwapPair.sol\":4080:4089  rootKLast */\n      dup1\n        /* \"contracts/SaitaSwapPair.sol\":4072:4077  rootK */\n      dup3\n        /* \"contracts/SaitaSwapPair.sol\":4072:4089  rootK > rootKLast */\n      gt\n        /* \"contracts/SaitaSwapPair.sol\":4068:4362  if (rootK > rootKLast) {... */\n      iszero\n      tag_313\n      jumpi\n        /* \"contracts/SaitaSwapPair.sol\":4113:4127  uint numerator */\n      0x00\n        /* \"contracts/SaitaSwapPair.sol\":4130:4167  totalSupply.mul(rootK.sub(rootKLast)) */\n      tag_314\n        /* \"contracts/SaitaSwapPair.sol\":4146:4166  rootK.sub(rootKLast) */\n      tag_315\n        /* \"contracts/SaitaSwapPair.sol\":4156:4165  rootKLast */\n      dup4\n        /* \"contracts/SaitaSwapPair.sol\":4146:4151  rootK */\n      dup6\n        /* \"contracts/SaitaSwapPair.sol\":4146:4155  rootK.sub */\n      tag_154\n      swap1\n        /* \"contracts/SaitaSwapPair.sol\":4146:4166  rootK.sub(rootKLast) */\n      swap2\n      swap1\n      0xffffffff\n      and\n      jump\t// in\n    tag_315:\n        /* \"contracts/SaitaSwapPair.sol\":4130:4141  totalSupply */\n      sload(0x00)\n        /* \"contracts/SaitaSwapPair.sol\":4130:4145  totalSupply.mul */\n      tag_152\n      swap1\n        /* \"contracts/SaitaSwapPair.sol\":4130:4167  totalSupply.mul(rootK.sub(rootKLast)) */\n      swap2\n      swap1\n      0xffffffff\n      and\n      jump\t// in\n    tag_314:\n        /* \"contracts/SaitaSwapPair.sol\":4113:4167  uint numerator = totalSupply.mul(rootK.sub(rootKLast)) */\n      swap1\n      pop\n        /* \"contracts/SaitaSwapPair.sol\":4189:4205  uint denominator */\n      0x00\n        /* \"contracts/SaitaSwapPair.sol\":4208:4217  rootKLast */\n      dup3\n        /* \"contracts/SaitaSwapPair.sol\":4189:4217  uint denominator = rootKLast */\n      swap1\n      pop\n        /* \"contracts/SaitaSwapPair.sol\":4239:4253  uint liquidity */\n      0x00\n        /* \"contracts/SaitaSwapPair.sol\":4268:4279  denominator */\n      dup2\n        /* \"contracts/SaitaSwapPair.sol\":4256:4265  numerator */\n      dup4\n        /* \"contracts/SaitaSwapPair.sol\":4256:4279  numerator / denominator */\n      dup2\n      tag_316\n      jumpi\n      invalid\n    tag_316:\n      div\n        /* \"contracts/SaitaSwapPair.sol\":4239:4279  uint liquidity = numerator / denominator */\n      swap1\n      pop\n        /* \"contracts/SaitaSwapPair.sol\":4317:4318  0 */\n      0x00\n        /* \"contracts/SaitaSwapPair.sol\":4305:4314  liquidity */\n      dup2\n        /* \"contracts/SaitaSwapPair.sol\":4305:4318  liquidity > 0 */\n      gt\n        /* \"contracts/SaitaSwapPair.sol\":4301:4343  if (liquidity > 0) _mint(feeTo, liquidity) */\n      iszero\n      tag_317\n      jumpi\n        /* \"contracts/SaitaSwapPair.sol\":4320:4343  _mint(feeTo, liquidity) */\n      tag_318\n        /* \"contracts/SaitaSwapPair.sol\":4326:4331  feeTo */\n      dup8\n        /* \"contracts/SaitaSwapPair.sol\":4333:4342  liquidity */\n      dup3\n        /* \"contracts/SaitaSwapPair.sol\":4320:4325  _mint */\n      tag_195\n        /* \"contracts/SaitaSwapPair.sol\":4320:4343  _mint(feeTo, liquidity) */\n      jump\t// in\n    tag_318:\n        /* \"contracts/SaitaSwapPair.sol\":4301:4343  if (liquidity > 0) _mint(feeTo, liquidity) */\n    tag_317:\n        /* \"contracts/SaitaSwapPair.sol\":4068:4362  if (rootK > rootKLast) {... */\n      pop\n      pop\n      pop\n    tag_313:\n        /* \"contracts/SaitaSwapPair.sol\":3909:4376  if (_kLast != 0) {... */\n      pop\n      pop\n    tag_309:\n        /* \"contracts/SaitaSwapPair.sol\":3884:4443  if (feeOn) {... */\n      jump(tag_319)\n    tag_308:\n        /* \"contracts/SaitaSwapPair.sol\":4406:4407  0 */\n      0x00\n        /* \"contracts/SaitaSwapPair.sol\":4396:4402  _kLast */\n      dup2\n        /* \"contracts/SaitaSwapPair.sol\":4396:4407  _kLast != 0 */\n      eq\n        /* \"contracts/SaitaSwapPair.sol\":4392:4443  if (_kLast != 0) {... */\n      tag_320\n      jumpi\n        /* \"contracts/SaitaSwapPair.sol\":4431:4432  0 */\n      0x00\n        /* \"contracts/SaitaSwapPair.sol\":4423:4428  kLast */\n      0x0d\n        /* \"contracts/SaitaSwapPair.sol\":4423:4432  kLast = 0 */\n      dup2\n      swap1\n      sstore\n      pop\n        /* \"contracts/SaitaSwapPair.sol\":4392:4443  if (_kLast != 0) {... */\n    tag_320:\n        /* \"contracts/SaitaSwapPair.sol\":3884:4443  if (feeOn) {... */\n    tag_319:\n        /* \"contracts/SaitaSwapPair.sol\":3648:4449  function _mintFee(uint112 _reserve0, uint112 _reserve1) private returns (bool feeOn) {... */\n      pop\n      pop\n      swap3\n      swap2\n      pop\n      pop\n      jump\t// out\n        /* \"contracts/libraries/Math.sol\":307:599  function sqrt(uint y) internal pure returns (uint z) {... */\n    tag_193:\n        /* \"contracts/libraries/Math.sol\":352:358  uint z */\n      0x00\n        /* \"contracts/libraries/Math.sol\":378:379  3 */\n      0x03\n        /* \"contracts/libraries/Math.sol\":374:375  y */\n      dup3\n        /* \"contracts/libraries/Math.sol\":374:379  y > 3 */\n      gt\n        /* \"contracts/libraries/Math.sol\":370:593  if (y > 3) {... */\n      iszero\n      tag_322\n      jumpi\n        /* \"contracts/libraries/Math.sol\":399:400  y */\n      dup2\n        /* \"contracts/libraries/Math.sol\":395:400  z = y */\n      swap1\n      pop\n        /* \"contracts/libraries/Math.sol\":414:420  uint x */\n      0x00\n        /* \"contracts/libraries/Math.sol\":431:432  1 */\n      0x01\n        /* \"contracts/libraries/Math.sol\":427:428  2 */\n      0x02\n        /* \"contracts/libraries/Math.sol\":423:424  y */\n      dup5\n        /* \"contracts/libraries/Math.sol\":423:428  y / 2 */\n      dup2\n      tag_323\n      jumpi\n      invalid\n    tag_323:\n      div\n        /* \"contracts/libraries/Math.sol\":423:432  y / 2 + 1 */\n      add\n        /* \"contracts/libraries/Math.sol\":414:432  uint x = y / 2 + 1 */\n      swap1\n      pop\n        /* \"contracts/libraries/Math.sol\":446:535  while (x < z) {... */\n    tag_324:\n        /* \"contracts/libraries/Math.sol\":457:458  z */\n      dup2\n        /* \"contracts/libraries/Math.sol\":453:454  x */\n      dup2\n        /* \"contracts/libraries/Math.sol\":453:458  x < z */\n      lt\n        /* \"contracts/libraries/Math.sol\":446:535  while (x < z) {... */\n      iszero\n      tag_325\n      jumpi\n        /* \"contracts/libraries/Math.sol\":482:483  x */\n      dup1\n        /* \"contracts/libraries/Math.sol\":478:483  z = x */\n      swap2\n      pop\n        /* \"contracts/libraries/Math.sol\":519:520  2 */\n      0x02\n        /* \"contracts/libraries/Math.sol\":514:515  x */\n      dup2\n        /* \"contracts/libraries/Math.sol\":510:511  x */\n      dup3\n        /* \"contracts/libraries/Math.sol\":506:507  y */\n      dup6\n        /* \"contracts/libraries/Math.sol\":506:511  y / x */\n      dup2\n      tag_326\n      jumpi\n      invalid\n    tag_326:\n      div\n        /* \"contracts/libraries/Math.sol\":506:515  y / x + x */\n      add\n        /* \"contracts/libraries/Math.sol\":505:520  (y / x + x) / 2 */\n      dup2\n      tag_327\n      jumpi\n      invalid\n    tag_327:\n      div\n        /* \"contracts/libraries/Math.sol\":501:520  x = (y / x + x) / 2 */\n      swap1\n      pop\n        /* \"contracts/libraries/Math.sol\":446:535  while (x < z) {... */\n      jump(tag_324)\n    tag_325:\n        /* \"contracts/libraries/Math.sol\":370:593  if (y > 3) {... */\n      pop\n      jump(tag_328)\n    tag_322:\n        /* \"contracts/libraries/Math.sol\":560:561  0 */\n      0x00\n        /* \"contracts/libraries/Math.sol\":555:556  y */\n      dup3\n        /* \"contracts/libraries/Math.sol\":555:561  y != 0 */\n      eq\n        /* \"contracts/libraries/Math.sol\":551:593  if (y != 0) {... */\n      tag_329\n      jumpi\n        /* \"contracts/libraries/Math.sol\":581:582  1 */\n      0x01\n        /* \"contracts/libraries/Math.sol\":577:582  z = 1 */\n      swap1\n      pop\n        /* \"contracts/libraries/Math.sol\":551:593  if (y != 0) {... */\n    tag_329:\n        /* \"contracts/libraries/Math.sol\":370:593  if (y > 3) {... */\n    tag_328:\n        /* \"contracts/libraries/Math.sol\":307:599  function sqrt(uint y) internal pure returns (uint z) {... */\n      swap2\n      swap1\n      pop\n      jump\t// out\n        /* \"contracts/SaitaSwapERC20.sol\":1874:2071  function _mint(address to, uint value) internal {... */\n    tag_195:\n        /* \"contracts/SaitaSwapERC20.sol\":1946:1968  totalSupply.add(value) */\n      tag_331\n        /* \"contracts/SaitaSwapERC20.sol\":1962:1967  value */\n      dup2\n        /* \"contracts/SaitaSwapERC20.sol\":1946:1957  totalSupply */\n      sload(0x00)\n        /* \"contracts/SaitaSwapERC20.sol\":1946:1961  totalSupply.add */\n      tag_303\n      swap1\n        /* \"contracts/SaitaSwapERC20.sol\":1946:1968  totalSupply.add(value) */\n      swap2\n      swap1\n      0xffffffff\n      and\n      jump\t// in\n    tag_331:\n        /* \"contracts/SaitaSwapERC20.sol\":1932:1943  totalSupply */\n      0x00\n        /* \"contracts/SaitaSwapERC20.sol\":1932:1968  totalSupply = totalSupply.add(value) */\n      dup2\n      swap1\n      sstore\n      pop\n        /* \"contracts/SaitaSwapERC20.sol\":1994:2018  balanceOf[to].add(value) */\n      tag_332\n        /* \"contracts/SaitaSwapERC20.sol\":2012:2017  value */\n      dup2\n        /* \"contracts/SaitaSwapERC20.sol\":1994:2003  balanceOf */\n      0x01\n        /* \"contracts/SaitaSwapERC20.sol\":1994:2007  balanceOf[to] */\n      0x00\n        /* \"contracts/SaitaSwapERC20.sol\":2004:2006  to */\n      dup6\n        /* \"contracts/SaitaSwapERC20.sol\":1994:2007  balanceOf[to] */\n      0xffffffffffffffffffffffffffffffffffffffff\n      and\n      0xffffffffffffffffffffffffffffffffffffffff\n      and\n      dup2\n      mstore\n      0x20\n      add\n      swap1\n      dup2\n      mstore\n      0x20\n      add\n      0x00\n      keccak256\n      sload\n        /* \"contracts/SaitaSwapERC20.sol\":1994:2011  balanceOf[to].add */\n      tag_303\n      swap1\n        /* \"contracts/SaitaSwapERC20.sol\":1994:2018  balanceOf[to].add(value) */\n      swap2\n      swap1\n      0xffffffff\n      and\n      jump\t// in\n    tag_332:\n        /* \"contracts/SaitaSwapERC20.sol\":1978:1987  balanceOf */\n      0x01\n        /* \"contracts/SaitaSwapERC20.sol\":1978:1991  balanceOf[to] */\n      0x00\n        /* \"contracts/SaitaSwapERC20.sol\":1988:1990  to */\n      dup5\n        /* \"contracts/SaitaSwapERC20.sol\":1978:1991  balanceOf[to] */\n      0xffffffffffffffffffffffffffffffffffffffff\n      and\n      0xffffffffffffffffffffffffffffffffffffffff\n      and\n      dup2\n      mstore\n      0x20\n      add\n      swap1\n      dup2\n      mstore\n      0x20\n      add\n      0x00\n      keccak256\n        /* \"contracts/SaitaSwapERC20.sol\":1978:2018  balanceOf[to] = balanceOf[to].add(value) */\n      dup2\n      swap1\n      sstore\n      pop\n        /* \"contracts/SaitaSwapERC20.sol\":2054:2056  to */\n      dup2\n        /* \"contracts/SaitaSwapERC20.sol\":2033:2064  Transfer(address(0), to, value) */\n      0xffffffffffffffffffffffffffffffffffffffff\n      and\n        /* \"contracts/SaitaSwapERC20.sol\":2050:2051  0 */\n      0x00\n        /* \"contracts/SaitaSwapERC20.sol\":2033:2064  Transfer(address(0), to, value) */\n      0xffffffffffffffffffffffffffffffffffffffff\n      and\n      0xddf252ad1be2c89b69c2b068fc378daa952ba7f163c4a11628f55a4df523b3ef\n        /* \"contracts/SaitaSwapERC20.sol\":2058:2063  value */\n      dup4\n        /* \"contracts/SaitaSwapERC20.sol\":2033:2064  Transfer(address(0), to, value) */\n      mload(0x40)\n      dup1\n      dup3\n      dup2\n      mstore\n      0x20\n      add\n      swap2\n      pop\n      pop\n      mload(0x40)\n      dup1\n      swap2\n      sub\n      swap1\n      log3\n        /* \"contracts/SaitaSwapERC20.sol\":1874:2071  function _mint(address to, uint value) internal {... */\n      pop\n      pop\n      jump\t// out\n        /* \"contracts/libraries/Math.sol\":98:192  function min(uint x, uint y) internal pure returns (uint z) {... */\n    tag_202:\n        /* \"contracts/libraries/Math.sol\":150:156  uint z */\n      0x00\n        /* \"contracts/libraries/Math.sol\":176:177  y */\n      dup2\n        /* \"contracts/libraries/Math.sol\":172:173  x */\n      dup4\n        /* \"contracts/libraries/Math.sol\":172:177  x < y */\n      lt\n        /* \"contracts/libraries/Math.sol\":172:185  x < y ? x : y */\n      tag_334\n      jumpi\n        /* \"contracts/libraries/Math.sol\":184:185  y */\n      dup2\n        /* \"contracts/libraries/Math.sol\":172:185  x < y ? x : y */\n      jump(tag_335)\n    tag_334:\n        /* \"contracts/libraries/Math.sol\":180:181  x */\n      dup3\n        /* \"contracts/libraries/Math.sol\":172:185  x < y ? x : y */\n    tag_335:\n        /* \"contracts/libraries/Math.sol\":168:185  z = x < y ? x : y */\n      swap1\n      pop\n        /* \"contracts/libraries/Math.sol\":98:192  function min(uint x, uint y) internal pure returns (uint z) {... */\n      swap3\n      swap2\n      pop\n      pop\n      jump\t// out\n        /* \"contracts/SaitaSwapERC20.sol\":2077:2282  function _burn(address from, uint value) internal {... */\n    tag_226:\n        /* \"contracts/SaitaSwapERC20.sol\":2155:2181  balanceOf[from].sub(value) */\n      tag_337\n        /* \"contracts/SaitaSwapERC20.sol\":2175:2180  value */\n      dup2\n        /* \"contracts/SaitaSwapERC20.sol\":2155:2164  balanceOf */\n      0x01\n        /* \"contracts/SaitaSwapERC20.sol\":2155:2170  balanceOf[from] */\n      0x00\n        /* \"contracts/SaitaSwapERC20.sol\":2165:2169  from */\n      dup6\n        /* \"contracts/SaitaSwapERC20.sol\":2155:2170  balanceOf[from] */\n      0xffffffffffffffffffffffffffffffffffffffff\n      and\n      0xffffffffffffffffffffffffffffffffffffffff\n      and\n      dup2\n      mstore\n      0x20\n      add\n      swap1\n      dup2\n      mstore\n      0x20\n      add\n      0x00\n      keccak256\n      sload\n        /* \"contracts/SaitaSwapERC20.sol\":2155:2174  balanceOf[from].sub */\n      tag_154\n      swap1\n        /* \"contracts/SaitaSwapERC20.sol\":2155:2181  balanceOf[from].sub(value) */\n      swap2\n      swap1\n      0xffffffff\n      and\n      jump\t// in\n    tag_337:\n        /* \"contracts/SaitaSwapERC20.sol\":2137:2146  balanceOf */\n      0x01\n        /* \"contracts/SaitaSwapERC20.sol\":2137:2152  balanceOf[from] */\n      0x00\n        /* \"contracts/SaitaSwapERC20.sol\":2147:2151  from */\n      dup5\n        /* \"contracts/SaitaSwapERC20.sol\":2137:2152  balanceOf[from] */\n      0xffffffffffffffffffffffffffffffffffffffff\n      and\n      0xffffffffffffffffffffffffffffffffffffffff\n      and\n      dup2\n      mstore\n      0x20\n      add\n      swap1\n      dup2\n      mstore\n      0x20\n      add\n      0x00\n      keccak256\n        /* \"contracts/SaitaSwapERC20.sol\":2137:2181  balanceOf[from] = balanceOf[from].sub(value) */\n      dup2\n      swap1\n      sstore\n      pop\n        /* \"contracts/SaitaSwapERC20.sol\":2205:2227  totalSupply.sub(value) */\n      tag_338\n        /* \"contracts/SaitaSwapERC20.sol\":2221:2226  value */\n      dup2\n        /* \"contracts/SaitaSwapERC20.sol\":2205:2216  totalSupply */\n      sload(0x00)\n        /* \"contracts/SaitaSwapERC20.sol\":2205:2220  totalSupply.sub */\n      tag_154\n      swap1\n        /* \"contracts/SaitaSwapERC20.sol\":2205:2227  totalSupply.sub(value) */\n      swap2\n      swap1\n      0xffffffff\n      and\n      jump\t// in\n    tag_338:\n        /* \"contracts/SaitaSwapERC20.sol\":2191:2202  totalSupply */\n      0x00\n        /* \"contracts/SaitaSwapERC20.sol\":2191:2227  totalSupply = totalSupply.sub(value) */\n      dup2\n      swap1\n      sstore\n      pop\n        /* \"contracts/SaitaSwapERC20.sol\":2265:2266  0 */\n      0x00\n        /* \"contracts/SaitaSwapERC20.sol\":2242:2275  Transfer(from, address(0), value) */\n      0xffffffffffffffffffffffffffffffffffffffff\n      and\n        /* \"contracts/SaitaSwapERC20.sol\":2251:2255  from */\n      dup3\n        /* \"contracts/SaitaSwapERC20.sol\":2242:2275  Transfer(from, address(0), value) */\n      0xffffffffffffffffffffffffffffffffffffffff\n      and\n      0xddf252ad1be2c89b69c2b068fc378daa952ba7f163c4a11628f55a4df523b3ef\n        /* \"contracts/SaitaSwapERC20.sol\":2269:2274  value */\n      dup4\n        /* \"contracts/SaitaSwapERC20.sol\":2242:2275  Transfer(from, address(0), value) */\n      mload(0x40)\n      dup1\n      dup3\n      dup2\n      mstore\n      0x20\n      add\n      swap2\n      pop\n      pop\n      mload(0x40)\n      dup1\n      swap2\n      sub\n      swap1\n      log3\n        /* \"contracts/SaitaSwapERC20.sol\":2077:2282  function _burn(address from, uint value) internal {... */\n      pop\n      pop\n      jump\t// out\n        /* \"contracts/libraries/UQ112x112.sol\":283:401  function encode(uint112 y) internal pure returns (uint224 z) {... */\n    tag_295:\n        /* \"contracts/libraries/UQ112x112.sol\":333:342  uint224 z */\n      0x00\n        /* \"contracts/libraries/UQ112x112.sol\":231:237  2**112 */\n      0x010000000000000000000000000000\n        /* \"contracts/libraries/UQ112x112.sol\":366:367  y */\n      dup3\n        /* \"contracts/libraries/UQ112x112.sol\":358:368  uint224(y) */\n      0xffffffffffffffffffffffffffff\n      and\n        /* \"contracts/libraries/UQ112x112.sol\":358:375  uint224(y) * Q112 */\n      mul\n        /* \"contracts/libraries/UQ112x112.sol\":354:375  z = uint224(y) * Q112 */\n      swap1\n      pop\n        /* \"contracts/libraries/UQ112x112.sol\":283:401  function encode(uint112 y) internal pure returns (uint224 z) {... */\n      swap2\n      swap1\n      pop\n      jump\t// out\n        /* \"contracts/libraries/UQ112x112.sol\":469:575  function uqdiv(uint224 x, uint112 y) internal pure returns (uint224 z) {... */\n    tag_296:\n        /* \"contracts/libraries/UQ112x112.sol\":529:538  uint224 z */\n      0x00\n        /* \"contracts/libraries/UQ112x112.sol\":566:567  y */\n      dup2\n        /* \"contracts/libraries/UQ112x112.sol\":558:568  uint224(y) */\n      0xffffffffffffffffffffffffffff\n      and\n        /* \"contracts/libraries/UQ112x112.sol\":554:568  x / uint224(y) */\n      0xffffffffffffffffffffffffffffffffffffffffffffffffffffffff\n      and\n        /* \"contracts/libraries/UQ112x112.sol\":554:555  x */\n      dup4\n        /* \"contracts/libraries/UQ112x112.sol\":554:568  x / uint224(y) */\n      0xffffffffffffffffffffffffffffffffffffffffffffffffffffffff\n      and\n      dup2\n      tag_341\n      jumpi\n      invalid\n    tag_341:\n      div\n        /* \"contracts/libraries/UQ112x112.sol\":550:568  z = x / uint224(y) */\n      swap1\n      pop\n        /* \"contracts/libraries/UQ112x112.sol\":469:575  function uqdiv(uint224 x, uint112 y) internal pure returns (uint224 z) {... */\n      swap3\n      swap2\n      pop\n      pop\n      jump\t// out\n        /* \"contracts/libraries/SafeMath.sol\":156:282  function add(uint x, uint y) internal pure returns (uint z) {... */\n    tag_303:\n        /* \"contracts/libraries/SafeMath.sol\":208:214  uint z */\n      0x00\n        /* \"contracts/libraries/SafeMath.sol\":249:250  x */\n      dup3\n        /* \"contracts/libraries/SafeMath.sol\":243:244  y */\n      dup3\n        /* \"contracts/libraries/SafeMath.sol\":239:240  x */\n      dup5\n        /* \"contracts/libraries/SafeMath.sol\":239:244  x + y */\n      add\n        /* \"contracts/libraries/SafeMath.sol\":235:244  z = x + y */\n      swap2\n      pop\n      dup2\n        /* \"contracts/libraries/SafeMath.sol\":234:250  (z = x + y) >= x */\n      lt\n      iszero\n        /* \"contracts/libraries/SafeMath.sol\":226:275  require((z = x + y) >= x, 'ds-math-add-overflow') */\n      tag_343\n      jumpi\n      mload(0x40)\n      0x08c379a000000000000000000000000000000000000000000000000000000000\n      dup2\n      mstore\n      0x04\n      add\n      dup1\n      dup1\n      0x20\n      add\n      dup3\n      dup2\n      sub\n      dup3\n      mstore\n      0x14\n      dup2\n      mstore\n      0x20\n      add\n      dup1\n      0x64732d6d6174682d6164642d6f766572666c6f77000000000000000000000000\n      dup2\n      mstore\n      pop\n      0x20\n      add\n      swap2\n      pop\n      pop\n      mload(0x40)\n      dup1\n      swap2\n      sub\n      swap1\n      revert\n    tag_343:\n        /* \"contracts/libraries/SafeMath.sol\":156:282  function add(uint x, uint y) internal pure returns (uint z) {... */\n      swap3\n      swap2\n      pop\n      pop\n      jump\t// out\n    stop\n    data_0a51e7944d2122a77fd4e73c44622c7641a6ffe5c17d5a532aabed4e2ee72ec2 5361697461537761703a20494e53554646494349454e545f4c49515549444954595f4d494e544544\n    data_5017166a195bb30912ef8c95a2dee0e03788aa587911ab5bc5bbf5cd0090e903 5361697461537761703a20494e53554646494349454e545f4c4951554944495459\n    data_552b3fcd35fb870a20ea0632e5730c886a6bfa687fc63a2ee7517b413814fddf 5361697461537761703a20494e53554646494349454e545f494e5055545f414d4f554e54\n    data_5e82f3f52455bf4ac5f469da7ca9ef9ebf1a038e167ba303f62198c7bdd5951c 5361697461537761703a20494e53554646494349454e545f4c49515549444954595f4255524e4544\n    data_8b73c3c69bb8fe3d512ecc4cf759cc79239f7b179b0ffacaa9a75d522b39400f 454950373132446f6d61696e28737472696e67206e616d652c737472696e672076657273696f6e2c75696e7432353620636861696e49642c6164647265737320766572696679696e67436f6e747261637429\n    data_8fc7f9c8d80b681ea54bd06a118a94fe4d1bef35d2499ddb0eb71b6a664bd6ba 5361697461537761703a20494e53554646494349454e545f4f55545055545f414d4f554e54\n\n    auxdata: 0xa265627a7a72315820609eb7afa2626f3d966e2a33bb43d37fa1bbf1f934c0df6e7f94676eb2dc9fa664736f6c63430005100032\n}\n",
				"bytecode": {
					"linkReferences": {},
					"object": "608060405260026008556103e86009556001600e5534801561002057600080fd5b5060004690506040518080613d9960529139605201905060405180910390206040518060400160405280600d81526020017f536169746153776170204c507300000000000000000000000000000000000000815250805190602001206040518060400160405280600181526020017f3100000000000000000000000000000000000000000000000000000000000000815250805190602001208330604051602001808681526020018581526020018481526020018381526020018273ffffffffffffffffffffffffffffffffffffffff1673ffffffffffffffffffffffffffffffffffffffff16815260200195505050505050604051602081830303815290604052805190602001206003819055505033600560006101000a81548173ffffffffffffffffffffffffffffffffffffffff021916908373ffffffffffffffffffffffffffffffffffffffff160217905550613c19806101806000396000f3fe608060405234801561001057600080fd5b50600436106101cf5760003560e01c806370a0823111610104578063ba9a7a56116100a2578063d21220a711610071578063d21220a714610926578063d505accf14610970578063dd62ed3e14610a09578063fff6cae914610a81576101cf565b8063ba9a7a561461085c578063bc25cf771461087a578063bee62fc7146108be578063c45a0155146108dc576101cf565b80637ecebe00116100de5780637ecebe00146106bc57806389afcb441461071457806395d89b4114610773578063a9059cbb146107f6576101cf565b806370a082311461062857806371ebeacc146106805780637464fc3d1461069e576101cf565b806330adf81f11610171578063485cc9551161014b578063485cc955146105305780635909c0d5146105945780635a3d5493146105b25780636a627842146105d0576101cf565b806330adf81f146104d0578063313ce567146104ee5780633644e51514610512576101cf565b8063095ea7b3116101ad578063095ea7b31461037c5780630dfe1681146103e257806318160ddd1461042c57806323b872dd1461044a576101cf565b8063022c0d9f146101d457806306fdde03146102815780630902f1ac14610304575b600080fd5b61027f600480360360808110156101ea57600080fd5b810190808035906020019092919080359060200190929190803573ffffffffffffffffffffffffffffffffffffffff1690602001909291908035906020019064010000000081111561023b57600080fd5b82018360208201111561024d57600080fd5b8035906020019184600183028401116401000000008311171561026f57600080fd5b9091929391929390505050610a8b565b005b61028961127d565b6040518080602001828103825283818151815260200191508051906020019080838360005b838110156102c95780820151818401526020810190506102ae565b50505050905090810190601f1680156102f65780820380516001836020036101000a031916815260200191505b509250505060405180910390f35b61030c6112b6565b60405180846dffffffffffffffffffffffffffff166dffffffffffffffffffffffffffff168152602001836dffffffffffffffffffffffffffff166dffffffffffffffffffffffffffff1681526020018263ffffffff1663ffffffff168152602001935050505060405180910390f35b6103c86004803603604081101561039257600080fd5b81019080803573ffffffffffffffffffffffffffffffffffffffff16906020019092919080359060200190929190505050611313565b604051808215151515815260200191505060405180910390f35b6103ea61132a565b604051808273ffffffffffffffffffffffffffffffffffffffff1673ffffffffffffffffffffffffffffffffffffffff16815260200191505060405180910390f35b610434611350565b6040518082815260200191505060405180910390f35b6104b66004803603606081101561046057600080fd5b81019080803573ffffffffffffffffffffffffffffffffffffffff169060200190929190803573ffffffffffffffffffffffffffffffffffffffff16906020019092919080359060200190929190505050611356565b604051808215151515815260200191505060405180910390f35b6104d8611521565b6040518082815260200191505060405180910390f35b6104f6611548565b604051808260ff1660ff16815260200191505060405180910390f35b61051a61154d565b6040518082815260200191505060405180910390f35b6105926004803603604081101561054657600080fd5b81019080803573ffffffffffffffffffffffffffffffffffffffff169060200190929190803573ffffffffffffffffffffffffffffffffffffffff169060200190929190505050611553565b005b61059c61169c565b6040518082815260200191505060405180910390f35b6105ba6116a2565b6040518082815260200191505060405180910390f35b610612600480360360208110156105e657600080fd5b81019080803573ffffffffffffffffffffffffffffffffffffffff1690602001909291905050506116a8565b6040518082815260200191505060405180910390f35b61066a6004803603602081101561063e57600080fd5b81019080803573ffffffffffffffffffffffffffffffffffffffff169060200190929190505050611b59565b6040518082815260200191505060405180910390f35b610688611b71565b6040518082815260200191505060405180910390f35b6106a6611b77565b6040518082815260200191505060405180910390f35b6106fe600480360360208110156106d257600080fd5b81019080803573ffffffffffffffffffffffffffffffffffffffff169060200190929190505050611b7d565b6040518082815260200191505060405180910390f35b6107566004803603602081101561072a57600080fd5b81019080803573ffffffffffffffffffffffffffffffffffffffff169060200190929190505050611b95565b604051808381526020018281526020019250505060405180910390f35b61077b612182565b6040518080602001828103825283818151815260200191508051906020019080838360005b838110156107bb5780820151818401526020810190506107a0565b50505050905090810190601f1680156107e85780820380516001836020036101000a031916815260200191505b509250505060405180910390f35b6108426004803603604081101561080c57600080fd5b81019080803573ffffffffffffffffffffffffffffffffffffffff169060200190929190803590602001909291905050506121bb565b604051808215151515815260200191505060405180910390f35b6108646121d2565b6040518082815260200191505060405180910390f35b6108bc6004803603602081101561089057600080fd5b81019080803573ffffffffffffffffffffffffffffffffffffffff1690602001909291905050506121d8565b005b6108c66124b3565b6040518082815260200191505060405180910390f35b6108e46124b9565b604051808273ffffffffffffffffffffffffffffffffffffffff1673ffffffffffffffffffffffffffffffffffffffff16815260200191505060405180910390f35b61092e6124df565b604051808273ffffffffffffffffffffffffffffffffffffffff1673ffffffffffffffffffffffffffffffffffffffff16815260200191505060405180910390f35b610a07600480360360e081101561098657600080fd5b81019080803573ffffffffffffffffffffffffffffffffffffffff169060200190929190803573ffffffffffffffffffffffffffffffffffffffff1690602001909291908035906020019092919080359060200190929190803560ff1690602001909291908035906020019092919080359060200190929190505050612505565b005b610a6b60048036036040811015610a1f57600080fd5b81019080803573ffffffffffffffffffffffffffffffffffffffff169060200190929190803573ffffffffffffffffffffffffffffffffffffffff169060200190929190505050612958565b6040518082815260200191505060405180910390f35b610a8961297d565b005b6001600e5414610b03576040517f08c379a00000000000000000000000000000000000000000000000000000000081526004018080602001828103825260118152602001807f5361697461537761703a204c4f434b454400000000000000000000000000000081525060200191505060405180910390fd5b6000600e819055506000851180610b1a5750600084115b610b6f576040517f08c379a0000000000000000000000000000000000000000000000000000000008152600401808060200182810382526025815260200180613bc06025913960400191505060405180910390fd5b600080610b7a6112b6565b5091509150816dffffffffffffffffffffffffffff1687108015610bad5750806dffffffffffffffffffffffffffff1686105b610c02576040517f08c379a0000000000000000000000000000000000000000000000000000000008152600401808060200182810382526021815260200180613b016021913960400191505060405180910390fd5b6000806000600660009054906101000a900473ffffffffffffffffffffffffffffffffffffffff1690506000600760009054906101000a900473ffffffffffffffffffffffffffffffffffffffff1690508173ffffffffffffffffffffffffffffffffffffffff168973ffffffffffffffffffffffffffffffffffffffff1614158015610cbb57508073ffffffffffffffffffffffffffffffffffffffff168973ffffffffffffffffffffffffffffffffffffffff1614155b610d2d576040517f08c379a00000000000000000000000000000000000000000000000000000000081526004018080602001828103825260158152602001807f5361697461537761703a20494e56414c49445f544f000000000000000000000081525060200191505060405180910390fd5b60008b1115610d4257610d41828a8d612bfd565b5b60008a1115610d5757610d56818a8c612bfd565b5b6000888890501115610e3f578873ffffffffffffffffffffffffffffffffffffffff1663fe1b3a66338d8d8c8c6040518663ffffffff1660e01b8152600401808673ffffffffffffffffffffffffffffffffffffffff1673ffffffffffffffffffffffffffffffffffffffff168152602001858152602001848152602001806020018281038252848482818152602001925080828437600081840152601f19601f8201169050808301925050509650505050505050600060405180830381600087803b158015610e2657600080fd5b505af1158015610e3a573d6000803e3d6000fd5b505050505b8173ffffffffffffffffffffffffffffffffffffffff166370a08231306040518263ffffffff1660e01b8152600401808273ffffffffffffffffffffffffffffffffffffffff1673ffffffffffffffffffffffffffffffffffffffff16815260200191505060206040518083038186803b158015610ebc57600080fd5b505afa158015610ed0573d6000803e3d6000fd5b505050506040513d6020811015610ee657600080fd5b810190808051906020019092919050505093508073ffffffffffffffffffffffffffffffffffffffff166370a08231306040518263ffffffff1660e01b8152600401808273ffffffffffffffffffffffffffffffffffffffff1673ffffffffffffffffffffffffffffffffffffffff16815260200191505060206040518083038186803b158015610f7657600080fd5b505afa158015610f8a573d6000803e3d6000fd5b505050506040513d6020811015610fa057600080fd5b810190808051906020019092919050505092505050600089856dffffffffffffffffffffffffffff16038311610fd7576000610fed565b89856dffffffffffffffffffffffffffff160383035b9050600089856dffffffffffffffffffffffffffff16038311611011576000611027565b89856dffffffffffffffffffffffffffff160383035b905060008211806110385750600081115b61108d576040517f08c379a0000000000000000000000000000000000000000000000000000000008152600401808060200182810382526024815260200180613b226024913960400191505060405180910390fd5b60006110ca6110a760085485612e4a90919063ffffffff16565b6110bc60095488612e4a90919063ffffffff16565b612edf90919063ffffffff16565b905060006111096110e660085485612e4a90919063ffffffff16565b6110fb60095488612e4a90919063ffffffff16565b612edf90919063ffffffff16565b90506111566008546009540a611148896dffffffffffffffffffffffffffff168b6dffffffffffffffffffffffffffff16612e4a90919063ffffffff16565b612e4a90919063ffffffff16565b6111698284612e4a90919063ffffffff16565b10156111dd576040517f08c379a000000000000000000000000000000000000000000000000000000000815260040180806020018281038252600c8152602001807f5361697461537761703a204b000000000000000000000000000000000000000081525060200191505060405180910390fd5b50506111eb84848888612f62565b8873ffffffffffffffffffffffffffffffffffffffff163373ffffffffffffffffffffffffffffffffffffffff167fd78ad95fa46c994b6551d0da85fc275fe613ce37657fb8d5e3d130840159d82284848f8f6040518085815260200184815260200183815260200182815260200194505050505060405180910390a35050505050506001600e819055505050505050565b6040518060400160405280600d81526020017f536169746153776170204c50730000000000000000000000000000000000000081525081565b6000806000600a60009054906101000a90046dffffffffffffffffffffffffffff169250600a600e9054906101000a90046dffffffffffffffffffffffffffff169150600a601c9054906101000a900463ffffffff169050909192565b60006113203384846132e0565b6001905092915050565b600660009054906101000a900473ffffffffffffffffffffffffffffffffffffffff1681565b60005481565b60007fffffffffffffffffffffffffffffffffffffffffffffffffffffffffffffffff600260008673ffffffffffffffffffffffffffffffffffffffff1673ffffffffffffffffffffffffffffffffffffffff16815260200190815260200160002060003373ffffffffffffffffffffffffffffffffffffffff1673ffffffffffffffffffffffffffffffffffffffff168152602001908152602001600020541461150b5761148a82600260008773ffffffffffffffffffffffffffffffffffffffff1673ffffffffffffffffffffffffffffffffffffffff16815260200190815260200160002060003373ffffffffffffffffffffffffffffffffffffffff1673ffffffffffffffffffffffffffffffffffffffff16815260200190815260200160002054612edf90919063ffffffff16565b600260008673ffffffffffffffffffffffffffffffffffffffff1673ffffffffffffffffffffffffffffffffffffffff16815260200190815260200160002060003373ffffffffffffffffffffffffffffffffffffffff1673ffffffffffffffffffffffffffffffffffffffff168152602001908152602001600020819055505b6115168484846133cb565b600190509392505050565b7f6e71edae12b1b97f4d1f60370fef10105fa2faae0126114a169c64845d6126c960001b81565b601281565b60035481565b600560009054906101000a900473ffffffffffffffffffffffffffffffffffffffff1673ffffffffffffffffffffffffffffffffffffffff163373ffffffffffffffffffffffffffffffffffffffff1614611616576040517f08c379a00000000000000000000000000000000000000000000000000000000081526004018080602001828103825260148152602001807f5361697461537761703a20464f5242494444454e00000000000000000000000081525060200191505060405180910390fd5b81600660006101000a81548173ffffffffffffffffffffffffffffffffffffffff021916908373ffffffffffffffffffffffffffffffffffffffff16021790555080600760006101000a81548173ffffffffffffffffffffffffffffffffffffffff021916908373ffffffffffffffffffffffffffffffffffffffff1602179055505050565b600b5481565b600c5481565b60006001600e5414611722576040517f08c379a00000000000000000000000000000000000000000000000000000000081526004018080602001828103825260118152602001807f5361697461537761703a204c4f434b454400000000000000000000000000000081525060200191505060405180910390fd5b6000600e819055506000806117356112b6565b50915091506000600660009054906101000a900473ffffffffffffffffffffffffffffffffffffffff1673ffffffffffffffffffffffffffffffffffffffff166370a08231306040518263ffffffff1660e01b8152600401808273ffffffffffffffffffffffffffffffffffffffff1673ffffffffffffffffffffffffffffffffffffffff16815260200191505060206040518083038186803b1580156117db57600080fd5b505afa1580156117ef573d6000803e3d6000fd5b505050506040513d602081101561180557600080fd5b810190808051906020019092919050505090506000600760009054906101000a900473ffffffffffffffffffffffffffffffffffffffff1673ffffffffffffffffffffffffffffffffffffffff166370a08231306040518263ffffffff1660e01b8152600401808273ffffffffffffffffffffffffffffffffffffffff1673ffffffffffffffffffffffffffffffffffffffff16815260200191505060206040518083038186803b1580156118b957600080fd5b505afa1580156118cd573d6000803e3d6000fd5b505050506040513d60208110156118e357600080fd5b81019080805190602001909291905050509050600061191b856dffffffffffffffffffffffffffff1684612edf90919063ffffffff16565b90506000611942856dffffffffffffffffffffffffffff1684612edf90919063ffffffff16565b90506000611950878761355f565b905060008054905060008114156119a4576119906103e861198261197d8688612e4a90919063ffffffff16565b61371b565b612edf90919063ffffffff16565b985061199f60006103e861377d565b611a07565b611a04886dffffffffffffffffffffffffffff166119cb8387612e4a90919063ffffffff16565b816119d257fe5b04886dffffffffffffffffffffffffffff166119f78487612e4a90919063ffffffff16565b816119fe57fe5b04613897565b98505b60008911611a60576040517f08c379a0000000000000000000000000000000000000000000000000000000008152600401808060200182810382526028815260200180613ad96028913960400191505060405180910390fd5b611a6a8a8a61377d565b611a7686868a8a612f62565b8115611aee57611ae7600a600e9054906101000a90046dffffffffffffffffffffffffffff166dffffffffffffffffffffffffffff16600a60009054906101000a90046dffffffffffffffffffffffffffff166dffffffffffffffffffffffffffff16612e4a90919063ffffffff16565b600d819055505b3373ffffffffffffffffffffffffffffffffffffffff167f4c209b5fc8ad50758f13e2e1088ba56a560dff690a1c6fef26394f4c03821c4f8585604051808381526020018281526020019250505060405180910390a250505050505050506001600e81905550919050565b60016020528060005260406000206000915090505481565b60095481565b600d5481565b60046020528060005260406000206000915090505481565b6000806001600e5414611c10576040517f08c379a00000000000000000000000000000000000000000000000000000000081526004018080602001828103825260118152602001807f5361697461537761703a204c4f434b454400000000000000000000000000000081525060200191505060405180910390fd5b6000600e81905550600080611c236112b6565b50915091506000600660009054906101000a900473ffffffffffffffffffffffffffffffffffffffff1690506000600760009054906101000a900473ffffffffffffffffffffffffffffffffffffffff16905060008273ffffffffffffffffffffffffffffffffffffffff166370a08231306040518263ffffffff1660e01b8152600401808273ffffffffffffffffffffffffffffffffffffffff1673ffffffffffffffffffffffffffffffffffffffff16815260200191505060206040518083038186803b158015611cf557600080fd5b505afa158015611d09573d6000803e3d6000fd5b505050506040513d6020811015611d1f57600080fd5b8101908080519060200190929190505050905060008273ffffffffffffffffffffffffffffffffffffffff166370a08231306040518263ffffffff1660e01b8152600401808273ffffffffffffffffffffffffffffffffffffffff1673ffffffffffffffffffffffffffffffffffffffff16815260200191505060206040518083038186803b158015611db157600080fd5b505afa158015611dc5573d6000803e3d6000fd5b505050506040513d6020811015611ddb57600080fd5b810190808051906020019092919050505090506000600160003073ffffffffffffffffffffffffffffffffffffffff1673ffffffffffffffffffffffffffffffffffffffff1681526020019081526020016000205490506000611e3e888861355f565b905060008054905080611e5a8685612e4a90919063ffffffff16565b81611e6157fe5b049a5080611e788585612e4a90919063ffffffff16565b81611e7f57fe5b04995060008b118015611e92575060008a115b611ee7576040517f08c379a0000000000000000000000000000000000000000000000000000000008152600401808060200182810382526028815260200180613b466028913960400191505060405180910390fd5b611ef130846138b0565b611efc878d8d612bfd565b611f07868d8c612bfd565b8673ffffffffffffffffffffffffffffffffffffffff166370a08231306040518263ffffffff1660e01b8152600401808273ffffffffffffffffffffffffffffffffffffffff1673ffffffffffffffffffffffffffffffffffffffff16815260200191505060206040518083038186803b158015611f8457600080fd5b505afa158015611f98573d6000803e3d6000fd5b505050506040513d6020811015611fae57600080fd5b810190808051906020019092919050505094508573ffffffffffffffffffffffffffffffffffffffff166370a08231306040518263ffffffff1660e01b8152600401808273ffffffffffffffffffffffffffffffffffffffff1673ffffffffffffffffffffffffffffffffffffffff16815260200191505060206040518083038186803b15801561203e57600080fd5b505afa158015612052573d6000803e3d6000fd5b505050506040513d602081101561206857600080fd5b8101908080519060200190929190505050935061208785858b8b612f62565b81156120ff576120f8600a600e9054906101000a90046dffffffffffffffffffffffffffff166dffffffffffffffffffffffffffff16600a60009054906101000a90046dffffffffffffffffffffffffffff166dffffffffffffffffffffffffffff16612e4a90919063ffffffff16565b600d819055505b8b73ffffffffffffffffffffffffffffffffffffffff163373ffffffffffffffffffffffffffffffffffffffff167fdccd412f0b1252819cb1fd330b93224ca42612892bb3f4f789976e6d819364968d8d604051808381526020018281526020019250505060405180910390a35050505050505050506001600e81905550915091565b6040518060400160405280600381526020017f736c70000000000000000000000000000000000000000000000000000000000081525081565b60006121c83384846133cb565b6001905092915050565b6103e881565b6001600e5414612250576040517f08c379a00000000000000000000000000000000000000000000000000000000081526004018080602001828103825260118152602001807f5361697461537761703a204c4f434b454400000000000000000000000000000081525060200191505060405180910390fd5b6000600e819055506000600660009054906101000a900473ffffffffffffffffffffffffffffffffffffffff1690506000600760009054906101000a900473ffffffffffffffffffffffffffffffffffffffff1690506123a682846123a1600a60009054906101000a90046dffffffffffffffffffffffffffff166dffffffffffffffffffffffffffff168673ffffffffffffffffffffffffffffffffffffffff166370a08231306040518263ffffffff1660e01b8152600401808273ffffffffffffffffffffffffffffffffffffffff1673ffffffffffffffffffffffffffffffffffffffff16815260200191505060206040518083038186803b15801561235857600080fd5b505afa15801561236c573d6000803e3d6000fd5b505050506040513d602081101561238257600080fd5b8101908080519060200190929190505050612edf90919063ffffffff16565b612bfd565b6124a681846124a1600a600e9054906101000a90046dffffffffffffffffffffffffffff166dffffffffffffffffffffffffffff168573ffffffffffffffffffffffffffffffffffffffff166370a08231306040518263ffffffff1660e01b8152600401808273ffffffffffffffffffffffffffffffffffffffff1673ffffffffffffffffffffffffffffffffffffffff16815260200191505060206040518083038186803b15801561245857600080fd5b505afa15801561246c573d6000803e3d6000fd5b505050506040513d602081101561248257600080fd5b8101908080519060200190929190505050612edf90919063ffffffff16565b612bfd565b50506001600e8190555050565b60085481565b600560009054906101000a900473ffffffffffffffffffffffffffffffffffffffff1681565b600760009054906101000a900473ffffffffffffffffffffffffffffffffffffffff1681565b60004690506040518080613b6e60529139605201905060405180910390206040518060400160405280600d81526020017f536169746153776170204c507300000000000000000000000000000000000000815250805190602001206040518060400160405280600181526020017f3100000000000000000000000000000000000000000000000000000000000000815250805190602001208330604051602001808681526020018581526020018481526020018381526020018273ffffffffffffffffffffffffffffffffffffffff1673ffffffffffffffffffffffffffffffffffffffff168152602001955050505050506040516020818303038152906040528051906020012060038190555042851015612689576040517f08c379a00000000000000000000000000000000000000000000000000000000081526004018080602001828103825260128152602001807f5361697461537761703a2045585049524544000000000000000000000000000081525060200191505060405180910390fd5b60006003547f6e71edae12b1b97f4d1f60370fef10105fa2faae0126114a169c64845d6126c960001b8a8a8a600460008f73ffffffffffffffffffffffffffffffffffffffff1673ffffffffffffffffffffffffffffffffffffffff1681526020019081526020016000206000815480929190600101919050558b604051602001808781526020018673ffffffffffffffffffffffffffffffffffffffff1673ffffffffffffffffffffffffffffffffffffffff1681526020018573ffffffffffffffffffffffffffffffffffffffff1673ffffffffffffffffffffffffffffffffffffffff16815260200184815260200183815260200182815260200196505050505050506040516020818303038152906040528051906020012060405160200180807f190100000000000000000000000000000000000000000000000000000000000081525060020183815260200182815260200192505050604051602081830303815290604052805190602001209050600060018287878760405160008152602001604052604051808581526020018460ff1660ff1681526020018381526020018281526020019450505050506020604051602081039080840390855afa15801561285b573d6000803e3d6000fd5b505050602060405103519050600073ffffffffffffffffffffffffffffffffffffffff168173ffffffffffffffffffffffffffffffffffffffff16141580156128cf57508973ffffffffffffffffffffffffffffffffffffffff168173ffffffffffffffffffffffffffffffffffffffff16145b612941576040517f08c379a000000000000000000000000000000000000000000000000000000000815260040180806020018281038252601c8152602001807f5361697461537761703a20494e56414c49445f5349474e41545552450000000081525060200191505060405180910390fd5b61294c8a8a8a6132e0565b50505050505050505050565b6002602052816000526040600020602052806000526040600020600091509150505481565b6001600e54146129f5576040517f08c379a00000000000000000000000000000000000000000000000000000000081526004018080602001828103825260118152602001807f5361697461537761703a204c4f434b454400000000000000000000000000000081525060200191505060405180910390fd5b6000600e81905550612bf3600660009054906101000a900473ffffffffffffffffffffffffffffffffffffffff1673ffffffffffffffffffffffffffffffffffffffff166370a08231306040518263ffffffff1660e01b8152600401808273ffffffffffffffffffffffffffffffffffffffff1673ffffffffffffffffffffffffffffffffffffffff16815260200191505060206040518083038186803b158015612a9f57600080fd5b505afa158015612ab3573d6000803e3d6000fd5b505050506040513d6020811015612ac957600080fd5b8101908080519060200190929190505050600760009054906101000a900473ffffffffffffffffffffffffffffffffffffffff1673ffffffffffffffffffffffffffffffffffffffff166370a08231306040518263ffffffff1660e01b8152600401808273ffffffffffffffffffffffffffffffffffffffff1673ffffffffffffffffffffffffffffffffffffffff16815260200191505060206040518083038186803b158015612b7957600080fd5b505afa158015612b8d573d6000803e3d6000fd5b505050506040513d6020811015612ba357600080fd5b8101908080519060200190929190505050600a60009054906101000a90046dffffffffffffffffffffffffffff16600a600e9054906101000a90046dffffffffffffffffffffffffffff16612f62565b6001600e81905550565b600060608473ffffffffffffffffffffffffffffffffffffffff166040518060400160405280601981526020017f7472616e7366657228616464726573732c75696e743235362900000000000000815250805190602001208585604051602401808373ffffffffffffffffffffffffffffffffffffffff1673ffffffffffffffffffffffffffffffffffffffff16815260200182815260200192505050604051602081830303815290604052907bffffffffffffffffffffffffffffffffffffffffffffffffffffffff19166020820180517bffffffffffffffffffffffffffffffffffffffffffffffffffffffff83818316178352505050506040518082805190602001908083835b60208310612d2a5780518252602082019150602081019050602083039250612d07565b6001836020036101000a0380198251168184511680821785525050505050509050019150506000604051808303816000865af19150503d8060008114612d8c576040519150601f19603f3d011682016040523d82523d6000602084013e612d91565b606091505b5091509150818015612dd15750600081511480612dd05750808060200190516020811015612dbe57600080fd5b81019080805190602001909291905050505b5b612e43576040517f08c379a000000000000000000000000000000000000000000000000000000000815260040180806020018281038252601a8152602001807f5361697461537761703a205452414e534645525f4641494c454400000000000081525060200191505060405180910390fd5b5050505050565b600080821480612e675750828283850292508281612e6457fe5b04145b612ed9576040517f08c379a00000000000000000000000000000000000000000000000000000000081526004018080602001828103825260148152602001807f64732d6d6174682d6d756c2d6f766572666c6f7700000000000000000000000081525060200191505060405180910390fd5b92915050565b6000828284039150811115612f5c576040517f08c379a00000000000000000000000000000000000000000000000000000000081526004018080602001828103825260158152602001807f64732d6d6174682d7375622d756e646572666c6f77000000000000000000000081525060200191505060405180910390fd5b92915050565b7fffffffffffffffffffffffffffffffffffffffffffffffffffffffffffffffff6dffffffffffffffffffffffffffff168411158015612fd257507fffffffffffffffffffffffffffffffffffffffffffffffffffffffffffffffff6dffffffffffffffffffffffffffff168311155b613044576040517f08c379a00000000000000000000000000000000000000000000000000000000081526004018080602001828103825260138152602001807f5361697461537761703a204f564552464c4f570000000000000000000000000081525060200191505060405180910390fd5b6000640100000000428161305457fe5b0690506000600a601c9054906101000a900463ffffffff168203905060008163ffffffff1611801561309757506000846dffffffffffffffffffffffffffff1614155b80156130b457506000836dffffffffffffffffffffffffffff1614155b15613196578063ffffffff166130f9856130cd866139ca565b7bffffffffffffffffffffffffffffffffffffffffffffffffffffffff166139f590919063ffffffff16565b7bffffffffffffffffffffffffffffffffffffffffffffffffffffffff1602600b600082825401925050819055508063ffffffff166131678461313b876139ca565b7bffffffffffffffffffffffffffffffffffffffffffffffffffffffff166139f590919063ffffffff16565b7bffffffffffffffffffffffffffffffffffffffffffffffffffffffff1602600c600082825401925050819055505b85600a60006101000a8154816dffffffffffffffffffffffffffff02191690836dffffffffffffffffffffffffffff16021790555084600a600e6101000a8154816dffffffffffffffffffffffffffff02191690836dffffffffffffffffffffffffffff16021790555081600a601c6101000a81548163ffffffff021916908363ffffffff1602179055507f1c411e9a96e071241c2f21f7726b17ae89e3cab4c78be50e062b03a9fffbbad1600a60009054906101000a90046dffffffffffffffffffffffffffff16600a600e9054906101000a90046dffffffffffffffffffffffffffff1660405180836dffffffffffffffffffffffffffff166dffffffffffffffffffffffffffff168152602001826dffffffffffffffffffffffffffff166dffffffffffffffffffffffffffff1681526020019250505060405180910390a1505050505050565b80600260008573ffffffffffffffffffffffffffffffffffffffff1673ffffffffffffffffffffffffffffffffffffffff16815260200190815260200160002060008473ffffffffffffffffffffffffffffffffffffffff1673ffffffffffffffffffffffffffffffffffffffff168152602001908152602001600020819055508173ffffffffffffffffffffffffffffffffffffffff168373ffffffffffffffffffffffffffffffffffffffff167f8c5be1e5ebec7d5bd14f71427d1e84f3dd0314c0f7b2291e5b200ac8c7c3b925836040518082815260200191505060405180910390a3505050565b61341d81600160008673ffffffffffffffffffffffffffffffffffffffff1673ffffffffffffffffffffffffffffffffffffffff16815260200190815260200160002054612edf90919063ffffffff16565b600160008573ffffffffffffffffffffffffffffffffffffffff1673ffffffffffffffffffffffffffffffffffffffff168152602001908152602001600020819055506134b281600160008573ffffffffffffffffffffffffffffffffffffffff1673ffffffffffffffffffffffffffffffffffffffff16815260200190815260200160002054613a5590919063ffffffff16565b600160008473ffffffffffffffffffffffffffffffffffffffff1673ffffffffffffffffffffffffffffffffffffffff168152602001908152602001600020819055508173ffffffffffffffffffffffffffffffffffffffff168373ffffffffffffffffffffffffffffffffffffffff167fddf252ad1be2c89b69c2b068fc378daa952ba7f163c4a11628f55a4df523b3ef836040518082815260200191505060405180910390a3505050565b600080600560009054906101000a900473ffffffffffffffffffffffffffffffffffffffff1673ffffffffffffffffffffffffffffffffffffffff1663017e7e586040518163ffffffff1660e01b815260040160206040518083038186803b1580156135ca57600080fd5b505afa1580156135de573d6000803e3d6000fd5b505050506040513d60208110156135f457600080fd5b81019080805190602001909291905050509050600073ffffffffffffffffffffffffffffffffffffffff168173ffffffffffffffffffffffffffffffffffffffff16141591506000600d549050821561370157600081146136fc57600061368c613687866dffffffffffffffffffffffffffff16886dffffffffffffffffffffffffffff16612e4a90919063ffffffff16565b61371b565b905060006136998361371b565b9050808211156136f95760006136cc6136bb8385612edf90919063ffffffff16565b600054612e4a90919063ffffffff16565b9050600082905060008183816136de57fe5b04905060008111156136f5576136f4878261377d565b5b5050505b50505b613713565b60008114613712576000600d819055505b5b505092915050565b6000600382111561376a57819050600060016002848161373757fe5b040190505b818110156137645780915060028182858161375357fe5b04018161375c57fe5b04905061373c565b50613778565b6000821461377757600190505b5b919050565b61379281600054613a5590919063ffffffff16565b6000819055506137ea81600160008573ffffffffffffffffffffffffffffffffffffffff1673ffffffffffffffffffffffffffffffffffffffff16815260200190815260200160002054613a5590919063ffffffff16565b600160008473ffffffffffffffffffffffffffffffffffffffff1673ffffffffffffffffffffffffffffffffffffffff168152602001908152602001600020819055508173ffffffffffffffffffffffffffffffffffffffff16600073ffffffffffffffffffffffffffffffffffffffff167fddf252ad1be2c89b69c2b068fc378daa952ba7f163c4a11628f55a4df523b3ef836040518082815260200191505060405180910390a35050565b60008183106138a657816138a8565b825b905092915050565b61390281600160008573ffffffffffffffffffffffffffffffffffffffff1673ffffffffffffffffffffffffffffffffffffffff16815260200190815260200160002054612edf90919063ffffffff16565b600160008473ffffffffffffffffffffffffffffffffffffffff1673ffffffffffffffffffffffffffffffffffffffff1681526020019081526020016000208190555061395a81600054612edf90919063ffffffff16565b600081905550600073ffffffffffffffffffffffffffffffffffffffff168273ffffffffffffffffffffffffffffffffffffffff167fddf252ad1be2c89b69c2b068fc378daa952ba7f163c4a11628f55a4df523b3ef836040518082815260200191505060405180910390a35050565b60006e010000000000000000000000000000826dffffffffffffffffffffffffffff16029050919050565b6000816dffffffffffffffffffffffffffff167bffffffffffffffffffffffffffffffffffffffffffffffffffffffff16837bffffffffffffffffffffffffffffffffffffffffffffffffffffffff1681613a4c57fe5b04905092915050565b6000828284019150811015613ad2576040517f08c379a00000000000000000000000000000000000000000000000000000000081526004018080602001828103825260148152602001807f64732d6d6174682d6164642d6f766572666c6f7700000000000000000000000081525060200191505060405180910390fd5b9291505056fe5361697461537761703a20494e53554646494349454e545f4c49515549444954595f4d494e5445445361697461537761703a20494e53554646494349454e545f4c49515549444954595361697461537761703a20494e53554646494349454e545f494e5055545f414d4f554e545361697461537761703a20494e53554646494349454e545f4c49515549444954595f4255524e4544454950373132446f6d61696e28737472696e67206e616d652c737472696e672076657273696f6e2c75696e7432353620636861696e49642c6164647265737320766572696679696e67436f6e7472616374295361697461537761703a20494e53554646494349454e545f4f55545055545f414d4f554e54a265627a7a72315820609eb7afa2626f3d966e2a33bb43d37fa1bbf1f934c0df6e7f94676eb2dc9fa664736f6c63430005100032454950373132446f6d61696e28737472696e67206e616d652c737472696e672076657273696f6e2c75696e7432353620636861696e49642c6164647265737320766572696679696e67436f6e747261637429",
					"opcodes": "PUSH1 0x80 PUSH1 0x40 MSTORE PUSH1 0x2 PUSH1 0x8 SSTORE PUSH2 0x3E8 PUSH1 0x9 SSTORE PUSH1 0x1 PUSH1 0xE SSTORE CALLVALUE DUP1 ISZERO PUSH2 0x20 JUMPI PUSH1 0x0 DUP1 REVERT JUMPDEST POP PUSH1 0x0 CHAINID SWAP1 POP PUSH1 0x40 MLOAD DUP1 DUP1 PUSH2 0x3D99 PUSH1 0x52 SWAP2 CODECOPY PUSH1 0x52 ADD SWAP1 POP PUSH1 0x40 MLOAD DUP1 SWAP2 SUB SWAP1 KECCAK256 PUSH1 0x40 MLOAD DUP1 PUSH1 0x40 ADD PUSH1 0x40 MSTORE DUP1 PUSH1 0xD DUP2 MSTORE PUSH1 0x20 ADD PUSH32 0x536169746153776170204C507300000000000000000000000000000000000000 DUP2 MSTORE POP DUP1 MLOAD SWAP1 PUSH1 0x20 ADD KECCAK256 PUSH1 0x40 MLOAD DUP1 PUSH1 0x40 ADD PUSH1 0x40 MSTORE DUP1 PUSH1 0x1 DUP2 MSTORE PUSH1 0x20 ADD PUSH32 0x3100000000000000000000000000000000000000000000000000000000000000 DUP2 MSTORE POP DUP1 MLOAD SWAP1 PUSH1 0x20 ADD KECCAK256 DUP4 ADDRESS PUSH1 0x40 MLOAD PUSH1 0x20 ADD DUP1 DUP7 DUP2 MSTORE PUSH1 0x20 ADD DUP6 DUP2 MSTORE PUSH1 0x20 ADD DUP5 DUP2 MSTORE PUSH1 0x20 ADD DUP4 DUP2 MSTORE PUSH1 0x20 ADD DUP3 PUSH20 0xFFFFFFFFFFFFFFFFFFFFFFFFFFFFFFFFFFFFFFFF AND PUSH20 0xFFFFFFFFFFFFFFFFFFFFFFFFFFFFFFFFFFFFFFFF AND DUP2 MSTORE PUSH1 0x20 ADD SWAP6 POP POP POP POP POP POP PUSH1 0x40 MLOAD PUSH1 0x20 DUP2 DUP4 SUB SUB DUP2 MSTORE SWAP1 PUSH1 0x40 MSTORE DUP1 MLOAD SWAP1 PUSH1 0x20 ADD KECCAK256 PUSH1 0x3 DUP2 SWAP1 SSTORE POP POP CALLER PUSH1 0x5 PUSH1 0x0 PUSH2 0x100 EXP DUP2 SLOAD DUP2 PUSH20 0xFFFFFFFFFFFFFFFFFFFFFFFFFFFFFFFFFFFFFFFF MUL NOT AND SWAP1 DUP4 PUSH20 0xFFFFFFFFFFFFFFFFFFFFFFFFFFFFFFFFFFFFFFFF AND MUL OR SWAP1 SSTORE POP PUSH2 0x3C19 DUP1 PUSH2 0x180 PUSH1 0x0 CODECOPY PUSH1 0x0 RETURN INVALID PUSH1 0x80 PUSH1 0x40 MSTORE CALLVALUE DUP1 ISZERO PUSH2 0x10 JUMPI PUSH1 0x0 DUP1 REVERT JUMPDEST POP PUSH1 0x4 CALLDATASIZE LT PUSH2 0x1CF JUMPI PUSH1 0x0 CALLDATALOAD PUSH1 0xE0 SHR DUP1 PUSH4 0x70A08231 GT PUSH2 0x104 JUMPI DUP1 PUSH4 0xBA9A7A56 GT PUSH2 0xA2 JUMPI DUP1 PUSH4 0xD21220A7 GT PUSH2 0x71 JUMPI DUP1 PUSH4 0xD21220A7 EQ PUSH2 0x926 JUMPI DUP1 PUSH4 0xD505ACCF EQ PUSH2 0x970 JUMPI DUP1 PUSH4 0xDD62ED3E EQ PUSH2 0xA09 JUMPI DUP1 PUSH4 0xFFF6CAE9 EQ PUSH2 0xA81 JUMPI PUSH2 0x1CF JUMP JUMPDEST DUP1 PUSH4 0xBA9A7A56 EQ PUSH2 0x85C JUMPI DUP1 PUSH4 0xBC25CF77 EQ PUSH2 0x87A JUMPI DUP1 PUSH4 0xBEE62FC7 EQ PUSH2 0x8BE JUMPI DUP1 PUSH4 0xC45A0155 EQ PUSH2 0x8DC JUMPI PUSH2 0x1CF JUMP JUMPDEST DUP1 PUSH4 0x7ECEBE00 GT PUSH2 0xDE JUMPI DUP1 PUSH4 0x7ECEBE00 EQ PUSH2 0x6BC JUMPI DUP1 PUSH4 0x89AFCB44 EQ PUSH2 0x714 JUMPI DUP1 PUSH4 0x95D89B41 EQ PUSH2 0x773 JUMPI DUP1 PUSH4 0xA9059CBB EQ PUSH2 0x7F6 JUMPI PUSH2 0x1CF JUMP JUMPDEST DUP1 PUSH4 0x70A08231 EQ PUSH2 0x628 JUMPI DUP1 PUSH4 0x71EBEACC EQ PUSH2 0x680 JUMPI DUP1 PUSH4 0x7464FC3D EQ PUSH2 0x69E JUMPI PUSH2 0x1CF JUMP JUMPDEST DUP1 PUSH4 0x30ADF81F GT PUSH2 0x171 JUMPI DUP1 PUSH4 0x485CC955 GT PUSH2 0x14B JUMPI DUP1 PUSH4 0x485CC955 EQ PUSH2 0x530 JUMPI DUP1 PUSH4 0x5909C0D5 EQ PUSH2 0x594 JUMPI DUP1 PUSH4 0x5A3D5493 EQ PUSH2 0x5B2 JUMPI DUP1 PUSH4 0x6A627842 EQ PUSH2 0x5D0 JUMPI PUSH2 0x1CF JUMP JUMPDEST DUP1 PUSH4 0x30ADF81F EQ PUSH2 0x4D0 JUMPI DUP1 PUSH4 0x313CE567 EQ PUSH2 0x4EE JUMPI DUP1 PUSH4 0x3644E515 EQ PUSH2 0x512 JUMPI PUSH2 0x1CF JUMP JUMPDEST DUP1 PUSH4 0x95EA7B3 GT PUSH2 0x1AD JUMPI DUP1 PUSH4 0x95EA7B3 EQ PUSH2 0x37C JUMPI DUP1 PUSH4 0xDFE1681 EQ PUSH2 0x3E2 JUMPI DUP1 PUSH4 0x18160DDD EQ PUSH2 0x42C JUMPI DUP1 PUSH4 0x23B872DD EQ PUSH2 0x44A JUMPI PUSH2 0x1CF JUMP JUMPDEST DUP1 PUSH4 0x22C0D9F EQ PUSH2 0x1D4 JUMPI DUP1 PUSH4 0x6FDDE03 EQ PUSH2 0x281 JUMPI DUP1 PUSH4 0x902F1AC EQ PUSH2 0x304 JUMPI JUMPDEST PUSH1 0x0 DUP1 REVERT JUMPDEST PUSH2 0x27F PUSH1 0x4 DUP1 CALLDATASIZE SUB PUSH1 0x80 DUP2 LT ISZERO PUSH2 0x1EA JUMPI PUSH1 0x0 DUP1 REVERT JUMPDEST DUP2 ADD SWAP1 DUP1 DUP1 CALLDATALOAD SWAP1 PUSH1 0x20 ADD SWAP1 SWAP3 SWAP2 SWAP1 DUP1 CALLDATALOAD SWAP1 PUSH1 0x20 ADD SWAP1 SWAP3 SWAP2 SWAP1 DUP1 CALLDATALOAD PUSH20 0xFFFFFFFFFFFFFFFFFFFFFFFFFFFFFFFFFFFFFFFF AND SWAP1 PUSH1 0x20 ADD SWAP1 SWAP3 SWAP2 SWAP1 DUP1 CALLDATALOAD SWAP1 PUSH1 0x20 ADD SWAP1 PUSH5 0x100000000 DUP2 GT ISZERO PUSH2 0x23B JUMPI PUSH1 0x0 DUP1 REVERT JUMPDEST DUP3 ADD DUP4 PUSH1 0x20 DUP3 ADD GT ISZERO PUSH2 0x24D JUMPI PUSH1 0x0 DUP1 REVERT JUMPDEST DUP1 CALLDATALOAD SWAP1 PUSH1 0x20 ADD SWAP2 DUP5 PUSH1 0x1 DUP4 MUL DUP5 ADD GT PUSH5 0x100000000 DUP4 GT OR ISZERO PUSH2 0x26F JUMPI PUSH1 0x0 DUP1 REVERT JUMPDEST SWAP1 SWAP2 SWAP3 SWAP4 SWAP2 SWAP3 SWAP4 SWAP1 POP POP POP PUSH2 0xA8B JUMP JUMPDEST STOP JUMPDEST PUSH2 0x289 PUSH2 0x127D JUMP JUMPDEST PUSH1 0x40 MLOAD DUP1 DUP1 PUSH1 0x20 ADD DUP3 DUP2 SUB DUP3 MSTORE DUP4 DUP2 DUP2 MLOAD DUP2 MSTORE PUSH1 0x20 ADD SWAP2 POP DUP1 MLOAD SWAP1 PUSH1 0x20 ADD SWAP1 DUP1 DUP4 DUP4 PUSH1 0x0 JUMPDEST DUP4 DUP2 LT ISZERO PUSH2 0x2C9 JUMPI DUP1 DUP3 ADD MLOAD DUP2 DUP5 ADD MSTORE PUSH1 0x20 DUP2 ADD SWAP1 POP PUSH2 0x2AE JUMP JUMPDEST POP POP POP POP SWAP1 POP SWAP1 DUP2 ADD SWAP1 PUSH1 0x1F AND DUP1 ISZERO PUSH2 0x2F6 JUMPI DUP1 DUP3 SUB DUP1 MLOAD PUSH1 0x1 DUP4 PUSH1 0x20 SUB PUSH2 0x100 EXP SUB NOT AND DUP2 MSTORE PUSH1 0x20 ADD SWAP2 POP JUMPDEST POP SWAP3 POP POP POP PUSH1 0x40 MLOAD DUP1 SWAP2 SUB SWAP1 RETURN JUMPDEST PUSH2 0x30C PUSH2 0x12B6 JUMP JUMPDEST PUSH1 0x40 MLOAD DUP1 DUP5 PUSH14 0xFFFFFFFFFFFFFFFFFFFFFFFFFFFF AND PUSH14 0xFFFFFFFFFFFFFFFFFFFFFFFFFFFF AND DUP2 MSTORE PUSH1 0x20 ADD DUP4 PUSH14 0xFFFFFFFFFFFFFFFFFFFFFFFFFFFF AND PUSH14 0xFFFFFFFFFFFFFFFFFFFFFFFFFFFF AND DUP2 MSTORE PUSH1 0x20 ADD DUP3 PUSH4 0xFFFFFFFF AND PUSH4 0xFFFFFFFF AND DUP2 MSTORE PUSH1 0x20 ADD SWAP4 POP POP POP POP PUSH1 0x40 MLOAD DUP1 SWAP2 SUB SWAP1 RETURN JUMPDEST PUSH2 0x3C8 PUSH1 0x4 DUP1 CALLDATASIZE SUB PUSH1 0x40 DUP2 LT ISZERO PUSH2 0x392 JUMPI PUSH1 0x0 DUP1 REVERT JUMPDEST DUP2 ADD SWAP1 DUP1 DUP1 CALLDATALOAD PUSH20 0xFFFFFFFFFFFFFFFFFFFFFFFFFFFFFFFFFFFFFFFF AND SWAP1 PUSH1 0x20 ADD SWAP1 SWAP3 SWAP2 SWAP1 DUP1 CALLDATALOAD SWAP1 PUSH1 0x20 ADD SWAP1 SWAP3 SWAP2 SWAP1 POP POP POP PUSH2 0x1313 JUMP JUMPDEST PUSH1 0x40 MLOAD DUP1 DUP3 ISZERO ISZERO ISZERO ISZERO DUP2 MSTORE PUSH1 0x20 ADD SWAP2 POP POP PUSH1 0x40 MLOAD DUP1 SWAP2 SUB SWAP1 RETURN JUMPDEST PUSH2 0x3EA PUSH2 0x132A JUMP JUMPDEST PUSH1 0x40 MLOAD DUP1 DUP3 PUSH20 0xFFFFFFFFFFFFFFFFFFFFFFFFFFFFFFFFFFFFFFFF AND PUSH20 0xFFFFFFFFFFFFFFFFFFFFFFFFFFFFFFFFFFFFFFFF AND DUP2 MSTORE PUSH1 0x20 ADD SWAP2 POP POP PUSH1 0x40 MLOAD DUP1 SWAP2 SUB SWAP1 RETURN JUMPDEST PUSH2 0x434 PUSH2 0x1350 JUMP JUMPDEST PUSH1 0x40 MLOAD DUP1 DUP3 DUP2 MSTORE PUSH1 0x20 ADD SWAP2 POP POP PUSH1 0x40 MLOAD DUP1 SWAP2 SUB SWAP1 RETURN JUMPDEST PUSH2 0x4B6 PUSH1 0x4 DUP1 CALLDATASIZE SUB PUSH1 0x60 DUP2 LT ISZERO PUSH2 0x460 JUMPI PUSH1 0x0 DUP1 REVERT JUMPDEST DUP2 ADD SWAP1 DUP1 DUP1 CALLDATALOAD PUSH20 0xFFFFFFFFFFFFFFFFFFFFFFFFFFFFFFFFFFFFFFFF AND SWAP1 PUSH1 0x20 ADD SWAP1 SWAP3 SWAP2 SWAP1 DUP1 CALLDATALOAD PUSH20 0xFFFFFFFFFFFFFFFFFFFFFFFFFFFFFFFFFFFFFFFF AND SWAP1 PUSH1 0x20 ADD SWAP1 SWAP3 SWAP2 SWAP1 DUP1 CALLDATALOAD SWAP1 PUSH1 0x20 ADD SWAP1 SWAP3 SWAP2 SWAP1 POP POP POP PUSH2 0x1356 JUMP JUMPDEST PUSH1 0x40 MLOAD DUP1 DUP3 ISZERO ISZERO ISZERO ISZERO DUP2 MSTORE PUSH1 0x20 ADD SWAP2 POP POP PUSH1 0x40 MLOAD DUP1 SWAP2 SUB SWAP1 RETURN JUMPDEST PUSH2 0x4D8 PUSH2 0x1521 JUMP JUMPDEST PUSH1 0x40 MLOAD DUP1 DUP3 DUP2 MSTORE PUSH1 0x20 ADD SWAP2 POP POP PUSH1 0x40 MLOAD DUP1 SWAP2 SUB SWAP1 RETURN JUMPDEST PUSH2 0x4F6 PUSH2 0x1548 JUMP JUMPDEST PUSH1 0x40 MLOAD DUP1 DUP3 PUSH1 0xFF AND PUSH1 0xFF AND DUP2 MSTORE PUSH1 0x20 ADD SWAP2 POP POP PUSH1 0x40 MLOAD DUP1 SWAP2 SUB SWAP1 RETURN JUMPDEST PUSH2 0x51A PUSH2 0x154D JUMP JUMPDEST PUSH1 0x40 MLOAD DUP1 DUP3 DUP2 MSTORE PUSH1 0x20 ADD SWAP2 POP POP PUSH1 0x40 MLOAD DUP1 SWAP2 SUB SWAP1 RETURN JUMPDEST PUSH2 0x592 PUSH1 0x4 DUP1 CALLDATASIZE SUB PUSH1 0x40 DUP2 LT ISZERO PUSH2 0x546 JUMPI PUSH1 0x0 DUP1 REVERT JUMPDEST DUP2 ADD SWAP1 DUP1 DUP1 CALLDATALOAD PUSH20 0xFFFFFFFFFFFFFFFFFFFFFFFFFFFFFFFFFFFFFFFF AND SWAP1 PUSH1 0x20 ADD SWAP1 SWAP3 SWAP2 SWAP1 DUP1 CALLDATALOAD PUSH20 0xFFFFFFFFFFFFFFFFFFFFFFFFFFFFFFFFFFFFFFFF AND SWAP1 PUSH1 0x20 ADD SWAP1 SWAP3 SWAP2 SWAP1 POP POP POP PUSH2 0x1553 JUMP JUMPDEST STOP JUMPDEST PUSH2 0x59C PUSH2 0x169C JUMP JUMPDEST PUSH1 0x40 MLOAD DUP1 DUP3 DUP2 MSTORE PUSH1 0x20 ADD SWAP2 POP POP PUSH1 0x40 MLOAD DUP1 SWAP2 SUB SWAP1 RETURN JUMPDEST PUSH2 0x5BA PUSH2 0x16A2 JUMP JUMPDEST PUSH1 0x40 MLOAD DUP1 DUP3 DUP2 MSTORE PUSH1 0x20 ADD SWAP2 POP POP PUSH1 0x40 MLOAD DUP1 SWAP2 SUB SWAP1 RETURN JUMPDEST PUSH2 0x612 PUSH1 0x4 DUP1 CALLDATASIZE SUB PUSH1 0x20 DUP2 LT ISZERO PUSH2 0x5E6 JUMPI PUSH1 0x0 DUP1 REVERT JUMPDEST DUP2 ADD SWAP1 DUP1 DUP1 CALLDATALOAD PUSH20 0xFFFFFFFFFFFFFFFFFFFFFFFFFFFFFFFFFFFFFFFF AND SWAP1 PUSH1 0x20 ADD SWAP1 SWAP3 SWAP2 SWAP1 POP POP POP PUSH2 0x16A8 JUMP JUMPDEST PUSH1 0x40 MLOAD DUP1 DUP3 DUP2 MSTORE PUSH1 0x20 ADD SWAP2 POP POP PUSH1 0x40 MLOAD DUP1 SWAP2 SUB SWAP1 RETURN JUMPDEST PUSH2 0x66A PUSH1 0x4 DUP1 CALLDATASIZE SUB PUSH1 0x20 DUP2 LT ISZERO PUSH2 0x63E JUMPI PUSH1 0x0 DUP1 REVERT JUMPDEST DUP2 ADD SWAP1 DUP1 DUP1 CALLDATALOAD PUSH20 0xFFFFFFFFFFFFFFFFFFFFFFFFFFFFFFFFFFFFFFFF AND SWAP1 PUSH1 0x20 ADD SWAP1 SWAP3 SWAP2 SWAP1 POP POP POP PUSH2 0x1B59 JUMP JUMPDEST PUSH1 0x40 MLOAD DUP1 DUP3 DUP2 MSTORE PUSH1 0x20 ADD SWAP2 POP POP PUSH1 0x40 MLOAD DUP1 SWAP2 SUB SWAP1 RETURN JUMPDEST PUSH2 0x688 PUSH2 0x1B71 JUMP JUMPDEST PUSH1 0x40 MLOAD DUP1 DUP3 DUP2 MSTORE PUSH1 0x20 ADD SWAP2 POP POP PUSH1 0x40 MLOAD DUP1 SWAP2 SUB SWAP1 RETURN JUMPDEST PUSH2 0x6A6 PUSH2 0x1B77 JUMP JUMPDEST PUSH1 0x40 MLOAD DUP1 DUP3 DUP2 MSTORE PUSH1 0x20 ADD SWAP2 POP POP PUSH1 0x40 MLOAD DUP1 SWAP2 SUB SWAP1 RETURN JUMPDEST PUSH2 0x6FE PUSH1 0x4 DUP1 CALLDATASIZE SUB PUSH1 0x20 DUP2 LT ISZERO PUSH2 0x6D2 JUMPI PUSH1 0x0 DUP1 REVERT JUMPDEST DUP2 ADD SWAP1 DUP1 DUP1 CALLDATALOAD PUSH20 0xFFFFFFFFFFFFFFFFFFFFFFFFFFFFFFFFFFFFFFFF AND SWAP1 PUSH1 0x20 ADD SWAP1 SWAP3 SWAP2 SWAP1 POP POP POP PUSH2 0x1B7D JUMP JUMPDEST PUSH1 0x40 MLOAD DUP1 DUP3 DUP2 MSTORE PUSH1 0x20 ADD SWAP2 POP POP PUSH1 0x40 MLOAD DUP1 SWAP2 SUB SWAP1 RETURN JUMPDEST PUSH2 0x756 PUSH1 0x4 DUP1 CALLDATASIZE SUB PUSH1 0x20 DUP2 LT ISZERO PUSH2 0x72A JUMPI PUSH1 0x0 DUP1 REVERT JUMPDEST DUP2 ADD SWAP1 DUP1 DUP1 CALLDATALOAD PUSH20 0xFFFFFFFFFFFFFFFFFFFFFFFFFFFFFFFFFFFFFFFF AND SWAP1 PUSH1 0x20 ADD SWAP1 SWAP3 SWAP2 SWAP1 POP POP POP PUSH2 0x1B95 JUMP JUMPDEST PUSH1 0x40 MLOAD DUP1 DUP4 DUP2 MSTORE PUSH1 0x20 ADD DUP3 DUP2 MSTORE PUSH1 0x20 ADD SWAP3 POP POP POP PUSH1 0x40 MLOAD DUP1 SWAP2 SUB SWAP1 RETURN JUMPDEST PUSH2 0x77B PUSH2 0x2182 JUMP JUMPDEST PUSH1 0x40 MLOAD DUP1 DUP1 PUSH1 0x20 ADD DUP3 DUP2 SUB DUP3 MSTORE DUP4 DUP2 DUP2 MLOAD DUP2 MSTORE PUSH1 0x20 ADD SWAP2 POP DUP1 MLOAD SWAP1 PUSH1 0x20 ADD SWAP1 DUP1 DUP4 DUP4 PUSH1 0x0 JUMPDEST DUP4 DUP2 LT ISZERO PUSH2 0x7BB JUMPI DUP1 DUP3 ADD MLOAD DUP2 DUP5 ADD MSTORE PUSH1 0x20 DUP2 ADD SWAP1 POP PUSH2 0x7A0 JUMP JUMPDEST POP POP POP POP SWAP1 POP SWAP1 DUP2 ADD SWAP1 PUSH1 0x1F AND DUP1 ISZERO PUSH2 0x7E8 JUMPI DUP1 DUP3 SUB DUP1 MLOAD PUSH1 0x1 DUP4 PUSH1 0x20 SUB PUSH2 0x100 EXP SUB NOT AND DUP2 MSTORE PUSH1 0x20 ADD SWAP2 POP JUMPDEST POP SWAP3 POP POP POP PUSH1 0x40 MLOAD DUP1 SWAP2 SUB SWAP1 RETURN JUMPDEST PUSH2 0x842 PUSH1 0x4 DUP1 CALLDATASIZE SUB PUSH1 0x40 DUP2 LT ISZERO PUSH2 0x80C JUMPI PUSH1 0x0 DUP1 REVERT JUMPDEST DUP2 ADD SWAP1 DUP1 DUP1 CALLDATALOAD PUSH20 0xFFFFFFFFFFFFFFFFFFFFFFFFFFFFFFFFFFFFFFFF AND SWAP1 PUSH1 0x20 ADD SWAP1 SWAP3 SWAP2 SWAP1 DUP1 CALLDATALOAD SWAP1 PUSH1 0x20 ADD SWAP1 SWAP3 SWAP2 SWAP1 POP POP POP PUSH2 0x21BB JUMP JUMPDEST PUSH1 0x40 MLOAD DUP1 DUP3 ISZERO ISZERO ISZERO ISZERO DUP2 MSTORE PUSH1 0x20 ADD SWAP2 POP POP PUSH1 0x40 MLOAD DUP1 SWAP2 SUB SWAP1 RETURN JUMPDEST PUSH2 0x864 PUSH2 0x21D2 JUMP JUMPDEST PUSH1 0x40 MLOAD DUP1 DUP3 DUP2 MSTORE PUSH1 0x20 ADD SWAP2 POP POP PUSH1 0x40 MLOAD DUP1 SWAP2 SUB SWAP1 RETURN JUMPDEST PUSH2 0x8BC PUSH1 0x4 DUP1 CALLDATASIZE SUB PUSH1 0x20 DUP2 LT ISZERO PUSH2 0x890 JUMPI PUSH1 0x0 DUP1 REVERT JUMPDEST DUP2 ADD SWAP1 DUP1 DUP1 CALLDATALOAD PUSH20 0xFFFFFFFFFFFFFFFFFFFFFFFFFFFFFFFFFFFFFFFF AND SWAP1 PUSH1 0x20 ADD SWAP1 SWAP3 SWAP2 SWAP1 POP POP POP PUSH2 0x21D8 JUMP JUMPDEST STOP JUMPDEST PUSH2 0x8C6 PUSH2 0x24B3 JUMP JUMPDEST PUSH1 0x40 MLOAD DUP1 DUP3 DUP2 MSTORE PUSH1 0x20 ADD SWAP2 POP POP PUSH1 0x40 MLOAD DUP1 SWAP2 SUB SWAP1 RETURN JUMPDEST PUSH2 0x8E4 PUSH2 0x24B9 JUMP JUMPDEST PUSH1 0x40 MLOAD DUP1 DUP3 PUSH20 0xFFFFFFFFFFFFFFFFFFFFFFFFFFFFFFFFFFFFFFFF AND PUSH20 0xFFFFFFFFFFFFFFFFFFFFFFFFFFFFFFFFFFFFFFFF AND DUP2 MSTORE PUSH1 0x20 ADD SWAP2 POP POP PUSH1 0x40 MLOAD DUP1 SWAP2 SUB SWAP1 RETURN JUMPDEST PUSH2 0x92E PUSH2 0x24DF JUMP JUMPDEST PUSH1 0x40 MLOAD DUP1 DUP3 PUSH20 0xFFFFFFFFFFFFFFFFFFFFFFFFFFFFFFFFFFFFFFFF AND PUSH20 0xFFFFFFFFFFFFFFFFFFFFFFFFFFFFFFFFFFFFFFFF AND DUP2 MSTORE PUSH1 0x20 ADD SWAP2 POP POP PUSH1 0x40 MLOAD DUP1 SWAP2 SUB SWAP1 RETURN JUMPDEST PUSH2 0xA07 PUSH1 0x4 DUP1 CALLDATASIZE SUB PUSH1 0xE0 DUP2 LT ISZERO PUSH2 0x986 JUMPI PUSH1 0x0 DUP1 REVERT JUMPDEST DUP2 ADD SWAP1 DUP1 DUP1 CALLDATALOAD PUSH20 0xFFFFFFFFFFFFFFFFFFFFFFFFFFFFFFFFFFFFFFFF AND SWAP1 PUSH1 0x20 ADD SWAP1 SWAP3 SWAP2 SWAP1 DUP1 CALLDATALOAD PUSH20 0xFFFFFFFFFFFFFFFFFFFFFFFFFFFFFFFFFFFFFFFF AND SWAP1 PUSH1 0x20 ADD SWAP1 SWAP3 SWAP2 SWAP1 DUP1 CALLDATALOAD SWAP1 PUSH1 0x20 ADD SWAP1 SWAP3 SWAP2 SWAP1 DUP1 CALLDATALOAD SWAP1 PUSH1 0x20 ADD SWAP1 SWAP3 SWAP2 SWAP1 DUP1 CALLDATALOAD PUSH1 0xFF AND SWAP1 PUSH1 0x20 ADD SWAP1 SWAP3 SWAP2 SWAP1 DUP1 CALLDATALOAD SWAP1 PUSH1 0x20 ADD SWAP1 SWAP3 SWAP2 SWAP1 DUP1 CALLDATALOAD SWAP1 PUSH1 0x20 ADD SWAP1 SWAP3 SWAP2 SWAP1 POP POP POP PUSH2 0x2505 JUMP JUMPDEST STOP JUMPDEST PUSH2 0xA6B PUSH1 0x4 DUP1 CALLDATASIZE SUB PUSH1 0x40 DUP2 LT ISZERO PUSH2 0xA1F JUMPI PUSH1 0x0 DUP1 REVERT JUMPDEST DUP2 ADD SWAP1 DUP1 DUP1 CALLDATALOAD PUSH20 0xFFFFFFFFFFFFFFFFFFFFFFFFFFFFFFFFFFFFFFFF AND SWAP1 PUSH1 0x20 ADD SWAP1 SWAP3 SWAP2 SWAP1 DUP1 CALLDATALOAD PUSH20 0xFFFFFFFFFFFFFFFFFFFFFFFFFFFFFFFFFFFFFFFF AND SWAP1 PUSH1 0x20 ADD SWAP1 SWAP3 SWAP2 SWAP1 POP POP POP PUSH2 0x2958 JUMP JUMPDEST PUSH1 0x40 MLOAD DUP1 DUP3 DUP2 MSTORE PUSH1 0x20 ADD SWAP2 POP POP PUSH1 0x40 MLOAD DUP1 SWAP2 SUB SWAP1 RETURN JUMPDEST PUSH2 0xA89 PUSH2 0x297D JUMP JUMPDEST STOP JUMPDEST PUSH1 0x1 PUSH1 0xE SLOAD EQ PUSH2 0xB03 JUMPI PUSH1 0x40 MLOAD PUSH32 0x8C379A000000000000000000000000000000000000000000000000000000000 DUP2 MSTORE PUSH1 0x4 ADD DUP1 DUP1 PUSH1 0x20 ADD DUP3 DUP2 SUB DUP3 MSTORE PUSH1 0x11 DUP2 MSTORE PUSH1 0x20 ADD DUP1 PUSH32 0x5361697461537761703A204C4F434B4544000000000000000000000000000000 DUP2 MSTORE POP PUSH1 0x20 ADD SWAP2 POP POP PUSH1 0x40 MLOAD DUP1 SWAP2 SUB SWAP1 REVERT JUMPDEST PUSH1 0x0 PUSH1 0xE DUP2 SWAP1 SSTORE POP PUSH1 0x0 DUP6 GT DUP1 PUSH2 0xB1A JUMPI POP PUSH1 0x0 DUP5 GT JUMPDEST PUSH2 0xB6F JUMPI PUSH1 0x40 MLOAD PUSH32 0x8C379A000000000000000000000000000000000000000000000000000000000 DUP2 MSTORE PUSH1 0x4 ADD DUP1 DUP1 PUSH1 0x20 ADD DUP3 DUP2 SUB DUP3 MSTORE PUSH1 0x25 DUP2 MSTORE PUSH1 0x20 ADD DUP1 PUSH2 0x3BC0 PUSH1 0x25 SWAP2 CODECOPY PUSH1 0x40 ADD SWAP2 POP POP PUSH1 0x40 MLOAD DUP1 SWAP2 SUB SWAP1 REVERT JUMPDEST PUSH1 0x0 DUP1 PUSH2 0xB7A PUSH2 0x12B6 JUMP JUMPDEST POP SWAP2 POP SWAP2 POP DUP2 PUSH14 0xFFFFFFFFFFFFFFFFFFFFFFFFFFFF AND DUP8 LT DUP1 ISZERO PUSH2 0xBAD JUMPI POP DUP1 PUSH14 0xFFFFFFFFFFFFFFFFFFFFFFFFFFFF AND DUP7 LT JUMPDEST PUSH2 0xC02 JUMPI PUSH1 0x40 MLOAD PUSH32 0x8C379A000000000000000000000000000000000000000000000000000000000 DUP2 MSTORE PUSH1 0x4 ADD DUP1 DUP1 PUSH1 0x20 ADD DUP3 DUP2 SUB DUP3 MSTORE PUSH1 0x21 DUP2 MSTORE PUSH1 0x20 ADD DUP1 PUSH2 0x3B01 PUSH1 0x21 SWAP2 CODECOPY PUSH1 0x40 ADD SWAP2 POP POP PUSH1 0x40 MLOAD DUP1 SWAP2 SUB SWAP1 REVERT JUMPDEST PUSH1 0x0 DUP1 PUSH1 0x0 PUSH1 0x6 PUSH1 0x0 SWAP1 SLOAD SWAP1 PUSH2 0x100 EXP SWAP1 DIV PUSH20 0xFFFFFFFFFFFFFFFFFFFFFFFFFFFFFFFFFFFFFFFF AND SWAP1 POP PUSH1 0x0 PUSH1 0x7 PUSH1 0x0 SWAP1 SLOAD SWAP1 PUSH2 0x100 EXP SWAP1 DIV PUSH20 0xFFFFFFFFFFFFFFFFFFFFFFFFFFFFFFFFFFFFFFFF AND SWAP1 POP DUP2 PUSH20 0xFFFFFFFFFFFFFFFFFFFFFFFFFFFFFFFFFFFFFFFF AND DUP10 PUSH20 0xFFFFFFFFFFFFFFFFFFFFFFFFFFFFFFFFFFFFFFFF AND EQ ISZERO DUP1 ISZERO PUSH2 0xCBB JUMPI POP DUP1 PUSH20 0xFFFFFFFFFFFFFFFFFFFFFFFFFFFFFFFFFFFFFFFF AND DUP10 PUSH20 0xFFFFFFFFFFFFFFFFFFFFFFFFFFFFFFFFFFFFFFFF AND EQ ISZERO JUMPDEST PUSH2 0xD2D JUMPI PUSH1 0x40 MLOAD PUSH32 0x8C379A000000000000000000000000000000000000000000000000000000000 DUP2 MSTORE PUSH1 0x4 ADD DUP1 DUP1 PUSH1 0x20 ADD DUP3 DUP2 SUB DUP3 MSTORE PUSH1 0x15 DUP2 MSTORE PUSH1 0x20 ADD DUP1 PUSH32 0x5361697461537761703A20494E56414C49445F544F0000000000000000000000 DUP2 MSTORE POP PUSH1 0x20 ADD SWAP2 POP POP PUSH1 0x40 MLOAD DUP1 SWAP2 SUB SWAP1 REVERT JUMPDEST PUSH1 0x0 DUP12 GT ISZERO PUSH2 0xD42 JUMPI PUSH2 0xD41 DUP3 DUP11 DUP14 PUSH2 0x2BFD JUMP JUMPDEST JUMPDEST PUSH1 0x0 DUP11 GT ISZERO PUSH2 0xD57 JUMPI PUSH2 0xD56 DUP2 DUP11 DUP13 PUSH2 0x2BFD JUMP JUMPDEST JUMPDEST PUSH1 0x0 DUP9 DUP9 SWAP1 POP GT ISZERO PUSH2 0xE3F JUMPI DUP9 PUSH20 0xFFFFFFFFFFFFFFFFFFFFFFFFFFFFFFFFFFFFFFFF AND PUSH4 0xFE1B3A66 CALLER DUP14 DUP14 DUP13 DUP13 PUSH1 0x40 MLOAD DUP7 PUSH4 0xFFFFFFFF AND PUSH1 0xE0 SHL DUP2 MSTORE PUSH1 0x4 ADD DUP1 DUP7 PUSH20 0xFFFFFFFFFFFFFFFFFFFFFFFFFFFFFFFFFFFFFFFF AND PUSH20 0xFFFFFFFFFFFFFFFFFFFFFFFFFFFFFFFFFFFFFFFF AND DUP2 MSTORE PUSH1 0x20 ADD DUP6 DUP2 MSTORE PUSH1 0x20 ADD DUP5 DUP2 MSTORE PUSH1 0x20 ADD DUP1 PUSH1 0x20 ADD DUP3 DUP2 SUB DUP3 MSTORE DUP5 DUP5 DUP3 DUP2 DUP2 MSTORE PUSH1 0x20 ADD SWAP3 POP DUP1 DUP3 DUP5 CALLDATACOPY PUSH1 0x0 DUP2 DUP5 ADD MSTORE PUSH1 0x1F NOT PUSH1 0x1F DUP3 ADD AND SWAP1 POP DUP1 DUP4 ADD SWAP3 POP POP POP SWAP7 POP POP POP POP POP POP POP PUSH1 0x0 PUSH1 0x40 MLOAD DUP1 DUP4 SUB DUP2 PUSH1 0x0 DUP8 DUP1 EXTCODESIZE ISZERO DUP1 ISZERO PUSH2 0xE26 JUMPI PUSH1 0x0 DUP1 REVERT JUMPDEST POP GAS CALL ISZERO DUP1 ISZERO PUSH2 0xE3A JUMPI RETURNDATASIZE PUSH1 0x0 DUP1 RETURNDATACOPY RETURNDATASIZE PUSH1 0x0 REVERT JUMPDEST POP POP POP POP JUMPDEST DUP2 PUSH20 0xFFFFFFFFFFFFFFFFFFFFFFFFFFFFFFFFFFFFFFFF AND PUSH4 0x70A08231 ADDRESS PUSH1 0x40 MLOAD DUP3 PUSH4 0xFFFFFFFF AND PUSH1 0xE0 SHL DUP2 MSTORE PUSH1 0x4 ADD DUP1 DUP3 PUSH20 0xFFFFFFFFFFFFFFFFFFFFFFFFFFFFFFFFFFFFFFFF AND PUSH20 0xFFFFFFFFFFFFFFFFFFFFFFFFFFFFFFFFFFFFFFFF AND DUP2 MSTORE PUSH1 0x20 ADD SWAP2 POP POP PUSH1 0x20 PUSH1 0x40 MLOAD DUP1 DUP4 SUB DUP2 DUP7 DUP1 EXTCODESIZE ISZERO DUP1 ISZERO PUSH2 0xEBC JUMPI PUSH1 0x0 DUP1 REVERT JUMPDEST POP GAS STATICCALL ISZERO DUP1 ISZERO PUSH2 0xED0 JUMPI RETURNDATASIZE PUSH1 0x0 DUP1 RETURNDATACOPY RETURNDATASIZE PUSH1 0x0 REVERT JUMPDEST POP POP POP POP PUSH1 0x40 MLOAD RETURNDATASIZE PUSH1 0x20 DUP2 LT ISZERO PUSH2 0xEE6 JUMPI PUSH1 0x0 DUP1 REVERT JUMPDEST DUP2 ADD SWAP1 DUP1 DUP1 MLOAD SWAP1 PUSH1 0x20 ADD SWAP1 SWAP3 SWAP2 SWAP1 POP POP POP SWAP4 POP DUP1 PUSH20 0xFFFFFFFFFFFFFFFFFFFFFFFFFFFFFFFFFFFFFFFF AND PUSH4 0x70A08231 ADDRESS PUSH1 0x40 MLOAD DUP3 PUSH4 0xFFFFFFFF AND PUSH1 0xE0 SHL DUP2 MSTORE PUSH1 0x4 ADD DUP1 DUP3 PUSH20 0xFFFFFFFFFFFFFFFFFFFFFFFFFFFFFFFFFFFFFFFF AND PUSH20 0xFFFFFFFFFFFFFFFFFFFFFFFFFFFFFFFFFFFFFFFF AND DUP2 MSTORE PUSH1 0x20 ADD SWAP2 POP POP PUSH1 0x20 PUSH1 0x40 MLOAD DUP1 DUP4 SUB DUP2 DUP7 DUP1 EXTCODESIZE ISZERO DUP1 ISZERO PUSH2 0xF76 JUMPI PUSH1 0x0 DUP1 REVERT JUMPDEST POP GAS STATICCALL ISZERO DUP1 ISZERO PUSH2 0xF8A JUMPI RETURNDATASIZE PUSH1 0x0 DUP1 RETURNDATACOPY RETURNDATASIZE PUSH1 0x0 REVERT JUMPDEST POP POP POP POP PUSH1 0x40 MLOAD RETURNDATASIZE PUSH1 0x20 DUP2 LT ISZERO PUSH2 0xFA0 JUMPI PUSH1 0x0 DUP1 REVERT JUMPDEST DUP2 ADD SWAP1 DUP1 DUP1 MLOAD SWAP1 PUSH1 0x20 ADD SWAP1 SWAP3 SWAP2 SWAP1 POP POP POP SWAP3 POP POP POP PUSH1 0x0 DUP10 DUP6 PUSH14 0xFFFFFFFFFFFFFFFFFFFFFFFFFFFF AND SUB DUP4 GT PUSH2 0xFD7 JUMPI PUSH1 0x0 PUSH2 0xFED JUMP JUMPDEST DUP10 DUP6 PUSH14 0xFFFFFFFFFFFFFFFFFFFFFFFFFFFF AND SUB DUP4 SUB JUMPDEST SWAP1 POP PUSH1 0x0 DUP10 DUP6 PUSH14 0xFFFFFFFFFFFFFFFFFFFFFFFFFFFF AND SUB DUP4 GT PUSH2 0x1011 JUMPI PUSH1 0x0 PUSH2 0x1027 JUMP JUMPDEST DUP10 DUP6 PUSH14 0xFFFFFFFFFFFFFFFFFFFFFFFFFFFF AND SUB DUP4 SUB JUMPDEST SWAP1 POP PUSH1 0x0 DUP3 GT DUP1 PUSH2 0x1038 JUMPI POP PUSH1 0x0 DUP2 GT JUMPDEST PUSH2 0x108D JUMPI PUSH1 0x40 MLOAD PUSH32 0x8C379A000000000000000000000000000000000000000000000000000000000 DUP2 MSTORE PUSH1 0x4 ADD DUP1 DUP1 PUSH1 0x20 ADD DUP3 DUP2 SUB DUP3 MSTORE PUSH1 0x24 DUP2 MSTORE PUSH1 0x20 ADD DUP1 PUSH2 0x3B22 PUSH1 0x24 SWAP2 CODECOPY PUSH1 0x40 ADD SWAP2 POP POP PUSH1 0x40 MLOAD DUP1 SWAP2 SUB SWAP1 REVERT JUMPDEST PUSH1 0x0 PUSH2 0x10CA PUSH2 0x10A7 PUSH1 0x8 SLOAD DUP6 PUSH2 0x2E4A SWAP1 SWAP2 SWAP1 PUSH4 0xFFFFFFFF AND JUMP JUMPDEST PUSH2 0x10BC PUSH1 0x9 SLOAD DUP9 PUSH2 0x2E4A SWAP1 SWAP2 SWAP1 PUSH4 0xFFFFFFFF AND JUMP JUMPDEST PUSH2 0x2EDF SWAP1 SWAP2 SWAP1 PUSH4 0xFFFFFFFF AND JUMP JUMPDEST SWAP1 POP PUSH1 0x0 PUSH2 0x1109 PUSH2 0x10E6 PUSH1 0x8 SLOAD DUP6 PUSH2 0x2E4A SWAP1 SWAP2 SWAP1 PUSH4 0xFFFFFFFF AND JUMP JUMPDEST PUSH2 0x10FB PUSH1 0x9 SLOAD DUP9 PUSH2 0x2E4A SWAP1 SWAP2 SWAP1 PUSH4 0xFFFFFFFF AND JUMP JUMPDEST PUSH2 0x2EDF SWAP1 SWAP2 SWAP1 PUSH4 0xFFFFFFFF AND JUMP JUMPDEST SWAP1 POP PUSH2 0x1156 PUSH1 0x8 SLOAD PUSH1 0x9 SLOAD EXP PUSH2 0x1148 DUP10 PUSH14 0xFFFFFFFFFFFFFFFFFFFFFFFFFFFF AND DUP12 PUSH14 0xFFFFFFFFFFFFFFFFFFFFFFFFFFFF AND PUSH2 0x2E4A SWAP1 SWAP2 SWAP1 PUSH4 0xFFFFFFFF AND JUMP JUMPDEST PUSH2 0x2E4A SWAP1 SWAP2 SWAP1 PUSH4 0xFFFFFFFF AND JUMP JUMPDEST PUSH2 0x1169 DUP3 DUP5 PUSH2 0x2E4A SWAP1 SWAP2 SWAP1 PUSH4 0xFFFFFFFF AND JUMP JUMPDEST LT ISZERO PUSH2 0x11DD JUMPI PUSH1 0x40 MLOAD PUSH32 0x8C379A000000000000000000000000000000000000000000000000000000000 DUP2 MSTORE PUSH1 0x4 ADD DUP1 DUP1 PUSH1 0x20 ADD DUP3 DUP2 SUB DUP3 MSTORE PUSH1 0xC DUP2 MSTORE PUSH1 0x20 ADD DUP1 PUSH32 0x5361697461537761703A204B0000000000000000000000000000000000000000 DUP2 MSTORE POP PUSH1 0x20 ADD SWAP2 POP POP PUSH1 0x40 MLOAD DUP1 SWAP2 SUB SWAP1 REVERT JUMPDEST POP POP PUSH2 0x11EB DUP5 DUP5 DUP9 DUP9 PUSH2 0x2F62 JUMP JUMPDEST DUP9 PUSH20 0xFFFFFFFFFFFFFFFFFFFFFFFFFFFFFFFFFFFFFFFF AND CALLER PUSH20 0xFFFFFFFFFFFFFFFFFFFFFFFFFFFFFFFFFFFFFFFF AND PUSH32 0xD78AD95FA46C994B6551D0DA85FC275FE613CE37657FB8D5E3D130840159D822 DUP5 DUP5 DUP16 DUP16 PUSH1 0x40 MLOAD DUP1 DUP6 DUP2 MSTORE PUSH1 0x20 ADD DUP5 DUP2 MSTORE PUSH1 0x20 ADD DUP4 DUP2 MSTORE PUSH1 0x20 ADD DUP3 DUP2 MSTORE PUSH1 0x20 ADD SWAP5 POP POP POP POP POP PUSH1 0x40 MLOAD DUP1 SWAP2 SUB SWAP1 LOG3 POP POP POP POP POP POP PUSH1 0x1 PUSH1 0xE DUP2 SWAP1 SSTORE POP POP POP POP POP POP JUMP JUMPDEST PUSH1 0x40 MLOAD DUP1 PUSH1 0x40 ADD PUSH1 0x40 MSTORE DUP1 PUSH1 0xD DUP2 MSTORE PUSH1 0x20 ADD PUSH32 0x536169746153776170204C507300000000000000000000000000000000000000 DUP2 MSTORE POP DUP2 JUMP JUMPDEST PUSH1 0x0 DUP1 PUSH1 0x0 PUSH1 0xA PUSH1 0x0 SWAP1 SLOAD SWAP1 PUSH2 0x100 EXP SWAP1 DIV PUSH14 0xFFFFFFFFFFFFFFFFFFFFFFFFFFFF AND SWAP3 POP PUSH1 0xA PUSH1 0xE SWAP1 SLOAD SWAP1 PUSH2 0x100 EXP SWAP1 DIV PUSH14 0xFFFFFFFFFFFFFFFFFFFFFFFFFFFF AND SWAP2 POP PUSH1 0xA PUSH1 0x1C SWAP1 SLOAD SWAP1 PUSH2 0x100 EXP SWAP1 DIV PUSH4 0xFFFFFFFF AND SWAP1 POP SWAP1 SWAP2 SWAP3 JUMP JUMPDEST PUSH1 0x0 PUSH2 0x1320 CALLER DUP5 DUP5 PUSH2 0x32E0 JUMP JUMPDEST PUSH1 0x1 SWAP1 POP SWAP3 SWAP2 POP POP JUMP JUMPDEST PUSH1 0x6 PUSH1 0x0 SWAP1 SLOAD SWAP1 PUSH2 0x100 EXP SWAP1 DIV PUSH20 0xFFFFFFFFFFFFFFFFFFFFFFFFFFFFFFFFFFFFFFFF AND DUP2 JUMP JUMPDEST PUSH1 0x0 SLOAD DUP2 JUMP JUMPDEST PUSH1 0x0 PUSH32 0xFFFFFFFFFFFFFFFFFFFFFFFFFFFFFFFFFFFFFFFFFFFFFFFFFFFFFFFFFFFFFFFF PUSH1 0x2 PUSH1 0x0 DUP7 PUSH20 0xFFFFFFFFFFFFFFFFFFFFFFFFFFFFFFFFFFFFFFFF AND PUSH20 0xFFFFFFFFFFFFFFFFFFFFFFFFFFFFFFFFFFFFFFFF AND DUP2 MSTORE PUSH1 0x20 ADD SWAP1 DUP2 MSTORE PUSH1 0x20 ADD PUSH1 0x0 KECCAK256 PUSH1 0x0 CALLER PUSH20 0xFFFFFFFFFFFFFFFFFFFFFFFFFFFFFFFFFFFFFFFF AND PUSH20 0xFFFFFFFFFFFFFFFFFFFFFFFFFFFFFFFFFFFFFFFF AND DUP2 MSTORE PUSH1 0x20 ADD SWAP1 DUP2 MSTORE PUSH1 0x20 ADD PUSH1 0x0 KECCAK256 SLOAD EQ PUSH2 0x150B JUMPI PUSH2 0x148A DUP3 PUSH1 0x2 PUSH1 0x0 DUP8 PUSH20 0xFFFFFFFFFFFFFFFFFFFFFFFFFFFFFFFFFFFFFFFF AND PUSH20 0xFFFFFFFFFFFFFFFFFFFFFFFFFFFFFFFFFFFFFFFF AND DUP2 MSTORE PUSH1 0x20 ADD SWAP1 DUP2 MSTORE PUSH1 0x20 ADD PUSH1 0x0 KECCAK256 PUSH1 0x0 CALLER PUSH20 0xFFFFFFFFFFFFFFFFFFFFFFFFFFFFFFFFFFFFFFFF AND PUSH20 0xFFFFFFFFFFFFFFFFFFFFFFFFFFFFFFFFFFFFFFFF AND DUP2 MSTORE PUSH1 0x20 ADD SWAP1 DUP2 MSTORE PUSH1 0x20 ADD PUSH1 0x0 KECCAK256 SLOAD PUSH2 0x2EDF SWAP1 SWAP2 SWAP1 PUSH4 0xFFFFFFFF AND JUMP JUMPDEST PUSH1 0x2 PUSH1 0x0 DUP7 PUSH20 0xFFFFFFFFFFFFFFFFFFFFFFFFFFFFFFFFFFFFFFFF AND PUSH20 0xFFFFFFFFFFFFFFFFFFFFFFFFFFFFFFFFFFFFFFFF AND DUP2 MSTORE PUSH1 0x20 ADD SWAP1 DUP2 MSTORE PUSH1 0x20 ADD PUSH1 0x0 KECCAK256 PUSH1 0x0 CALLER PUSH20 0xFFFFFFFFFFFFFFFFFFFFFFFFFFFFFFFFFFFFFFFF AND PUSH20 0xFFFFFFFFFFFFFFFFFFFFFFFFFFFFFFFFFFFFFFFF AND DUP2 MSTORE PUSH1 0x20 ADD SWAP1 DUP2 MSTORE PUSH1 0x20 ADD PUSH1 0x0 KECCAK256 DUP2 SWAP1 SSTORE POP JUMPDEST PUSH2 0x1516 DUP5 DUP5 DUP5 PUSH2 0x33CB JUMP JUMPDEST PUSH1 0x1 SWAP1 POP SWAP4 SWAP3 POP POP POP JUMP JUMPDEST PUSH32 0x6E71EDAE12B1B97F4D1F60370FEF10105FA2FAAE0126114A169C64845D6126C9 PUSH1 0x0 SHL DUP2 JUMP JUMPDEST PUSH1 0x12 DUP2 JUMP JUMPDEST PUSH1 0x3 SLOAD DUP2 JUMP JUMPDEST PUSH1 0x5 PUSH1 0x0 SWAP1 SLOAD SWAP1 PUSH2 0x100 EXP SWAP1 DIV PUSH20 0xFFFFFFFFFFFFFFFFFFFFFFFFFFFFFFFFFFFFFFFF AND PUSH20 0xFFFFFFFFFFFFFFFFFFFFFFFFFFFFFFFFFFFFFFFF AND CALLER PUSH20 0xFFFFFFFFFFFFFFFFFFFFFFFFFFFFFFFFFFFFFFFF AND EQ PUSH2 0x1616 JUMPI PUSH1 0x40 MLOAD PUSH32 0x8C379A000000000000000000000000000000000000000000000000000000000 DUP2 MSTORE PUSH1 0x4 ADD DUP1 DUP1 PUSH1 0x20 ADD DUP3 DUP2 SUB DUP3 MSTORE PUSH1 0x14 DUP2 MSTORE PUSH1 0x20 ADD DUP1 PUSH32 0x5361697461537761703A20464F5242494444454E000000000000000000000000 DUP2 MSTORE POP PUSH1 0x20 ADD SWAP2 POP POP PUSH1 0x40 MLOAD DUP1 SWAP2 SUB SWAP1 REVERT JUMPDEST DUP2 PUSH1 0x6 PUSH1 0x0 PUSH2 0x100 EXP DUP2 SLOAD DUP2 PUSH20 0xFFFFFFFFFFFFFFFFFFFFFFFFFFFFFFFFFFFFFFFF MUL NOT AND SWAP1 DUP4 PUSH20 0xFFFFFFFFFFFFFFFFFFFFFFFFFFFFFFFFFFFFFFFF AND MUL OR SWAP1 SSTORE POP DUP1 PUSH1 0x7 PUSH1 0x0 PUSH2 0x100 EXP DUP2 SLOAD DUP2 PUSH20 0xFFFFFFFFFFFFFFFFFFFFFFFFFFFFFFFFFFFFFFFF MUL NOT AND SWAP1 DUP4 PUSH20 0xFFFFFFFFFFFFFFFFFFFFFFFFFFFFFFFFFFFFFFFF AND MUL OR SWAP1 SSTORE POP POP POP JUMP JUMPDEST PUSH1 0xB SLOAD DUP2 JUMP JUMPDEST PUSH1 0xC SLOAD DUP2 JUMP JUMPDEST PUSH1 0x0 PUSH1 0x1 PUSH1 0xE SLOAD EQ PUSH2 0x1722 JUMPI PUSH1 0x40 MLOAD PUSH32 0x8C379A000000000000000000000000000000000000000000000000000000000 DUP2 MSTORE PUSH1 0x4 ADD DUP1 DUP1 PUSH1 0x20 ADD DUP3 DUP2 SUB DUP3 MSTORE PUSH1 0x11 DUP2 MSTORE PUSH1 0x20 ADD DUP1 PUSH32 0x5361697461537761703A204C4F434B4544000000000000000000000000000000 DUP2 MSTORE POP PUSH1 0x20 ADD SWAP2 POP POP PUSH1 0x40 MLOAD DUP1 SWAP2 SUB SWAP1 REVERT JUMPDEST PUSH1 0x0 PUSH1 0xE DUP2 SWAP1 SSTORE POP PUSH1 0x0 DUP1 PUSH2 0x1735 PUSH2 0x12B6 JUMP JUMPDEST POP SWAP2 POP SWAP2 POP PUSH1 0x0 PUSH1 0x6 PUSH1 0x0 SWAP1 SLOAD SWAP1 PUSH2 0x100 EXP SWAP1 DIV PUSH20 0xFFFFFFFFFFFFFFFFFFFFFFFFFFFFFFFFFFFFFFFF AND PUSH20 0xFFFFFFFFFFFFFFFFFFFFFFFFFFFFFFFFFFFFFFFF AND PUSH4 0x70A08231 ADDRESS PUSH1 0x40 MLOAD DUP3 PUSH4 0xFFFFFFFF AND PUSH1 0xE0 SHL DUP2 MSTORE PUSH1 0x4 ADD DUP1 DUP3 PUSH20 0xFFFFFFFFFFFFFFFFFFFFFFFFFFFFFFFFFFFFFFFF AND PUSH20 0xFFFFFFFFFFFFFFFFFFFFFFFFFFFFFFFFFFFFFFFF AND DUP2 MSTORE PUSH1 0x20 ADD SWAP2 POP POP PUSH1 0x20 PUSH1 0x40 MLOAD DUP1 DUP4 SUB DUP2 DUP7 DUP1 EXTCODESIZE ISZERO DUP1 ISZERO PUSH2 0x17DB JUMPI PUSH1 0x0 DUP1 REVERT JUMPDEST POP GAS STATICCALL ISZERO DUP1 ISZERO PUSH2 0x17EF JUMPI RETURNDATASIZE PUSH1 0x0 DUP1 RETURNDATACOPY RETURNDATASIZE PUSH1 0x0 REVERT JUMPDEST POP POP POP POP PUSH1 0x40 MLOAD RETURNDATASIZE PUSH1 0x20 DUP2 LT ISZERO PUSH2 0x1805 JUMPI PUSH1 0x0 DUP1 REVERT JUMPDEST DUP2 ADD SWAP1 DUP1 DUP1 MLOAD SWAP1 PUSH1 0x20 ADD SWAP1 SWAP3 SWAP2 SWAP1 POP POP POP SWAP1 POP PUSH1 0x0 PUSH1 0x7 PUSH1 0x0 SWAP1 SLOAD SWAP1 PUSH2 0x100 EXP SWAP1 DIV PUSH20 0xFFFFFFFFFFFFFFFFFFFFFFFFFFFFFFFFFFFFFFFF AND PUSH20 0xFFFFFFFFFFFFFFFFFFFFFFFFFFFFFFFFFFFFFFFF AND PUSH4 0x70A08231 ADDRESS PUSH1 0x40 MLOAD DUP3 PUSH4 0xFFFFFFFF AND PUSH1 0xE0 SHL DUP2 MSTORE PUSH1 0x4 ADD DUP1 DUP3 PUSH20 0xFFFFFFFFFFFFFFFFFFFFFFFFFFFFFFFFFFFFFFFF AND PUSH20 0xFFFFFFFFFFFFFFFFFFFFFFFFFFFFFFFFFFFFFFFF AND DUP2 MSTORE PUSH1 0x20 ADD SWAP2 POP POP PUSH1 0x20 PUSH1 0x40 MLOAD DUP1 DUP4 SUB DUP2 DUP7 DUP1 EXTCODESIZE ISZERO DUP1 ISZERO PUSH2 0x18B9 JUMPI PUSH1 0x0 DUP1 REVERT JUMPDEST POP GAS STATICCALL ISZERO DUP1 ISZERO PUSH2 0x18CD JUMPI RETURNDATASIZE PUSH1 0x0 DUP1 RETURNDATACOPY RETURNDATASIZE PUSH1 0x0 REVERT JUMPDEST POP POP POP POP PUSH1 0x40 MLOAD RETURNDATASIZE PUSH1 0x20 DUP2 LT ISZERO PUSH2 0x18E3 JUMPI PUSH1 0x0 DUP1 REVERT JUMPDEST DUP2 ADD SWAP1 DUP1 DUP1 MLOAD SWAP1 PUSH1 0x20 ADD SWAP1 SWAP3 SWAP2 SWAP1 POP POP POP SWAP1 POP PUSH1 0x0 PUSH2 0x191B DUP6 PUSH14 0xFFFFFFFFFFFFFFFFFFFFFFFFFFFF AND DUP5 PUSH2 0x2EDF SWAP1 SWAP2 SWAP1 PUSH4 0xFFFFFFFF AND JUMP JUMPDEST SWAP1 POP PUSH1 0x0 PUSH2 0x1942 DUP6 PUSH14 0xFFFFFFFFFFFFFFFFFFFFFFFFFFFF AND DUP5 PUSH2 0x2EDF SWAP1 SWAP2 SWAP1 PUSH4 0xFFFFFFFF AND JUMP JUMPDEST SWAP1 POP PUSH1 0x0 PUSH2 0x1950 DUP8 DUP8 PUSH2 0x355F JUMP JUMPDEST SWAP1 POP PUSH1 0x0 DUP1 SLOAD SWAP1 POP PUSH1 0x0 DUP2 EQ ISZERO PUSH2 0x19A4 JUMPI PUSH2 0x1990 PUSH2 0x3E8 PUSH2 0x1982 PUSH2 0x197D DUP7 DUP9 PUSH2 0x2E4A SWAP1 SWAP2 SWAP1 PUSH4 0xFFFFFFFF AND JUMP JUMPDEST PUSH2 0x371B JUMP JUMPDEST PUSH2 0x2EDF SWAP1 SWAP2 SWAP1 PUSH4 0xFFFFFFFF AND JUMP JUMPDEST SWAP9 POP PUSH2 0x199F PUSH1 0x0 PUSH2 0x3E8 PUSH2 0x377D JUMP JUMPDEST PUSH2 0x1A07 JUMP JUMPDEST PUSH2 0x1A04 DUP9 PUSH14 0xFFFFFFFFFFFFFFFFFFFFFFFFFFFF AND PUSH2 0x19CB DUP4 DUP8 PUSH2 0x2E4A SWAP1 SWAP2 SWAP1 PUSH4 0xFFFFFFFF AND JUMP JUMPDEST DUP2 PUSH2 0x19D2 JUMPI INVALID JUMPDEST DIV DUP9 PUSH14 0xFFFFFFFFFFFFFFFFFFFFFFFFFFFF AND PUSH2 0x19F7 DUP5 DUP8 PUSH2 0x2E4A SWAP1 SWAP2 SWAP1 PUSH4 0xFFFFFFFF AND JUMP JUMPDEST DUP2 PUSH2 0x19FE JUMPI INVALID JUMPDEST DIV PUSH2 0x3897 JUMP JUMPDEST SWAP9 POP JUMPDEST PUSH1 0x0 DUP10 GT PUSH2 0x1A60 JUMPI PUSH1 0x40 MLOAD PUSH32 0x8C379A000000000000000000000000000000000000000000000000000000000 DUP2 MSTORE PUSH1 0x4 ADD DUP1 DUP1 PUSH1 0x20 ADD DUP3 DUP2 SUB DUP3 MSTORE PUSH1 0x28 DUP2 MSTORE PUSH1 0x20 ADD DUP1 PUSH2 0x3AD9 PUSH1 0x28 SWAP2 CODECOPY PUSH1 0x40 ADD SWAP2 POP POP PUSH1 0x40 MLOAD DUP1 SWAP2 SUB SWAP1 REVERT JUMPDEST PUSH2 0x1A6A DUP11 DUP11 PUSH2 0x377D JUMP JUMPDEST PUSH2 0x1A76 DUP7 DUP7 DUP11 DUP11 PUSH2 0x2F62 JUMP JUMPDEST DUP2 ISZERO PUSH2 0x1AEE JUMPI PUSH2 0x1AE7 PUSH1 0xA PUSH1 0xE SWAP1 SLOAD SWAP1 PUSH2 0x100 EXP SWAP1 DIV PUSH14 0xFFFFFFFFFFFFFFFFFFFFFFFFFFFF AND PUSH14 0xFFFFFFFFFFFFFFFFFFFFFFFFFFFF AND PUSH1 0xA PUSH1 0x0 SWAP1 SLOAD SWAP1 PUSH2 0x100 EXP SWAP1 DIV PUSH14 0xFFFFFFFFFFFFFFFFFFFFFFFFFFFF AND PUSH14 0xFFFFFFFFFFFFFFFFFFFFFFFFFFFF AND PUSH2 0x2E4A SWAP1 SWAP2 SWAP1 PUSH4 0xFFFFFFFF AND JUMP JUMPDEST PUSH1 0xD DUP2 SWAP1 SSTORE POP JUMPDEST CALLER PUSH20 0xFFFFFFFFFFFFFFFFFFFFFFFFFFFFFFFFFFFFFFFF AND PUSH32 0x4C209B5FC8AD50758F13E2E1088BA56A560DFF690A1C6FEF26394F4C03821C4F DUP6 DUP6 PUSH1 0x40 MLOAD DUP1 DUP4 DUP2 MSTORE PUSH1 0x20 ADD DUP3 DUP2 MSTORE PUSH1 0x20 ADD SWAP3 POP POP POP PUSH1 0x40 MLOAD DUP1 SWAP2 SUB SWAP1 LOG2 POP POP POP POP POP POP POP POP PUSH1 0x1 PUSH1 0xE DUP2 SWAP1 SSTORE POP SWAP2 SWAP1 POP JUMP JUMPDEST PUSH1 0x1 PUSH1 0x20 MSTORE DUP1 PUSH1 0x0 MSTORE PUSH1 0x40 PUSH1 0x0 KECCAK256 PUSH1 0x0 SWAP2 POP SWAP1 POP SLOAD DUP2 JUMP JUMPDEST PUSH1 0x9 SLOAD DUP2 JUMP JUMPDEST PUSH1 0xD SLOAD DUP2 JUMP JUMPDEST PUSH1 0x4 PUSH1 0x20 MSTORE DUP1 PUSH1 0x0 MSTORE PUSH1 0x40 PUSH1 0x0 KECCAK256 PUSH1 0x0 SWAP2 POP SWAP1 POP SLOAD DUP2 JUMP JUMPDEST PUSH1 0x0 DUP1 PUSH1 0x1 PUSH1 0xE SLOAD EQ PUSH2 0x1C10 JUMPI PUSH1 0x40 MLOAD PUSH32 0x8C379A000000000000000000000000000000000000000000000000000000000 DUP2 MSTORE PUSH1 0x4 ADD DUP1 DUP1 PUSH1 0x20 ADD DUP3 DUP2 SUB DUP3 MSTORE PUSH1 0x11 DUP2 MSTORE PUSH1 0x20 ADD DUP1 PUSH32 0x5361697461537761703A204C4F434B4544000000000000000000000000000000 DUP2 MSTORE POP PUSH1 0x20 ADD SWAP2 POP POP PUSH1 0x40 MLOAD DUP1 SWAP2 SUB SWAP1 REVERT JUMPDEST PUSH1 0x0 PUSH1 0xE DUP2 SWAP1 SSTORE POP PUSH1 0x0 DUP1 PUSH2 0x1C23 PUSH2 0x12B6 JUMP JUMPDEST POP SWAP2 POP SWAP2 POP PUSH1 0x0 PUSH1 0x6 PUSH1 0x0 SWAP1 SLOAD SWAP1 PUSH2 0x100 EXP SWAP1 DIV PUSH20 0xFFFFFFFFFFFFFFFFFFFFFFFFFFFFFFFFFFFFFFFF AND SWAP1 POP PUSH1 0x0 PUSH1 0x7 PUSH1 0x0 SWAP1 SLOAD SWAP1 PUSH2 0x100 EXP SWAP1 DIV PUSH20 0xFFFFFFFFFFFFFFFFFFFFFFFFFFFFFFFFFFFFFFFF AND SWAP1 POP PUSH1 0x0 DUP3 PUSH20 0xFFFFFFFFFFFFFFFFFFFFFFFFFFFFFFFFFFFFFFFF AND PUSH4 0x70A08231 ADDRESS PUSH1 0x40 MLOAD DUP3 PUSH4 0xFFFFFFFF AND PUSH1 0xE0 SHL DUP2 MSTORE PUSH1 0x4 ADD DUP1 DUP3 PUSH20 0xFFFFFFFFFFFFFFFFFFFFFFFFFFFFFFFFFFFFFFFF AND PUSH20 0xFFFFFFFFFFFFFFFFFFFFFFFFFFFFFFFFFFFFFFFF AND DUP2 MSTORE PUSH1 0x20 ADD SWAP2 POP POP PUSH1 0x20 PUSH1 0x40 MLOAD DUP1 DUP4 SUB DUP2 DUP7 DUP1 EXTCODESIZE ISZERO DUP1 ISZERO PUSH2 0x1CF5 JUMPI PUSH1 0x0 DUP1 REVERT JUMPDEST POP GAS STATICCALL ISZERO DUP1 ISZERO PUSH2 0x1D09 JUMPI RETURNDATASIZE PUSH1 0x0 DUP1 RETURNDATACOPY RETURNDATASIZE PUSH1 0x0 REVERT JUMPDEST POP POP POP POP PUSH1 0x40 MLOAD RETURNDATASIZE PUSH1 0x20 DUP2 LT ISZERO PUSH2 0x1D1F JUMPI PUSH1 0x0 DUP1 REVERT JUMPDEST DUP2 ADD SWAP1 DUP1 DUP1 MLOAD SWAP1 PUSH1 0x20 ADD SWAP1 SWAP3 SWAP2 SWAP1 POP POP POP SWAP1 POP PUSH1 0x0 DUP3 PUSH20 0xFFFFFFFFFFFFFFFFFFFFFFFFFFFFFFFFFFFFFFFF AND PUSH4 0x70A08231 ADDRESS PUSH1 0x40 MLOAD DUP3 PUSH4 0xFFFFFFFF AND PUSH1 0xE0 SHL DUP2 MSTORE PUSH1 0x4 ADD DUP1 DUP3 PUSH20 0xFFFFFFFFFFFFFFFFFFFFFFFFFFFFFFFFFFFFFFFF AND PUSH20 0xFFFFFFFFFFFFFFFFFFFFFFFFFFFFFFFFFFFFFFFF AND DUP2 MSTORE PUSH1 0x20 ADD SWAP2 POP POP PUSH1 0x20 PUSH1 0x40 MLOAD DUP1 DUP4 SUB DUP2 DUP7 DUP1 EXTCODESIZE ISZERO DUP1 ISZERO PUSH2 0x1DB1 JUMPI PUSH1 0x0 DUP1 REVERT JUMPDEST POP GAS STATICCALL ISZERO DUP1 ISZERO PUSH2 0x1DC5 JUMPI RETURNDATASIZE PUSH1 0x0 DUP1 RETURNDATACOPY RETURNDATASIZE PUSH1 0x0 REVERT JUMPDEST POP POP POP POP PUSH1 0x40 MLOAD RETURNDATASIZE PUSH1 0x20 DUP2 LT ISZERO PUSH2 0x1DDB JUMPI PUSH1 0x0 DUP1 REVERT JUMPDEST DUP2 ADD SWAP1 DUP1 DUP1 MLOAD SWAP1 PUSH1 0x20 ADD SWAP1 SWAP3 SWAP2 SWAP1 POP POP POP SWAP1 POP PUSH1 0x0 PUSH1 0x1 PUSH1 0x0 ADDRESS PUSH20 0xFFFFFFFFFFFFFFFFFFFFFFFFFFFFFFFFFFFFFFFF AND PUSH20 0xFFFFFFFFFFFFFFFFFFFFFFFFFFFFFFFFFFFFFFFF AND DUP2 MSTORE PUSH1 0x20 ADD SWAP1 DUP2 MSTORE PUSH1 0x20 ADD PUSH1 0x0 KECCAK256 SLOAD SWAP1 POP PUSH1 0x0 PUSH2 0x1E3E DUP9 DUP9 PUSH2 0x355F JUMP JUMPDEST SWAP1 POP PUSH1 0x0 DUP1 SLOAD SWAP1 POP DUP1 PUSH2 0x1E5A DUP7 DUP6 PUSH2 0x2E4A SWAP1 SWAP2 SWAP1 PUSH4 0xFFFFFFFF AND JUMP JUMPDEST DUP2 PUSH2 0x1E61 JUMPI INVALID JUMPDEST DIV SWAP11 POP DUP1 PUSH2 0x1E78 DUP6 DUP6 PUSH2 0x2E4A SWAP1 SWAP2 SWAP1 PUSH4 0xFFFFFFFF AND JUMP JUMPDEST DUP2 PUSH2 0x1E7F JUMPI INVALID JUMPDEST DIV SWAP10 POP PUSH1 0x0 DUP12 GT DUP1 ISZERO PUSH2 0x1E92 JUMPI POP PUSH1 0x0 DUP11 GT JUMPDEST PUSH2 0x1EE7 JUMPI PUSH1 0x40 MLOAD PUSH32 0x8C379A000000000000000000000000000000000000000000000000000000000 DUP2 MSTORE PUSH1 0x4 ADD DUP1 DUP1 PUSH1 0x20 ADD DUP3 DUP2 SUB DUP3 MSTORE PUSH1 0x28 DUP2 MSTORE PUSH1 0x20 ADD DUP1 PUSH2 0x3B46 PUSH1 0x28 SWAP2 CODECOPY PUSH1 0x40 ADD SWAP2 POP POP PUSH1 0x40 MLOAD DUP1 SWAP2 SUB SWAP1 REVERT JUMPDEST PUSH2 0x1EF1 ADDRESS DUP5 PUSH2 0x38B0 JUMP JUMPDEST PUSH2 0x1EFC DUP8 DUP14 DUP14 PUSH2 0x2BFD JUMP JUMPDEST PUSH2 0x1F07 DUP7 DUP14 DUP13 PUSH2 0x2BFD JUMP JUMPDEST DUP7 PUSH20 0xFFFFFFFFFFFFFFFFFFFFFFFFFFFFFFFFFFFFFFFF AND PUSH4 0x70A08231 ADDRESS PUSH1 0x40 MLOAD DUP3 PUSH4 0xFFFFFFFF AND PUSH1 0xE0 SHL DUP2 MSTORE PUSH1 0x4 ADD DUP1 DUP3 PUSH20 0xFFFFFFFFFFFFFFFFFFFFFFFFFFFFFFFFFFFFFFFF AND PUSH20 0xFFFFFFFFFFFFFFFFFFFFFFFFFFFFFFFFFFFFFFFF AND DUP2 MSTORE PUSH1 0x20 ADD SWAP2 POP POP PUSH1 0x20 PUSH1 0x40 MLOAD DUP1 DUP4 SUB DUP2 DUP7 DUP1 EXTCODESIZE ISZERO DUP1 ISZERO PUSH2 0x1F84 JUMPI PUSH1 0x0 DUP1 REVERT JUMPDEST POP GAS STATICCALL ISZERO DUP1 ISZERO PUSH2 0x1F98 JUMPI RETURNDATASIZE PUSH1 0x0 DUP1 RETURNDATACOPY RETURNDATASIZE PUSH1 0x0 REVERT JUMPDEST POP POP POP POP PUSH1 0x40 MLOAD RETURNDATASIZE PUSH1 0x20 DUP2 LT ISZERO PUSH2 0x1FAE JUMPI PUSH1 0x0 DUP1 REVERT JUMPDEST DUP2 ADD SWAP1 DUP1 DUP1 MLOAD SWAP1 PUSH1 0x20 ADD SWAP1 SWAP3 SWAP2 SWAP1 POP POP POP SWAP5 POP DUP6 PUSH20 0xFFFFFFFFFFFFFFFFFFFFFFFFFFFFFFFFFFFFFFFF AND PUSH4 0x70A08231 ADDRESS PUSH1 0x40 MLOAD DUP3 PUSH4 0xFFFFFFFF AND PUSH1 0xE0 SHL DUP2 MSTORE PUSH1 0x4 ADD DUP1 DUP3 PUSH20 0xFFFFFFFFFFFFFFFFFFFFFFFFFFFFFFFFFFFFFFFF AND PUSH20 0xFFFFFFFFFFFFFFFFFFFFFFFFFFFFFFFFFFFFFFFF AND DUP2 MSTORE PUSH1 0x20 ADD SWAP2 POP POP PUSH1 0x20 PUSH1 0x40 MLOAD DUP1 DUP4 SUB DUP2 DUP7 DUP1 EXTCODESIZE ISZERO DUP1 ISZERO PUSH2 0x203E JUMPI PUSH1 0x0 DUP1 REVERT JUMPDEST POP GAS STATICCALL ISZERO DUP1 ISZERO PUSH2 0x2052 JUMPI RETURNDATASIZE PUSH1 0x0 DUP1 RETURNDATACOPY RETURNDATASIZE PUSH1 0x0 REVERT JUMPDEST POP POP POP POP PUSH1 0x40 MLOAD RETURNDATASIZE PUSH1 0x20 DUP2 LT ISZERO PUSH2 0x2068 JUMPI PUSH1 0x0 DUP1 REVERT JUMPDEST DUP2 ADD SWAP1 DUP1 DUP1 MLOAD SWAP1 PUSH1 0x20 ADD SWAP1 SWAP3 SWAP2 SWAP1 POP POP POP SWAP4 POP PUSH2 0x2087 DUP6 DUP6 DUP12 DUP12 PUSH2 0x2F62 JUMP JUMPDEST DUP2 ISZERO PUSH2 0x20FF JUMPI PUSH2 0x20F8 PUSH1 0xA PUSH1 0xE SWAP1 SLOAD SWAP1 PUSH2 0x100 EXP SWAP1 DIV PUSH14 0xFFFFFFFFFFFFFFFFFFFFFFFFFFFF AND PUSH14 0xFFFFFFFFFFFFFFFFFFFFFFFFFFFF AND PUSH1 0xA PUSH1 0x0 SWAP1 SLOAD SWAP1 PUSH2 0x100 EXP SWAP1 DIV PUSH14 0xFFFFFFFFFFFFFFFFFFFFFFFFFFFF AND PUSH14 0xFFFFFFFFFFFFFFFFFFFFFFFFFFFF AND PUSH2 0x2E4A SWAP1 SWAP2 SWAP1 PUSH4 0xFFFFFFFF AND JUMP JUMPDEST PUSH1 0xD DUP2 SWAP1 SSTORE POP JUMPDEST DUP12 PUSH20 0xFFFFFFFFFFFFFFFFFFFFFFFFFFFFFFFFFFFFFFFF AND CALLER PUSH20 0xFFFFFFFFFFFFFFFFFFFFFFFFFFFFFFFFFFFFFFFF AND PUSH32 0xDCCD412F0B1252819CB1FD330B93224CA42612892BB3F4F789976E6D81936496 DUP14 DUP14 PUSH1 0x40 MLOAD DUP1 DUP4 DUP2 MSTORE PUSH1 0x20 ADD DUP3 DUP2 MSTORE PUSH1 0x20 ADD SWAP3 POP POP POP PUSH1 0x40 MLOAD DUP1 SWAP2 SUB SWAP1 LOG3 POP POP POP POP POP POP POP POP POP PUSH1 0x1 PUSH1 0xE DUP2 SWAP1 SSTORE POP SWAP2 POP SWAP2 JUMP JUMPDEST PUSH1 0x40 MLOAD DUP1 PUSH1 0x40 ADD PUSH1 0x40 MSTORE DUP1 PUSH1 0x3 DUP2 MSTORE PUSH1 0x20 ADD PUSH32 0x736C700000000000000000000000000000000000000000000000000000000000 DUP2 MSTORE POP DUP2 JUMP JUMPDEST PUSH1 0x0 PUSH2 0x21C8 CALLER DUP5 DUP5 PUSH2 0x33CB JUMP JUMPDEST PUSH1 0x1 SWAP1 POP SWAP3 SWAP2 POP POP JUMP JUMPDEST PUSH2 0x3E8 DUP2 JUMP JUMPDEST PUSH1 0x1 PUSH1 0xE SLOAD EQ PUSH2 0x2250 JUMPI PUSH1 0x40 MLOAD PUSH32 0x8C379A000000000000000000000000000000000000000000000000000000000 DUP2 MSTORE PUSH1 0x4 ADD DUP1 DUP1 PUSH1 0x20 ADD DUP3 DUP2 SUB DUP3 MSTORE PUSH1 0x11 DUP2 MSTORE PUSH1 0x20 ADD DUP1 PUSH32 0x5361697461537761703A204C4F434B4544000000000000000000000000000000 DUP2 MSTORE POP PUSH1 0x20 ADD SWAP2 POP POP PUSH1 0x40 MLOAD DUP1 SWAP2 SUB SWAP1 REVERT JUMPDEST PUSH1 0x0 PUSH1 0xE DUP2 SWAP1 SSTORE POP PUSH1 0x0 PUSH1 0x6 PUSH1 0x0 SWAP1 SLOAD SWAP1 PUSH2 0x100 EXP SWAP1 DIV PUSH20 0xFFFFFFFFFFFFFFFFFFFFFFFFFFFFFFFFFFFFFFFF AND SWAP1 POP PUSH1 0x0 PUSH1 0x7 PUSH1 0x0 SWAP1 SLOAD SWAP1 PUSH2 0x100 EXP SWAP1 DIV PUSH20 0xFFFFFFFFFFFFFFFFFFFFFFFFFFFFFFFFFFFFFFFF AND SWAP1 POP PUSH2 0x23A6 DUP3 DUP5 PUSH2 0x23A1 PUSH1 0xA PUSH1 0x0 SWAP1 SLOAD SWAP1 PUSH2 0x100 EXP SWAP1 DIV PUSH14 0xFFFFFFFFFFFFFFFFFFFFFFFFFFFF AND PUSH14 0xFFFFFFFFFFFFFFFFFFFFFFFFFFFF AND DUP7 PUSH20 0xFFFFFFFFFFFFFFFFFFFFFFFFFFFFFFFFFFFFFFFF AND PUSH4 0x70A08231 ADDRESS PUSH1 0x40 MLOAD DUP3 PUSH4 0xFFFFFFFF AND PUSH1 0xE0 SHL DUP2 MSTORE PUSH1 0x4 ADD DUP1 DUP3 PUSH20 0xFFFFFFFFFFFFFFFFFFFFFFFFFFFFFFFFFFFFFFFF AND PUSH20 0xFFFFFFFFFFFFFFFFFFFFFFFFFFFFFFFFFFFFFFFF AND DUP2 MSTORE PUSH1 0x20 ADD SWAP2 POP POP PUSH1 0x20 PUSH1 0x40 MLOAD DUP1 DUP4 SUB DUP2 DUP7 DUP1 EXTCODESIZE ISZERO DUP1 ISZERO PUSH2 0x2358 JUMPI PUSH1 0x0 DUP1 REVERT JUMPDEST POP GAS STATICCALL ISZERO DUP1 ISZERO PUSH2 0x236C JUMPI RETURNDATASIZE PUSH1 0x0 DUP1 RETURNDATACOPY RETURNDATASIZE PUSH1 0x0 REVERT JUMPDEST POP POP POP POP PUSH1 0x40 MLOAD RETURNDATASIZE PUSH1 0x20 DUP2 LT ISZERO PUSH2 0x2382 JUMPI PUSH1 0x0 DUP1 REVERT JUMPDEST DUP2 ADD SWAP1 DUP1 DUP1 MLOAD SWAP1 PUSH1 0x20 ADD SWAP1 SWAP3 SWAP2 SWAP1 POP POP POP PUSH2 0x2EDF SWAP1 SWAP2 SWAP1 PUSH4 0xFFFFFFFF AND JUMP JUMPDEST PUSH2 0x2BFD JUMP JUMPDEST PUSH2 0x24A6 DUP2 DUP5 PUSH2 0x24A1 PUSH1 0xA PUSH1 0xE SWAP1 SLOAD SWAP1 PUSH2 0x100 EXP SWAP1 DIV PUSH14 0xFFFFFFFFFFFFFFFFFFFFFFFFFFFF AND PUSH14 0xFFFFFFFFFFFFFFFFFFFFFFFFFFFF AND DUP6 PUSH20 0xFFFFFFFFFFFFFFFFFFFFFFFFFFFFFFFFFFFFFFFF AND PUSH4 0x70A08231 ADDRESS PUSH1 0x40 MLOAD DUP3 PUSH4 0xFFFFFFFF AND PUSH1 0xE0 SHL DUP2 MSTORE PUSH1 0x4 ADD DUP1 DUP3 PUSH20 0xFFFFFFFFFFFFFFFFFFFFFFFFFFFFFFFFFFFFFFFF AND PUSH20 0xFFFFFFFFFFFFFFFFFFFFFFFFFFFFFFFFFFFFFFFF AND DUP2 MSTORE PUSH1 0x20 ADD SWAP2 POP POP PUSH1 0x20 PUSH1 0x40 MLOAD DUP1 DUP4 SUB DUP2 DUP7 DUP1 EXTCODESIZE ISZERO DUP1 ISZERO PUSH2 0x2458 JUMPI PUSH1 0x0 DUP1 REVERT JUMPDEST POP GAS STATICCALL ISZERO DUP1 ISZERO PUSH2 0x246C JUMPI RETURNDATASIZE PUSH1 0x0 DUP1 RETURNDATACOPY RETURNDATASIZE PUSH1 0x0 REVERT JUMPDEST POP POP POP POP PUSH1 0x40 MLOAD RETURNDATASIZE PUSH1 0x20 DUP2 LT ISZERO PUSH2 0x2482 JUMPI PUSH1 0x0 DUP1 REVERT JUMPDEST DUP2 ADD SWAP1 DUP1 DUP1 MLOAD SWAP1 PUSH1 0x20 ADD SWAP1 SWAP3 SWAP2 SWAP1 POP POP POP PUSH2 0x2EDF SWAP1 SWAP2 SWAP1 PUSH4 0xFFFFFFFF AND JUMP JUMPDEST PUSH2 0x2BFD JUMP JUMPDEST POP POP PUSH1 0x1 PUSH1 0xE DUP2 SWAP1 SSTORE POP POP JUMP JUMPDEST PUSH1 0x8 SLOAD DUP2 JUMP JUMPDEST PUSH1 0x5 PUSH1 0x0 SWAP1 SLOAD SWAP1 PUSH2 0x100 EXP SWAP1 DIV PUSH20 0xFFFFFFFFFFFFFFFFFFFFFFFFFFFFFFFFFFFFFFFF AND DUP2 JUMP JUMPDEST PUSH1 0x7 PUSH1 0x0 SWAP1 SLOAD SWAP1 PUSH2 0x100 EXP SWAP1 DIV PUSH20 0xFFFFFFFFFFFFFFFFFFFFFFFFFFFFFFFFFFFFFFFF AND DUP2 JUMP JUMPDEST PUSH1 0x0 CHAINID SWAP1 POP PUSH1 0x40 MLOAD DUP1 DUP1 PUSH2 0x3B6E PUSH1 0x52 SWAP2 CODECOPY PUSH1 0x52 ADD SWAP1 POP PUSH1 0x40 MLOAD DUP1 SWAP2 SUB SWAP1 KECCAK256 PUSH1 0x40 MLOAD DUP1 PUSH1 0x40 ADD PUSH1 0x40 MSTORE DUP1 PUSH1 0xD DUP2 MSTORE PUSH1 0x20 ADD PUSH32 0x536169746153776170204C507300000000000000000000000000000000000000 DUP2 MSTORE POP DUP1 MLOAD SWAP1 PUSH1 0x20 ADD KECCAK256 PUSH1 0x40 MLOAD DUP1 PUSH1 0x40 ADD PUSH1 0x40 MSTORE DUP1 PUSH1 0x1 DUP2 MSTORE PUSH1 0x20 ADD PUSH32 0x3100000000000000000000000000000000000000000000000000000000000000 DUP2 MSTORE POP DUP1 MLOAD SWAP1 PUSH1 0x20 ADD KECCAK256 DUP4 ADDRESS PUSH1 0x40 MLOAD PUSH1 0x20 ADD DUP1 DUP7 DUP2 MSTORE PUSH1 0x20 ADD DUP6 DUP2 MSTORE PUSH1 0x20 ADD DUP5 DUP2 MSTORE PUSH1 0x20 ADD DUP4 DUP2 MSTORE PUSH1 0x20 ADD DUP3 PUSH20 0xFFFFFFFFFFFFFFFFFFFFFFFFFFFFFFFFFFFFFFFF AND PUSH20 0xFFFFFFFFFFFFFFFFFFFFFFFFFFFFFFFFFFFFFFFF AND DUP2 MSTORE PUSH1 0x20 ADD SWAP6 POP POP POP POP POP POP PUSH1 0x40 MLOAD PUSH1 0x20 DUP2 DUP4 SUB SUB DUP2 MSTORE SWAP1 PUSH1 0x40 MSTORE DUP1 MLOAD SWAP1 PUSH1 0x20 ADD KECCAK256 PUSH1 0x3 DUP2 SWAP1 SSTORE POP TIMESTAMP DUP6 LT ISZERO PUSH2 0x2689 JUMPI PUSH1 0x40 MLOAD PUSH32 0x8C379A000000000000000000000000000000000000000000000000000000000 DUP2 MSTORE PUSH1 0x4 ADD DUP1 DUP1 PUSH1 0x20 ADD DUP3 DUP2 SUB DUP3 MSTORE PUSH1 0x12 DUP2 MSTORE PUSH1 0x20 ADD DUP1 PUSH32 0x5361697461537761703A20455850495245440000000000000000000000000000 DUP2 MSTORE POP PUSH1 0x20 ADD SWAP2 POP POP PUSH1 0x40 MLOAD DUP1 SWAP2 SUB SWAP1 REVERT JUMPDEST PUSH1 0x0 PUSH1 0x3 SLOAD PUSH32 0x6E71EDAE12B1B97F4D1F60370FEF10105FA2FAAE0126114A169C64845D6126C9 PUSH1 0x0 SHL DUP11 DUP11 DUP11 PUSH1 0x4 PUSH1 0x0 DUP16 PUSH20 0xFFFFFFFFFFFFFFFFFFFFFFFFFFFFFFFFFFFFFFFF AND PUSH20 0xFFFFFFFFFFFFFFFFFFFFFFFFFFFFFFFFFFFFFFFF AND DUP2 MSTORE PUSH1 0x20 ADD SWAP1 DUP2 MSTORE PUSH1 0x20 ADD PUSH1 0x0 KECCAK256 PUSH1 0x0 DUP2 SLOAD DUP1 SWAP3 SWAP2 SWAP1 PUSH1 0x1 ADD SWAP2 SWAP1 POP SSTORE DUP12 PUSH1 0x40 MLOAD PUSH1 0x20 ADD DUP1 DUP8 DUP2 MSTORE PUSH1 0x20 ADD DUP7 PUSH20 0xFFFFFFFFFFFFFFFFFFFFFFFFFFFFFFFFFFFFFFFF AND PUSH20 0xFFFFFFFFFFFFFFFFFFFFFFFFFFFFFFFFFFFFFFFF AND DUP2 MSTORE PUSH1 0x20 ADD DUP6 PUSH20 0xFFFFFFFFFFFFFFFFFFFFFFFFFFFFFFFFFFFFFFFF AND PUSH20 0xFFFFFFFFFFFFFFFFFFFFFFFFFFFFFFFFFFFFFFFF AND DUP2 MSTORE PUSH1 0x20 ADD DUP5 DUP2 MSTORE PUSH1 0x20 ADD DUP4 DUP2 MSTORE PUSH1 0x20 ADD DUP3 DUP2 MSTORE PUSH1 0x20 ADD SWAP7 POP POP POP POP POP POP POP PUSH1 0x40 MLOAD PUSH1 0x20 DUP2 DUP4 SUB SUB DUP2 MSTORE SWAP1 PUSH1 0x40 MSTORE DUP1 MLOAD SWAP1 PUSH1 0x20 ADD KECCAK256 PUSH1 0x40 MLOAD PUSH1 0x20 ADD DUP1 DUP1 PUSH32 0x1901000000000000000000000000000000000000000000000000000000000000 DUP2 MSTORE POP PUSH1 0x2 ADD DUP4 DUP2 MSTORE PUSH1 0x20 ADD DUP3 DUP2 MSTORE PUSH1 0x20 ADD SWAP3 POP POP POP PUSH1 0x40 MLOAD PUSH1 0x20 DUP2 DUP4 SUB SUB DUP2 MSTORE SWAP1 PUSH1 0x40 MSTORE DUP1 MLOAD SWAP1 PUSH1 0x20 ADD KECCAK256 SWAP1 POP PUSH1 0x0 PUSH1 0x1 DUP3 DUP8 DUP8 DUP8 PUSH1 0x40 MLOAD PUSH1 0x0 DUP2 MSTORE PUSH1 0x20 ADD PUSH1 0x40 MSTORE PUSH1 0x40 MLOAD DUP1 DUP6 DUP2 MSTORE PUSH1 0x20 ADD DUP5 PUSH1 0xFF AND PUSH1 0xFF AND DUP2 MSTORE PUSH1 0x20 ADD DUP4 DUP2 MSTORE PUSH1 0x20 ADD DUP3 DUP2 MSTORE PUSH1 0x20 ADD SWAP5 POP POP POP POP POP PUSH1 0x20 PUSH1 0x40 MLOAD PUSH1 0x20 DUP2 SUB SWAP1 DUP1 DUP5 SUB SWAP1 DUP6 GAS STATICCALL ISZERO DUP1 ISZERO PUSH2 0x285B JUMPI RETURNDATASIZE PUSH1 0x0 DUP1 RETURNDATACOPY RETURNDATASIZE PUSH1 0x0 REVERT JUMPDEST POP POP POP PUSH1 0x20 PUSH1 0x40 MLOAD SUB MLOAD SWAP1 POP PUSH1 0x0 PUSH20 0xFFFFFFFFFFFFFFFFFFFFFFFFFFFFFFFFFFFFFFFF AND DUP2 PUSH20 0xFFFFFFFFFFFFFFFFFFFFFFFFFFFFFFFFFFFFFFFF AND EQ ISZERO DUP1 ISZERO PUSH2 0x28CF JUMPI POP DUP10 PUSH20 0xFFFFFFFFFFFFFFFFFFFFFFFFFFFFFFFFFFFFFFFF AND DUP2 PUSH20 0xFFFFFFFFFFFFFFFFFFFFFFFFFFFFFFFFFFFFFFFF AND EQ JUMPDEST PUSH2 0x2941 JUMPI PUSH1 0x40 MLOAD PUSH32 0x8C379A000000000000000000000000000000000000000000000000000000000 DUP2 MSTORE PUSH1 0x4 ADD DUP1 DUP1 PUSH1 0x20 ADD DUP3 DUP2 SUB DUP3 MSTORE PUSH1 0x1C DUP2 MSTORE PUSH1 0x20 ADD DUP1 PUSH32 0x5361697461537761703A20494E56414C49445F5349474E415455524500000000 DUP2 MSTORE POP PUSH1 0x20 ADD SWAP2 POP POP PUSH1 0x40 MLOAD DUP1 SWAP2 SUB SWAP1 REVERT JUMPDEST PUSH2 0x294C DUP11 DUP11 DUP11 PUSH2 0x32E0 JUMP JUMPDEST POP POP POP POP POP POP POP POP POP POP JUMP JUMPDEST PUSH1 0x2 PUSH1 0x20 MSTORE DUP2 PUSH1 0x0 MSTORE PUSH1 0x40 PUSH1 0x0 KECCAK256 PUSH1 0x20 MSTORE DUP1 PUSH1 0x0 MSTORE PUSH1 0x40 PUSH1 0x0 KECCAK256 PUSH1 0x0 SWAP2 POP SWAP2 POP POP SLOAD DUP2 JUMP JUMPDEST PUSH1 0x1 PUSH1 0xE SLOAD EQ PUSH2 0x29F5 JUMPI PUSH1 0x40 MLOAD PUSH32 0x8C379A000000000000000000000000000000000000000000000000000000000 DUP2 MSTORE PUSH1 0x4 ADD DUP1 DUP1 PUSH1 0x20 ADD DUP3 DUP2 SUB DUP3 MSTORE PUSH1 0x11 DUP2 MSTORE PUSH1 0x20 ADD DUP1 PUSH32 0x5361697461537761703A204C4F434B4544000000000000000000000000000000 DUP2 MSTORE POP PUSH1 0x20 ADD SWAP2 POP POP PUSH1 0x40 MLOAD DUP1 SWAP2 SUB SWAP1 REVERT JUMPDEST PUSH1 0x0 PUSH1 0xE DUP2 SWAP1 SSTORE POP PUSH2 0x2BF3 PUSH1 0x6 PUSH1 0x0 SWAP1 SLOAD SWAP1 PUSH2 0x100 EXP SWAP1 DIV PUSH20 0xFFFFFFFFFFFFFFFFFFFFFFFFFFFFFFFFFFFFFFFF AND PUSH20 0xFFFFFFFFFFFFFFFFFFFFFFFFFFFFFFFFFFFFFFFF AND PUSH4 0x70A08231 ADDRESS PUSH1 0x40 MLOAD DUP3 PUSH4 0xFFFFFFFF AND PUSH1 0xE0 SHL DUP2 MSTORE PUSH1 0x4 ADD DUP1 DUP3 PUSH20 0xFFFFFFFFFFFFFFFFFFFFFFFFFFFFFFFFFFFFFFFF AND PUSH20 0xFFFFFFFFFFFFFFFFFFFFFFFFFFFFFFFFFFFFFFFF AND DUP2 MSTORE PUSH1 0x20 ADD SWAP2 POP POP PUSH1 0x20 PUSH1 0x40 MLOAD DUP1 DUP4 SUB DUP2 DUP7 DUP1 EXTCODESIZE ISZERO DUP1 ISZERO PUSH2 0x2A9F JUMPI PUSH1 0x0 DUP1 REVERT JUMPDEST POP GAS STATICCALL ISZERO DUP1 ISZERO PUSH2 0x2AB3 JUMPI RETURNDATASIZE PUSH1 0x0 DUP1 RETURNDATACOPY RETURNDATASIZE PUSH1 0x0 REVERT JUMPDEST POP POP POP POP PUSH1 0x40 MLOAD RETURNDATASIZE PUSH1 0x20 DUP2 LT ISZERO PUSH2 0x2AC9 JUMPI PUSH1 0x0 DUP1 REVERT JUMPDEST DUP2 ADD SWAP1 DUP1 DUP1 MLOAD SWAP1 PUSH1 0x20 ADD SWAP1 SWAP3 SWAP2 SWAP1 POP POP POP PUSH1 0x7 PUSH1 0x0 SWAP1 SLOAD SWAP1 PUSH2 0x100 EXP SWAP1 DIV PUSH20 0xFFFFFFFFFFFFFFFFFFFFFFFFFFFFFFFFFFFFFFFF AND PUSH20 0xFFFFFFFFFFFFFFFFFFFFFFFFFFFFFFFFFFFFFFFF AND PUSH4 0x70A08231 ADDRESS PUSH1 0x40 MLOAD DUP3 PUSH4 0xFFFFFFFF AND PUSH1 0xE0 SHL DUP2 MSTORE PUSH1 0x4 ADD DUP1 DUP3 PUSH20 0xFFFFFFFFFFFFFFFFFFFFFFFFFFFFFFFFFFFFFFFF AND PUSH20 0xFFFFFFFFFFFFFFFFFFFFFFFFFFFFFFFFFFFFFFFF AND DUP2 MSTORE PUSH1 0x20 ADD SWAP2 POP POP PUSH1 0x20 PUSH1 0x40 MLOAD DUP1 DUP4 SUB DUP2 DUP7 DUP1 EXTCODESIZE ISZERO DUP1 ISZERO PUSH2 0x2B79 JUMPI PUSH1 0x0 DUP1 REVERT JUMPDEST POP GAS STATICCALL ISZERO DUP1 ISZERO PUSH2 0x2B8D JUMPI RETURNDATASIZE PUSH1 0x0 DUP1 RETURNDATACOPY RETURNDATASIZE PUSH1 0x0 REVERT JUMPDEST POP POP POP POP PUSH1 0x40 MLOAD RETURNDATASIZE PUSH1 0x20 DUP2 LT ISZERO PUSH2 0x2BA3 JUMPI PUSH1 0x0 DUP1 REVERT JUMPDEST DUP2 ADD SWAP1 DUP1 DUP1 MLOAD SWAP1 PUSH1 0x20 ADD SWAP1 SWAP3 SWAP2 SWAP1 POP POP POP PUSH1 0xA PUSH1 0x0 SWAP1 SLOAD SWAP1 PUSH2 0x100 EXP SWAP1 DIV PUSH14 0xFFFFFFFFFFFFFFFFFFFFFFFFFFFF AND PUSH1 0xA PUSH1 0xE SWAP1 SLOAD SWAP1 PUSH2 0x100 EXP SWAP1 DIV PUSH14 0xFFFFFFFFFFFFFFFFFFFFFFFFFFFF AND PUSH2 0x2F62 JUMP JUMPDEST PUSH1 0x1 PUSH1 0xE DUP2 SWAP1 SSTORE POP JUMP JUMPDEST PUSH1 0x0 PUSH1 0x60 DUP5 PUSH20 0xFFFFFFFFFFFFFFFFFFFFFFFFFFFFFFFFFFFFFFFF AND PUSH1 0x40 MLOAD DUP1 PUSH1 0x40 ADD PUSH1 0x40 MSTORE DUP1 PUSH1 0x19 DUP2 MSTORE PUSH1 0x20 ADD PUSH32 0x7472616E7366657228616464726573732C75696E743235362900000000000000 DUP2 MSTORE POP DUP1 MLOAD SWAP1 PUSH1 0x20 ADD KECCAK256 DUP6 DUP6 PUSH1 0x40 MLOAD PUSH1 0x24 ADD DUP1 DUP4 PUSH20 0xFFFFFFFFFFFFFFFFFFFFFFFFFFFFFFFFFFFFFFFF AND PUSH20 0xFFFFFFFFFFFFFFFFFFFFFFFFFFFFFFFFFFFFFFFF AND DUP2 MSTORE PUSH1 0x20 ADD DUP3 DUP2 MSTORE PUSH1 0x20 ADD SWAP3 POP POP POP PUSH1 0x40 MLOAD PUSH1 0x20 DUP2 DUP4 SUB SUB DUP2 MSTORE SWAP1 PUSH1 0x40 MSTORE SWAP1 PUSH28 0xFFFFFFFFFFFFFFFFFFFFFFFFFFFFFFFFFFFFFFFFFFFFFFFFFFFFFFFF NOT AND PUSH1 0x20 DUP3 ADD DUP1 MLOAD PUSH28 0xFFFFFFFFFFFFFFFFFFFFFFFFFFFFFFFFFFFFFFFFFFFFFFFFFFFFFFFF DUP4 DUP2 DUP4 AND OR DUP4 MSTORE POP POP POP POP PUSH1 0x40 MLOAD DUP1 DUP3 DUP1 MLOAD SWAP1 PUSH1 0x20 ADD SWAP1 DUP1 DUP4 DUP4 JUMPDEST PUSH1 0x20 DUP4 LT PUSH2 0x2D2A JUMPI DUP1 MLOAD DUP3 MSTORE PUSH1 0x20 DUP3 ADD SWAP2 POP PUSH1 0x20 DUP2 ADD SWAP1 POP PUSH1 0x20 DUP4 SUB SWAP3 POP PUSH2 0x2D07 JUMP JUMPDEST PUSH1 0x1 DUP4 PUSH1 0x20 SUB PUSH2 0x100 EXP SUB DUP1 NOT DUP3 MLOAD AND DUP2 DUP5 MLOAD AND DUP1 DUP3 OR DUP6 MSTORE POP POP POP POP POP POP SWAP1 POP ADD SWAP2 POP POP PUSH1 0x0 PUSH1 0x40 MLOAD DUP1 DUP4 SUB DUP2 PUSH1 0x0 DUP7 GAS CALL SWAP2 POP POP RETURNDATASIZE DUP1 PUSH1 0x0 DUP2 EQ PUSH2 0x2D8C JUMPI PUSH1 0x40 MLOAD SWAP2 POP PUSH1 0x1F NOT PUSH1 0x3F RETURNDATASIZE ADD AND DUP3 ADD PUSH1 0x40 MSTORE RETURNDATASIZE DUP3 MSTORE RETURNDATASIZE PUSH1 0x0 PUSH1 0x20 DUP5 ADD RETURNDATACOPY PUSH2 0x2D91 JUMP JUMPDEST PUSH1 0x60 SWAP2 POP JUMPDEST POP SWAP2 POP SWAP2 POP DUP2 DUP1 ISZERO PUSH2 0x2DD1 JUMPI POP PUSH1 0x0 DUP2 MLOAD EQ DUP1 PUSH2 0x2DD0 JUMPI POP DUP1 DUP1 PUSH1 0x20 ADD SWAP1 MLOAD PUSH1 0x20 DUP2 LT ISZERO PUSH2 0x2DBE JUMPI PUSH1 0x0 DUP1 REVERT JUMPDEST DUP2 ADD SWAP1 DUP1 DUP1 MLOAD SWAP1 PUSH1 0x20 ADD SWAP1 SWAP3 SWAP2 SWAP1 POP POP POP JUMPDEST JUMPDEST PUSH2 0x2E43 JUMPI PUSH1 0x40 MLOAD PUSH32 0x8C379A000000000000000000000000000000000000000000000000000000000 DUP2 MSTORE PUSH1 0x4 ADD DUP1 DUP1 PUSH1 0x20 ADD DUP3 DUP2 SUB DUP3 MSTORE PUSH1 0x1A DUP2 MSTORE PUSH1 0x20 ADD DUP1 PUSH32 0x5361697461537761703A205452414E534645525F4641494C4544000000000000 DUP2 MSTORE POP PUSH1 0x20 ADD SWAP2 POP POP PUSH1 0x40 MLOAD DUP1 SWAP2 SUB SWAP1 REVERT JUMPDEST POP POP POP POP POP JUMP JUMPDEST PUSH1 0x0 DUP1 DUP3 EQ DUP1 PUSH2 0x2E67 JUMPI POP DUP3 DUP3 DUP4 DUP6 MUL SWAP3 POP DUP3 DUP2 PUSH2 0x2E64 JUMPI INVALID JUMPDEST DIV EQ JUMPDEST PUSH2 0x2ED9 JUMPI PUSH1 0x40 MLOAD PUSH32 0x8C379A000000000000000000000000000000000000000000000000000000000 DUP2 MSTORE PUSH1 0x4 ADD DUP1 DUP1 PUSH1 0x20 ADD DUP3 DUP2 SUB DUP3 MSTORE PUSH1 0x14 DUP2 MSTORE PUSH1 0x20 ADD DUP1 PUSH32 0x64732D6D6174682D6D756C2D6F766572666C6F77000000000000000000000000 DUP2 MSTORE POP PUSH1 0x20 ADD SWAP2 POP POP PUSH1 0x40 MLOAD DUP1 SWAP2 SUB SWAP1 REVERT JUMPDEST SWAP3 SWAP2 POP POP JUMP JUMPDEST PUSH1 0x0 DUP3 DUP3 DUP5 SUB SWAP2 POP DUP2 GT ISZERO PUSH2 0x2F5C JUMPI PUSH1 0x40 MLOAD PUSH32 0x8C379A000000000000000000000000000000000000000000000000000000000 DUP2 MSTORE PUSH1 0x4 ADD DUP1 DUP1 PUSH1 0x20 ADD DUP3 DUP2 SUB DUP3 MSTORE PUSH1 0x15 DUP2 MSTORE PUSH1 0x20 ADD DUP1 PUSH32 0x64732D6D6174682D7375622D756E646572666C6F770000000000000000000000 DUP2 MSTORE POP PUSH1 0x20 ADD SWAP2 POP POP PUSH1 0x40 MLOAD DUP1 SWAP2 SUB SWAP1 REVERT JUMPDEST SWAP3 SWAP2 POP POP JUMP JUMPDEST PUSH32 0xFFFFFFFFFFFFFFFFFFFFFFFFFFFFFFFFFFFFFFFFFFFFFFFFFFFFFFFFFFFFFFFF PUSH14 0xFFFFFFFFFFFFFFFFFFFFFFFFFFFF AND DUP5 GT ISZERO DUP1 ISZERO PUSH2 0x2FD2 JUMPI POP PUSH32 0xFFFFFFFFFFFFFFFFFFFFFFFFFFFFFFFFFFFFFFFFFFFFFFFFFFFFFFFFFFFFFFFF PUSH14 0xFFFFFFFFFFFFFFFFFFFFFFFFFFFF AND DUP4 GT ISZERO JUMPDEST PUSH2 0x3044 JUMPI PUSH1 0x40 MLOAD PUSH32 0x8C379A000000000000000000000000000000000000000000000000000000000 DUP2 MSTORE PUSH1 0x4 ADD DUP1 DUP1 PUSH1 0x20 ADD DUP3 DUP2 SUB DUP3 MSTORE PUSH1 0x13 DUP2 MSTORE PUSH1 0x20 ADD DUP1 PUSH32 0x5361697461537761703A204F564552464C4F5700000000000000000000000000 DUP2 MSTORE POP PUSH1 0x20 ADD SWAP2 POP POP PUSH1 0x40 MLOAD DUP1 SWAP2 SUB SWAP1 REVERT JUMPDEST PUSH1 0x0 PUSH5 0x100000000 TIMESTAMP DUP2 PUSH2 0x3054 JUMPI INVALID JUMPDEST MOD SWAP1 POP PUSH1 0x0 PUSH1 0xA PUSH1 0x1C SWAP1 SLOAD SWAP1 PUSH2 0x100 EXP SWAP1 DIV PUSH4 0xFFFFFFFF AND DUP3 SUB SWAP1 POP PUSH1 0x0 DUP2 PUSH4 0xFFFFFFFF AND GT DUP1 ISZERO PUSH2 0x3097 JUMPI POP PUSH1 0x0 DUP5 PUSH14 0xFFFFFFFFFFFFFFFFFFFFFFFFFFFF AND EQ ISZERO JUMPDEST DUP1 ISZERO PUSH2 0x30B4 JUMPI POP PUSH1 0x0 DUP4 PUSH14 0xFFFFFFFFFFFFFFFFFFFFFFFFFFFF AND EQ ISZERO JUMPDEST ISZERO PUSH2 0x3196 JUMPI DUP1 PUSH4 0xFFFFFFFF AND PUSH2 0x30F9 DUP6 PUSH2 0x30CD DUP7 PUSH2 0x39CA JUMP JUMPDEST PUSH28 0xFFFFFFFFFFFFFFFFFFFFFFFFFFFFFFFFFFFFFFFFFFFFFFFFFFFFFFFF AND PUSH2 0x39F5 SWAP1 SWAP2 SWAP1 PUSH4 0xFFFFFFFF AND JUMP JUMPDEST PUSH28 0xFFFFFFFFFFFFFFFFFFFFFFFFFFFFFFFFFFFFFFFFFFFFFFFFFFFFFFFF AND MUL PUSH1 0xB PUSH1 0x0 DUP3 DUP3 SLOAD ADD SWAP3 POP POP DUP2 SWAP1 SSTORE POP DUP1 PUSH4 0xFFFFFFFF AND PUSH2 0x3167 DUP5 PUSH2 0x313B DUP8 PUSH2 0x39CA JUMP JUMPDEST PUSH28 0xFFFFFFFFFFFFFFFFFFFFFFFFFFFFFFFFFFFFFFFFFFFFFFFFFFFFFFFF AND PUSH2 0x39F5 SWAP1 SWAP2 SWAP1 PUSH4 0xFFFFFFFF AND JUMP JUMPDEST PUSH28 0xFFFFFFFFFFFFFFFFFFFFFFFFFFFFFFFFFFFFFFFFFFFFFFFFFFFFFFFF AND MUL PUSH1 0xC PUSH1 0x0 DUP3 DUP3 SLOAD ADD SWAP3 POP POP DUP2 SWAP1 SSTORE POP JUMPDEST DUP6 PUSH1 0xA PUSH1 0x0 PUSH2 0x100 EXP DUP2 SLOAD DUP2 PUSH14 0xFFFFFFFFFFFFFFFFFFFFFFFFFFFF MUL NOT AND SWAP1 DUP4 PUSH14 0xFFFFFFFFFFFFFFFFFFFFFFFFFFFF AND MUL OR SWAP1 SSTORE POP DUP5 PUSH1 0xA PUSH1 0xE PUSH2 0x100 EXP DUP2 SLOAD DUP2 PUSH14 0xFFFFFFFFFFFFFFFFFFFFFFFFFFFF MUL NOT AND SWAP1 DUP4 PUSH14 0xFFFFFFFFFFFFFFFFFFFFFFFFFFFF AND MUL OR SWAP1 SSTORE POP DUP2 PUSH1 0xA PUSH1 0x1C PUSH2 0x100 EXP DUP2 SLOAD DUP2 PUSH4 0xFFFFFFFF MUL NOT AND SWAP1 DUP4 PUSH4 0xFFFFFFFF AND MUL OR SWAP1 SSTORE POP PUSH32 0x1C411E9A96E071241C2F21F7726B17AE89E3CAB4C78BE50E062B03A9FFFBBAD1 PUSH1 0xA PUSH1 0x0 SWAP1 SLOAD SWAP1 PUSH2 0x100 EXP SWAP1 DIV PUSH14 0xFFFFFFFFFFFFFFFFFFFFFFFFFFFF AND PUSH1 0xA PUSH1 0xE SWAP1 SLOAD SWAP1 PUSH2 0x100 EXP SWAP1 DIV PUSH14 0xFFFFFFFFFFFFFFFFFFFFFFFFFFFF AND PUSH1 0x40 MLOAD DUP1 DUP4 PUSH14 0xFFFFFFFFFFFFFFFFFFFFFFFFFFFF AND PUSH14 0xFFFFFFFFFFFFFFFFFFFFFFFFFFFF AND DUP2 MSTORE PUSH1 0x20 ADD DUP3 PUSH14 0xFFFFFFFFFFFFFFFFFFFFFFFFFFFF AND PUSH14 0xFFFFFFFFFFFFFFFFFFFFFFFFFFFF AND DUP2 MSTORE PUSH1 0x20 ADD SWAP3 POP POP POP PUSH1 0x40 MLOAD DUP1 SWAP2 SUB SWAP1 LOG1 POP POP POP POP POP POP JUMP JUMPDEST DUP1 PUSH1 0x2 PUSH1 0x0 DUP6 PUSH20 0xFFFFFFFFFFFFFFFFFFFFFFFFFFFFFFFFFFFFFFFF AND PUSH20 0xFFFFFFFFFFFFFFFFFFFFFFFFFFFFFFFFFFFFFFFF AND DUP2 MSTORE PUSH1 0x20 ADD SWAP1 DUP2 MSTORE PUSH1 0x20 ADD PUSH1 0x0 KECCAK256 PUSH1 0x0 DUP5 PUSH20 0xFFFFFFFFFFFFFFFFFFFFFFFFFFFFFFFFFFFFFFFF AND PUSH20 0xFFFFFFFFFFFFFFFFFFFFFFFFFFFFFFFFFFFFFFFF AND DUP2 MSTORE PUSH1 0x20 ADD SWAP1 DUP2 MSTORE PUSH1 0x20 ADD PUSH1 0x0 KECCAK256 DUP2 SWAP1 SSTORE POP DUP2 PUSH20 0xFFFFFFFFFFFFFFFFFFFFFFFFFFFFFFFFFFFFFFFF AND DUP4 PUSH20 0xFFFFFFFFFFFFFFFFFFFFFFFFFFFFFFFFFFFFFFFF AND PUSH32 0x8C5BE1E5EBEC7D5BD14F71427D1E84F3DD0314C0F7B2291E5B200AC8C7C3B925 DUP4 PUSH1 0x40 MLOAD DUP1 DUP3 DUP2 MSTORE PUSH1 0x20 ADD SWAP2 POP POP PUSH1 0x40 MLOAD DUP1 SWAP2 SUB SWAP1 LOG3 POP POP POP JUMP JUMPDEST PUSH2 0x341D DUP2 PUSH1 0x1 PUSH1 0x0 DUP7 PUSH20 0xFFFFFFFFFFFFFFFFFFFFFFFFFFFFFFFFFFFFFFFF AND PUSH20 0xFFFFFFFFFFFFFFFFFFFFFFFFFFFFFFFFFFFFFFFF AND DUP2 MSTORE PUSH1 0x20 ADD SWAP1 DUP2 MSTORE PUSH1 0x20 ADD PUSH1 0x0 KECCAK256 SLOAD PUSH2 0x2EDF SWAP1 SWAP2 SWAP1 PUSH4 0xFFFFFFFF AND JUMP JUMPDEST PUSH1 0x1 PUSH1 0x0 DUP6 PUSH20 0xFFFFFFFFFFFFFFFFFFFFFFFFFFFFFFFFFFFFFFFF AND PUSH20 0xFFFFFFFFFFFFFFFFFFFFFFFFFFFFFFFFFFFFFFFF AND DUP2 MSTORE PUSH1 0x20 ADD SWAP1 DUP2 MSTORE PUSH1 0x20 ADD PUSH1 0x0 KECCAK256 DUP2 SWAP1 SSTORE POP PUSH2 0x34B2 DUP2 PUSH1 0x1 PUSH1 0x0 DUP6 PUSH20 0xFFFFFFFFFFFFFFFFFFFFFFFFFFFFFFFFFFFFFFFF AND PUSH20 0xFFFFFFFFFFFFFFFFFFFFFFFFFFFFFFFFFFFFFFFF AND DUP2 MSTORE PUSH1 0x20 ADD SWAP1 DUP2 MSTORE PUSH1 0x20 ADD PUSH1 0x0 KECCAK256 SLOAD PUSH2 0x3A55 SWAP1 SWAP2 SWAP1 PUSH4 0xFFFFFFFF AND JUMP JUMPDEST PUSH1 0x1 PUSH1 0x0 DUP5 PUSH20 0xFFFFFFFFFFFFFFFFFFFFFFFFFFFFFFFFFFFFFFFF AND PUSH20 0xFFFFFFFFFFFFFFFFFFFFFFFFFFFFFFFFFFFFFFFF AND DUP2 MSTORE PUSH1 0x20 ADD SWAP1 DUP2 MSTORE PUSH1 0x20 ADD PUSH1 0x0 KECCAK256 DUP2 SWAP1 SSTORE POP DUP2 PUSH20 0xFFFFFFFFFFFFFFFFFFFFFFFFFFFFFFFFFFFFFFFF AND DUP4 PUSH20 0xFFFFFFFFFFFFFFFFFFFFFFFFFFFFFFFFFFFFFFFF AND PUSH32 0xDDF252AD1BE2C89B69C2B068FC378DAA952BA7F163C4A11628F55A4DF523B3EF DUP4 PUSH1 0x40 MLOAD DUP1 DUP3 DUP2 MSTORE PUSH1 0x20 ADD SWAP2 POP POP PUSH1 0x40 MLOAD DUP1 SWAP2 SUB SWAP1 LOG3 POP POP POP JUMP JUMPDEST PUSH1 0x0 DUP1 PUSH1 0x5 PUSH1 0x0 SWAP1 SLOAD SWAP1 PUSH2 0x100 EXP SWAP1 DIV PUSH20 0xFFFFFFFFFFFFFFFFFFFFFFFFFFFFFFFFFFFFFFFF AND PUSH20 0xFFFFFFFFFFFFFFFFFFFFFFFFFFFFFFFFFFFFFFFF AND PUSH4 0x17E7E58 PUSH1 0x40 MLOAD DUP2 PUSH4 0xFFFFFFFF AND PUSH1 0xE0 SHL DUP2 MSTORE PUSH1 0x4 ADD PUSH1 0x20 PUSH1 0x40 MLOAD DUP1 DUP4 SUB DUP2 DUP7 DUP1 EXTCODESIZE ISZERO DUP1 ISZERO PUSH2 0x35CA JUMPI PUSH1 0x0 DUP1 REVERT JUMPDEST POP GAS STATICCALL ISZERO DUP1 ISZERO PUSH2 0x35DE JUMPI RETURNDATASIZE PUSH1 0x0 DUP1 RETURNDATACOPY RETURNDATASIZE PUSH1 0x0 REVERT JUMPDEST POP POP POP POP PUSH1 0x40 MLOAD RETURNDATASIZE PUSH1 0x20 DUP2 LT ISZERO PUSH2 0x35F4 JUMPI PUSH1 0x0 DUP1 REVERT JUMPDEST DUP2 ADD SWAP1 DUP1 DUP1 MLOAD SWAP1 PUSH1 0x20 ADD SWAP1 SWAP3 SWAP2 SWAP1 POP POP POP SWAP1 POP PUSH1 0x0 PUSH20 0xFFFFFFFFFFFFFFFFFFFFFFFFFFFFFFFFFFFFFFFF AND DUP2 PUSH20 0xFFFFFFFFFFFFFFFFFFFFFFFFFFFFFFFFFFFFFFFF AND EQ ISZERO SWAP2 POP PUSH1 0x0 PUSH1 0xD SLOAD SWAP1 POP DUP3 ISZERO PUSH2 0x3701 JUMPI PUSH1 0x0 DUP2 EQ PUSH2 0x36FC JUMPI PUSH1 0x0 PUSH2 0x368C PUSH2 0x3687 DUP7 PUSH14 0xFFFFFFFFFFFFFFFFFFFFFFFFFFFF AND DUP9 PUSH14 0xFFFFFFFFFFFFFFFFFFFFFFFFFFFF AND PUSH2 0x2E4A SWAP1 SWAP2 SWAP1 PUSH4 0xFFFFFFFF AND JUMP JUMPDEST PUSH2 0x371B JUMP JUMPDEST SWAP1 POP PUSH1 0x0 PUSH2 0x3699 DUP4 PUSH2 0x371B JUMP JUMPDEST SWAP1 POP DUP1 DUP3 GT ISZERO PUSH2 0x36F9 JUMPI PUSH1 0x0 PUSH2 0x36CC PUSH2 0x36BB DUP4 DUP6 PUSH2 0x2EDF SWAP1 SWAP2 SWAP1 PUSH4 0xFFFFFFFF AND JUMP JUMPDEST PUSH1 0x0 SLOAD PUSH2 0x2E4A SWAP1 SWAP2 SWAP1 PUSH4 0xFFFFFFFF AND JUMP JUMPDEST SWAP1 POP PUSH1 0x0 DUP3 SWAP1 POP PUSH1 0x0 DUP2 DUP4 DUP2 PUSH2 0x36DE JUMPI INVALID JUMPDEST DIV SWAP1 POP PUSH1 0x0 DUP2 GT ISZERO PUSH2 0x36F5 JUMPI PUSH2 0x36F4 DUP8 DUP3 PUSH2 0x377D JUMP JUMPDEST JUMPDEST POP POP POP JUMPDEST POP POP JUMPDEST PUSH2 0x3713 JUMP JUMPDEST PUSH1 0x0 DUP2 EQ PUSH2 0x3712 JUMPI PUSH1 0x0 PUSH1 0xD DUP2 SWAP1 SSTORE POP JUMPDEST JUMPDEST POP POP SWAP3 SWAP2 POP POP JUMP JUMPDEST PUSH1 0x0 PUSH1 0x3 DUP3 GT ISZERO PUSH2 0x376A JUMPI DUP2 SWAP1 POP PUSH1 0x0 PUSH1 0x1 PUSH1 0x2 DUP5 DUP2 PUSH2 0x3737 JUMPI INVALID JUMPDEST DIV ADD SWAP1 POP JUMPDEST DUP2 DUP2 LT ISZERO PUSH2 0x3764 JUMPI DUP1 SWAP2 POP PUSH1 0x2 DUP2 DUP3 DUP6 DUP2 PUSH2 0x3753 JUMPI INVALID JUMPDEST DIV ADD DUP2 PUSH2 0x375C JUMPI INVALID JUMPDEST DIV SWAP1 POP PUSH2 0x373C JUMP JUMPDEST POP PUSH2 0x3778 JUMP JUMPDEST PUSH1 0x0 DUP3 EQ PUSH2 0x3777 JUMPI PUSH1 0x1 SWAP1 POP JUMPDEST JUMPDEST SWAP2 SWAP1 POP JUMP JUMPDEST PUSH2 0x3792 DUP2 PUSH1 0x0 SLOAD PUSH2 0x3A55 SWAP1 SWAP2 SWAP1 PUSH4 0xFFFFFFFF AND JUMP JUMPDEST PUSH1 0x0 DUP2 SWAP1 SSTORE POP PUSH2 0x37EA DUP2 PUSH1 0x1 PUSH1 0x0 DUP6 PUSH20 0xFFFFFFFFFFFFFFFFFFFFFFFFFFFFFFFFFFFFFFFF AND PUSH20 0xFFFFFFFFFFFFFFFFFFFFFFFFFFFFFFFFFFFFFFFF AND DUP2 MSTORE PUSH1 0x20 ADD SWAP1 DUP2 MSTORE PUSH1 0x20 ADD PUSH1 0x0 KECCAK256 SLOAD PUSH2 0x3A55 SWAP1 SWAP2 SWAP1 PUSH4 0xFFFFFFFF AND JUMP JUMPDEST PUSH1 0x1 PUSH1 0x0 DUP5 PUSH20 0xFFFFFFFFFFFFFFFFFFFFFFFFFFFFFFFFFFFFFFFF AND PUSH20 0xFFFFFFFFFFFFFFFFFFFFFFFFFFFFFFFFFFFFFFFF AND DUP2 MSTORE PUSH1 0x20 ADD SWAP1 DUP2 MSTORE PUSH1 0x20 ADD PUSH1 0x0 KECCAK256 DUP2 SWAP1 SSTORE POP DUP2 PUSH20 0xFFFFFFFFFFFFFFFFFFFFFFFFFFFFFFFFFFFFFFFF AND PUSH1 0x0 PUSH20 0xFFFFFFFFFFFFFFFFFFFFFFFFFFFFFFFFFFFFFFFF AND PUSH32 0xDDF252AD1BE2C89B69C2B068FC378DAA952BA7F163C4A11628F55A4DF523B3EF DUP4 PUSH1 0x40 MLOAD DUP1 DUP3 DUP2 MSTORE PUSH1 0x20 ADD SWAP2 POP POP PUSH1 0x40 MLOAD DUP1 SWAP2 SUB SWAP1 LOG3 POP POP JUMP JUMPDEST PUSH1 0x0 DUP2 DUP4 LT PUSH2 0x38A6 JUMPI DUP2 PUSH2 0x38A8 JUMP JUMPDEST DUP3 JUMPDEST SWAP1 POP SWAP3 SWAP2 POP POP JUMP JUMPDEST PUSH2 0x3902 DUP2 PUSH1 0x1 PUSH1 0x0 DUP6 PUSH20 0xFFFFFFFFFFFFFFFFFFFFFFFFFFFFFFFFFFFFFFFF AND PUSH20 0xFFFFFFFFFFFFFFFFFFFFFFFFFFFFFFFFFFFFFFFF AND DUP2 MSTORE PUSH1 0x20 ADD SWAP1 DUP2 MSTORE PUSH1 0x20 ADD PUSH1 0x0 KECCAK256 SLOAD PUSH2 0x2EDF SWAP1 SWAP2 SWAP1 PUSH4 0xFFFFFFFF AND JUMP JUMPDEST PUSH1 0x1 PUSH1 0x0 DUP5 PUSH20 0xFFFFFFFFFFFFFFFFFFFFFFFFFFFFFFFFFFFFFFFF AND PUSH20 0xFFFFFFFFFFFFFFFFFFFFFFFFFFFFFFFFFFFFFFFF AND DUP2 MSTORE PUSH1 0x20 ADD SWAP1 DUP2 MSTORE PUSH1 0x20 ADD PUSH1 0x0 KECCAK256 DUP2 SWAP1 SSTORE POP PUSH2 0x395A DUP2 PUSH1 0x0 SLOAD PUSH2 0x2EDF SWAP1 SWAP2 SWAP1 PUSH4 0xFFFFFFFF AND JUMP JUMPDEST PUSH1 0x0 DUP2 SWAP1 SSTORE POP PUSH1 0x0 PUSH20 0xFFFFFFFFFFFFFFFFFFFFFFFFFFFFFFFFFFFFFFFF AND DUP3 PUSH20 0xFFFFFFFFFFFFFFFFFFFFFFFFFFFFFFFFFFFFFFFF AND PUSH32 0xDDF252AD1BE2C89B69C2B068FC378DAA952BA7F163C4A11628F55A4DF523B3EF DUP4 PUSH1 0x40 MLOAD DUP1 DUP3 DUP2 MSTORE PUSH1 0x20 ADD SWAP2 POP POP PUSH1 0x40 MLOAD DUP1 SWAP2 SUB SWAP1 LOG3 POP POP JUMP JUMPDEST PUSH1 0x0 PUSH15 0x10000000000000000000000000000 DUP3 PUSH14 0xFFFFFFFFFFFFFFFFFFFFFFFFFFFF AND MUL SWAP1 POP SWAP2 SWAP1 POP JUMP JUMPDEST PUSH1 0x0 DUP2 PUSH14 0xFFFFFFFFFFFFFFFFFFFFFFFFFFFF AND PUSH28 0xFFFFFFFFFFFFFFFFFFFFFFFFFFFFFFFFFFFFFFFFFFFFFFFFFFFFFFFF AND DUP4 PUSH28 0xFFFFFFFFFFFFFFFFFFFFFFFFFFFFFFFFFFFFFFFFFFFFFFFFFFFFFFFF AND DUP2 PUSH2 0x3A4C JUMPI INVALID JUMPDEST DIV SWAP1 POP SWAP3 SWAP2 POP POP JUMP JUMPDEST PUSH1 0x0 DUP3 DUP3 DUP5 ADD SWAP2 POP DUP2 LT ISZERO PUSH2 0x3AD2 JUMPI PUSH1 0x40 MLOAD PUSH32 0x8C379A000000000000000000000000000000000000000000000000000000000 DUP2 MSTORE PUSH1 0x4 ADD DUP1 DUP1 PUSH1 0x20 ADD DUP3 DUP2 SUB DUP3 MSTORE PUSH1 0x14 DUP2 MSTORE PUSH1 0x20 ADD DUP1 PUSH32 0x64732D6D6174682D6164642D6F766572666C6F77000000000000000000000000 DUP2 MSTORE POP PUSH1 0x20 ADD SWAP2 POP POP PUSH1 0x40 MLOAD DUP1 SWAP2 SUB SWAP1 REVERT JUMPDEST SWAP3 SWAP2 POP POP JUMP INVALID MSTORE8 PUSH2 0x6974 PUSH2 0x5377 PUSH2 0x703A KECCAK256 0x49 0x4E MSTORE8 SSTORE CHAINID CHAINID 0x49 NUMBER 0x49 GASLIMIT 0x4E SLOAD 0x5F 0x4C 0x49 MLOAD SSTORE 0x49 DIFFICULTY 0x49 SLOAD MSIZE 0x5F 0x4D 0x49 0x4E SLOAD GASLIMIT DIFFICULTY MSTORE8 PUSH2 0x6974 PUSH2 0x5377 PUSH2 0x703A KECCAK256 0x49 0x4E MSTORE8 SSTORE CHAINID CHAINID 0x49 NUMBER 0x49 GASLIMIT 0x4E SLOAD 0x5F 0x4C 0x49 MLOAD SSTORE 0x49 DIFFICULTY 0x49 SLOAD MSIZE MSTORE8 PUSH2 0x6974 PUSH2 0x5377 PUSH2 0x703A KECCAK256 0x49 0x4E MSTORE8 SSTORE CHAINID CHAINID 0x49 NUMBER 0x49 GASLIMIT 0x4E SLOAD 0x5F 0x49 0x4E POP SSTORE SLOAD 0x5F COINBASE 0x4D 0x4F SSTORE 0x4E SLOAD MSTORE8 PUSH2 0x6974 PUSH2 0x5377 PUSH2 0x703A KECCAK256 0x49 0x4E MSTORE8 SSTORE CHAINID CHAINID 0x49 NUMBER 0x49 GASLIMIT 0x4E SLOAD 0x5F 0x4C 0x49 MLOAD SSTORE 0x49 DIFFICULTY 0x49 SLOAD MSIZE 0x5F TIMESTAMP SSTORE MSTORE 0x4E GASLIMIT DIFFICULTY GASLIMIT 0x49 POP CALLDATACOPY BALANCE ORIGIN DIFFICULTY PUSH16 0x6D61696E28737472696E67206E616D65 0x2C PUSH20 0x7472696E672076657273696F6E2C75696E743235 CALLDATASIZE KECCAK256 PUSH4 0x6861696E 0x49 PUSH5 0x2C61646472 PUSH6 0x737320766572 PUSH10 0x6679696E67436F6E7472 PUSH2 0x6374 0x29 MSTORE8 PUSH2 0x6974 PUSH2 0x5377 PUSH2 0x703A KECCAK256 0x49 0x4E MSTORE8 SSTORE CHAINID CHAINID 0x49 NUMBER 0x49 GASLIMIT 0x4E SLOAD 0x5F 0x4F SSTORE SLOAD POP SSTORE SLOAD 0x5F COINBASE 0x4D 0x4F SSTORE 0x4E SLOAD LOG2 PUSH6 0x627A7A723158 KECCAK256 PUSH1 0x9E 0xB7 0xAF LOG2 PUSH3 0x6F3D96 PUSH15 0x2A33BB43D37FA1BBF1F934C0DF6E7F SWAP5 PUSH8 0x6EB2DC9FA664736F PUSH13 0x63430005100032454950373132 DIFFICULTY PUSH16 0x6D61696E28737472696E67206E616D65 0x2C PUSH20 0x7472696E672076657273696F6E2C75696E743235 CALLDATASIZE KECCAK256 PUSH4 0x6861696E 0x49 PUSH5 0x2C61646472 PUSH6 0x737320766572 PUSH10 0x6679696E67436F6E7472 PUSH2 0x6374 0x29 "
				},
				"gasEstimates": {
					"creation": {
						"codeDepositCost": "3077000",
						"executionCost": "infinite",
						"totalCost": "infinite"
					},
					"external": {
						"DOMAIN_SEPARATOR()": "1095",
						"MINIMUM_LIQUIDITY()": "250",
						"PERMIT_TYPEHASH()": "257",
						"SWAP_FEE_DENOMINATOR()": "1073",
						"SWAP_FEE_NUMERATOR()": "1094",
						"allowance(address,address)": "1355",
						"approve(address,uint256)": "22454",
						"balanceOf(address)": "1215",
						"burn(address)": "infinite",
						"decimals()": "285",
						"factory()": "1164",
						"getReserves()": "3016",
						"initialize(address,address)": "42918",
						"kLast()": "1095",
						"mint(address)": "infinite",
						"name()": "infinite",
						"nonces(address)": "1214",
						"permit(address,address,uint256,uint256,uint8,bytes32,bytes32)": "infinite",
						"price0CumulativeLast()": "1072",
						"price1CumulativeLast()": "1094",
						"skim(address)": "infinite",
						"swap(uint256,uint256,address,bytes)": "infinite",
						"symbol()": "infinite",
						"sync()": "infinite",
						"token0()": "1121",
						"token1()": "1097",
						"totalSupply()": "1095",
						"transfer(address,uint256)": "infinite",
						"transferFrom(address,address,uint256)": "infinite"
					},
					"internal": {
						"_mintFee(uint112,uint112)": "infinite",
						"_safeTransfer(address,address,uint256)": "infinite",
						"_update(uint256,uint256,uint112,uint112)": "infinite"
					}
				},
				"methodIdentifiers": {
					"DOMAIN_SEPARATOR()": "3644e515",
					"MINIMUM_LIQUIDITY()": "ba9a7a56",
					"PERMIT_TYPEHASH()": "30adf81f",
					"SWAP_FEE_DENOMINATOR()": "71ebeacc",
					"SWAP_FEE_NUMERATOR()": "bee62fc7",
					"allowance(address,address)": "dd62ed3e",
					"approve(address,uint256)": "095ea7b3",
					"balanceOf(address)": "70a08231",
					"burn(address)": "89afcb44",
					"decimals()": "313ce567",
					"factory()": "c45a0155",
					"getReserves()": "0902f1ac",
					"initialize(address,address)": "485cc955",
					"kLast()": "7464fc3d",
					"mint(address)": "6a627842",
					"name()": "06fdde03",
					"nonces(address)": "7ecebe00",
					"permit(address,address,uint256,uint256,uint8,bytes32,bytes32)": "d505accf",
					"price0CumulativeLast()": "5909c0d5",
					"price1CumulativeLast()": "5a3d5493",
					"skim(address)": "bc25cf77",
					"swap(uint256,uint256,address,bytes)": "022c0d9f",
					"symbol()": "95d89b41",
					"sync()": "fff6cae9",
					"token0()": "0dfe1681",
					"token1()": "d21220a7",
					"totalSupply()": "18160ddd",
					"transfer(address,uint256)": "a9059cbb",
					"transferFrom(address,address,uint256)": "23b872dd"
				}
			},
			"storageLayout": {
				"storage": [
					{
						"astId": 19,
						"contract": "contracts/SaitaSwapPair.sol:SaitaSwapPair",
						"label": "totalSupply",
						"offset": 0,
						"slot": "0",
						"type": "t_uint256"
					},
					{
						"astId": 23,
						"contract": "contracts/SaitaSwapPair.sol:SaitaSwapPair",
						"label": "balanceOf",
						"offset": 0,
						"slot": "1",
						"type": "t_mapping(t_address,t_uint256)"
					},
					{
						"astId": 29,
						"contract": "contracts/SaitaSwapPair.sol:SaitaSwapPair",
						"label": "allowance",
						"offset": 0,
						"slot": "2",
						"type": "t_mapping(t_address,t_mapping(t_address,t_uint256))"
					},
					{
						"astId": 31,
						"contract": "contracts/SaitaSwapPair.sol:SaitaSwapPair",
						"label": "DOMAIN_SEPARATOR",
						"offset": 0,
						"slot": "3",
						"type": "t_bytes32"
					},
					{
						"astId": 38,
						"contract": "contracts/SaitaSwapPair.sol:SaitaSwapPair",
						"label": "nonces",
						"offset": 0,
						"slot": "4",
						"type": "t_mapping(t_address,t_uint256)"
					},
					{
						"astId": 454,
						"contract": "contracts/SaitaSwapPair.sol:SaitaSwapPair",
						"label": "factory",
						"offset": 0,
						"slot": "5",
						"type": "t_address"
					},
					{
						"astId": 456,
						"contract": "contracts/SaitaSwapPair.sol:SaitaSwapPair",
						"label": "token0",
						"offset": 0,
						"slot": "6",
						"type": "t_address"
					},
					{
						"astId": 458,
						"contract": "contracts/SaitaSwapPair.sol:SaitaSwapPair",
						"label": "token1",
						"offset": 0,
						"slot": "7",
						"type": "t_address"
					},
					{
						"astId": 461,
						"contract": "contracts/SaitaSwapPair.sol:SaitaSwapPair",
						"label": "SWAP_FEE_NUMERATOR",
						"offset": 0,
						"slot": "8",
						"type": "t_uint256"
					},
					{
						"astId": 464,
						"contract": "contracts/SaitaSwapPair.sol:SaitaSwapPair",
						"label": "SWAP_FEE_DENOMINATOR",
						"offset": 0,
						"slot": "9",
						"type": "t_uint256"
					},
					{
						"astId": 466,
						"contract": "contracts/SaitaSwapPair.sol:SaitaSwapPair",
						"label": "reserve0",
						"offset": 0,
						"slot": "10",
						"type": "t_uint112"
					},
					{
						"astId": 468,
						"contract": "contracts/SaitaSwapPair.sol:SaitaSwapPair",
						"label": "reserve1",
						"offset": 14,
						"slot": "10",
						"type": "t_uint112"
					},
					{
						"astId": 470,
						"contract": "contracts/SaitaSwapPair.sol:SaitaSwapPair",
						"label": "blockTimestampLast",
						"offset": 28,
						"slot": "10",
						"type": "t_uint32"
					},
					{
						"astId": 472,
						"contract": "contracts/SaitaSwapPair.sol:SaitaSwapPair",
						"label": "price0CumulativeLast",
						"offset": 0,
						"slot": "11",
						"type": "t_uint256"
					},
					{
						"astId": 474,
						"contract": "contracts/SaitaSwapPair.sol:SaitaSwapPair",
						"label": "price1CumulativeLast",
						"offset": 0,
						"slot": "12",
						"type": "t_uint256"
					},
					{
						"astId": 476,
						"contract": "contracts/SaitaSwapPair.sol:SaitaSwapPair",
						"label": "kLast",
						"offset": 0,
						"slot": "13",
						"type": "t_uint256"
					},
					{
						"astId": 479,
						"contract": "contracts/SaitaSwapPair.sol:SaitaSwapPair",
						"label": "unlocked",
						"offset": 0,
						"slot": "14",
						"type": "t_uint256"
					}
				],
				"types": {
					"t_address": {
						"encoding": "inplace",
						"label": "address",
						"numberOfBytes": "20"
					},
					"t_bytes32": {
						"encoding": "inplace",
						"label": "bytes32",
						"numberOfBytes": "32"
					},
					"t_mapping(t_address,t_mapping(t_address,t_uint256))": {
						"encoding": "mapping",
						"key": "t_address",
						"label": "mapping(address => mapping(address => uint256))",
						"numberOfBytes": "32",
						"value": "t_mapping(t_address,t_uint256)"
					},
					"t_mapping(t_address,t_uint256)": {
						"encoding": "mapping",
						"key": "t_address",
						"label": "mapping(address => uint256)",
						"numberOfBytes": "32",
						"value": "t_uint256"
					},
					"t_uint112": {
						"encoding": "inplace",
						"label": "uint112",
						"numberOfBytes": "14"
					},
					"t_uint256": {
						"encoding": "inplace",
						"label": "uint256",
						"numberOfBytes": "32"
					},
					"t_uint32": {
						"encoding": "inplace",
						"label": "uint32",
						"numberOfBytes": "4"
					}
				}
			},
			"userdoc": {
				"methods": {}
			}
		}
	}
}